:020000041000EA
:1000000000B5324B212058609868022188439860DF
:10001000D860186158612E4B002199600221596106
:100020000121F02299502B49196001219960352056
:1000300000F044F80222904214D00621196600F024
:1000400034F8196E01211966002018661A6600F04E
:100050002CF8196E196E196E052000F02FF8012189
:100060000842F9D1002199601B49196000215960AB
:100070001A491B48016001219960EB211966A021F2
:10008000196600F012F800219960164914480160C1
:100090000121996001BC002800D000471248134993
:1000A000086003C880F30888084703B5996A0420EC
:1000B0000142FBD001200142F8D103BD02B5186610
:1000C0001866FFF7F2FF186E186E02BD00000240BE
:1000D000000000180000070000035F00212200005C
:1000E000F4000018222000A00001001008ED00E03C
:1000F00000000000000000000000000074B24E7A12
:1001000000200420F7010010C3010010C5010010F9
:10011000C1010010C1010010C1010010C101001097
:10012000C1010010C1010010C1010010C701001081
:10013000C1010010C1010010C9010010CB01001065
:10014000CD010010CD010010CD010010CD01001037
:10015000CD010010CD010010CD010010CD01001027
:10016000CD010010CD010010CD010010CD01001017
:10017000CD010010CD010010CD010010CD01001007
:10018000CD010010CD010010CD010010CD010010F7
:10019000CD010010CD010010CD010010CD010010E7
:1001A000CD010010CD010010CD010010CD010010D7
:1001B000CD010010CD010010CD010010CD010010C7
:1001C00000BE00BE00BE00BE00BE00BE00F04BF888
:1001D000103800BEF2EB8871E41F021008200210F4
:1001E0003402001090A31AE700202149086006C8D5
:1001F00081F3088810471F48006800282FD10DA4FC
:100200000ECC002902D000F012F8F9E71A491B4A77
:10021000002000E001C19142FCD1194988471949E9
:1002200088471949884700BEFDE701C901C29A42C3
:10023000FBD3704708200210C0000020D80E002019
:10024000202E02100000042000000420202E0210A6
:1002500000100420001004200000000070470B482C
:100260000EF088FF0047EFF30580C0B27047000032
:1002700008ED00E0000000D0D80E00203CE5002092
:10028000ADD40010EDA60010D1D5001057560000D7
:1002900006005250ABB36053781002100600525063
:1002A000861C030288100210060052505422A29DA0
:1002B0009010021005005250DE65F468202E0210E6
:1002C000F8B5C0460448054B10B5834203D0044B33
:1002D000002B00D0984710BDD80E0020D80E00206B
:1002E0000000000006480749091A8B10C90FC918F9
:1002F00010B5491003D0044B002B00D0984710BD17
:10030000D80E0020D80E00200000000010B5074CC9
:100310002378002B09D1FFF7D5FF054B002B02D026
:10032000044800E000BF0123237010BD0017002027
:1003300000000000508D0110054B10B5002B03D0BC
:100340000449054800E000BFFFF7CCFF10BDC046E0
:100350000000000004170020508D011070B504004B
:100360008089431CA38109F0E5FAC74B226A1B5C14
:10037000D31A2362FF2801D901F0E9F9C34B8000A9
:100380001B589F46E08809F0D5FA80214942014375
:10039000C9B2E08809F0BEFA70BD8023A2795B4241
:1003A0001343A371F8E78023E2795B421343E371BF
:1003B000F2E7802322795B4213432371ECE7802329
:1003C00062795B4213436371E6E78023A2785B4264
:1003D0001343A370E0E78023E2785B421343E370AA
:1003E000DAE74022637813436370D5E7E08809F0C9
:1003F000A1FA40210143C9B2E08809F08BFACBE7AA
:100400004022A3791343A371C6E74022E379134343
:10041000E371C1E74022237913432371BCE74022F3
:10042000637913436371B7E74022A3781343A37042
:10043000B2E74022E3781343E370ADE7202263780C
:1004400013436370A8E7E08809F074FA20210143A0
:10045000C9B2E08809F05EFA9EE72022A37913432F
:10046000A37199E72022E3791343E37194E72022F3
:100470002379134323718FE7202263791343637138
:100480008AE72022A3781343A37085E72022E3782C
:100490001343E37080E710226378134363707BE7B4
:1004A000E08809F047FA10210143C9B2E08809F059
:1004B00031FA71E71022A3791343A3716CE710227C
:1004C000E3791343E37167E7102223791343237120
:1004D00062E710226379134363715DE71022A3780A
:1004E0001343A37058E71022E3781343E37053E7F4
:1004F00008226378134363704EE7E08809F01AFA24
:1005000008210143C9B2E08809F004FA44E708224F
:10051000A3791343A3713FE70822E3791343E371FF
:100520003AE7082223791343237135E708226379D8
:100530001343637130E70822A3781343A3702BE7BA
:100540000822E3781343E37026E704226378134319
:10055000637021E7E08809F0EDF904210143C9B295
:10056000E08809F0D7F917E70422A3791343A371B0
:1005700012E70422E3791343E3710DE704222379A0
:100580001343237108E7042263791343637103E77C
:100590000422A3781343A370FEE60422E3781343F6
:1005A000E370F9E60222637813436370F4E6E088AF
:1005B00009F0C0F902210143C9B2E08809F0AAF9A3
:1005C000EAE60222A3791343A371E5E60222E37966
:1005D0001343E371E0E60222237913432371DBE640
:1005E0000222637913436371D6E60222A378134390
:1005F000A370D1E60222E3781343E370CCE6012234
:10060000637813436370C7E6E08809F093F901212A
:100610000143C9B2E08809F07DF9BDE60122A37962
:100620001343A371B8E60122E3791343E371B3E600
:100630000122237913432371AEE601226379134328
:100640006371A9E60122A3781343A370A4E60122F3
:10065000E3781343E3709FE67F236278134063706F
:100660009AE6E08809F066F97F210140E08809F008
:1006700051F991E67F23A2791340A3718CE67F2381
:10068000E2791340E37187E688AB0110888D011091
:100690007F232279134023717EE67F236279134002
:1006A000637179E67F23A2781340A37074E67F23F9
:1006B000E2781340E3706FE64022637893436370FF
:1006C0006AE6E08809F036F9BF210140E08809F0C8
:1006D00021F961E64022A3799343A3715CE64022AD
:1006E000E3799343E37157E64022237993432371DF
:1006F00052E640226379934363714DE64022A3782A
:100700009343A37048E64022E3789343E37043E6C3
:1007100020226378934363703EE6E08809F00AF98B
:10072000DF210140E08809F0F5F835E62022A379C1
:100730009343A37130E62022E3799343E3712BE6E0
:10074000202223799343237126E620226379934361
:10075000637121E62022A3789343A3701CE6202234
:10076000E3789343E37017E6102263789343637052
:1007700012E6E08809F0DEF8EF210140E08809F098
:10078000C9F809E61022A3799343A37104E6102265
:10079000E3799343E371FFE51022237993432371B7
:1007A000FAE51022637993436371F5E51022A3788B
:1007B0009343A370F0E51022E3789343E370EBE5F5
:1007C0000822637893436370E6E5E08809F0B2F8A5
:1007D000F7210140E08809F09DF8DDE50822A379C2
:1007E0009343A371D8E50822E3799343E371D3E5FA
:1007F0000822237993432371CEE50822637993433A
:100800006371C9E50822A3789343A370C4E5082265
:10081000E3789343E370BFE5042263789343637006
:10082000BAE5E08809F086F8FB210140E08809F08C
:1008300071F8B1E50422A3799343A371ACE50422D6
:10084000E3799343E371A7E504222379934323716A
:10085000A2E504226379934363719DE50422A378A2
:100860009343A37098E50422E3789343E37093E500
:1008700002226378934363708EE5E08809F05AF8AA
:10088000FD210140E08809F045F885E50222A379C1
:100890009343A37180E50222E3799343E3717BE5FF
:1008A000022223799343237176E5022263799343ED
:1008B000637171E50222A3789343A3706CE5022271
:1008C000E3789343E37067E50122637893436370B1
:1008D00062E5E08809F02EF8FE210140E08809F089
:1008E00019F859E50122A3799343A37154E5012234
:1008F000E3799343E3714FE5012223799343237115
:100900004AE5012263799343637145E50122A378A7
:100910009343A37040E50122E3789343E3703BE502
:100920007F236178227899437E3B1A40ED4B5B5CD4
:1009300013431022134323702EE5E08808F0FAFFDA
:1009400001232278134080221040E64A125C1343B0
:100950001022134323701FE57F23A1792278994346
:100960007E3B1A40DF4B5B5C134310221343237022
:1009700012E57F23E179227899437E3B1A40D94BD7
:100980005B5C134310221343237005E57F23217919
:10099000227899437E3B1A40D24B5B5C1343102272
:1009A00013432370F8E47F236179227899437E3BD7
:1009B0001A40CC4B5B5C1343102213432370EBE4CF
:1009C0007F23A178227899437E3B1A40C54B5B5C1C
:1009D0001343102213432370DEE47F23E17822784F
:1009E00099437E3B1A40BF4B5B5C13431022134379
:1009F0002370D1E4402163782278194001231A4002
:100A0000B84B5B5C1343102213432370C4E4E088AB
:100A100008F090FF01232278B2491340402202409F
:100A20008A5C1343102213432370B5E44021A37959
:100A30002278194001231A40AA4B5B5C1343102211
:100A400013432370A8E44021E3792278194001235D
:100A50001A40A44B5B5C13431022134323709BE4A6
:100A6000402123792278194001231A409D4B5B5C79
:100A700013431022134323708EE4402163792278BC
:100A8000194001231A40974B5B5C13431022134318
:100A9000237081E44021A3782278194001231A4071
:100AA000904B5B5C134310221343237074E440218A
:100AB000E3782278194001231A408A4B5B5C134388
:100AC00010221343237067E42021637822781940B1
:100AD00001231A40834B5B5C1343102213432370A2
:100AE0005AE4E08808F026FF012322787D4913406C
:100AF000202202408A5C13431022134323704BE4EC
:100B00002021A3792278194001231A40754B5B5CA0
:100B100013431022134323703EE42021E37922780B
:100B2000194001231A406F4B5B5C1343102213439F
:100B30002370FFF731FC202123792278194001230B
:100B40001A40684B5B5C1343102213432370FFF77A
:100B500023FC202163792278194001231A40614B3C
:100B60005B5C1343102213432370FFF715FC202115
:100B7000A3782278194001231A405A4B5B5C134337
:100B8000102213432370FFF707FC2021E37822781B
:100B9000194001231A40534B5B5C1343102213434B
:100BA0002370FFF7F9FB10216378227819400123A5
:100BB0001A404C4B5B5C1343102213432370FFF726
:100BC000EBFBE08808F0B6FE01232278454913408C
:100BD000102202408A5C1343102213432370FFF754
:100BE000DBFB1021A3792278194001231A403D4BE9
:100BF0005B5C1343102213432370FFF7CDFB1021DE
:100C0000E3792278194001231A40364B5B5C134389
:100C1000102213432370FFF7BFFB102123792278A2
:100C2000194001231A402F4B5B5C134310221343DE
:100C30002370FFF7B1FB102163792278194001235B
:100C40001A40284B5B5C1343102213432370FFF7B9
:100C5000A3FB1021A3782278194001231A40214BCD
:100C60005B5C1343102213432370FFF795FB1021A5
:100C7000E3782278194001231A401A4B5B5C134336
:100C8000102213432370FFF787FB08216378227833
:100C9000194001231A40134B5B5C1343102213438A
:100CA0002370FFF779FBE08808F044FE01232278E7
:100CB0000C491340082202408A5C1343102213435C
:100CC0002370FFF769FB0821A379227819400123DB
:100CD0001A40044B5B5C1343102213432370FFF74D
:100CE0005BFBC04688BF01100821E37922781940D8
:100CF00001231A40F54B5B5C13431022134323700E
:100D0000FFF74AFB082123792278194001231A4072
:100D1000EE4B5B5C1343102213432370FFF73CFB45
:100D2000082163792278194001231A40E74B5B5C64
:100D30001343102213432370FFF72EFB0821A378DF
:100D40002278194001231A40E04B5B5C13431022C8
:100D500013432370FFF720FB0821E3782278194022
:100D600001231A40D94B5B5C1343102213432370B9
:100D7000FFF712FB042163782278194001231A40FF
:100D8000D24B5B5C1343102213432370FFF704FB29
:100D9000E08808F0CFFD01232278CC4913400422DB
:100DA00002408A5C1343102213432370FFF7F4FAC6
:100DB0000421A3792278194001231A40C34B5B5CBC
:100DC0001343102213432370FFF7E6FA0421E3795B
:100DD0002278194001231A40BC4B5B5C134310225C
:100DE00013432370FFF7D8FA04212379227819409E
:100DF00001231A40B54B5B5C13431022134323704D
:100E0000FFF7CAFA042163792278194001231A40B6
:100E1000AE4B5B5C1343102213432370FFF7BCFA05
:100E20000421A3782278194001231A40A74B5B5C68
:100E30001343102213432370FFF7AEFA0421E37823
:100E40002278194001231A40A04B5B5C1343102207
:100E500013432370FFF7A0FA022163782278194028
:100E600001231A40994B5B5C1343102213432370F8
:100E7000FFF792FAE08808F05DFD0123227893499C
:100E80001340022202408A5C134310221343237052
:100E9000FFF782FA0221A3792278194001231A4030
:100EA0008A4B5B5C1343102213432370FFF774FAE1
:100EB0000221E3792278194001231A40834B5B5CBD
:100EC0001343102213432370FFF766FA022123799C
:100ED0002278194001231A407C4B5B5C134310229B
:100EE00013432370FFF758FA0221637922781940DF
:100EF00001231A40754B5B5C13431022134323708C
:100F0000FFF74AFA0221A3782278194001231A40F8
:100F10006E4B5B5C1343102213432370FFF73CFAC4
:100F20000221E3782278194001231A40674B5B5C69
:100F30001343102213432370FFF72EFA0123227864
:100F400061781A401940614B5B5C134310221343D4
:100F50002370FFF721FAE08808F0ECFC01222378E7
:100F60005A49134002408A5C1343102213432370F2
:100F7000FFF712FA01232278A1791A401940534B46
:100F80005B5C1343102213432370FFF705FA012320
:100F90002278E1791A4019404C4B5B5C13431022D4
:100FA00013432370FFF7F8F90123227821791A40BF
:100FB0001940464B5B5C1343102213432370FFF729
:100FC000EBF90123227861791A4019403F4B5B5CB1
:100FD0001343102213432370FFF7DEF90123227815
:100FE000A1781A401940394B5B5C1343102213431C
:100FF0002370FFF7D1F901232278E1781A401940D4
:10100000324B5B5C1343102213432370FFF7C4F988
:10101000012361784A080B402C4962708A5C1343B3
:101020002370FFF7B9F9E08808F084FC0123410838
:10103000264AC9B2525C03401343E088237008F08B
:1010400069FCFFF7A9F90123A1794A080B401F4960
:10105000A2718A5C13432370FFF79EF90123E179A3
:101060004A080B401949E2718A5C13432370FFF769
:1010700093F9012321794A080B40144922718A5CB3
:1010800013432370FFF788F9012361794A080B4065
:101090000E4962718A5C13432370FFF77DF90123C7
:1010A000A1784A080B400949A2708A5C1343237057
:1010B000FFF772F90123E1784A080B400349E27017
:1010C0008A5C13432370FFF767F9C04688BF01109D
:1010D000012163785A000A43F149D2B262708A5CF6
:1010E000DB0913432370FFF757F9E08808F022FC6F
:1010F000012341001943EA4BC9B25B5CC0091843A4
:101100002070E08808F006FCFFF746F90121A3797A
:101110005A000A43E249D2B2A2718A5CDB09134346
:101120002370FFF739F90121E3795A000A43DC49BA
:10113000D2B2E2718A5CDB0913432370FFF72CF90A
:10114000012123795A000A43D549D2B222718A5C1F
:10115000DB0913432370FFF71FF9012163795A005C
:101160000A43CF49D2B262718A5CDB091343237010
:10117000FFF712F90121A3785A000A43C849D2B2F5
:10118000A2708A5CDB0913432370FFF705F9012184
:10119000E3785A000A43C249D2B2E2708A5CDB09A2
:1011A00013432370FFF7F8F861787F230800984312
:1011B00001234A080B40BA49024362708A5C134318
:1011C0002370FFF7E9F8E08808F0B4FB7F23020002
:1011D0009A43012341081143B14AC9B2525C03400A
:1011E0001343E088237008F095FBFFF7D5F8A17949
:1011F0007F230800984301234A080B40A849024373
:10120000A2718A5C13432370FFF7C6F8E1797F234C
:101210000800984301234A080B40A1490243E271A8
:101220008A5C13432370FFF7B7F821797F23080006
:10123000984301234A080B409949024322718A5C72
:1012400013432370FFF7A8F861797F2308009843C0
:1012500001234A080B409249024362718A5C13439E
:101260002370FFF799F8A1787F23080098430123A2
:101270004A080B408A490243A2708A5C13432370D8
:10128000FFF78AF8E1787F230800984301234A0892
:101290000B4083490243E2708A5C13432370FFF7DB
:1012A0007BF863787E495A00D2B262708A5CDB09AF
:1012B00013432370FFF770F8E08808F03BFB784B8E
:1012C0004100C9B25B5CC00918432070E08808F097
:1012D00021FBFFF761F8A37971495A00D2B2A271DC
:1012E0008A5CDB0913432370FFF756F8E3796C49F6
:1012F0005A00D2B2E2718A5CDB0913432370FFF714
:101300004BF8237966495A00D2B222718A5CDB0914
:1013100013432370FFF740F8637961495A00D2B252
:1013200062718A5CDB0913432370FFF735F8A378F9
:101330005B495A00D2B2A2708A5CDB091343237066
:10134000FFF72AF8E37856495A00D2B2E2708A5C75
:10135000DB0913432370FFF71FF86378DA0700D423
:101360003CE222785B08D20113434D4ADBB2637042
:10137000D35C012213432370FFF70EF8E08808F0D6
:10138000D9FA2178C901C30700D40BE20122400831
:10139000434B0143C9B25B5C1343DBB2E08823706B
:1013A00008F0B8FAFEF7F8FFE08808F0C3FA012366
:1013B00003404108D8010143394AC9B2525CE08870
:1013C0001343237008F0A6FAFEF7E6FFE08808F062
:1013D000B1FA012123781940030600D565E24000E7
:1013E0002F4B0143C9B25B5CE088237008F092FA8E
:1013F000FEF7D2FF0623E356A2792178002B00DA0C
:1014000046E2012352000B401343254ADBB2A3718D
:10141000D35C2370FEF7C0FFE08808F08BFAC309A5
:10142000DBB2410019431E4AC9B2525CE088134343
:10143000237008F06FFAFEF7AFFF6379DA0700D484
:10144000A5E122785B08D2011343154ADBB2637130
:10145000D35C012213432370FEF79EFFA378DA07C3
:1014600000D4A5E122785B08D20113430C4ADBB219
:10147000A370D35C012213432370FEF78DFFE37842
:10148000DA0700D49FE122785B08D2011343044AB3
:10149000DBB2E370D35C012213432370FEF77CFFC1
:1014A00088BF01100123E35662782178002B00DA0F
:1014B000C2E1012352000B401343F34ADBB26370D5
:1014C000D35C2370FEF768FFE379DA0700D490E17C
:1014D00022785B08D2011343EB4ADBB2E371D35CA1
:1014E000012213432370FEF757FFA379DA0700D4D4
:1014F0008AE122785B08D2011343E34ADBB2A3718D
:10150000D35C012213432370FEF746FF2379DA07E9
:1015100000D431E122785B08D2011343DA4ADBB20E
:101520002371D35C012213432370FEF735FF05239B
:10153000E35662792178002B00DABEE101235200E4
:101540000B401343D04ADBB26371D35C2370FEF7C8
:1015500023FF0723E356E2792178002B00DA78E1B4
:10156000012352000B401343C74ADBB2E371D35C43
:101570002370FEF711FF0323E356E2782178002B56
:1015800000DAA7E1012352000B401343BE4ADBB24D
:10159000E370D35C2370FEF7FFFE0423E356227949
:1015A0002178002B00DA3AE1012352000B4013436B
:1015B000B54ADBB22371D35C2370FEF7EDFE022344
:1015C000E356A2782178002B00DA4FE10123520084
:1015D0000B401343AC4ADBB2A370D35C2370FEF71D
:1015E000DBFE012263781A40D1015B080B43A64958
:1015F0006370CB5C1A432270FEF7CEFE0122637942
:101600001A40D1015B080B439F496371CB5C1A43BD
:101610002270FEF7C1FE0122A3781A40D1015B08B7
:101620000B439949A370CB5C1A432270FEF7B4FEBA
:101630000122E3781A40D1015B080B439249E37021
:10164000CB5C1A432270FEF7A7FE63788E49DA0955
:101650005B001343DBB26370CB5C1A432270FEF76E
:101660009BFE0122E3791A40D1015B080B438649B6
:10167000E371CB5C1A432270FEF78EFE01222379C0
:101680001A40D1015B080B437F492371CB5C1A439D
:101690002270FEF781FE0122A3791A40D1015B0876
:1016A0000B437949A371CB5C1A432270FEF774FE99
:1016B00063797549DA095B001343DBB26371CB5C74
:1016C0001A432270FEF768FEA3786F49DA095B00BF
:1016D0001343DBB2A370CB5C1A432270FEF75CFEAF
:1016E000E3786949DA095B001343DBB2E370CB5C52
:1016F0001A432270FEF750FE802362785B42134348
:101700006370FEF749FEE3795F49DA095B00134332
:10171000DBB2E371CB5C1A432270FEF73DFE237906
:101720005949DA095B001343DBB22371CB5C1A43DE
:101730002270FEF731FEA3795349DA095B001343A7
:10174000DBB2A371CB5C1A432270FEF725FE2B237C
:10175000E35C002B01D1FEF71FFEA089256B013849
:1017600080B208F0E7F8A38902002900023B47484D
:101770000EF07EFFFEF710FE22785B08D2011343C5
:10178000414ADBB22371D35C2370FEF705FE227859
:101790005B08D20113433C4ADBB26371D35C237014
:1017A000FEF7FAFD4008384B0143C9B25B5CF5E532
:1017B00022785B08D2011343334ADBB2A370D35CB7
:1017C0002370FEF7E9FD22785B08D20113432E4A0D
:1017D000DBB2E370D35C2370FEF7DEFD22785B089A
:1017E000D2011343284ADBB26370D35C2370FEF747
:1017F000D3FD22785B08D2011343234ADBB2E371A5
:10180000D35C2370FEF7C8FD22785B08D201134336
:101810001D4ADBB2A371D35C2370FEF7BDFD01232B
:1018200052000B401A43184BD2B29B5C227101222A
:1018300013432370FEF7B0FD012352000B401A43FF
:10184000114BD2B29B5C6270012213432370FEF7EE
:10185000A3FD012352000B401A430B4BD2B29B5CF9
:10186000E271012213432370FEF796FD012352001B
:101870000B401A43044BD2B29B5CA270012213436B
:101880002370FEF789FDC04688BF0110508D0110FE
:10189000012352000B401A43154BD2B29B5CA2713C
:1018A000012213432370FEF777FD01224000104B05
:1018B0000143C9B25B5C134396E5012352000B4020
:1018C0001A430B4BD2B29B5C62710122134323700B
:1018D000FEF762FD012352000B401A43044BD2B2C3
:1018E0009B5CE270012213432370FEF755FDC04656
:1018F00088BF011070B50400808982B0431CA381A9
:1019000008F018F8CD4B226A1B5CD31A2362FF281B
:1019100001D901F009FFCA4A80001258974622787F
:101920006378D10702D5802149000B43D10602D547
:10193000802189000B43920702D58022D2001343F5
:10194000C04A5B009B5A238002B070BDA389013B53
:10195000A381F9E72278D20701D502F011F8A38913
:101960000233A381F0E7A089431CA38107F0E2FFC3
:10197000FF2223889343184380B208F02DF860704B
:10198000E2E76388628A63826280A388A28AA38274
:10199000A280E388E28AE382E280D5E72278D20758
:1019A000D2D5E089063B2362431CE38107F0C2FFE6
:1019B0002073E089431CE38107F0BCFF6073C3E739
:1019C0002378DB07CBD5A089431CA38107F0B2FFA6
:1019D0000500A08907F0AEFF0302FF20284018434E
:1019E000A081B1E7E089617B013880B2E08107F036
:1019F00091FFE089217B013880B2E08107F08AFF06
:101A00001023A381A0E7A089431CA38107F092FFC4
:101A1000042365782A1AD1B268404D40C6B22840E6
:101A200040B24011034088484E40405C12040343DA
:101A30001020120E3040524203431343022213433C
:101A40002370617080E7E0896179013880B2E081BC
:101A500007F060FFE0892179013880B2E08107F06A
:101A600059FF71E72278D20700D578E7A089073BB4
:101A70002362431CA38107F05DFF0600A089FF25B8
:101A8000431CA38107F056FF354000020543E0895F
:101A9000617B013880B2E08107F03CFFE089217B67
:101AA000013880B2E08107F035FFA5814CE7A089BD
:101AB000431CA38107F03EFFFF22238861789343F4
:101AC000184380B207F04AFF3EE72378DB0700D5D2
:101AD00045E778E7E089431CE38107F02BFF20719D
:101AE000E089431CE38107F025FF60712CE7227831
:101AF000D20700D528E7E089063B2362431CE38137
:101B000007F018FF2073E089431CE38107F012FF00
:101B1000607319E7E089617B013880B2E08107F0EA
:101B2000F9FEE089217B013880B2E08107F0F2FE06
:101B30000823A38108E7A089431CA38107F0FAFECC
:101B40000122237861781A4052181218D5B2414008
:101B50006840C3B20420C9B28B435B1103406940A3
:101B60000C30014038481204405D120E014311430D
:101B7000194321706570E7E6A089431CA38107F033
:101B8000D9FE0500A089431CA38107F0D3FEFF23E3
:101B900000021D400543E089617B013880B2E0818D
:101BA00007F0B8FEE089217B013880B2E08107F0C0
:101BB000B1FEA581C8E62278520600D4CFE6A089FE
:101BC000073B2362431CA38107F0B4FE0600A089F3
:101BD000FF25431CA38107F0ADFE354000020543FD
:101BE000E089617B013880B2E08107F093FEE089F3
:101BF000217B013880B2E08107F08CFEA581A3E64D
:101C0000A0892589431CA38107F094FE40B22D18BA
:101C1000A089ADB2431CA38107F08CFE0B4B226A56
:101C20001B5C0638D31AC0B22362F82801D901F030
:101C300090FD074B80001B589F46C04688AD0110A1
:101C40000092011088AF011088C0011088AE011009
:101C50000096011023785B0600D480E6B3E6E089A5
:101C6000431CE38107F066FE2073E089431CE38197
:101C700007F060FE607367E62278520600D463E6E0
:101C8000E089063B2362431CE38107F053FE207387
:101C9000E089431CE38107F04DFE607354E6E08960
:101CA000617B013880B2E08107F034FEE089217B5E
:101CB000013880B2E08107F02DFE0023A38143E6C6
:101CC000A089431CA38107F035FE62781118CDB2BC
:101CD00042406840C3B20420D2B293435B11034038
:101CE0006A400C300904090E02400A43E04965705D
:101CF000495D0A431A43227026E6E089E1780138FB
:101D000080B2E08107F006FEE089A178013880B258
:101D1000E08107F0FFFD17E62278520600D51EE6A7
:101D2000A089073B2362431CA38107F003FE060042
:101D3000A089FF25431CA38107F0FCFD354000026C
:101D40000543E089617B013880B2E08107F0E2FD64
:101D5000E089217B013880B2E08107F0DBFDA581BD
:101D6000F2E5A089431CA38107F0E4FD0500A089EA
:101D700007F0E0FD0302FF2028401843A081E3E5BF
:101D800023785B0600D5EAE51DE6E089431CE38184
:101D900007F0D0FDA070E089431CE38107F0CAFD85
:101DA000E070D1E52278520600D5CDE5E089063B0A
:101DB0002362431CE38107F0BDFD2073E089431CCF
:101DC000E38107F0B7FD6073BEE542232370BBE5F6
:101DD000A0892589431CA38107F0ACFD40B22818D7
:101DE00080B207F0A7FD042361780A1AD6B24840F2
:101DF0007140C5B2084040B29D4940110340885D22
:101E000075400343102012042840120E524203432F
:101E1000134302221343237096E504236278207A49
:101E2000111ACDB250406A40024052B252111340D2
:101E30008F4A6840525D0904134310221040022269
:101E4000090E034349420B43134323707CE50423EB
:101E50006278607A111ACDB250406A40024052B2A4
:101E600052111340824A6840525D09041343102204
:101E700010400222090E034349420B4313432370CF
:101E800062E5042362782079111ACDB250406A408D
:101E9000024052B252111340754A6840525D090423
:101EA0001343102210400222090E034349420B4300
:101EB0001343237048E5042362786079111ACDB288
:101EC00050406A40024052B252111340684A684082
:101ED000525D09041343102210400222090E0343ED
:101EE00049420B43134323702EE504236278A07804
:101EF000111ACDB250406A40024052B25211134002
:101F00005B4A6840525D09041343102210400222CC
:101F1000090E034349420B431343237014E5042382
:101F20006278E078111ACDB250406A40024052B255
:101F3000521113404E4A6840525D09041343102267
:101F400010400222090E034349420B4313432370FE
:101F5000FAE46378474AD35C2370F5E4A0892589C5
:101F6000431CA38107F0E6FC40B2281880B207F0BA
:101F7000E1FC63783F4A1843C0B2135C6070237081
:101F8000E2E46378227A13433A4A6370D35C2370A5
:101F9000DAE46378627A1343364A6370D35C237061
:101FA000D2E4637822791343324A6370D35C23709E
:101FB000CAE46378627913432E4A6370D35C23705A
:101FC000C2E46378A27813432A4A6370D35C237017
:101FD000BAE46378E2781343264A6370D35C2370D3
:101FE000B2E444232380AFE4A0892589431CA38164
:101FF00007F0A0FC40B2281880B207F09BFC637881
:102000001C4A5840C0B2135C607023709CE4637833
:10201000227A5340174A6370D35C237094E4637848
:10202000627A5340134A6370D35C23708CE4637804
:10203000227953400F4A6370D35C237084E4637841
:10204000627953400B4A6370D35C23707CE46378FD
:10205000A2785340074A6370D35C237074E46378BA
:10206000E2785340034A6370D35C23706CE4C0464B
:1020700088C0011088BF0110ED4A6378D35C10223C
:102080001343237060E4A0892589431CA38107F0D2
:1020900051FC40B2281880B207F04CFC1022637843
:1020A0001840E34B60701B5C13432370FFF74CFC3C
:1020B0006278237A1340DE4A6370D35C10221343A4
:1020C0002370FFF741FC6278637A1340D84A63704B
:1020D000D35C102213432370FFF736FC6278237918
:1020E0001340D34A6370D35C102213432370FFF76D
:1020F0002BFC627863791340CD4A6370D35C102265
:1021000013432370FFF720FC6278A3781340C84A7A
:102110006370D35C102213432370FFF715FC6278C1
:10212000E3781340C24A6370D35C102213432370D8
:10213000FFF70AFC10202378DB07DB179BB21A0A93
:10214000D9B2524203401343BA4A6170525C1343FE
:10215000022213432370FFF7F7FBA0892589431C54
:10216000A38107F0E7FB40B2281880B207F0E2FB3A
:102170000123227865781340EB1A1B1ADAB2684003
:102180005540C1B22840042540B21B0440111B0E2B
:1021900028405B420343A7485140805C6270034380
:1021A0000800102101400B4302210B432370FFF76D
:1021B000CBFB01202378627818400423257A511B39
:1021C000081AC1B255404A402A4052B25211134037
:1021D0000004984A000E525C40420343134310220D
:1021E0004D40154002222B43134323706170FFF7CB
:1021F000ABFB01202378627818400423657A511BD9
:10220000081AC1B255404A402A4052B252111340F6
:102210000004884A000E525C4042034313431022DC
:102220004D40154002222B43134323706170FFF78A
:102230008BFB012023786278184004232579511BF9
:10224000081AC1B255404A402A4052B252111340B6
:102250000004784A000E525C4042034313431022AC
:102260004D40154002222B43134323706170FFF74A
:102270006BFB012023786278184004236579511B99
:10228000081AC1B255404A402A4052B25211134076
:102290000004684A000E525C40420343134310227C
:1022A0004D40154002222B43134323706170FFF70A
:1022B0004BFB01202378627818400423A578511B3A
:1022C000081AC1B255404A402A4052B25211134036
:1022D0000004584A000E525C40420343134310224C
:1022E0004D40154002222B43134323706170FFF7CA
:1022F0002BFB01202378627818400423E578511BDA
:10230000081AC1B255404A402A4052B252111340F5
:102310000004484A000E525C40420343134310221B
:102320004D40154002222B43134323706170FFF789
:102330000BFB42232380FFF707FBA0892589431C61
:10234000A38107F0F7FA40B2281880B207F0F2FA3A
:10235000042365782A1AD1B268404D40C6B228409D
:1023600040B24011034033484E40405C12040343E6
:102370001020120E304052420343134302221343F3
:1023800023706170FFF7E0FA04236278257A501B0E
:10239000C1B255404A402A4052B252111340254A18
:1023A0004D40525C00041343102215400222000EDF
:1023B0002B4340420343134323706170FFF7C4FA79
:1023C00004236278657A501BC1B255404A402A40C6
:1023D00052B252111340174A4D40525C000413434D
:1023E000102215400222000E2B43404203431343A8
:1023F00023706170FFF7A8FA042362782579501BD7
:10240000C1B255404A402A4052B252111340094AC3
:102410004D40525C00041343102215400222000E6E
:102420002B4340420343134323706170FFF78CFA40
:1024300088BF011088C00110042362786579501BA1
:10244000C1B255404A402A4052B252111340F94A93
:102450004D40525C00041343102215400222000E2E
:102460002B4340420343134323706170FFF76CFA20
:1024700004236278A578501BC1B255404A402A40D7
:1024800052B252111340EB4A4D40525C00041343C8
:10249000102215400222000E2B43404203431343F7
:1024A00023706170FFF750FA04236278E578501BBF
:1024B000C1B255404A402A4052B252111340DD4A3F
:1024C0004D40525C00041343102215400222000EBE
:1024D0002B4340420343134323706170FFF734FAE8
:1024E0000122617823781A404B00D2181023D0B211
:1024F0001340120A1343CF4A4140125C49B21343BE
:102500000422491111400B4323706070FFF71CFA3D
:10251000A0892589431CA38107F00CFA40B2281832
:1025200080B207F007FA0122237861781A40521826
:102530001218D5B241406840C3B20420C9B28B43DF
:102540005B11034069400C300140BA481204405D01
:10255000120E01431143194321706570FFF7F4F91E
:1025600001226178237A20780240C81812180420CA
:10257000D5B259406B408B435B1169400340080062
:1025800010210140AB48120A405D657001430A43C7
:102590001A432270FFF7D8F901226178637A207814
:1025A0000240C81812180420D5B259406B408B4322
:1025B0005B11694003400800102101409D48120A48
:1025C000405D657001430A431A432270FFF7BCF96E
:1025D00001226178237920780240C818121804205B
:1025E000D5B259406B408B435B11694003400800F2
:1025F000102101408F48120A405D657001430A4373
:102600001A432270FFF7A0F90122617863792078DC
:102610000240C81812180420D5B259406B408B43B1
:102620005B11694003400800102101408148120AF3
:10263000405D657001430A431A432270FFF784F935
:1026400001226178A37820780240C818121804206B
:10265000D5B259406B408B435B1169400340080081
:10266000102101407348120A405D657001430A431E
:102670001A432270FFF768F901226178E378207825
:102680000240C81812180420D5B259406B408B4341
:102690005B11694003400800102101406548120A9F
:1026A000405D657001430A431A432270FFF74CF9FD
:1026B000102362785100C8B20B40090A0B435D49F0
:1026C0004240095C52B20B43042152110A401343A9
:1026D00023706070FFF738F9A0892589431CA38116
:1026E00007F028F940B2281880B207F023F9627881
:1026F0001118CDB242406840C3B20420D2B2934315
:102700005B1103406A400C300904090E02400A4381
:1027100048496570495D0A431A432270FFF714F96E
:1027200004226178237ACD18E8B2594043408B43A4
:102730005B11134041400C320A403E492D0A095CAE
:102740002A430A431A4322706070FFF7FDF80422FF
:102750006178637ACD18E8B2594043408B435B11EE
:10276000134041400C320A4032492D0A095C2A4389
:102770000A431A4322706070FFF7E6F8042261787A
:102780002379CD18E8B2594043408B435B11134085
:1027900041400C320A4027492D0A095C2A430A436A
:1027A0001A4322706070FFF7CFF8042261786379D2
:1027B000CD18E8B2594043408B435B111340414070
:1027C0000C320A401B492D0A095C2A430A431A436A
:1027D00022706070FFF7B8F804226178A378CD18F2
:1027E000E8B2594043408B435B11134041400C32E7
:1027F0000A4010492D0A095C2A430A431A432270F1
:102800006070FFF7A1F804226178E378CD18E8B290
:10281000594043408B435B11134041400C320A4006
:1028200004492D0A095C2A430A431A432270607046
:10283000FFF78AF888C00110A0892589431CA3816D
:1028400007F078F840B2281880B207F073F860708B
:10285000FFF77AF8237A6370FFF776F8637A63708C
:10286000FFF772F823796370FFF76EF8637963708E
:10287000FFF76AF8A3786370FFF766F8E378637090
:10288000FFF762F8A0892589431CA38107F052F85D
:1028900040B22818617880B207F03CF8FFF754F88E
:1028A000A389227E013BA38180235B4213432376CD
:1028B000002363622362FFF747F8A0892589431C40
:1028C000A38107F037F840B22818A17980B207F049
:1028D00021F8FFF739F8A0892589431CA38107F067
:1028E00029F840B22818E17980B207F013F8FFF711
:1028F0002BF8A0892589431CA38107F01BF840B25F
:102900002818217980B207F005F8FFF71DF8A08993
:102910002589431CA38107F00DF840B2281861797E
:1029200080B206F0F7FFFFF70FF8A0892589431C56
:10293000A38106F0FFFF40B22818A17880B206F00C
:10294000E9FFFFF701F8A0892589431CA38106F060
:10295000F1FF40B22818E17880B206F0DBFFFEF705
:10296000F3FF63782372FEF7EFFFA0892589431CEC
:10297000A38106F0DFFF40B2281880B206F0DAFF2C
:10298000A071FEF7E1FF637A2372FEF7DDFF237982
:102990002372FEF7D9FF63792372FEF7D5FFA37880
:1029A0002372FEF7D1FFE3782372FEF7CDFF637841
:1029B0006372FEF7C9FFA0892589431CA38106F035
:1029C000B9FF40B2281880B206F0B4FFE071FEF7FC
:1029D000BBFF237A6372FEF7B7FF23796372FEF7BA
:1029E000B3FF63796372FEF7AFFFA3786372FEF7FC
:1029F000ABFFE3786372FEF7A7FF63782371FEF7FE
:102A0000A3FFA0892589431CA38106F093FF40B250
:102A1000281880B206F08EFF2071FEF795FF237A0A
:102A20002371FEF791FF637A2371FEF78DFF6379BF
:102A30002371FEF789FFA3782371FEF785FFE37802
:102A40002371FEF781FF63786371FEF77DFFA08934
:102A50002589431CA38106F06DFF40B2281880B27F
:102A600006F068FF6071FEF76FFF237A6371FEF76F
:102A70006BFF637A6371FEF767FF23796371FEF77B
:102A800063FFA3786371FEF75FFFE3786371FEF77E
:102A90005BFF6378A370FEF757FFA0892589431C6D
:102AA000A38106F047FF40B2281880B206F042FF2B
:102AB000A070FEF749FF237AA370FEF745FF637A03
:102AC000A370FEF741FF2379A370FEF73DFF637902
:102AD000A370FEF739FFE378A370FEF735FF637844
:102AE000E370FEF731FFA0892589431CA38106F01E
:102AF00021FF40B2281880B206F01CFFE070FEF7FC
:102B000023FF237AE370FEF71FFF637AE370FEF77B
:102B10001BFF2379E370FEF717FF6379E370FEF77D
:102B200013FFA378E370FEF70FFF0123ED21227856
:102B300053400B40D20701D5102213432370FEF7F8
:102B400003FFA089431CA38106F0F4FE6070FEF72A
:102B5000FBFE2278520601D400F006FFA389013360
:102B6000A381FEF7F1FE607823784108DA01114372
:102B700013229343123A0240134361702370FEF70D
:102B8000E3FE2278D207E9D4053B2362A08906F050
:102B9000D1FEA28943B20133D318A381FEF7D4FE3C
:102BA00063781222DB436370237813432370FEF7AC
:102BB000CBFEA089431CA38106F0BCFE2072FEF769
:102BC000C3FE0122237A2178013B0A40E749DBB2A8
:102BD000C95C23720A437F2B01D100F092FEDB43D4
:102BE0001B0701D101F059F802231A432270FEF7A6
:102BF000ABFE0123227A217801320B40DB49D2B2AD
:102C0000895C22720B435BB2802A01D100F098FEEE
:102C1000120701D100F0BAFD2370FEF795FE23895B
:102C2000013B2381FEF790FEA089FF25431CA38171
:102C300006F080FE0600A0893540431CA38106F003
:102C400079FE00020543ADB2280006F073FE01359F
:102C50002072A8B206F06EFE6072FEF775FE1320B9
:102C600022892378520091B2834312141343102215
:102C700008120240134323702181FEF765FE22787B
:102C8000520600D46AE7053B2362A08906F052FE93
:102C9000A28943B20133D318A381FEF755FEA08960
:102CA000431CA38106F046FE6072FEF74DFE012232
:102CB000637A2178013B0A40AC49DBB2C95C63729C
:102CC0000A437F2B01D100F018FEDB431B0701D123
:102CD00000F0CEFF02231A432270FEF735FE0123D7
:102CE000627A217801320B40A049D2B2895C6272CB
:102CF0000B435BB2802A01D100F031FE120701D1F3
:102D000000F049FD2370FEF71FFE23890133238164
:102D1000FEF71AFEA089FF25431CA38106F00AFED8
:102D20000600A0893540431CA38106F003FE000283
:102D30000543ADB22800217A013506F0EBFD617A3A
:102D4000A8B206F0E7FDFEF7FFFDA089431CA381B2
:102D500006F0F0FD2072A089431CA38106F0EAFD75
:102D60006072FEF7F1FD2278D20700D4F6E6053B4B
:102D70002362A08906F0DEFDA28943B20133D31895
:102D8000A381FEF7E1FD122223789343012213432E
:102D90002370FEF7D9FDA0892589431CA38106F085
:102DA000C9FD40B22D18A089ADB2431CA38106F025
:102DB000C1FD0100280006F0ADFDFEF7C5FDA089AC
:102DC000258906F0B7FD40B2281880B206F0B2FDA2
:102DD0000123227801381340644AC5B2525D13437F
:102DE0007F2D01D100F081FDEA43120701D100F0EF
:102DF00043FF0222A08913432370431CA381268929
:102E000006F098FD40B23018290080B206F082FD2D
:102E1000FEF79AFDA089258906F08CFD40B228189E
:102E200080B206F087FD01232278013013404F4A1B
:102E3000C5B2525D13435BB2802D01D100F059FD44
:102E40002A0701D100F0CAFDA0892370431CA38189
:102E5000268906F06FFD40B23018290080B206F0D6
:102E600059FDFEF771FDE3890133E381FEF76CFD47
:102E7000A089431CA38106F05DFD0500A089431CC9
:102E8000A38106F057FD0302FF2028401843617814
:102E900080B206F03FFDFEF757FDA089431CA381D9
:102EA00006F048FDA073A089431CA38106F042FDF3
:102EB000E073FEF749FD01236278217801320B406F
:102EC0002A49D2B2895C62700B435BB2802A01D17D
:102ED00000F040FD120701D100F076FC2370FEF7F0
:102EE00033FDE389013BE381FEF72EFDA089431CFE
:102EF000A38106F01FFD0500A089431CA38106F0F5
:102F000019FD0302FF202840184380B206F012FD8D
:102F10006070FEF719FD13262389E5892278591977
:102F200088B2B24309140A4310216B4043401B127C
:102F30000B40134323702081FEF706FD01226378C6
:102F40002178013B0A400949DBB2C95C63700A433E
:102F50007F2B01D100F0D9FCDB431B0701D100F02E
:102F6000A0FE02231A432270FEF7EEFC88C0011077
:102F7000E089617B013880B2E08106F0CBFCE0891A
:102F8000217B013880B2E08106F0C4FC3823A381A4
:102F9000FEF7DAFCA089431CA38106F0CBFC0423D6
:102FA00061780A1AD6B248407140C5B2084040B2B2
:102FB000DB4940110340885D754003431020120433
:102FC0002840120E5242034313430222134323703C
:102FD000FEF7BAFCE278013AD2B2E270002A01D0E0
:102FE00000F0F0FCA3890133A381FEF7ADFC0120C2
:102FF0000500627815405108104201D08023194322
:1030000013222378617093432B432370FEF79CFCBB
:10301000A089431CA38106F08DFCA070FEF794FCF0
:103020000122A3782178013B0A40BD49DBB2C95C8B
:10303000A3700A437F2B01D100F06BFCDB431B071D
:1030400001D100F023FE02231A432270FEF77CFC1C
:103050000123A278217801320B40B149D2B2895CB8
:10306000A2700B435BB2802A01D100F05EFC120714
:1030700000D195E32370FEF767FC6388013B638012
:10308000FEF762FCA089431CA38106F053FC637821
:10309000A44A5840C0B2135C60702370FEF754FC21
:1030A0002278520701D4FEF75AFCA089073B23621D
:1030B000431CA38106F03EFC0600A089FF25431CAB
:1030C000A38106F037FC354000020543E089617BAF
:1030D000013880B2E08106F01DFCE089217B0138D7
:1030E00080B2E08106F016FCA581FEF72DFCA388D6
:1030F000E288E380A280FEF727FC23785B0701D4F7
:10310000FEF72DFCFEF75FFC2389A381FEF71CFC74
:103110002278520701D4FEF717FCE089063B2362B0
:10312000431CE38106F006FC2073E089431CE38125
:1031300006F000FC6073FEF707FCE089617B013854
:1031400080B2E08106F0E6FBE089217B013880B2A5
:10315000E08106F0DFFB2023A381FEF7F5FBA089C9
:10316000431CA38106F0E6FB1022637818406D4BE8
:1031700060701B5C13432370FEF7E6FBE089617A05
:10318000013880B2E08106F0C5FBE089217A013880
:1031900080B2E08106F0BEFBFEF7D6FB2278520734
:1031A00001D5FEF7DCFBA089073B2362431CA3810A
:1031B00006F0C0FB0600A089FF25431CA38106F092
:1031C000B9FB354000020543E089617B013880B2DC
:1031D000E08106F09FFBE089217B013880B2E0812D
:1031E00006F098FBA581FEF7AFFBE08906F0A2FB95
:1031F0000600E089217A431CE38106F08BFBE0891D
:1032000006F098FBFF25000235400543E089617A0E
:10321000431EE38106F07EFB2581FEF795FB2378B4
:103220005B0701D5FEF79BFBFEF7CDFBE089431C56
:10323000E38106F07FFB2072E089431CE38106F006
:1032400079FB6072FEF780FB2278520701D5FEF70A
:103250007BFBE089063B2362431CE38106F06AFBAB
:103260002073E089431CE38106F064FB6073FEF782
:103270006BFBE089617B013880B2E08106F04AFB9C
:10328000E089217B013880B2E08106F043FB1823FE
:10329000A381FEF759FBA089431CA38106F04AFBDA
:1032A0000123227865781340EB1A1B1ADAB26840C2
:1032B0005540C1B22840042540B21B0440111B0EEA
:1032C00028405B42034316485140805C62700343D0
:1032D0000800102101400B4302210B432370FEF72D
:1032E00033FBA089431CA38106F024FB63780D4ABD
:1032F0001843C0B2135C60702370FEF725FBE089B1
:103300006178013880B2E08106F004FBE089217821
:10331000013880B2E08106F0FDFAFEF715FBC046E9
:1033200088C0011088BF011022787F2A01D9FEF7DA
:1033300016FBA089073B2362431CA38106F0FAFA1F
:103340000600A089FF25431CA38106F0F3FA35404F
:1033500000020543E089617B013880B2E08106F01C
:10336000D9FAE089217B013880B2E08106F0D2FAF7
:10337000A581FEF7E9FA227E910603D5616A01393B
:10338000CB18236229239A432276FEF7DDFA2378AD
:103390007F2B01D9FEF7E3FAFEF715FBE089431C0A
:1033A000E38106F0C7FA2070E089431CE38106F050
:1033B000C1FA6070FEF7C8FA22787F2A01D9FEF7B9
:1033C000C3FAE089063B2362431CE38106F0B2FAAC
:1033D0002073E089431CE38106F0ACFA6073FEF7CA
:1033E000B3FAE089617B013880B2E08106F092FA9D
:1033F000E089217B013880B2E08106F08BFA282336
:10340000A381FEF7A1FA23787F2B01D8FEF7A7FA54
:10341000FEF7D9FA2389E381FEF796FA22787F2A0C
:1034200001D8FEF791FAE089063B2362431CE38151
:1034300006F080FA2073E089431CE38106F07AFAF3
:103440006073FEF781FAE089617B013880B2E08128
:1034500006F060FAE089217B013880B2E08106F055
:1034600059FA3023A381FEF76FFA22787F2A01D818
:10347000FEF775FAA089073B2362431CA38106F07F
:1034800059FA0600A089FF25431CA38106F052FAD1
:10349000354000020543E089617B013880B2E0815C
:1034A00006F038FAE089217B013880B2E08106F02D
:1034B00031FAA581FEF748FA2121227E114201D07E
:1034C000FEF742FA2821636201230A43227623622F
:1034D000FEF73AFAA08906F02DFAA38940B201302E
:1034E0001818A081FEF730FA00230120E356627815
:1034F00018405100014361701321D2098B431343DB
:103500002370FEF721FAA089431CA38106F012FA6A
:103510006071FEF719FA012263792178013B0A40B4
:10352000EB49DBB2C95C63710A437F2B00D101E236
:10353000DB431B0700D1A3E302231A432270FEF7EB
:1035400003FA01236279217801320B40E049D2B2BB
:10355000895C62710B435BB2802A00D1C0E1120723
:1035600000D122E12370FEF7EFF9A3880133A38095
:10357000FEF7EAF92388228A23822280FEF7E4F903
:1035800013216378DA095B001343637023788B435C
:103590001A432270FEF7D8F9A089431CA38106F0D4
:1035A000C9F9E070FEF7D0F90122E3782178013BF8
:1035B0000A40C749DBB2C95CE3700A437F2B00D1E4
:1035C000ABE1DB431B0700D164E302231A43227003
:1035D000FEF7BAF90123E278217801320B40BC49A9
:1035E000D2B2895CE2700B435BB2802A00D197E1D2
:1035F000120700D1DEE02370FEF7A6F963880133DD
:103600006380FEF7A1F901232279217801320B4072
:10361000AF49D2B2895C22710B435BB2802A00D1E0
:1036200093E1120700D1CAE02370FEF78DF9A38859
:10363000013BA380FEF788F9A08806F07BF9607053
:10364000FEF782F913262389A5882278591988B2B2
:10365000B24309140A4310216B4043401B120B4034
:10366000134323702081FEF76FF9A089431CA381C7
:1036700006F060F92071FEF767F9012223792178BD
:10368000013B0A409249DBB2C95C23710A437F2B9C
:1036900000D152E1DB431B0700D1F4E202231A43BD
:1036A0002270FEF751F96178A08806F033F9FEF731
:1036B0004BF9A089431CA38106F03CF92071A08935
:1036C000431CA38106F036F96071FEF73DF960886E
:1036D00006F030F96070FEF737F913262389658804
:1036E0002278591988B2B24309140A4310216B4059
:1036F00043401B120B40134323702081FEF724F933
:103700006178608806F006F9FEF71EF9A089431C6F
:10371000A38106F00FF9A070A089431CA38106F0D5
:1037200009F9E070FEF710F92B23E35C002B01D1BF
:10373000FEF70AF9A089256B013880B206F0FAF885
:10374000A38902002900023B62480CF091FFFEF7BA
:10375000FBF82B23E35C002B01D1FEF7F5F8A089E1
:10376000256B023880B206F0E5F80600A089013822
:1037700080B206F0DFF8A2890300043A0092290023
:10378000320055480CF074FFFEF7DEF810221343A8
:103790002370FEF7D9F8102213432370FEF7D4F8F4
:1037A000102213432370FEF7CFF810221343237027
:1037B000FEF7CAF8102213432370FEF7C5F8102253
:1037C00013432370FEF7C0F8102213432370FEF753
:1037D000BBF8280006F0AEF801222378134003322C
:1037E00010403E4A125C1343102213432370FEF72D
:1037F000ABF8280006F09EF80122237813409218B7
:103800001040364A125C1343102213432370FEF714
:103810009BF8280006F08EF8012223781040134010
:103820002E4A125C1343102213432370FEF78CF8C8
:10383000280006F07FF80122237813407F321040E1
:10384000264A125C1343102213432370FEF77CF8C0
:10385000280006F06FF80122237813403F32104011
:103860001E4A125C1343102213432370FEF76CF8B8
:10387000280006F05FF80122237813401F32104021
:10388000164A125C1343102213432370FEF75CF8B0
:10389000280006F04FF801222378104913400F3218
:1038A0001040095C0B4313432370FEF74DF82800CA
:1038B00006F040F801222378134007321040074AEF
:1038C000125C1343102213432370FEF73DF8C046E9
:1038D00088C00110C89101108891011088BF0110A3
:1038E000142213432370FEF72FF814221343FFF71B
:1038F00080FA14221343FFF7A7FA14231A43FFF7A1
:10390000E9F914231A43FFF76FF914231A43FFF759
:1039100028FB14231A43FFF796FB14231A4354E69B
:10392000142213432370FEF70FF81422134323705D
:10393000FEF70AF814231A43FEE514231A43ADE6F2
:10394000142213432370FDF7FFFF14221343237047
:10395000FDF7FAFF142213432370FDF7F5FF14223D
:1039600013432370FDF7F0FF053B2362A08905F0A8
:10397000E1FFA28943B20133D318A381FDF7E4FF2D
:10398000A089073B2362431CA38105F0D3FF0600F7
:10399000A089FF25431CA38105F0CCFF3540000220
:1039A0000543E089617B013880B2E08105F0B2FF18
:1039B000E089217B013880B2E08105F0ABFFA58171
:1039C000FDF7C2FF053B2362A08905F0B3FFA28982
:1039D00043B20133D318A381FDF7B6FF102213437E
:1039E000FFF732FA280005F0A5FFC309DBB241005A
:1039F0001943AE4AC9B2525C28001343237005F044
:103A000089FFFDF7A1FF280005F094FF80235B42AA
:103A10000343D9B2280005F07DFFFDF795FF28008C
:103A200005F088FF012341081840A04BC9B25B5C38
:103A300018432070280005F06DFFFDF785FF280072
:103A400005F078FFFE210140280005F063FFFDF737
:103A50007BFF280005F06EFFFB210140280005F0E8
:103A600059FFFDF771FF280005F064FFFD210140BB
:103A7000280005F04FFFFDF767FF280005F05AFF0B
:103A8000012143001943894BC9B25B5CC00918434B
:103A90002070280005F03EFFFDF756FF280005F0D6
:103AA00049FF7F2302009A43012341081143184034
:103AB0007E4BC9B25B5C18432070280005F02AFFDA
:103AC000FDF742FF280005F035FF784B4100C9B2F1
:103AD0005B5CC00918432070280005F01BFFFDF750
:103AE00033FF280005F026FF01232178C901184281
:103AF00037D0D8406D4A0143C9B2525C1343280005
:103B0000237005F007FFFDF71FFF280005F012FFE7
:103B100040230343D9B2280005F0FCFEFDF714FF53
:103B2000280005F007FF10230343D9B2280005F051
:103B3000F1FEFDF709FF280005F0FCFE0823034312
:103B4000D9B2280005F0E6FEFDF7FEFE280005F0DC
:103B5000F1FE20230343D9B2280005F0DBFEFDF778
:103B6000F3FE4008514B0143C9B25B5CC7E7280034
:103B700005F0E0FE2178030671D401239840194036
:103B800001434A4BC9B25B5C2800237005F0C2FEBA
:103B9000FDF7DAFE280005F0CDFE012303404108C1
:103BA000D8010143414AC9B2525C28001343237033
:103BB00005F0B0FEFDF7C8FE280005F0BBFE0423AB
:103BC0000343D9B2280005F0A5FEFDF7BDFE28008D
:103BD00005F0B0FE02230343D9B2280005F09AFE97
:103BE000FDF7B2FE280005F0A5FE01230343D9B27C
:103BF000280005F08FFEFDF7A7FE280005F09AFECD
:103C00007F210140280005F085FEFDF79DFE28007C
:103C100005F090FEBF210140280005F07BFEFDF776
:103C200093FE280005F086FEDF210140280005F004
:103C300071FEFDF789FE280005F07CFEEF210140B2
:103C4000280005F067FEFDF77FFE280005F072FEF4
:103C5000F7210140280005F05DFEFDF775FE012308
:103C600098401940114A0143C9B2525C13438BE793
:103C700010231A43FFF72EF810221343FFF7B9F869
:103C800010231A4358E410231A4307E510231A435C
:103C9000FFF7D9F910231A4397E410231A43FEF7CC
:103CA000A3FF10231A43FFF75CF9C04688BF011039
:103CB000F8B504008089431CA38105F03BFEC74B87
:103CC000226A1B5C4038D31AC0B22362BE2800D9D6
:103CD000E3E0C34A80001258974601262578E3881E
:103CE000E2893540991A491B042588B25A4043405D
:103CF00013401BB25B13424009142B4012120C35C7
:103D000031402A40002801D1303529437F26050A59
:103D1000B5432943114302220B4313432370E08030
:103D2000F8BD002A01D100F0DDFB002901DC00F024
:103D3000E1FBE088431CE38005F0FCFD266A638814
:103D400031006578013B2A1A9BB21539D2B26380E3
:103D50002162002BE5D110236840217850401840A3
:103D60000F3B0B409F490343885C022203431343EC
:103D70002370103E2662D3E7002A00DC8CE3E5883E
:103D800060886B1CE38005F027FE0100280005F029
:103D9000C1FD216AE3780A00013BDBB2153AE3700A
:103DA0002262002BE8D14223103923702162B7E749
:103DB000002A00DC70E3E58860886B1EE38005F074
:103DC0000BFE0100280005F0A5FD216AE3780A003A
:103DD000013BDBB2153AE3702262002BE8D1E2E747
:103DE000002A00DC6EE3A588E0886B1CA380431CDE
:103DF000E38005F09FFD0100280005F08BFD216A9E
:103E000063880A00013B9BB2153A63802262002B53
:103E1000E6D1162223789343C6E7002A00DC51E35B
:103E2000A588E0886B1EA380431EE38005F082FD19
:103E30000100280005F06EFD216A63880A00013B3D
:103E40009BB2153A63802262002BE6D1E1E700299C
:103E500000D13DE3E088431EE38005F06BFD256A59
:103E600063882E006278013B111A9BB2153EC9B2DD
:103E700063802662002BEAD110234840504022780C
:103E800018400F3B1340574A0343505C0222034340
:103E900013432370103D256242E72B23E35C002B84
:103EA00000D13DE7A089256B013880B205F042FDC5
:103EB000A38902002900023B4B480CF0D9FB2FE7F5
:103EC000237E1A0700D40AE301221343E0892376F4
:103ED000431CE38105F02EFD2073E089431CE38140
:103EE00005F028FD60731BE7A089FF25431CA38113
:103EF00005F020FD0600A0893540431CA38105F094
:103F000019FD00020543ADB22800A17B013505F083
:103F100001FDE17BA8B205F0FDFC01E7608805F03A
:103F20005BFD012322781340304A125C1343237057
:103F3000F6E6E08805F0FEFC0F26617803013140CB
:103F400019430500C9B2E08805F0E4FC012263785A
:103F50002178B3432D090A402B432449DBB2637017
:103F6000CB5C13432370DBE6A089FF25431CA381B0
:103F700005F0E0FC0600A0893540431CA38105F054
:103F8000D9FC00020543ADB2280005F0D3FC013591
:103F9000A071A8B205F0CEFCE071C1E6E37802E0C2
:103FA000002A00DC7FE2E088013BE370431CE380F1
:103FB00005F0C0FC05006088290005F0CFFC216AEF
:103FC000E3780A00153A2262002BE9D1A079532345
:103FD0004519FF2D00DDE7E6E5E6C04688AC011097
:103FE0001C9A011088C00110E499011088BF0110CB
:103FF000657804236A421100294049B2D0B24911C0
:10400000120E0B4052421343D64A1021125C6070CC
:1040100013432A0042400A401343022213432370F1
:104020007EE6637863767BE60622237E93432376DF
:1040300076E6A089FF25431CA38105F07BFC0600E2
:10404000A0893540431CA38105F074FC00020543A0
:10405000ADB22800A178013505F05CFCE178A8B28A
:1040600005F058FC5CE6E378E088013BE370431E12
:10407000E38005F05FFC05006088290005F06EFC18
:10408000E378002B00D01AE242225333A07945197D
:10409000FF2D00DD4BE71300237041E6A389013BB0
:1040A000A3813DE6E378E088013BE370431CDFE752
:1040B000E5886B1CE380608805F08EFC0100280019
:1040C00005F028FCE378013BDBB2E3705A1E934114
:1040D0003F225B4293434233237021E601221021A9
:1040E00023787F2613405B429DB21A400B40694201
:1040F0006941280AB043890102430A43134302225B
:1041000013432370E5800BE6E179608805F026FC17
:1041100006E6608805F060FCE07102E7A27E217E81
:104120000132D2B2D31AA276042249100A400121E8
:104130002078DBB201400A438A496370CB5C1343A9
:104140002370EDE50622237E934304221343237656
:10415000E6E5A089FF25431CA38105F0EBFB0600E3
:10416000A0893540431CA38105F0E4FB0002054310
:10417000ADB2280005F0DEFB01352071A8B205F0D4
:10418000D9FB6071CCE5E37802E0002A00DC8AE12B
:10419000E088013BE370431EE38005F0CBFB0500A4
:1041A0006088290005F0DAFB216AE3780A00153AF5
:1041B0002262002BE9D109E7E5886B1E7AE7E088E7
:1041C000431EE38005F0B6FB012563886178013B5F
:1041D0009EB223780A1A2B40624DD2B24140AD5CA8
:1041E0004A40102166800A40002E01D00C390B4352
:1041F0002A43134302221343237091E5A588E088E4
:104200006B1EA380431EE38005F094FB0100280091
:1042100005F080FB162162882378013A92B28B4325
:1042200062805BB2002A00D181E60422134323702E
:1042300076E5A089FF25431CA38105F07BFB0600E2
:10424000A0893540431CA38105F074FB000205439F
:10425000ADB2280005F06EFB0135A073A8B205F0E1
:1042600069FBE0735CE501212078E388E28908407E
:1042700004259918091888B2534042409A437F2771
:10428000521343402A401B120C352B4045424541F6
:10429000060A090CBE4331431943AD010A432A43C0
:1042A0002270E0803CE56178608805F057FB37E5D7
:1042B000608805F091FB607033E6E088431C80E77E
:1042C000A588E0886B1CA380431C9CE7200005F0B8
:1042D000CDFB25E50622237E93430222134323765A
:1042E0001EE5E08805F026FB617803090901194302
:1042F0000500C9B2E08805F00DFB0F2360781D4072
:104300009843284360700CE6A089FF25431CA381D5
:1043100005F010FB0600A0893540431CA38105F081
:1043200009FB00020543ADB22800A179013505F073
:10433000F1FAE179A8B205F0EDFAF1E4608805F050
:104340004BFB2071EDE501232178627E0B4005498E
:1043500062708A5C217E1343042249100A40134391
:104360002370DDE488C0011001212078E388A28851
:1043700008407DE72179608805F0F0FAD0E4012655
:104380002578E38862883540ACE4E178608805F000
:10439000E5FAC5E4608805F01FFBE070C1E5A0897F
:1043A000FF25431CA38105F0C5FA0600A08935400E
:1043B000431CA38105F0BEFA00020543ADB22800FC
:1043C0002179013505F0A6FA6179A8B205F0A2FAC3
:1043D000A6E401262578E388A288354082E4617945
:1043E000608805F0BBFA9BE4608805F0F5FA60711F
:1043F00097E5A089FF25431CA38105F09BFA0600E1
:10440000A0893540431CA38105F094FA00020543BE
:10441000ADB2280005F08EFA0135A070A8B205F003
:1044200089FAE0707CE401212078E3886288084002
:104430001EE7A178608805F091FA71E4608805F0C4
:10444000CBFAA0706DE50121E38822787F270A402E
:104450005900891888B20E0C042143401BB25B132B
:104460000B4002120C31114042424241050ABD4349
:104470003543294392010B4313432370E080FFF738
:104480004FFCA179608805F069FAFFF749FC608864
:1044900005F0A2FAA07144E502232370A389023B30
:1044A000A381FFF73DFCA07913234519FF2D00DC04
:1044B00002232370A389023BA381FFF731FC022270
:1044C0001323E3E516222378934302221343F0E7F4
:1044D000012322781340462213432370DAE4012299
:1044E0009343F3E4012322781340462213432370BD
:1044F000FFF73FFC102368402178504018400F3BE5
:104500000B4003490343885C062203431343D0E76F
:1045100088C00110F0221206C260002282760122B9
:1045200000235242C16103604360836003614361C1
:1045300003830162028543627047C046182270B54A
:10454000825605000C00037E002A05DA82890132BA
:1045500082817F2213400376DB072FD4394B9C42A4
:1045600000D070BDE889697B013880B2E88105F030
:10457000D1F9E889297B013880B2E88105F0CAF9D0
:104580002A23EB5C002B32D02B8DA3422FD10123A9
:104590005B422B852B4B9C4229D02B7E2922190074
:1045A000914329765A0729D49B071DD4C73CA4B24E
:1045B000382CD6D8244BA4001B599F46E889697B28
:1045C000013880B2E88105F0A5F9E889297B013836
:1045D00080B2E88105F09EF92A23EB5C002BD9D04C
:1045E0002B8DA342D6D1D2E73823AB81B9E7212264
:1045F0002B7E93432B766623AB81B2E7FF21687E47
:104600000C4000020443200005F094F901342873A3
:10461000A0B205F08FF96873A3E73023AB81A0E760
:104620000023AB819DE70823AB819AE71023AB8180
:1046300097E71823AB8194E72023AB8191E72823E8
:10464000AB818EE7FDFF0000189D0110F0B54E46CE
:104650004546DE465746C54B040099460800E0B57E
:10466000C34EC44D85B02162002815DC237E9A0616
:1046700051D521229343012213432376636A218D6E
:10468000013BC018BC4B20629942EDD82000FFF7D7
:1046900055FF206A0028E9DDA089431CA38105F0AD
:1046A00049F9236A315C5B1A23620A00002300295E
:1046B0002AD0C046C046C046C046C046C046C046D6
:1046C000C046C046C046C046C046C046C046C046BA
:1046D000C046C046C046C046C046C046C046C046AA
:1046E000C046C046C046C046C046C046C046C0469A
:1046F000C046C046C046C046C046C046C046C0468A
:10470000C04601339A42D4DCFF2801D901F00FFFE3
:1047100080002B589F4605B03CBC90469946A24667
:10472000AB46F0BD206A9FE7E089617B013880B22B
:10473000E08105F0EFF8E089217B013880B2E0816B
:1047400005F0E8F83823206AA3818DE7A089431C8F
:10475000A38105F0EFF862780300944661464B4070
:10476000D9B28A466146121A92B2D0B241400B4089
:1047700004215BB25B110B408049171C095C120AD3
:104780000B43514648401021014052420B43134312
:1047900002221343206A237066E7A089431CA38189
:1047A00005F0C8F8764B226A1B5CD31A2362FF28F7
:1047B00001D901F064FF734A8000125897462378AC
:1047C0007F2B6DD8A389206A0233A3814CE7212275
:1047D000237E1A4200D0C7E0282213432376236A9F
:1047E00063620123236257E7102063785A00D1B235
:1047F0001040171C120A024360484B40405C5BB2F9
:10480000024304205B1103401A43206A2270617046
:104810002AE7E089617B013880B2E08105F07AF80F
:10482000E089217B013880B2E08105F073F8002334
:10483000206AA38118E7A089431CA38105F07AF8B8
:104840006278111889B2CBB29C46424043400420A2
:10485000D2B2DBB293435B1103406046504010225A
:10486000024060460F1C090A0A4344496070095C13
:10487000206A0A4313432370F6E6E089E1780138A1
:1048800080B2E08105F046F8E089A178013880B275
:10489000E08105F03FF8206AE6E623785B0691D4D4
:1048A000236AA089073B2362431CA38105F042F8D9
:1048B000FF239A469F430743A089431CA38105F029
:1048C00039F8534600021F400743E089617B0138F5
:1048D00080B2E08105F01EF8E089217B013880B2CA
:1048E000E08105F017F8206AA781BDE6A089431C86
:1048F000A38105F01FF8FF239A469F430743A08931
:1049000005F018F8534600023B4003431F1C206A81
:10491000A381A9E623785B0600D553E7A089431C51
:10492000A38105F007F8FF239A469F430743A08918
:1049300005F000F8534600023B4003431F1C206A69
:10494000A38191E6E089431CE38104F0F3FFA070AA
:10495000E089431CE38104F0EDFFE070206A83E608
:1049600023785B0600D4C8E0206A7DE6FC9D011038
:1049700088AA0110A49E0110FDFF000088C001104C
:1049800088AD0110A4A201104223206A23706BE6B7
:10499000A378206AE37067E60123ED212278534073
:1049A0000B40D20701D510221343206A23705BE627
:1049B000A089431CA38104F0BDFF6070206A53E608
:1049C000012362782178013A0B40D349D2B2895C45
:1049D00062700B437F2A01D101F0EEFDD243120732
:1049E00001D101F01FFF02221343206A23703BE62E
:1049F000637821780133DAB201230B40C649627033
:104A0000895C0B435BB2802A01D101F00FFE1207D3
:104A100001D101F007FE206A237025E6E389206AB0
:104A2000013BE38120E6E089617B013880B2E081CF
:104A300004F070FFE089217B013880B2E08104F04E
:104A400069FF2023206AA3810EE6A089431CA3816D
:104A500004F070FF102263781840B04B60701B5C4C
:104A6000206A13432370FFE5E089E179013880B2C1
:104A7000E08104F04FFFE089A179013880B2E08144
:104A800004F048FF206AEFE523785B0700D599E63C
:104A900006E7E08904F04EFFFF239A469F43074351
:104AA000E089A179431CE38104F034FFE08904F03C
:104AB00041FF534600021F400743E089E179431E4E
:104AC000E38104F027FF206AE780CDE523785B07C8
:104AD00000D577E622E7E089431CE38104F02AFF52
:104AE000A071E089431CE38104F024FFE071206A97
:104AF000BAE523785B0700D536E7236AE089063BF1
:104B00002362431CE38104F015FF2073E089431CFA
:104B1000E38104F00FFF6073206AA5E5E089617B03
:104B2000013880B2E08104F0F5FEE089217B013894
:104B300080B2E08104F0EEFE1823206AA38193E5A1
:104B4000A089431CA38104F0F5FE637821789C467C
:104B500001230B4061460200CB1A1B1A60464A40F3
:104B60009BB2D1B28A46D9B24840024052B25211E9
:104B70009446042260461F1C1B0A02405B421343FA
:104B8000654A5046525C48401343102210400222AE
:104B900003431343206A2370617065E52000FCF72E
:104BA000A9FE206A60E52378DB0700D40AE677E6F1
:104BB000A089431CA38104F0BDFEFF2223889343F8
:104BC000184380B204F008FF6070206A4CE5237837
:104BD000DB0700D4F6E5A1E66388628A638262801F
:104BE000A388A28AA382A280E388E28A206A1F1C8B
:104BF000E280E38238E52378DB0700D57DE7206A91
:104C000032E5E089617B013880B2E08104F082FE08
:104C1000E089217B013880B2E08104F07BFE102323
:104C2000206AA38120E5A089431CA38104F082FEB1
:104C3000627803009446111A8AB29246171C6246A3
:104C400061465340FAB25140D8B20B400421504063
:104C500084465BB25B110B402F491020895C627067
:104C60000B43614608405146090A034349420B433E
:104C700002210B43206A2370F6E4E0896179013850
:104C800080B2E08104F046FEE0892179013880B2EB
:104C9000E08104F03FFE206AE6E42378DB0700D5DC
:104CA00090E5FDE5A089431CA38104F043FEFF22AB
:104CB000238861789343184380B204F04FFE206A42
:104CC000D2E42378DB0700D57CE527E6E089431CA6
:104CD000E38104F02FFE2071E089431CE38104F09E
:104CE00029FE6071206ABFE42378DB0700D404E763
:104CF000206AB9E4E089617B013880B2E08104F088
:104D000009FEE089217B013880B2E08104F002FED7
:104D10000823206AA381A7E488C0011088BF01107E
:104D2000A089431CA38104F005FE01220300207822
:104D3000617802405218D21892B2D0B25940434022
:104D4000C9B2DBB28B43414092468C46171C042209
:104D50005B111340102162461140EA4A6070125CF8
:104D6000206A11435246120A0A4313432370FFF785
:104D70007BFCA089431CA38104F0DCFDFF239A4641
:104D80009F430743A089431CA38104F0D3FD5346EE
:104D900000021F400743E089617B013880B2E08157
:104DA00004F0B8FDE089217B013880B2E08104F095
:104DB000B1FD206AA781FFF757FC23785B0600D47A
:104DC00000E56DE52000FBF7C9FA206AFFF74CFC0F
:104DD00023785B0600D4F5E4A0E5E089431CE38179
:104DE00004F0A8FD2073E089431CE38104F0A2FDD8
:104DF0006073206AFFF738FC23785B0600D57CE6F9
:104E0000206AFFF731FCE089617B013880B2E081E4
:104E100004F080FDE089217B013880B2E08104F05C
:104E200079FD3023206AA381FFF71EFCA089431C73
:104E3000A38104F07FFD6378B34A0343DBB2637060
:104E4000D35C206A2370FFF70FFCE089617801389A
:104E500080B2E08104F05EFDE0892178013880B203
:104E6000E08104F057FD206AFFF7FEFB23787F2BDB
:104E700000D9A7E414E5237E9A0601D501F08EFB44
:104E8000206A292293432376FFF7EEFB23787F2BBA
:104E900000D997E442E5E089431CE38104F04AFD30
:104EA0002070E089431CE38104F044FD6070206AB7
:104EB000FFF7DAFB23787F2B00D81EE6206AFFF786
:104EC000D3FBE089617B013880B2E08104F022FDF0
:104ED000E089217B013880B2E08104F01BFD2823AA
:104EE000206AA381FFF7C0FBA089431CA38104F0C3
:104EF00021FD6378844A4340DBB26370D35C206A4F
:104F00002370FFF7B1FB2000FEF7D2FE206AFFF707
:104F1000ABFB23785B0700D454E4C1E4A388E288A8
:104F2000206A1F1CA280E380FFF79EFB23785B07AB
:104F300001D4FFF747FCF1E4E388206AA381FFF77F
:104F400093FB23785B0700D5D7E5206AFFF78CFB3E
:104F5000E388206AE381FFF787FB23787F2B01D862
:104F6000FFF730FCDAE423787F2B00D9C5E5206A0F
:104F7000FFF77AFB644A6378206AD35C10221343FC
:104F80002370FFF771FBE08804F0D4FC10226378F3
:104F900018405D4B60701B5C206A13432370FFF761
:104FA00063FB6278A379206A1340574A6370D35C2D
:104FB000102213432370FFF757FB6278E379206ACE
:104FC0001340514A6370D35C102213432370FFF7E0
:104FD0004BFB62782379206A13404B4A6370D35CA1
:104FE000102213432370FFF73FFB62786379206A36
:104FF0001340454A6370D35C102213432370FFF7BC
:1050000033FB6278A378206A13403F4A6370D35C15
:10501000102213432370FFF727FB6278E378206A9E
:105020001340394A6370D35C102213432370FFF797
:105030001BFB10202378DB07DB179BB21A0AD9B2BF
:1050400052421F1C034013432E4A206A525C617077
:105050001343022213432370FFF706FBE08804F09A
:1050600069FC637821789C4601230B40614602006D
:10507000CB1A1B1A60464A409BB2D1B28A46D9B2BB
:105080004840024052B252119446042260461F1C0E
:105090001B0A02405B4213431A4A5046525C484086
:1050A000134310221040022203431343206A23704B
:1050B0006170FFF7D9FA012263782778A0793A4026
:1050C000191A891A89B2CAB25840534003405BB2D8
:1050D0005B119C468246042360460F1C090A03406C
:1050E00049420B4307495046895C50400B4310210D
:1050F0000840022103430B43206A23706270FFF7CC
:10510000B3FAC04688C0011088BF0110012263783D
:105110002778E0793A40191A891A89B2CAB25840F8
:10512000534003405BB25B119C46824604236046B9
:105130000F1C090A034049420B43F1495046895C60
:1051400050400B4310210840022103430B43206AC7
:1051500023706270FFF788FA01226378277820793C
:105160003A40191A891A89B2CAB2584053400340CA
:105170005BB25B119C468246042360460F1C090A01
:10518000034049420B43DE495046895C50400B4383
:1051900010210840022103430B43206A23706270F0
:1051A000FFF762FA01226378277860793A40191A8A
:1051B000891A89B2CAB25840534003405BB25B11AE
:1051C0009C468246042360460F1C090A034049425C
:1051D0000B43CB495046895C50400B43102108409B
:1051E000022103430B43206A23706270FFF73CFAED
:1051F000012263782778A0783A40191A891A89B26F
:10520000CAB25840534003405BB25B119C46824691
:10521000042360460F1C090A034049420B43B84966
:105220005046895C50400B43102108400221034343
:105230000B43206A23706270FFF716FA012263782D
:105240002778E0783A40191A891A89B2CAB25840C8
:10525000534003405BB25B119C4682460423604688
:105260000F1C090A034049420B43A5495046895C7B
:1052700050400B4310210840022103430B43206A96
:1052800023706270FFF7F0F94223206A2380FFF752
:10529000EBF9E08804F04EFB627803009446111AA3
:1052A0008AB29246171C624661465340FAB2514098
:1052B000D8B20B400421504084465BB25B110B40D6
:1052C0008F491020895C62700B436146084051464B
:1052D000090A034349420B4302210B43206A23700E
:1052E000FFF7C2F96378A079191A8AB29246171C9F
:1052F000D2B25840534003405BB25B119C4604233A
:1053000061460B407E495040895C62700B4310211E
:1053100008405146090A034349420B4302210B430B
:10532000206A2370FFF7A0F96378E079191A8AB22E
:105330009246171CD2B25840534003405BB25B11F7
:105340009C46042361460B406D495040895C627065
:105350000B43102108405146090A034349420B43BD
:1053600002210B43206A2370FFF77EF963782079CE
:10537000191A8AB29246171CD2B2584053400340C1
:105380005BB25B119C46042361460B405C49504074
:10539000895C62700B43102108405146090A03439F
:1053A00049420B4302210B43206A2370FFF75CF94B
:1053B00063786079191A8AB29246171CD2B25840A3
:1053C000534003405BB25B119C46042361460B4093
:1053D0004B495040895C62700B4310210840514694
:1053E000090A034349420B4302210B43206A2370FD
:1053F000FFF73AF96378A078191A8AB29246171C17
:10540000D2B25840534003405BB25B119C46042328
:1054100061460B403A495040895C62700B43102151
:1054200008405146090A034349420B4302210B43FA
:10543000206A2370FFF718F96378E078191A8AB2A6
:105440009246171CD2B25840534003405BB25B11E6
:105450009C46042361460B4029495040895C627098
:105460000B43102108405146090A034349420B43AC
:1054700002210B43206A2370FFF7F6F80123102066
:10548000627821780B4051005B18D9B218401F1C7C
:105490001B0A03431A484A40405C52B203430420AB
:1054A000521102401343206A23706170FFF7DCF849
:1054B000E08804F03FFA012203002078617802407E
:1054C0005218D21892B2D0B259404340C9B2DBB29E
:1054D0008B43414092468C46171C04225B111340BB
:1054E000102162461140064A6070125C206A114326
:1054F0005246120A0A4313432370FFF7B5F8C04619
:1055000088C0011001222078617802409246A37978
:105510000422C81882445746F8B2594043408B438E
:1055200041408C465B111340102162461140FA4AFB
:105530006070125C206A11435246120A0A431343F8
:105540002370FFF791F8012220786178024092469B
:10555000E3790422C81882445746F8B259404340C0
:105560008B4341408C465B11134010216246114031
:10557000E94A6070125C206A11435246120A0A43DB
:1055800013432370FFF770F80122207861780240FE
:10559000924623790422C81882445746F8B25940EB
:1055A00043408B4341408C465B11134010216246BF
:1055B0001140D94A6070125C206A11435246120AA7
:1055C0000A4313432370FFF74FF8012220786178D4
:1055D0000240924663790422C81882445746F8B2C2
:1055E000594043408B4341408C465B11134010218E
:1055F00062461140C84A6070125C206A11435246EC
:10560000120A0A4313432370FFF72EF80122207871
:10561000617802409246A3780422C8188244574613
:10562000F8B2594043408B4341408C465B111340D4
:10563000102162461140B84A6070125C206A114322
:105640005246120A0A4313432370FFF70DF8012252
:105650002078617802409246E3780422C818824498
:105660005746F8B2594043408B4341408C465B114A
:105670001340102162461140A74A6070125C206AF4
:1056800011435246120A0A4313432370FEF7ECFFFC
:105690006378A24A206AD35C2370FEF7E5FFE088B6
:1056A00004F048F963789D4A0343DBB26370D35C2E
:1056B000206A2370FEF7D8FF6378A279206A13432B
:1056C000964A6370D35C2370FEF7CEFF6378E2796D
:1056D000206A1343914A6370D35C2370FEF7C4FFC2
:1056E00063782279206A13438C4A6370D35C2370F9
:1056F000FEF7BAFF63786279206A1343874A6370C2
:10570000D35C2370FEF7B0FF6378A278206A13435E
:10571000824A6370D35C2370FEF7A6FF6378E27859
:10572000206A13437D4A6370D35C2370FEF79CFFAD
:105730004423206A2380FEF797FFE08804F0FAF8FC
:105740006378764A4340DBB26370D35C206A23708F
:10575000FEF78AFF6378A279206A53406F4A63702C
:10576000D35C2370FEF780FF6378E279206A5340B0
:105770006A4A6370D35C2370FEF776FF6378227900
:10578000206A5340654A6370D35C2370FEF76CFF58
:1057900063786279206A5340604A6370D35C2370F7
:1057A000FEF762FF6378A278206A53405B4A637019
:1057B000D35C2370FEF758FF6378E278206A534089
:1057C000564A6370D35C2370FEF74EFF63782179ED
:1057D0005A1A92B2D0B2594043400B405BB25B11AF
:1057E0009C468A46042361460B404B49171C095CC2
:1057F000120A0B43514641401020014052420B43D4
:10580000134302221343206A2370FEF72DFF6378AF
:1058100061795A1A92B2D0B2594043400B405BB200
:105820005B119C468A46042361460B403A49171C8B
:10583000095C120A0B43514641401020014052427C
:105840000B43134302221343206A2370FEF70CFF1D
:105850006378A1785A1A92B2D0B2594043400B40B3
:105860005BB25B119C468A46042361460B402A4981
:10587000171C095C120A0B4351464140102001409D
:1058800052420B43134302221343206A2370FEF754
:10589000EBFE6378E1785A1A92B2D0B25940434095
:1058A0000B405BB25B119C468A46042361460B4069
:1058B0001949171C095C120A0B435146414010203C
:1058C000014052420B43134302221343206A2370C8
:1058D000FEF7CAFE6378A1795A1A92B2D0B2594043
:1058E00043400B405BB25B119C468A4604236146F1
:1058F0000B400949171C095C120A0B4351464140F1
:105900001020014052420B43134302221343206AEA
:105910002370FEF7A9FEC04688C0011088BF0110A1
:105920006378E1795A1A92B2D0B2594043400B40A1
:105930005BB25B119C468A46042361460B40EC49EE
:10594000171C095C120A0B435146414010200140CC
:1059500052420B43134302221343206A2370FEF783
:1059600083FEE08803F0E6FF627803009446614618
:105970004B40D9B28A466146121A92B2D0B2414027
:105980000B4004215BB25B110B40D949171C095C29
:10599000120A0B43514648401021014052420B432A
:1059A000134302221343206A2370FEF75DFEA3799E
:1059B000206AE371FEF758FE2379206AE371FEF74F
:1059C00053FE6379206AE371FEF74EFEA378206AE6
:1059D000E371FEF749FEE378206AE371FEF744FEC7
:1059E0006378206A2371FEF73FFEE08803F0A2FF90
:1059F0002071206AFEF738FEA379206A2371FEF732
:105A000033FEE379206A2371FEF72EFE6379206A64
:105A10002371FEF729FEA378206A2371FEF724FE86
:105A2000E378206A2371FEF71FFE6378206A6371B2
:105A3000FEF71AFEE08803F07DFF6071206AFEF732
:105A400013FEA379206A6371FEF70EFEE379206AE4
:105A50006371FEF709FE2379206A6371FEF704FE85
:105A6000A378206A6371FEF7FFFDE378206A637113
:105A7000FEF7FAFD6378206AA370FEF7F5FDE08873
:105A800003F058FFA070206AFEF7EEFDA379206AAC
:105A9000A370FEF7E9FDE379206AA370FEF7E4FD49
:105AA0002379206AA370FEF7DFFD6379206AA37073
:105AB000FEF7DAFDE378206AA370FEF7D5FD637880
:105AC000206AE370FEF7D0FDE08803F033FFE0705A
:105AD000206AFEF7C9FDA379206AE370FEF7C4FDD2
