:020000041000EA
:1000000000B5324B212058609868022188439860DF
:10001000D860186158612E4B002199600221596106
:100020000121F02299502B49196001219960352056
:1000300000F044F80222904214D00621196600F024
:1000400034F8196E01211966002018661A6600F04E
:100050002CF8196E196E196E052000F02FF8012189
:100060000842F9D1002199601B49196000215960AB
:100070001A491B48016001219960EB211966A021F2
:10008000196600F012F800219960164914480160C1
:100090000121996001BC002800D000471248134993
:1000A000086003C880F30888084703B5996A0420EC
:1000B0000142FBD001200142F8D103BD02B5186610
:1000C0001866FFF7F2FF186E186E02BD00000240BE
:1000D000000000180000070000035F00212200005C
:1000E000F4000018222000A00001001008ED00E03C
:1000F00000000000000000000000000074B24E7A12
:1001000000200420F7010010C3010010C5010010F9
:10011000C1010010C1010010C1010010C101001097
:10012000C1010010C1010010C1010010C701001081
:10013000C1010010C1010010C9010010CB01001065
:10014000CD010010CD010010CD010010CD01001037
:10015000CD010010CD010010CD010010CD01001027
:10016000CD010010CD010010CD010010CD01001017
:10017000CD010010CD010010CD010010CD01001007
:10018000CD010010CD010010CD010010CD010010F7
:10019000CD010010CD010010CD010010CD010010E7
:1001A000CD010010CD010010CD010010CD010010D7
:1001B000CD010010CD010010CD010010CD010010C7
:1001C00000BE00BE00BE00BE00BE00BE00F04BF888
:1001D000103800BEF2EB8871A4780010C8780010C7
:1001E0003402001090A31AE700202149086006C8D5
:1001F00081F3088810471F48006800282FD10DA4FC
:100200000ECC002902D000F012F8F9E71A491B4A77
:10021000002000E001C19142FCD1194988471949E9
:1002200088471949884700BEFDE701C901C29A42C3
:10023000FBD37047C8780010C0000020B40900202C
:10024000BC8100100000042000000420BC810010CC
:1002500000100420001004200000000070470B482C
:1002600004F068FA0047EFF30580C0B27047000061
:1002700008ED00E0000000D0B8090020981200202E
:10028000392B001011030010012B001057560000ED
:1002900006005250ABB36053547700100600525022
:1002A000861C030264770010060052505422A29D5F
:1002B0006C77001005005250DE65F468BC810010B8
:1002C000F8B5C04606480749091A8B10C90FC91866
:1002D00010B5491003D0044B002B00D0984710BD37
:1002E000B4090020B409002000000000054B10B53F
:1002F000002B03D00449054800E000BFFFF7E2FFF0
:1003000010BDC046000000004812002060670010C9
:10031000F0B5C64600B586B0364805AB04AA03A9B9
:1003200002F066FA002803D13348324902F090FC0B
:10033000059A0499039802F01FFA05F0EDFB2F4C83
:100340000021200000F0DAF81321200000F098F9D5
:100350002B4E2C4D32002900200000F079F92B683B
:10036000C827413BFF3BD90FC91802233268491007
:100370000193C83A3F33FF33200012B209B200970D
:1003800000F0A8F914239846200000F075F93220F7
:1003900001F078FB20009E2100F072F92B68326892
:1003A000413BFF3BD90FC91843460193A023C83AEC
:1003B000491012B25B00200009B2009700F08AF9E0
:1003C000322001F05FFB2000132100F059F92B6867
:1003D0003268413BFF3BD90FC9180223C83A019349
:1003E00049103F33200012B209B20097FF3300F0EA
:1003F00071F9C9E770820300606700109012002055
:100400003C1000203410002010B5024800F074F8B1
:1004100010BDC04690120020D023FF22F0B5A026C8
:1004200000251B0683B01A6510200F4901F0C2FF9A
:100430000121102001F098FF0C4806F059F90C4CEE
:100440000C4F7600BFF35F8F20680028FAD0012898
:1004500006D0A0223968F0230096520000F058FA26
:10046000BFF35F8F2560EDE7790400101C100020BA
:100470000C100020141000208022F8B5CE4647460C
:10048000D024184B520280B524061A60236DDB0776
:1004900014D5154B01259946144B154F9846154E0A
:1004A00000F050FE4B461B78002B0FD043463868B7
:1004B000198833689847236D1D42F1D1D023FF225C
:1004C0001B061A65C0BCB946B046F8BD434619883C
:1004D00038684B089B00C01833689847236D1D424D
:1004E000DED1EBE780E200E09003002092120020D2
:1004F00024100020101000207047C046F8B5DE46DA
:1005000057464E464546E0B5002962D0474B484A1B
:10051000484C994615681B68206892465D43002840
:1005200000D181E0444B1860444B9B461860002D7D
:100530002AD0002505F050FF070005F04DFF06000A
:1005400005F04AFF5B461B68FF21984604F024F93A
:1005500003238C113800FF211C4004F01DF91F23D8
:1005600099430C433000FF2104F016F91C23C910F5
:10057000194043460C435C554B461A6853461B686A
:1005800001355343AB42D5D82D4C00210122200028
:1005900000F04EFE2B4800F025FE0221002000F066
:1005A00071FD00282CD0BFF35F8F274A10601368BD
:1005B000002B04D0BFF35F8F1368002BFAD120000B
:1005C00006F0B6F80020F0BCBB46B246A946A046ED
:1005D000F8BD174B174C9A46A02352465B00136098
:1005E000124A9146F02249460A60184A136023686D
:1005F000002B07D0104A1360104A9346136098E707
:100600000130D0E79625F0336D021068584304306E
:1006100005F092F8084B20601860084B9B46186064
:10062000002D00D085E7AFE7084AEEE74010002034
:10063000381000202C10002028100020141000205A
:100640001C100020190400100C1000204410002081
:10065000002902D0054B1B680B60002A02D0044B16
:100660001B681360034B18687047C04638100020A1
:10067000401000204410002010B500F013FA10BD07
:10068000F8B54746CE460F4B80B51F680E00002FC9
:1006900013DD0D4B1C680D4B1B6899460C4B1B68FA
:1006A0009846002B09DD0025200042463100013527
:1006B00005F068F84C44BD42F6D1C0BCB946B0461E
:1006C000F8BDC04640100020141000204410002047
:1006D00038100020F8B5CE46474680B51E0008AB5E
:1006E0000027DF5F09AB1B789946002F13DD0C4B09
:1006F0001C680C4B1B689846002E0CDD00255A43E5
:100700005218A418200032004946013505F03AF885
:100710004444BD42F6DBC0BCB946B046F8BDC04655
:10072000141000204410002030B5334899B005F073
:10073000CFFA08AA1100314B31CB31C131CB31C1D5
:1007400018682F4D08609B882B488B80E98A2D4BB9
:10075000023909020B439BB2138393832A4B02A9EC
:100760008B800292022405F041FA20000621013418
:1007700002F0FAF80A2CF8D106210A2002F0F4F867
:100780004023EB5C002B31D00124082302220021FE
:100790001948009405F0B8FA1748009401230A227A
:1007A000002105F0B1FAAC8A0020002C0DD0200009
:1007B00004F0BEFE011C04F092FE8721C90504F07E
:1007C000AEFE04F00FFFC0B20002104B24040693EB
:1007D0000F4B044305930F4B132207930021064848
:1007E00004AB049405F0D2FA19B030BD01210A20FF
:1007F00002F0D2F8C8E7C04600002050946700100D
:10080000180D0020086000000F11000000000640D5
:1008100080FD010002288020F0B54646D6464F46AE
:10082000334B88219C46C0B5DA8B8A46D31E1BBA4F
:100830000B4361462F4F304D3B60088CE0260E384D
:10084000010404022940240E2143FF2424022040F5
:100850000143A02001437960C021B9606146098845
:10086000023909BA3143F9606146898B234F043953
:1008700088464646090436022940360E314346462C
:1008800026403143014339601D4F3B6063465B8B1B
:100890009B1A191F8C466646090436022940360EFB
:1008A000314366462640314356460143033B796057
:1008B0001BBA14493343043A0B6013042B4015024E
:1008C0002D0E2B432240134303430F4A4B600F4B23
:1008D0005160596000219E38186010609960D9609D
:1008E0009160D160E0BCBA46B146A846F0BDC046B2
:1008F000180D00207C0D002000FFFF00780D002067
:10090000700D00208C0D0020F40C0020D40C002071
:10091000F8B54E4B050019604D4B08211A60A02216
:100920004C4BD205D1508021CC20490413580B42A6
:10093000FCD10421474BA024D1508022E40588310A
:10094000520463581E0016401342FAD100210B20B6
:1009500001F00AFD0823404A40481360404A414FD5
:10096000A350012410220368A343036003681343C8
:10097000802203603C4B12061A601A603E6005F04C
:10098000A7F93A4E34702C8E002C5CD00136220030
:100990000021300004F0F6FEA419AE8E002E05D022
:1009A00020003200012104F0EDFEA419EE8E002E8D
:1009B00005D020003200022104F0E4FEA4192A8FA1
:1009C000002A03D00121200004F0DCFE290044228B
:1009D000274804F0DDFE01220024264B1A60264B36
:1009E0001C60264B3B60FFF79FFEFFF715FF244B73
:1009F000244A0B201A60244A24495A6002229A6031
:100A0000234A1A61234B244A1C605A60234A9C6083
:100A10001A610822224B1A6001F0CCFC00210B2045
:100A200001F006FE01210B2001F09EFCA02286238E
:100A30000421D205DB00D1500223084AFF3311689C
:100A40000B431360F8BD741CA7E7C04618100020C4
:100A500030100020440400000434005000002050F6
:100A60000C040000140D0020D0102050B80D002000
:100A7000180D0020B40D0020B80C0020F40C00204C
:100A800080000050D40C0020F8000050C10000206D
:100A9000F9941F00C0000050100020501B1060008F
:100AA00004240050084B1A78002A09D0BFF35F8F46
:100AB0001A78002AFAD11A78002A04D1BFF35F8F7E
:100AC0001A78002AFAD0704794120020F0B5DE465A
:100AD00057464E4645460022E0B591B00492059235
:100AE000069202880B9009910E928488002C00D106
:100AF00014000B9EB568696828680A9504F0EFFC3D
:100B0000A96804F0ECFCE96804F0E9FC2D690F9099
:100B100020000C9504F012FDF3680D909A46737D49
:100B2000071C002B45D1504604F002FD291C04F09F
:100B3000F6FC314904F0DDFC391C04F0DAFC2F49E5
:100B400004F0D2FC04F01CFD022800DA7CE26043D1
:100B500005004001401B80004019C00004F0EEFC7D
:100B60000C9E311C04F0C5FCFC21890504F0BCFC82
:100B700004F006FDC830824511D92D196801401BCB
:100B800080004019C00004F0D9FC311C04F0B1FC15
:100B9000FC21890504F0A8FC04F0F2FCC83053469F
:100BA000834200D248E20B9A126992469A4200D9D7
:100BB00040E2042002F056FAFA21890003F014FE04
:100BC00084460F4A8300634494469B016344A025F6
:100BD000029300230B4E089003936D000A4A029B78
:100BE00094461C00094A6444934200D9C6E0062397
:100BF000AB469846A2E0C04600007A44CDCCCC3D3E
:100C000080E5F9FFA0860100801A0600804F1200DF
:100C100041462000794303F0E7FD5346C31ADA1733
:100C20009B1853409E4207D9019A1E0005925A46CE
:100C300006950492079403906B1EDBB29946002B35
:100C400078D019002000794303F0CEFD5346C31A33
:100C5000DA179B185340B34208D24A460692019ACB
:100C60001E0005925A46079404920390AB1EDBB215
:100C70009946002B5ED019002000794303F0B4FDA3
:100C80005346C31ADA179B1853409E4208D94A4666
:100C90000692019A1E0005925A4607940492039008
:100CA000EB1EDBB29946002B44D01900200079439B
:100CB00003F09AFD5346C31ADA179B185340B34208
:100CC00008D24A460692019A1E0005925A46079497
:100CD000049203902B1FDBB29946002B2AD01900F7
:100CE0002000794303F080FD5346C31ADA179B189E
:100CF0005340B34208D24A460692019A1E0005921A
:100D00005A46079404920390052D13D03900200011
:100D100003F06AFD5346C31ADA179B185340B342D7
:100D200008D2019A1E00059201235A4607940492A4
:100D30000390069301235B429C46E04441464346B0
:100D40004F1C3900DDB26B1CDBB2794320000193EC
:100D500003F04AFD5146431ADA179B185340B34239
:100D600007D2019A1E00069205925A4607940492F1
:100D700003904346002B00D04AE75D46029B089A49
:100D8000013D9B1AADB202930F2D00D026E7099BBF
:100D9000079A0398DA60049A98601A82059A9A74FE
:100DA000069ADA7404F0C4FB0C99804604F0B7FB91
:100DB000B14904F09EFB0D99824604F09AFBAF49BD
:100DC000061C04F091FB04F0DBFB0400112800DC9E
:100DD0004BE101270137380004F0B0FB011C051C72
:100DE000301C04F086FBA54904F07EFB04F0C8FB30
:100DF0001128EFDC04003804000C04F09FFB81464E
:100E0000BEB2099B20009E82DC8204F097FB8346E1
:100E10000F99404604F083FB974904F06AFB59465A
:100E200004F067FB291C04F064FB954904F05CFBAB
:100E300004F0A6FB0E9F0600874200DD0700032397
:100E40009F43099B59461F80504604F052FB291CC2
:100E500004F04FFB8A4904F047FB04F091FB099B27
:100E60006743DE800A9E98803168404604F057FB55
:100E7000814904F03EFB291C04F03BFBFC21890561
:100E800004F032FB04F07CFBB1680400404604F03F
:100E900046FB794904F02DFB291C04F02AFBFC21B8
:100EA000890504F021FB04F06BFB0600032800DC3D
:100EB000B5E083B29B460A9B4046596804F02FFB7D
:100EC0006D4904F016FB291C04F013FBFC21890575
:100ED00004F00AFB04F054FB0A9B8246D9684046A2
:100EE00004F01DFB644904F004FB291C04F001FB21
:100EF000FC21890504F0F8FA04F042FB5346E31A9A
:100F00009B1B1B1ADB1BDA0FD21852100100524434
:100F1000002B00DAA4E0013358104018032A02DC49
:100F20001018042204380C2800DC71E083B2B618D3
:100F300009993618F6198A834E830A005946138494
:100F4000D1830B9A5388177D0A9AD28A002F5AD0E0
:100F50005B00934200DD6BE001218B43591009983F
:100F60004285418002000A98818A8A4611005246D1
:100F7000CB860A85C28B9B1A82690A6395B2DA0F07
:100F8000848BD2185210A41AA4B28C86028C002B27
:100F900060DB01335B109BB20999D21A0A9B0A8766
:100FA0005B8C40464B87344904F0B9FA494604F05B
:100FB000A0FA80463004000C04F0C0FA011C404640
:100FC00004F097FA0999061C4862504604F0B6FAF4
:100FD000011C301C04F08DFA3E2309990135C862CA
:100FE0000B986419427DCA540A9A0133CF541B3BB3
:100FF000D25C1C33CA548C8711B0F0BCBB46B246DD
:10100000A946A046F0BD11009A420EDC0B00A6E7EF
:1010100012180D3A022A19DB0D230D2087E704234D
:1010200024189B460426043C45E719000B0096E76C
:10103000130091E79A46BCE50B9A030012699246A9
:101040009A4200D8B5E5F5E7022080E502220D239B
:101050000D206CE7591ECB0F5B185B109BB29BE712
:10106000013BD80FC018401057E7FE239B05994657
:1010700001261D1CC5E6C04600007A44CDCC4C3E7E
:10108000CDCCCC3EF8B5CE4647460B1C80B50429E6
:1010900000D90423DBB299000B001F4A02338E589B
:1010A0001E4A8F5A9B5AF18A99468B4200D989462B
:1010B0004B4600259BB21A4C98461A4B05202360DC
:1010C000194BA580A36001F0CDFFFA21890003F040
:1010D0008BFB164B42462361002363754B46E06051
:1010E000A66027806380F38A20005B0893426D41ED
:1010F00025750F4D2900FFF7E9FCEB68EA7C5801E4
:10110000C01A8000C018A97CC00001F035FB28007F
:10111000C0BCB946B046F8BD940300200468001076
:10112000BC0C00208002E001DC670010B01E04004F
:10113000C80F002003BDC04610B5040001F00AFB33
:10114000A04710BDD0221206136DDB0704D4012185
:1011500020BF136D1942FBD0D0231B06986D70473A
:10116000F0B5040087B00F200E00170001F00EF953
:10117000002105000F2001F0F7F800230022009263
:10118000019301230293D0230496059400260024A2
:101190000121022003971B06002C14D01A6D104267
:1011A000FCD05C6540BF1A6D114203D120BF1A6D9F
:1011B0001142FBD09A6DA2420AD000266C46B200C2
:1011C000A458E9E79A6D1A6D1142FBD140BFE5E7DB
:1011D0000136062EF2D129000F2001F0C5F807B024
:1011E000F0BDC0460B4B0C4A10B5934201D201230F
:1011F0005B421900094A985004329B50084B094A37
:1012000009488B50094B9A68044B9C466144FFF790
:10121000A7FF10BD0008042000000420F407000010
:1012200039110010FC0700003511001000ED00E03E
:1012300070B504000E00150000F020F80100200039
:1012400000F006F8A680E580BFF35F8F70BDC04652
:10125000024B9C46614489000160704740000034A5
:101260000021044B044ABFF35F8F02C39342FAD1BB
:101270007047C046000100D0800100D0044A1078B9
:10128000431CDBB2172B00D9102313707047C046E4
:10129000A8030020EFF3108072B6034A1368002BF6
:1012A000FCD0BFF35F8F70472C0100D0BFF35F8F7E
:1012B0000022024B1A6080F3108870472C0100D086
:1012C00070B5EFF3108C72B60D4D2B68002BFCD06F
:1012D000BFF35F8F0724CB08C618C05C01230C4006
:1012E000A3401C000440034207D118433070BFF3F1
:1012F0005F8F2C608CF3108870BD100001F0A8FC8B
:101300002C0100D0024B18688007C00F7047C04600
:1013100000C006400A4B1968EFF3108072B60A68E5
:10132000002AFCD0BFF35F8F1B68BFF35F8F0022E2
:101330001A6080F3108840BF002000217047C0462B
:10134000741200203B2110B5024B034A034801F000
:10135000D9FBC04618680010246B00103C680010D0
:1013600070B5002920D003681C7BA1421CD883687B
:101370000E4884466144090159180D684968002ADD
:1013800012D0A24210D8624412019B185A68012060
:101390008A4201D9C0B270BD8A4201D00020F9E76B
:1013A0001B68AB42F6D8F9E7FFF7CCFFFFFFFF0F52
:1013B0003F2110B5024B034A034801F0A3FBC0468E
:1013C00098680010F06A0010B4680010682110B529
:1013D000024B034A034801F095FBC0462069001008
:1013E000806B00103C69001070B5002919D0057B96
:1013F000A94216D84B0004685B18033BE318002A87
:1014000017D091420FD0AA420BD850008018033851
:101410002418A1701978002901D11A7070BD61706B
:10142000FBE7FFF7D3FF7121054B064A064801F0A1
:1014300069FB7021054B034A034801F063FBC0467A
:10144000B86900106C6B00103C690010AC690010AA
:101450005C2110B5024B034A034801F053FBC04620
:10146000D0690010306B00103C680010F0B54F469A
:101470004646D646C0B598460AAB1C780BAB1B78DF
:101480000600170099460568002C36D06B7B29684A
:101490002A7BA3425BD0944264D863001B19033BB0
:1014A000C9188B78002B52D12F4BE218B368120168
:1014B0009B1842465A60089A1F609A60099ADA603F
:1014C00000238B704B700B706B7B9A46002B2ED0D9
:1014D00022005146A8686B689847002822D0220055
:1014E00051462800FFF780FF53466B7354451FD0C9
:1014F000E0BCBA46B146A846F0BDAC7B002CF7D0A4
:101500002B7BA3422ED3630029681B19033BC91808
:101510004B78AB73002B00D1EB7300238B704B70B7
:101520000B70C1E7524621002800FFF75DFF6C7386
:101530003A004346307D00F08BFB051E02D04B463F
:10154000002B0AD00C9B002BD2D01D70D0E7652158
:10155000064B074A074801F0D5FA2100306800F031
:1015600039FEEFE7FFF732FFFFFFFF0FF4690010CE
:101570008C6B00103C680010F0B5D6464F464646CE
:10158000404DC0B581468A466A68EFF3108872B64E
:101590001368002BFCD0BFF35F8F2E68B47B002C48
:1015A00048D0337BA34266D3630037681B19033BE3
:1015B000FF187B78B373002B00D1F373324BE21822
:1015C000AB6812019B184A461A6052465A602F4A6D
:1015D0009A600022DA60BA707A703A70777B002FD6
:1015E00036D022003900B0687368984700282AD0A6
:1015F000220039003000FFF7F7FE7773BC4228D095
:1016000000262B681B7BA3422FD3EB681B19013BE1
:1016100019786B68BFF35F8F00221A6088F3108817
:101620000020002E01D108022043E0BCBA46B1469A
:10163000A846F0BD6B68BFF35F8F1C6088F310880D
:1016400001204042F1E73A0021003000FFF7CCFED4
:1016500074734A465346287D00F0FAFA061ECFD02E
:101660002100286800F0B6FDCBE74021084B094A6D
:10167000094801F047FA6821084B094A094801F076
:1016800041FAC046AC030020FFFFFF0F1513001006
:1016900018680010486B00103C68001020690010AA
:1016A000806B00103C690010F0B5DE4657464E4690
:1016B00045460023E0B58DB00A93944B8200D35881
:1016C0000B909B4600235C469A4600F061FA0200AC
:1016D0000B1E67DB6068EFF3108872B601680029A3
:1016E000FCD0BFF35F8F2068417B894600295FD023
:1016F000017B494500D2E5E08549A56849440901D7
:101700006D182E686F68B61A9F41002F58DD2A6841
:101710006B680B9800F09CFA00220023002500263D
:10172000089209936368BFF35F8F52461A6088F38B
:101730001088002E08D10028C7D10DB0F0BCBB46E0
:10174000B246A946A046F0BD4A460A9B29001B02A4
:101750001A4310009046B047069007916268EFF375
:10176000108B72B65F461368002BFCD0BB46BFF3EC
:101770005F8F079B002B79DB069A079B11001943AB
:101780003FD02369002B3CD0434500D0B2E000F0AD
:10179000FFF9002906DB069A079B12184B41994274
:1017A00000D883E03F215B4B5B4A5C4801F0AAF91B
:1017B0000022002300250026002008920993B1E7AB
:1017C000002F01D1002EA2D1002100F045FC484598
:1017D00000D089E02A686B68AE6808920993ED68CA
:1017E000002E7BD023681B7B4B4571D34A46E368B0
:1017F00000204B44013B1B780A931B0213432361D7
:1018000090E74A462368002A0ED05A7B4A450BD0FF
:101810001D7B1868A9454FD84A4652004A44821891
:10182000033A9278002A05D0F6213D4B3D4A3E48C6
:1018300001F068F9D97B002907D0A9423CD84A00B9
:10184000521849468218033A51704A46DA73E168E1
:10185000013A8B5C01338B54534623616368BFF3B9
:101860005F8F52461A608BF310882EE72369002B96
:10187000C7D0434544D106980799089A099B121A84
:101880008B410898099999428CD801D1904289D806
:10189000002B87DB5146049101210391494620002A
:1018A000029101950096FFF7E1FDD5E79942EFD14E
:1018B000904200D976E7EBE768211C4B1C4A1A4896
:1018C00001F020F93B211B4B1B4A1C4801F01AF97F
:1018D0004021184B1A4A194801F014F99021194B6C
:1018E000194A164801F00EF98C21184B164A134874
:1018F00001F008F9A221164B134A104801F002F931
:101900009F21134B104A0D4801F0FCF86012002093
:10191000FFFFFF0F98680010F06A0010B468001015
:101920007C6A00105C6B00103C690010206900109C
:10193000806B001018680010246B00103C680010C9
:10194000486B0010346A0010086B00101C6A00100D
:10195000406A001010B5124C6368002B04D00A21B5
:101960001048FFF775FC10BD23000F4A10212068B6
:1019700000F046FA032000F0FFF8032000F0E0F941
:1019800003200A4900F01EF9FFF778FC084B9C463B
:10199000032360442375074B80006060DC60DEE752
:1019A000AC0300207412002061130010A91600106F
:1019B0004000003460120020F0B5C64600B50400B7
:1019C0000D00FEF750FC00284ED106267642F71790
:1019D00036196F41AF4214D90026002700F0D8F81D
:1019E00002000B1E13DB30003900801A99410029D8
:1019F00011DC0ED02900200000F0D4F880BCB846DD
:101A0000F0BDAF4201D1A642E6D8002FE6DAFFF7DB
:101A1000CFFC0028EED0174B5B68002B27D030009E
:101A20003900FFF7A9FD0028E4DB00239846BC46F7
:101A3000114A124F7B6A9C4504D8B96AB142D9D287
:101A40009C45D7D11168EFF3108072B60B68002B5C
:101A5000FCD0BFF35F8F1368BFF35F8F41461960FF
:101A600080F3108820BFE5E7054801F0F1F8FFF7A3
:101A7000EFFCC046AC03002074120020004005407B
:101A8000A06A0010FA2270B500239200002103F032
:101A900009FD04000D0000F07BF802000B1E0DDBB9
:101AA00020002900801859418B4207D801D1824279
:101AB00004D8002902DBFFF77FFF70BDFFF778FC39
:101AC000F0B5D6464F464646C0B5EFF305823F23F4
:101AD000134018001038EFF3108C72B620490A68D2
:101AE000002AFCD0BFF35F8F0122170087401D4CF6
:101AF0001600A24667631C4C2578A0462C00C44003
:101B00002640224209D1BFF35F8F0E608CF310880C
:101B1000E0BCBA46B146A846F0BD5246566A134AE2
:101B20008400A25896420ED34246114BBD43E3585F
:101B30001570BFF35F8F00220A608CF31088002BB2
:101B4000E6D09847E4E70B4A9B00904643441A6866
:101B50001A60BFF35F8F00230B608CF31088D7E708
:101B6000280100D000400540971200207812002084
:101B7000C0110020D03F054010B5034B01001800F4
:101B8000024AFFF79DFB10BD95120020A46B0010C8
:101B9000034B596A0A00986A596A8A42FAD1704717
:101BA00000400540064A536A9942FCD807D1044BCD
:101BB00002E05A6A914202D19A6A8242F9D370478E
:101BC0000040054070B504000D00EFF3108672B6BA
:101BD0001A4A1368002BFCD0BFF35F8F002D1BD077
:101BE000200000F0DFFB164981420AD0200000F0FF
:101BF000E1FB0121200000F0B7FB0123A340114AC3
:101C00001360114BA400E550BFF35F8F00220B4B14
:101C10001A6086F3108870BD0121A1400A4BA20012
:101C2000D5500A4B20001A788A4305491A7000F0F3
:101C3000F5FB0021200000F097FBE5E7280100D02C
:101C4000C11A001038600540C01100209712002012
:101C5000F0B5D6464F464646C0B5314C616A0D00D8
:101C6000A66A616AA942FAD194461D008B4208D83F
:101C700005D00120E0BCBA46B146A846F0BDB2424C
:101C8000F7D9EFF3108972B6264C21680029FCD0F1
:101C9000BFF35F8F0124244F844039780E00264320
:101CA0008846F1B239708A46061D1D49B6004C635C
:101CB00072501E4A8600B3500B6A23420BD10B6C44
:101CC0000020234225D0BFF35F8F0022154B1A60FE
:101CD00089F31088CEE74B6A1A008E6A4B6A9342EA
:101CE000FAD19D4211D801D1B4450ED8C2450ED0CB
:101CF0000B4B1F221C625C630123024093400C4A81
:101D00000120136043463B70DDE70020DBE7012044
:101D1000D9E7C121074B084A084800F0F3FEC04646
:101D200000400540280100D09712002078120020C2
:101D300080E200E0C86B0010546C0010EC6B0010E7
:101D4000EFF3108C72B60A490B68002BFCD0BFF37E
:101D50005F8F01238340074A0748136202789A4342
:101D60000270BFF35F8F00230B608CF31088704705
:101D7000280100D00040054097120020682110B5CE
:101D8000024B034A034800F0BDFEC0462069001024
:101D9000886D00103C69001070B5002919D0057BD2
:101DA000A94216D84B0004685B18033BE318002ACD
:101DB00017D091420FD0AA420BD850008018033898
:101DC0002418A1701978002901D11A7070BD6170B2
:101DD000FBE7FFF7D3FF7121054B064A064800F0E9
:101DE00091FE7021054B034A034800F08BFEC0466C
:101DF000B8690010746D00103C690010AC690010E7
:101E000070B583600023CCB2437301330D000473BB
:101E100042608373C473012C10D90068421C0133E3
:101E2000DBB2137003329C42F9D1FF2129404B00F1
:101E30005B18C01800230338437070BD002C01D01C
:101E40000068F2E7FFF79AFFF8B505000C1E32D0E4
:101E5000017B8C423FD8630002681B19033BD318F7
:101E60005E78002E27D08E4235D87100891903394B
:101E70005218002157785170597032002100806843
:101E80006B689847002818D0320021002800FFF71F
:101E900083FF39002800FFF7D7FF061E0BD0320062
:101EA0002100A8686B68984700280DD032002100F7
:101EB0002800FFF771FF2000F8BD22003100280044
:101EC000FFF76AFF3400E4E7220031002800FFF743
:101ED00063FF3400EFE7FFF751FFC046F0B54F4610
:101EE000D646464604000D009146C0B5002900D1F3
:101EF000A1E0007B814200D98FE04B005B18226893
:101F0000033BD11898464B78002B00D08DE08B789E
:101F10009C46002B00D082E00E78002E66D08642D0
:101F200000D97AE073009B19033BD3185F78002F28
:101F300044D0B84200D270E07900C9190339521870
:101F400051788A466146517059703A003100A06854
:101F500063689847002851D03A0031002000FFF70D
:101F60001BFF370051462000FFF76EFF061E0BD007
:101F700032003900A06863689847002846D03200D4
:101F800039002000FFF708FF4B46207B002B1DD1B6
:101F90003E00B04241D3720023689219033A9B1865
:101FA00000229A70854238D82268002342443000CB
:101FB0005370E0BCBA46B146A846F0BD4A46002A76
:101FC000EED0E17B002905D1E573E2E7E17B002952
:101FD0001AD03E00884220D323684A0052189B182A
:101FE000033B5D70E573002EDCD0D2E74B46002B3F
:101FF000DBD0E17B0029EDD1E573D6E73200390073
:102000002000FFF7C9FEADE7E573C1E73A003100F4
:102010002000FFF7C1FE3700B6E7FFF7AFFE3B2118
:10202000084B094A094800F06DFD3A21084B064A61
:10203000064800F067FD3821064B034A034800F0CC
:1020400061FDC046FC6C0010606D0010786C0010E3
:10205000D46C0010706C0010F0B54F464646D64662
:10206000C0B5467B04008946002E00D1A2E0017B6A
:102070008E4200D990E077000368BF19033FDA1958
:102080005078002800D08FE090788446002800D057
:1020900084E01578002D65D0A94200D27CE06A006A
:1020A000501903381818924642789046002A47D0B3
:1020B000914200D270E052004244033A9B185A7891
:1020C0002900924662465A704270A0684246636890
:1020D000984700284ED0424629002000FFF75CFEBA
:1020E000A84651462000FFF7AFFE051E4AD02A0041
:1020F0004146A06863689847002846D02A004546B4
:1021000041462000FFF748FE217B4B46002B1AD1A9
:10211000A94241D36A0092462368524652199A183E
:102120000023033A93708E4236D823680022DB19CD
:1021300030005A706573E0BCBA46B146A846F0BD9F
:102140004A46002AE9D0E27B002A19D0914223D3E3
:102150002368500082189B18033B5E70E673002DC5
:10216000E1D0D5E74A46002AE0D0E27B002AEDD153
:10217000E673DBE72A0041462000FFF70DFEB0E7DB
:10218000E673C5E74546217BBFE7290042462000AC
:10219000FFF702FE217BB8E7FFF7F0FD3B21084B7C
:1021A000084A094800F0AEFC3A21084B054A0648A7
:1021B00000F0A8FC3821064B024A034800F0A2FCBC
:1021C000FC6C0010606D0010786C0010D46C001076
:1021D000706C0010F8B50500002946D0437B8B4297
:1021E0005ED0007B814200D970E04E002C687618EA
:1021F000033EA619B278002A37D0824266D853002F
:102200009B18033BE25CE7188A4232D0002A02D1D5
:1022100050E0002A54D082424CD853009B18033B14
:10222000E3185A788A42F4D172785A700023012256
:10223000B37073702800FFF751FE6E7B0400864276
:1022400046D0002E0ED0002811D022003100A86800
:102250006B68984700280FD0220031002800FFF754
:102260009BFD340001206C7300E00020F8BD3400B9
:10227000F8E773783B70D9E72A7B944226D863004D
:1022800029681B19033BCB1896421FD8720092197C
:10229000033A89188C701A78002A08D11E70E1E779
:1022A00001221900FFF71AFE68730120DEE74A7069
:1022B0001E70D7E76821094B094A0A4800F022FC42
:1022C0006721094B094A0A4800F01CFCFFF756FD3C
:1022D0006D21084B054A064800F014FC20690010E7
:1022E000886D00103C690010206D0010486D0010D2
:1022F000786C0010286D001010B50400FEF7BEFFCA
:1023000001002000FEF7A4FFFF232371BFF35F8FBE
:1023100010BDC04610B50400FEF7B0FF010020005C
:10232000FEF796FFFF23A380BFF35F8F10BDC0466B
:10233000A72110B5024B034A034800F0E3FBC04657
:10234000506E0010F86F0010686E0010992110B5E3
:10235000024B034A034800F0D5FBC046CC6E001088
:10236000EC6F0010686E001001238340002904D038
:10237000034A1360034A13607047034A1360FBE784
:1023800080E200E000E100E080E100E00122824024
:10239000034B1B6813405A1E9341D8B27047C04686
:1023A00000E100E0024B10309B688000C05870478D
:1023B00000ED00E010B5EFF3108C72B6114A13680F
:1023C000002BFCD0BFF35F8F0F4B10309B68800059
:1023D0001B580E4A934201D099420CD10A4B9B687C
:1023E0001950BFF35F8FBFF35F8F0022054B1A6058
:1023F0008CF3108810BD7C21054B064A064800F07E
:1024000081FBC046240100D000ED00E0CD010010AA
:10241000FC6E001008700010686E0010F0B5DE460B
:1024200057464E464546E0B50C0083B0EFF3108AA0
:1024300072B66A4A1368002BFCD0BFF35F8F10227C
:10244000914681444A46664B96009B689D59654B70
:1024500098469D4205D0A54216D0634FEB1B2F2B0B
:1024600014D95F4B9B689D51BFF35F8FBFF35F8FA4
:1024700000225A4B1A608AF3108803B0F0BCBB46A6
:10248000B246A946A046F0BD1D00EAE701238340FD
:102490009B465A46554B1B681A4001925A46544B6C
:1024A0001A60BFF35F8FFDF7DEFE002802D0814582
:1024B00000D082E001232A009A4393689C4208D10D
:1024C00072E04B005B189B00FB189968A1420BD08F
:1024D0001A00062151560029F3DA6021454B464A7D
:1024E0004648FF3100F00EFB06241C57002C3CDB55
:1024F00062001119890091467A1890689860D07925
:10250000D87106201056987100284ADB043188469D
:102510009188181DCA0A1C2A58D14A05121504327E
:102520004244BA18121A3648111F8446354862448C
:10253000824249D80A05E021520D09020A439A80D5
:102540004B461819304B80001A78381882711C706D
:10255000019B002B05D05A462C4B1A60234B1A6066
:102560007FE75A46224B1A607BE700280DD1FF21F6
:1025700091712749918024490A789A71254ADB1B79
:102580005B415A43120D0A70E2E7234AD21A083A15
:102590005108120B1CD1214A9A80214A0A43DA8041
:1025A000D6E7BD221202CAE7062414571300002CF6
:1025B0009EDA0028E9D14546DDE72C21194B0E4A69
:1025C0000E48FF3100F09EFAFFF7C0FEFFF7B0FEA5
:1025D000A121154B154A094800F094FA240100D0B6
:1025E00000ED00E0CD010010D403002000E100E088
:1025F00080E100E0686F0010D86F0010686E001076
:10260000FC070000FE0F00009612002080E200E0B0
:1026100000BDFFFFAAAA00000E04002000F0FFFF8B
:1026200000F8FFFF346F0010586F0010C06F0010EB
:10263000032310B50400074A18409446C0009C4389
:10264000FC3383406444226881409A4313000B4367
:10265000236010BD00E400E0F8B50126314C0643CC
:102660000500331B2F2B55D8FDF7FDFD00284AD060
:10267000EFF3108C72B62C4A1368002BFCD0BFF31A
:102680005F8F2A492A008F68294B121B52415343FE
:102690001B0D5AB28300F858B04217D00623E356F8
:1026A000934222D01223E356934228D01E23E356AE
:1026B000934226D02A23E3560321934216D0CC21FD
:1026C0001C4B1D4A1D48490000F01CFA89681C4833
:1026D000C8501C4B19781A70A971BFF35F8F002284
:1026E000114B1A608CF31088F8BD00214B005B1869
:1026F000FF219B00E318997113499980E9E70121B3
:10270000F4E70221F2E78821104B0B4A0B48FF3116
:1027100000F0F8F9C2210E4B074A0848490000F0C2
:10272000F1F9C046D4030020240100D000ED00E000
:10273000AAAA0000206D0010A46F0010686E00109F
:10274000CD0100109612002000BDFFFF986F001011
:10275000706F0010054B064A1360064A1360536001
:102760009360D36013615361936170478080808070
:1027700000E400E004E400E0F0B583B005000E00E2
:102780001400FEF7BFFD002801D003B0F0BD154FC7
:1027900001223B0001210097053000F071FA33005F
:1027A0002A0000940121104800F062FC210028005A
:1027B000714302F019F804000C4B0022009302212F
:1027C000042000F05DFA230000220121009405207E
:1027D00000F056FA3B00022200210097062000F08C
:1027E0004FFAD2E7006CDC0200800240001BB70009
:1027F000F0B5DE4657464E464546E0B5070085B083
:10280000042003930191029200F02CFCFA2189002C
:1028100001F0EAFF32238246FF3399468600564490
:10282000B6014F4B4F4AF318072493420ED90123A8
:102830005B429C465346E144F61A4B46002BF0D1CE
:1028400000205DE0002900D186E006242100300050
:10285000614301F0C9FF874242D0631E9846012CB4
:10286000E5D01D0065433000290001F0BDFF87421F
:102870004DD0A31E9B46022C4FD02D1B29003000AB
:1028800001F0B2FF87424AD0E31E9B46032C61D081
:102890002D1B2900300001F0A7FF874243D0231FE2
:1028A0009B46042C45D02D1B2900300001F09CFFD5
:1028B000874240D0631F9B46052C42D02D1B290028
:1028C000300001F091FF87423DD04346052B3FD0B9
:1028D0003000E91F01F088FF8742B3D00624B5E736
:1028E0000029BAD1A04673019B1B9B00019A9B193A
:1028F000DB00136042460120029B1C60039B1A60B0
:1029000005B0F0BCBB46B246A946A046F0BD0029C2
:10291000E9D0A31E9B46022CAFD1012496E70029E3
:10292000B2D1D846DFE70029FBD0231F9B46042CF9
:10293000B9D103248AE70029F3D0631F9B46052CF5
:10294000BCD1042482E70029EBD04346052BBFD13C
:1029500005247BE7022479E701239846C3E7C046B4
:10296000508EF4FF50F80C00094A10B594464024EC
:10297000830063441A68C00062408034144080229F
:10298000520113431C60034B9C466044416010BDE0
:1029900004C0014000400140074BC0009C46604419
:1029A000036809025940C0239B00194080235B0142
:1029B000034319607047C04604400140F8B5040065
:1029C00006200D0000F04EFB002844D02A4B2B4976
:1029D000E21853425A418023DB039C469205284B60
:1029E00062441A60274B1A6010008B689843FBD131
:1029F000214B254AE31859424B4180215B00490095
:102A00009952062000F02EFB2900C00001F0ECFED8
:102A1000C30921D140270121260080256162A362DC
:102A200000232C36AD0135432B60062000F01AFB45
:102A30003900800001F0D8FE6022E36A53400E3274
:102A40001A4080235B0133431A60104B2363102329
:102A50002B600D3BA364F8BD0D4A934203D90023BC
:102A60000C4F0D49D8E77F220240013252089F01E6
:102A70001900BF181300CFE70080FCBF00C0004062
:102A800000E0004000F00040881200200103000038
:102A9000FEFF0000C0FF3F00FFFF000030B5054D06
:102AA000AC6F6408FDD3296E6A6E6B6F2C6F1EC00D
:102AB00030BD0000000000D030B5034D1EC82966AF
:102AC0006A666B672C6730BD000000D0094A0300BE
:102AD0001068002805D00849C3188B4207D8136036
:102AE000704706480449C31810608B42F7D901208B
:102AF0004042F5E744120020000004209812002014
:102B000000BEFDE730B50D000400190083B0002AB7
:102B100009D0064B0192009322002B00044802F0DA
:102B2000EFFF00BEFDE7034B1A00F3E7247000102F
:102B30003470001030700010334B344A70B51A6096
:102B4000334A344B34491A6014008B689C43FBD1E0
:102B5000324D334EB54208D2013E761BB60808CD41
:102B6000984723000134B342F9D100F023F92D4AEC
:102B7000284B1A60284A9368DB43DB01DD09002BF0
:102B8000F9D14022284B294C294E9A675A671A6777
:102B9000DA66B4420AD22368002B27D0012B2CD14D
:102BA00020000834FFF7B6FBB442F4D3214C224E88
:102BB000C0222000B16802F0EBFDB460FDF753FBCA
:102BC000002818D1FEF74CFBFFF7C4FDFEF7C2FE4C
:102BD0001A4C1B4EB44208D2013E361BB60808CC34
:102BE00098472B0001359E42F9D170BD2000FFF7B8
:102BF00083FB0834CDE700BEE4E78321114B124A82
:102C00001248FFF77FFFC04600E00040BFCDFBFE4B
:102C1000FE7F3C0000F0004000C000409C09002006
:102C2000AC090020FFFFFF0100F001408C090020EB
:102C30009C0900200000002000ED00E0AC0900200D
:102C4000B40900206470001000710010847000103E
:102C50000FB400B5084883B002F0B2FE049B002B0D
:102C600007D005A91800019102F0E0FE034802F028
:102C7000A7FE00BEFDE7C046EC700010FC7000101F
:102C8000F0B54E464546DE465746E0B583B0019264
:102C90000C9A05008946934200D27AE01A0E9346B8
:102CA0001E023000002359460C9A01F0DFFD3C4B18
:102CB0006C009C466419A400644463680700834266
:102CC00034D32B1FDBB29846012B35D9C023802289
:102CD0009B01234312011A60324BAD0059599A46A9
:102CE00000294FD1019B22685B015340E0221A402A
:102CF00080235B0123431A604246012A35D9802391
:102D000080229B01234312011A6030003A00002305
:102D10005946676001F0AAFD53465851012003B09F
:102D2000F0BCBB46B246A946A046F0BD2B1FDBB2A5
:102D300098466060012BC9D84B46012BC6D1C023F1
:102D400003229B0123431A60023AA3681A42FCD073
:102D5000019B22685B015340E0221A4080235B0103
:102D600023431A600F4AAD0092464A4621685140FB
:102D700003220A401A6001224B469A40A3681A4275
:102D8000FCD0BCE7586901F02FFD01300138FDD1BE
:102D9000A8E72D21044B054A0548FFF7B3FEC046BE
:102DA00000800040D01100201C7200103072001012
:102DB0005471001010B50C2082B000F0E9F9FEF754
:102DC000A1FA00280ED0854B854A1A605A609A6095
:102DD000DA601A615A619A61DA611A62814A5A624A
:102DE00002B010BD804CA06700F0DAF901227F4BE1
:102DF0001A60636C012BFCD103227D4B1A607A4A66
:102E0000936B012BFCD1013301217A4A7A4800935C
:102E1000043300F02DF90523784A00930121784806
:102E200000F026F9774B5A68FF2A02D88022520018
:102E30005A6080226E4B694C12011A602169002988
:102E400005D0606901F0D0FC01300138FDD1E022ED
:102E50006C4B6D4819680A400260022219685140A3
:102E600001320A40042102609A681142FCD080219C
:102E7000664A09011160802252005A60644B236146
:102E8000644B5968FF2900D85A6003220121574B2F
:102E90001A60604A93681942FCD0E023106803402E
:102EA0005D480360126803234A4002211340594AD7
:102EB000036093681942FCD08021584B09011960C6
:102EC0008021574B490051606361564B5A68FF2A75
:102ED00000D859608022544B12011A60E169002920
:102EE00005D0606901F080FC01300138FDD1E0239C
:102EF0004C4A11680B404D490B6080214C4B090135
:102F000019608021364B49005160E361494B5A6892
:102F1000FF2A00D859608022474B12011A60216AAB
:102F2000002905D0606901F05FFC01300138FDD156
:102F3000E023404A11680B4040490B608021404B20
:102F40000901196080235B0053608022244BD20268
:102F500023623C4B5968914200D25A6080223A4B1E
:102F600012011A60616A002905D0606901F03CFC19
:102F700001300138FDD1E023324A11680B4033495A
:102F80000B608021324B090119608023DB02536002
:102F9000144B63622F4B5A68FF2A02D880225200DA
:102FA0005A6080222C4B12011A60A169002905D0B9
:102FB000606901F019FC01300138FDD1E023254A98
:102FC00011680B4025490B608021254B09011960D0
:102FD00080235B005360124BA36101E7D0110020F6
:102FE000006CDC021BB70000008000403CB00040D9
:102FF00030B00040002F685900800240008C8647A6
:1030000000C00240308000403090004030A00040BE
:10301000001BB7003C8000403C9000403CA00040BA
:10302000405973075480004054B000405490004011
:1030300054A000406080004060B0004060900040BC
:1030400060A000406C8000406CB000406C9000407C
:103050006CA000404880004048B0004048900040CC
:1030600048A00040014B8000C0587047D01100209C
:10307000F8B5170004000C201D000E0001F0B4FB91
:10308000374BFA18374B9A4263D843011B1A990100
:10309000C91AC90009188901380001F0A5FB02000E
:1030A0009823103A5B009A424DD86B1E062B3ED8EF
:1030B000069B013B062B3AD8069B9D423DD31F033E
:1030C00023682D043D43002B20DB274B2749E318C1
:1030D0005A4253418022520194461B03244A6344BE
:1030E0001360244A13601F008A689743FBD1C023F2
:1030F000221D9B01134321222660A0601A602268D2
:10310000002AFCDA0822E5601A60F8BD3F23226835
:103110001340B342D9D1A3681B051B0D8342D4D100
:10312000EE22E368D2021340AB42CED1EDE71C2180
:10313000114B124A1248FFF7E5FC2221114B0F4AAE
:103140000F48FFF7DFFC19210F4B0C4A0C48FFF723
:10315000D9FC11210D4B094A0948FFF7D3FCC046A1
:1031600080E84BD380F8A9320040FDBF00C000408A
:1031700000E0004000F00040207300108473001055
:10318000A07200106C7300100473001040720010E5
:103190008023024A9B000343D362704700800540AE
:1031A000AA23064A1B0113602F230549D360054B50
:1031B00019605368002BFCDA7047C046004002409B
:1031C00000B0FA00006002407047C046F8B55746AC
:1031D0004546DE464E46E0B598460A9B06009A46AE
:1031E0000D9B0F00934615009B0710D10B9B0C9A6B
:1031F00093420CD213005C460B9A9D1A5D44220048
:103200004346013439002020B047A542F7D10B9C3A
:103210006319002C09D01D0053462A1B013C185D80
:1032200039004346B047002CF6D10D9B9B070ED5C5
:103230005B46EC1A0C9BA34209D999462A004346E7
:10324000390020200134B0470135A145F6D82800C7
:10325000F0BCBB46B246A946A046F8BDF0B54F4605
:103260004646D646C0B584B098460EAB1B78129F32
:10327000994694460D9C109B119EBA0725D4002EAA
:1032800061D19C4200D3C0E001223A4092461F2CFB
:1032900000D9B9E00C9A551E302201E0202C03D051
:1032A00001342A55A342F9D85246002A0DD0A6422D
:1032B0000BD90C9A551E3022202C02D155E0202C1F
:1032C00053D001342A55B442F9D1FA062DD57A05E6
:1032D00054D4002C4ED10F9B102B00D188E00F9BB3
:1032E000022B19D030230C9A012413704B46002B6B
:1032F00020D02D230C9A135501340C9B6246009369
:103300000397434602960194FFF760FF04B0E0BCC8
:10331000BA46B146A846F0BD01240C9A603313703A
:1033200030220C9B1B191A700134202CE5D04B461F
:10333000002BDED17B0730D43B07DED520230C9A4F
:1033400013550134D9E7012215003D40AA463A42FF
:103350001CD04A46002A2BD10C323A4228D19C423A
:10336000A5D21F2C96D9202E15D92024FA06C4D513
:103370007A0503D4A3421DD0B4421BD00F9B102B5F
:1033800023D0022B0ED0202CB7D0C9E79C429CD270
:103390001F2C00D87EE7202497E72B230C9A135587
:1033A0000134AAE7202CA8D00C9B1B19013438E06B
:1033B000013ED4E7631E012C00D18CE70F9A102A3E
:1033C00025D0022A2AD01C00AAE7BB0607D4202C4D
:1033D00093D00C9B1A19013478231370D3E7202C57
:1033E00000D18AE758220C9B1B191A700134CAE7D6
:1033F000BB0604D478230C9A0124137090E7582359
:103400000C9A012413708BE7202400265DE7023C10
:10341000BA06E7D40C9A12191C00DDE70C9A924602
:10342000534462221A70AEE70B0010B5002802D098
:1034300049681B68984710BDF0B5DE4657464E46B2
:103440004546E0B59BB09B46249B89469846259B04
:103450000B900C924046424619009A4601F095FCAA
:10346000002800D0D8E0012240465146774B524216
:1034700001F086FC002800D0CEE0012240465146F3
:10348000734B524201F066FC002800D0C4E00022D9
:1034900000234046514601F05DFC002800D0B9E110
:1034A000424653460A9209938023289ADB001A4029
:1034B0000E92289A1A4201D1062326930A9A099B52
:1034C0001600134300D0C7E0289B002500261B05EB
:1034D00000D49BE100230D93269A0D9B9A4200DCB9
:1034E0009FE1D31A013B26938023289ADB001A43DD
:1034F0000023002728920D93279B0024BB4200D96C
:10350000DC1B0223289A1A400E92289A134203D0F9
:103510007B427B415B421C400D9B002B07D00A98ED
:1035200009992A00330001F0B4FB0A9009910022A6
:1035300000234046514601F00DFC002805D08020B4
:1035400000068446099961440991289A414B0B9DD4
:1035500013400493269B0A9A0293099B03940092BA
:10356000019349465B4628000C9A00F08BF9040051
:10357000002F62D0289B220098061F23C017984373
:10358000631C984649465B466530A8470D9A00255E
:10359000D317D4185C40D30F9A46013F01E0202D89
:1035A00013D00AAA94461F23200063440A21013540
:1035B0005E1901F019F93031317020000A2101F053
:1035C00013F926000400092EE9D8052306930023E9
:1035D00004930A330393534605970B9F029312AB50
:1035E000009342465B46494638000195FFF736FE98
:1035F0000E9B0400002B20D00C9BC51A279BAB42CE
:103600001BD91E0022005B46494620200135B847E1
:103610000134AE42F6D810E0289B42460493279B23
:1036200049460393269B0B980293534600920193BD
:103630005B460C9A00F026F9040020001BB0F0BC99
:10364000BB46B246A946A046F0BDC046FFFFEF7F8D
:10365000FFFFEFFFFFF7FFFF734B099F9C467800CA
:10366000400D604401F0A4FB704A714B01F02FFB48
:10367000704A714B01F004FB3B03704A1B0B1A4369
:1036800004000D00300011006D4B002201F0EFFA34
:103690006C4A6D4B01F01BFB02000B00200029005F
:1036A00001F0EEFA01F09CFB0D9001F081FB674AFE
:1036B000674B04000D0001F00AFB0022654B01F08E
:1036C000DFFA01F08DFB644A0600644B20002900FC
:1036D00001F0FDFA040030000D000F9601F068FBC8
:1036E0005F4A604B01F0F3FA02000B002000290052
:1036F00001F0BDFA02000B0006000F0001F0E7FA2E
:10370000320004000D003B003000390001F0B8FA2F
:10371000002210901191544B2000290001F0B9FAB9
:103720000022524B01F0ACFA02000B0020002900ED
:1037300001F0AFFA00224E4B01F0A2FA02000B009A
:103740002000290001F0A5FA0D00802104003200BC
:103750003B000020C90501F08AFA02000B0020009E
:10376000290001F08DFA02000B001098119901F068
:1037700090FA0022314B01F083FA3E4B0F9C9C469D
:1037800064440022230501F0A2FA05000E000200A5
:103790000B000A98099901F0DDFA00280AD00D9B68
:1037A0002800013B31000D930022304B01F071FAEB
:1037B00005000E00C6270D992B0063318F42BF41D3
:1037C00028997F420437090500D495E6334300D198
:1037D00082E6099C284A2100284B0A9801F0C8FA81
:1037E000002808D000222100254B0A9801F0B2FAE7
:1037F000002800D070E6269B002B00D17CE60E9BB3
:103800005A1E9341269AD31A269375E6002304275D
:103810000D9371E643460A9380231B065344099394
:1038200042E6002326935FE601FCFFFFFB799F50F1
:103830001344D33FB3C8608B288AC63F0000F03FD3
:103840000000F83F61436F63A787D23F71A37909F6
:103850004F930A400000E03F1655B5BBB16B0240E4
:10386000EF39FAFE422EE63F00002C4000002440D3
:1038700000001840FF0300002D431CEBE2361A3F06
:1038800080842E41F0B54E46DE4657464546E0B5AB
:1038900097B09946209E219F229B83469846079188
:1038A0000C923B0032003000390001F06EFA002823
:1038B00000D0ADE1012230003900CC4B524201F082
:1038C00049FA002800D003E1012230003900C84B3A
:1038D000524201F055FA002800D0D9E00022300011
:1038E0003900C44B01F04CFA002800D0BBE00022A4
:1038F00030003900C04B01F02DFA002800D0B2E0B2
:10390000002200233000390001F024FA002800D002
:10391000D3E000230D93249B5B0501D40623984636
:1039200008AB9C461722002430234146624404E041
:10393000013413550139202C01D00929F8D88846C3
:103940003000390001F04CFA4246AC4BD2009B18D3
:103950001A685B6805000892099301F029FA0200D1
:103960000B003000390001F082F9089A099B01F040
:10397000AEF90A900B9101F057FA824601F014FA61
:1039800002000B000A980B9901F071F900229C4B80
:103990000A900B9101F0F4F9002800D1E2E0012334
:1039A0009C46E244504601F0FFF902000B000898E3
:1039B000099901F0D5F9002802D000239A46013573
:1039C0004346002B00D18BE008AB17269C46089598
:1039D0006644554614E001235B4243440A21280013
:1039E0009A4600F001FF0134303137193970280050
:1039F0000A2100F0F9FE092D00D8D0E0D0460500DC
:103A0000202CE8D10EAB98460323249A1340012BB7
:103A100000D0E8E0239A2023002A1DD00D9A002A26
:103A200000D0FDE024990C320A4215D0239A013AC5
:103A30002392239A9A4200D805E108AA94461721B6
:103A400030226144202B07D023980133CA5483428B
:103A500000D1E9E0202BF7D1249A01930392239A15
:103A6000434602921EE0249B58460493239B0096F3
:103A70000197039343460C9A029307994B46FFF72D
:103A8000DBFC17B0F0BCBB46B246A946A046F0BD71
:103A9000249B5B070ED403225A4B24990192039175
:103AA00023990291009358464B460C9A0799FFF7C9
:103AB0008DFBE6E70422544BEFE73B003200002089
:103AC000002101F0D4F8012306000F000D9322E736
:103AD000249B0393239B0293042301934B4BE1E725
:103AE000280001F065F902000B003000390001F0F8
:103AF000BEF8434B002206000F0001F02BF90EAB7D
:103B0000984600280AD10022300039003C4B01F0D1
:103B100037F9002802D1EB0700D50135202C00D160
:103B200072E708AA94461723280063440A21013447
:103B30001E1900F031FE3031280031700A2100F0EA
:103B40002BFE051EEAD10323249A1340012B6DD0CE
:103B5000202C48D00D9B002B14D02D224146631CF5
:103B60000A5579E700220A980B99254B01F0F2F8E3
:103B7000002800D024E75346002B30D101239C4677
:103B8000E2441DE7249B5B0724D4249A23001207F8
:103B900000D461E72022414601330A555CE75746CD
:103BA000089D202C00D12DE7220030214046002F17
:103BB00009D00132B154202A00D123E7831A013BF6
:103BC000E318002BF5D10EAB98462E234146541C2A
:103BD0008B54A3E72B224146631C0A553CE7DB07C5
:103BE00000D4EDE6CAE7202336E7C046FFFFEFFF2B
:103BF000FFFFEF7F65CDCD4165CDCDC1487500108C
:103C00000000E03F9873001090730010A073001044
:103C1000249B0393239B0293032301930C4B41E7C3
:103C2000239A013A239217E7040091E7239B002B84
:103C30008ED00D9B002B08D10C2224992300114219
:103C400000D1F6E6F2E61C0082E72300EEE6C0466D
:103C50009C730010F0B5DE4657464E464546E0B52B
:103C6000A1B01C002A9B81468B46924609930029ED
:103C700000D12BE120780027002800D12DE1CB4B8B
:103C80005E460893CA4B0C9309E03A005346310054
:103C90007D1CC8472F0001342078002871D02528CA
:103CA000F3D110239B460C3B9846023B00229C46D6
:103CB0000134207825000300203BDBB2102B03D811
:103CC00008999B00CB589F460300303B092B6BD9CA
:103CD000002398462A2800D18AE000230A932E2840
:103CE00000D176E00300683BDBB2122B1CD8B1494F
:103CF0009B00CB589F46012301341A43D9E7634602
:103D000001341A43D5E7434601341A43D1E75B46F1
:103D100001341A43CDE7082301341A43C9E780234D
:103D20005B0068781A43013567280AD824281DD912
:103D30000300253BDBB2422B18D80C999B00CB58D3
:103D40009F460300693BDBB20F2B0FD801219A4C31
:103D50009940A4460C400B946446214200D0FFE1F8
:103D60000A2B00D1E1E0072B00D1B8E07B1C98467C
:103D70003A00534631006C1CC8472078474600285B
:103D80008DD1B3463C00BA4501D853465F1E534619
:103D90003A0059460020C847200021B0F0BCBB467D
:103DA000B246A946A046F0BD002301009800C01805
:103DB0000135400040182978030008003038303BB6
:103DC0000928F3D99846002308000A932E2800D02A
:103DD00088E780236878DB001A430300303B691CC6
:103DE000092B00D804E12A2800D113E10D0079E75E
:103DF000099B02CB8846002903DB60780993651C88
:103E00006BE702210A43414649428846607809939C
:103E1000651C62E768786C2800D120E280235B0093
:103E20001A43013580E780239B0068781A430135E7
:103E30007AE76878682800D117E2802301351A43B1
:103E400072E7462800D188E10721099B0492424687
:103E500007338B43190003920A9A484602920CC911
:103E60000092019309913A0053463100FFF70AFD91
:103E70006C1C070010E77B1C98463A005346310043
:103E80002520C84747466C1C06E7920700D42EE25F
:103E9000099B3A0001CB31009B46C0B25346C8474C
:103EA00043467C1C4744012B00D8F8E2A8464D4607
:103EB00022005346013431002020A847BC42F7D1EC
:103EC000A9465B46454609936C1CE5E63B4B2078CA
:103ED00099460027002800D0D1E6002453E7099B2B
:103EE000190008C98846002B00D1A3E021210A430C
:103EF000934610A98C461F220F21624409958C46D7
:103F000015000B9C02E0202C0CD0130060461840DA
:103F100001003731092800D80739013429551A0919
:103F20000F2BF0D8099D0B948DE0099B02CB1293C7
:103F30000A9B8B46002B77D1087802214942002842
:103F40000CD001315C46594401E08C4203D06378C7
:103F50000134002BF9D15B46E31A0B938023110047
:103F6000DB00194009911A4204D00A9B0B9999422F
:103F700000D90B930223190011400D91134200D177
:103F800096E1002800D17EE1099B002B00D14DE194
:103F90000A9B3A009C465B46BC44DB1B64469B463E
:103FA0004B460994A9461D0014E0C046A8730010B2
:103FB00038740010EC73001041900000C9310010FB
:103FC00053463100571CA8475B46D85D002800D1F6
:103FD00055E13A009442F3D12B004D469946099F92
:103FE0000D9B002B00D04EE1129B6C1C099353E6F5
:103FF000002304009800C0180131400000190C781B
:10400000030020003038303B0928F3D920000D0090
:104010000A9367E6099B023501CBC143C9170840E3
:104020000A90099328785DE60878002896D00A9BC4
:10403000591E86E71021100088431131084383463A
:10404000520500D455E75B460693082305930A9B67
:104050003A00049310230393002302930B9B310037
:10406000019318AB009348465346FFF7F7F84346D1
:1040700007006C1C09930FE6202301009943472990
:1040800004D180231B011A4302239843452801D100
:1040900020231A430721099B0492424607338B438E
:1040A000190003920A9A484602920CC900920193A1
:1040B00009913A0053463100FFF7BEF96C1C070026
:1040C000EAE5622800D1F6E16F2800D132E15828F4
:1040D00000D1CFE010239A43063B0D93692800D00E
:1040E00024E10B92530546D501230B9A9A430B9278
:1040F000692840D064283ED00B9A802311009B0091
:1041000019408B461A4200D0DCE1802314005B008A
:104110001C401A4200D07BE213005B0600D48BE106
:10412000FF22099B02CB11408B4609935B46002B73
:1041300000D08CE10B9A1033110099430B9152057A
:1041400000D484E100240B9B0693434605930A9B0D
:1041500004930D9B0393002361E120231A4373E62C
:1041600010230D937828ACD10C23110099430B91A7
:104170005205B9D4BCE70B9A802311009B0019406B
:104180008B461A4200D0D8E0802314005B001C400C
:104190001A4200D0E2E113005B0600D527E11300CC
:1041A00009991B0600D495E208C91BB2D8171A1842
:1041B000424092B209919346DA0F1392002B09D133
:1041C000802310220B99DB000B4091430B91002BB5
:1041D00000D01BE10B9A6123920600D54123DBB28C
:1041E00010A90A3B1F228C46129343466244A846FC
:1041F00014970D9D5F461593B34616000AE03033C1
:10420000DBB201343355AF4200D24EE1202C00D155
:104210004BE107002900380000F0E6FACBB209298B
:10422000EDD9129A94466344DBB2EAE75B46DB1BA6
:104230009B460B9B4C4699465346AA461D003A00A6
:104240002B003100A0475B460137D85D0028F6D12E
:104250004B460B932B00A14655469A46C0E6C02319
:104260009B00A8781A4302355EE5C023A8781A435C
:10427000023559E520231A43103B0D9374E72B00B8
:104280004D469946ACE60B9BBB46984500D8ABE63D
:1042900047445C46A8464D46FF1A22005346013467
:1042A00031002020A847BC42F7D1A94645469BE6ED
:1042B0000B9A531C904500D822E24346DB199C1A06
:1042C0004B46A9461D003A005346013731002020D5
:1042D000A847A742F7D12B004D46994643460133E4
:1042E0000B935B461878002800D04DE67CE64346E9
:1042F000012B00D802E27C1E4444A8464D463A00F9
:104300005346013731002020A847A742F7D1A946DC
:104310004546099B220001CB31009846C0B2534666
:10432000C8474346671C09936C1CB5E4642800D158
:10433000D7E619E708230D9316E70722099B0733F1
:104340009343013294469C44624609920CCB9C46AE
:10435000DB171093119310981199030053400E939B
:1043600064460B0063400F930E9B0F9C1B1A8C41FD
:104370000E930F946346DB0F139300239B46634613
:104380001A433BD00B9A6123920600D54123DBB23E
:104390000A3B1293434610A91F228C460024159312
:1043A0004B466244B1461497169527000E9C0F9D0C
:1043B00090460D9E17930CE03032D2B2434601373F
:1043C000DA55AB4500D177E1202F00D177E1040029
:1043D0000D00320000232000290000F047FAD2B27D
:1043E000092AE9D9129B9C466244D2B2E6E7FF2231
:1043F000099908C913401A000991DCE60B9A1023A9
:104400001100994300240B915205BBD50B9B0693D9
:10441000434605930A9B04930D9B0393139B0293BE
:1044200018AB3A0001940093310053464846FEF71A
:1044300015FF6C1C07002FE413001B0600D458E185
:10444000099B04CB1204120C934609936EE60B9A57
:104450006123920600D5412310A91F228C46DBB2AE
:1044600062440A3B139714965F461600AB461293BC
:104470000D9D08E03033DBB201343355AF421DD31C
:10448000202C1BD007002900380000F0ADF9CBB27A
:104490000929EFD9129A94466344DBB2ECE75B46F4
:1044A000270009936C1CFFF7F7FB159B45465E46FA
:1044B0009846149FAAE702230D9355E65D46139F85
:1044C000149E40E60722099B07339343013294462A
:1044D0009C44624609921A685B6810009B46130070
:1044E0005A46134307D10B9A1033110099430B918D
:1044F000520500D526E60B9A6123920600D541238A
:10450000DBB210A90A3B1F228C4612934346624439
:104510001397159500245D460700B34690460D9EFF
:1045200014930DE03032D2B2434601341A550023C1
:10453000AB4200D1D4E0202C00D1D4E007000D0024
:10454000320000233800290000F090F9D2B2092A85
:10455000E8D9129B9C466244D2B2E5E7099B1A0057
:1045600008CA1592DA179C185440DA0F1492002BDF
:1045700008D1802310220B99DB000B4091430B9153
:10458000002B2BD10B9A6123920600D5412310A951
:104590001F228C46DBB262440A3B129713965F4699
:1045A0001600AB4609930D9D08E03033DBB20137AE
:1045B000F355AC420ED3202F0CD00400290020006C
:1045C00000F012F9CBB20929EFD9099A9446634455
:1045D000DBB2ECE75D46139EBB46129F0B9B3A0095
:1045E0000693434605930A9B310004930D9B48466E
:1045F0000393149B6C1C02935B46019318AB0093CE
:104600005346FEF72BFE159B07000993FFF744FB6B
:10461000099B10CB1493002C08D18023DB001100E0
:104620001340102291430B91002B2BD10B9A612345
:10463000920600D5412310A91F228C46DBB26244AA
:104640000A3B129713965F461600AB4609930D9DE1
:1046500008E03033DBB20137F355AC420ED3202FE4
:104660000CD004002900200000F0BEF8CBB20929CC
:10467000EFD9099A94466344DBB2ECE75D46139E9A
:10468000BB46129F0B9B3A000693434605930A9B39
:10469000310004930D9B48460393002302935B462D
:1046A000019318AB00935346FEF7D8FD149B070007
:1046B00009936C1CFFF7F0FAA64200D884E6159B1C
:1046C0000E940F959846179B3C004E46169D9946B2
:1046D000149F9BE608C9D8171A18424009916AE549
:1046E000BE4200D827E7149B5E469846139F159D4F
:1046F00029E5099B04CB9346099317E53C0008E69E
:104700000B93F0E500B585B0039101210290009371
:10471000034813004A4202A9FFF79CFA05B000BD06
:104720002934001001480421014B184720040020BF
:1047300055470010142310B50100188804331B8856
:10474000984710BD162310B50100188802331B8846
:10475000984710BDF8B54746CE4680B50F1E19D014
:1047600014239946043304000025012698464B463D
:104770001888434621681B88984701C4431E984106
:10478000013540420640AF42F1D13000C0BCB946CD
:10479000B046F8BD0126F8E7124A936F9B0815D280
:1047A0009066D166002905D0FFE7FFE7FFE7516F6C
:1047B000106F704704B580210906C21751400028C8
:1047C00000D0C84301F0ACFF002104BDF0B5146E69
:1047D000556E576F166FFFF7E3FF14665566576700
:1047E0001667F0BD000000D0114A936F9B0813D2EA
:1047F00010665166002905D0FFE7FFE7FFE7516F1C
:10480000106F704704B5002801D00020C04301F0AC
:1048100087FF002104BDC046F0B5146E556E576F7A
:10482000166FFFF7E5FF1466556657671667F0BD0C
:10483000000000D094464E4A926F9208624601D220
:1048400030E0C046F0B54A4EB56F6D08FCD3346E0B
:10485000756E776F366F00F025F89446444A1466FB
:104860005566576716676246F0BDC0469446404A93
:10487000926F9208624601D258E0C046F0B53C4EB5
:10488000B56F6D08FCD3346E756E776F366F00F0C0
:104890004DF89446364A1466556657671667624661
:1048A000F0BDC046002B24DB11D000293EDA00B554
:1048B000C943404200D1013100F038F8C9434042B9
:1048C00000D10131DB43524200D1013300BD002A47
:1048D000EBD1002801D1002905D00020C90FC9075C
:1048E00001D1C043410800B501F012FF00220023AE
:1048F00000BD00B500290ADBDB43524200D1013381
:1049000000F014F8C943404200D1013100BDC94351
:10491000404200D10131DB43524200D1013300F06B
:1049200005F8DB43524200D1013300BD002923D1F9
:10493000002B18D1002A0CD0BC460D4F38667A6681
:1049400000210023FFE7FFE7FFE77A6F386F674634
:104950007047002801D00748010000B501F0D8FEDB
:104960000022002300BD02000B0000200021704740
:10497000000000D0FFFFFFFF002B00D0BFE0130CB2
:1049800028D1002AE7D080B4114F39667A66FFE754
:10499000FFE730B4040C7B6F396F1B0423433B6685
:1049A0007A66FFE7FFE7FFE7C04684B27B6F3D6FA3
:1049B0001B0423433B667A66FFE7FFE7C0460023FC
:1049C0002C042D0C7A6F386F00196941B0BC704708
:1049D000000000D0F0B594460025140E01D112025B
:1049E0000835140F01D112010435940F01D1920042
:1049F0000235D40F01D152000135D40B0134254FBB
:104A00007C66254C3C660E0C93B2FFE7FFE7FFE7A0
:104A10003C6F6643360C7703BE467343DF0B5B0483
:104A2000C01AB941130C7343DB18C91ACE08664388
:104A3000360CB64493B273431F0F1B01C01AB94121
:104A4000130C73431F0B1B05C01AB941860D8F024F
:104A50003E436643360C092D24DB520A7243801A0A
:104A60007703460A6643360C16235B1BDE40DF40A5
:104A7000BF1964466643821B704604350633010045
:104A8000D940A840C01900D30131A24206D2002368
:104A9000F0BD0000000000D0FFFFFFFF121B01303F
:104AA000F3D3F1E709277F1BFE406446A2B27243AD
:104AB000801A00D20139220C7243130C1204821A9C
:104AC00099410B007046043513370100F940A840A6
:104AD000801900D30131002B02D1A2420AD2F0BDCD
:104AE000013000D30131121BFAD2013BF8D1A242AE
:104AF00000D2F0BD013000D30131121BF7E7F0B551
:104B00001C0C00D080E00CB400251C0A04D11B0250
:104B1000160E3343120208351C0B04D11B01160F6D
:104B20003343120104359C0B04D19B00960F334391
:104B300092000235DC0B02D192185B4101351C005A
:104B4000971864410134464F7C66464C3C660E0C17
:104B5000FFE7FFE7FFE7C0463C6F6643360C77038D
:104B6000BE4697B27743C01B00D20139C01B00D2AA
:104B700001399FB27743C91BC91B170C77437E04C9
:104B8000FF0B801BB941CE086643360C0C2D33DB7E
:104B9000B644120B1F053A431B0B97B27743C01B59
:104BA00000D201399FB27743C91B170C77433E04EB
:104BB0003F0C801BB941860D8F023E436643292777
:104BC0007F1BFE400C3D7746AF40BF1930BCA2B200
:104BD000ABB272437343801A9941220C7243130C97
:104BE0001204801A994102000B000137001BA941F1
:104BF000F9D2781E0021F0BD0C277F1BFE407746BE
:104C00007F0BAF40FF19E0E700245D1C07D0144F75
:104C10007D663966FFE7FFE7FFE7FFE73C6F95B288
:104C20009EB265436643401BB141150C1E0C6543A3
:104C3000664336042F0C3E432D04401BB14199427C
:104C400004D202000B0020000021F0BD01D19042EF
:104C5000F7D3801A994101349942F2D3F6E7000064
:104C6000000000D0FFFFFFFF48404140484018B41B
:104C70001B4B5B68FC46019308BD04DF774F0010B7
:104C800018B4174B1B68FC46019308BD00DF814F29
:104C900000109446134A926F920809D2624618B4E3
:104CA0000F4BDB68FC46019308BD0CDF3952001046
:104CB0000C4AF0B5146E556E576F166F6246FFF7CB
:104CC000EEFF084A1466556657671667F0BD18B4BC
:104CD000034B9B68FC46019308BD08DFDD500010C4
:104CE000B80A0020000000D0FFB5504042405040BC
:104CF00059404B40594000E0FFB5154F4C00640D42
:104D000003D0BC4204D10C0314D80020090D0905BE
:104D10005C00640D03D0BC4204D11C030AD80022FD
:104D20001B0D1B0501264B4009D44B4003D58B427C
:104D300000D18242FFBD9942FCD19042FFBD0B439E
:104D4000DB1803431343F5D0C9434918FFBD0000E6
:104D5000FF07000000B5FFF7CFFF804100BDC04650
:104D600000B5FFF7C9FF01D9002000BD012000BD3B
:104D700000B5FFF7B9FF01D9002000BD012000BD3B
:104D800000B5FFF7B1FF804100BD012040054A009A
:104D9000121804D85A00121801D8002070470120B8
:104DA00070470020704700000021002805D170479F
:104DB000C1174840401AFAD0C90713B5064B1B6803
:104DC00098470CBC441CA2401005120B0349091B58
:104DD00009051943114310BD701200201F04000083
:104DE00010B54C00620D8023D218DB00D21A5B058F
:104DF0007E2A10DD9E3A13DACC17090349081943BD
:104E00005242D140640001341532202A05DAD040E4
:104E10000843604310BD002010BD0846604310BD2C
:104E2000C80FC018013810BD18B4044B5B6AFC46AB
:104E3000019308BD24DFE95300100000B80A0020E8
:104E4000132370B51D78012D1ED019DD2D48FFF7F5
:104E500079FC06002C48FFF775FC023803789B00AC
:104E60007F2B48DD294C80223100200000F090FC8F
:104E7000022D2DD02648FFF75DFC264B186070BD33
:104E8000224C254BA364F5E7234B204C2360636041
:104E9000A360E36023616361A361E36123626362F2
:104EA000A362E36223636363A363E36323646364D2
:104EB000A364E36423656365A365E36523666366B2
:104EC000A366E36623676367A367E367A364D1E729
:104ED000124B1A88B5231B029A4209D1104A114B72
:104EE00012889A4204D1104A104B12889A42C8D0B4
:104EF0000020FDF7ADFE32210D4B0E4A0E48FDF7A6
:104F000001FEC0465344000053460000B80A00208A
:104F10004C330000701200203D4F00105438000048
:104F2000D8380000494600009C380000594600006F
:104F30009875001064760010F875001007B560468B
:104F4000002800D100BE01880A0A0230DF2AFAD107
:104F5000C9B2820804D3028840880004104300E0EC
:104F60000068024A5050039007BD0000B80A0020B4
:104F70000FB403BC0CBCF0B50124E407634000E0AF
:104F8000F0B50C0DCF0F661E3605891B640503D3E3
:104F9000C943404200D30131640D03D0661CF60AB8
:104FA00007D0E41B00207F00791C89078912803C10
:104FB00024031D0DDF0F6E1E36059B1B6D0503D3ED
:104FC000DB43524200D301336D0D03D06E1CF60A51
:104FD00007D0ED1B00227F007B1C9B079B12803DAE
:104FE0002D032F1B661B58D4A446202E46DA2037EB
:104FF0001400BC401D00BD40F24033412A438018DC
:105000005941CB0F05D0C943C043002264425041EF
:10501000514162464D0D28D10D0D07D100281FD0FA
:10502000241940414941013A0D0DF9D0640006D3DD
:10503000013000D30131002C01D140084000013A79
:105040000BD4941CE40A04D112051144DB07194463
:10505000F0BDD907204B194300E0D9070020F0BD6F
:105060000029DDD1002CDBD1F0BD0132C60740089C
:10507000CD0728434908002EE1D0D9E73C2E29DA94
:10508000203E40371400BC4000D00124F2401443BD
:105090001A00BB401C43D317ACE7AC46202F08DAFC
:1050A00020360400B4400D00B540F8403941284393
:1050B000A5E73C2F0CDA203F40360400B44000D076
:1050C0000124F84004430800B1400C43C117EAE74B
:1050D00010001900002494E70000F07FF0B50C0DDB
:1050E000661E3605891BE60A6405640D02D0651C40
:1050F000ED0A04D0002001210905803C2403A446C8
:105100001C0D671E3F05DB1BE70A6405640D02D01A
:10511000651CED0A04D0002201231B05803C2403FA
:105120007740644497B484B296B27443070C7E43CC
:10513000150C6F4380B26843361802D30120000477
:105140003F183004350C00197D41844688B29AB26C
:1051500050430C0C62431F0C7C438EB27E43921969
:1051600002D301263604A4191604170C3618674119
:1051700001BC81B29AB25143040C62431B0C5C43E4
:1051800080B25843121802D30120000424181004DE
:10519000130C401863412D185E410020474106BCA6
:1051A00088B293B258430C0C6343120C544389B237
:1051B00051435B1802D301210904641819041A0C25
:1051C000091862416D1856410020474118BCF90288
:1051D000720D1143F0026A0D1043ED020A0D03D166
:1051E0006D1940414941013B124E9B1B7600B34271
:1051F0000ED26D0007D3013000267141664635435B
:1052000001D1400840001B05C918E4072144F0BD46
:105210000BDA013306D1013004D101314F0D01D039
:105220004908F2E7E1070020F0BD01363105002012
:10523000EBE70000FF030000F0B51C0D671E3F0503
:10524000DB1BE70A6405640D02D0661CF60A04D075
:10525000002201231B05803C2403D0252D060026B7
:10526000F6432E661E096E66CE0FF619B446490047
:105270004F0D02D07E1CF60A03D000200021403FD3
:105280003F033E1BB600B444013F7F05C91B4908DC
:105290002E6F013676089C02950D25437543ED135C
:1052A0007543AD1301356D10F603761B0CB4CC02BB
:1052B000450D2C43A2B2B3B25A43270C7B43350CA5
:1052C0006F43A4B26C431B1902D3012424043F1979
:1052D0001C041D0CA4187D4124196D41009A91B243
:1052E000ACB26143170C7C432B0C5F4392B25A4320
:1052F000A41802D301221204BF182204230C52184E
:105300007B41019C6C431B19520ED9010A43440195
:10531000A01A81B2B2B2514303145A43360C7343FC
:1053200087B27743D617D21900277E4136049B19DE
:105330001704160C7F185E417316ED18F301002652
:1053400080337541A90F06D16400690AE8055B0A3C
:10535000184309D22FE00422944480337541A90AEE
:10536000A8059B0A184326D3404149412404009ACA
:10537000019B0D005543641B4343E41A95B286B26A
:105380007543170C7E43030C5F4392B25A43B61821
:1053900002D301221204BF183204330C52197B418C
:1053A00052429C41002C02D400220130514140085D
:1053B000CA071043490802B06246D7079210084B4B
:1053C000D218084B9A4203D212058918C919F0BDA8
:1053D0000020002A01DC3900F0BD01331905F5E792
:1053E000FD030000FE070000002200B5203200F09F
:1053F00004F8080000BD000000220B150AD410B507
:10540000944600F031F81414013400DA0021CB176F
:10541000144C20470020002170476244343A0CD4D9
:105420000C2A07DA04009140904052422032D440C6
:10543000214310BDD843D94310BD203207D40C46B8
:105440009440524220321141D040204310BD080008
:10545000C917203203D452422032104110BD180027
:10546000190010BD1B5400100A0DCC0F531E1B0554
:10547000C91A520503D3C943404200D30131520D2A
:1054800003D0531CDB0A07D0121B00206400611CF0
:1054900089078912803A1203014BD21A7047000023
:1054A000FF03000051434343C9188C46110C83B2DB
:1054B0004B4310B4040C614392B280B25043624338
:1054C0001C041B0C001910BC59411304120CC01809
:1054D000514161447047000048404140484000232A
:1054E0009C46114B5B68184700239C460E4B1B687B
:1054F00018470E4A936F9B0804D200239C460A4B20
:10550000DB681847F0B5146E556E576F166FFFF7CE
:10551000F4FF064A1466556657671667F0BD002308
:105520009C46014B9B681847B80B0020000000D038
:10553000491A002808D1084670470000C10FC90762
:1055400000D54042002817D0F44603B40B4B1B682B
:10555000984706BC81409E384042803107D20B06F6
:1055600007D04900490AC00510430843604701308D
:10557000F8E7490A8902F5E7704700007012002039
:1055800041000A0E80231B067E2A0BDD9E3A0BDAB1
:10559000C1174002400818435242D040490001312F
:1055A0004843704700207047C00FC018013870474B
:1055B000C0420DD300B540004008002100F012F8B1
:1055C000002801D4404200BD8020000600BD00003C
:1055D000034BDB69FC4618471CDF21570010000015
:1055E000B80B002000239C46014B5B6A1847000063
:1055F000B80B0020132310B529481C78FFF7A2F838
:105600000100012C0FD008DD831E1B789B007F2B2F
:1056100040DD8022234800F0BBF82348FFF78AF8DA
:10562000224B186010BD1F4C5422200000F0B0F82F
:105630001F4A204B12889A4229D1A72292011E4B61
:1056400012889A4223D11D4B1A881D4B9A421ED1B3
:1056500094231C4A9B0112889A4218D11A4B1A882B
:105660001A4B9A4213D11A4A1A4B12689A420ED117
:10567000194B6365A365E36523666366A366E3660A
:1056800023676367A367E3672362E361C5E71348A2
:10569000FDF7DEFA4221124B124A1348FDF732FAA7
:1056A00053460000B80B00204C330000701200205D
:1056B000EE290000C40F0000C20D0000962B000070
:1056C000C0B50000182B0000CC2A000010B5000067
:1056D000FC2C000051ED8764ED5600103070001076
:1056E0007876001018770010AC76001007B5604689
:1056F000002800D100BE01880A0A0230DF2AFAD150
:10570000C9B2820804D3028840880004104300E034
:105710000068024A5050039007BD0000B80B0020FB
:105720000021C2158032803201D0024A1047002089
:1057300070470000CD2A000070B504000A4E30000A
:1057400001F006F8200000F06FFB0500300000F0CB
:10575000D7FF002D05D0054B2C199C4201D82800FD
:1057600070BD0348FDF774FA8C0900200000042086
:105770002C77001001480421014B18473004002009
:1057800055470010014B1B681847000030040020EB
:10579000014B5B681847000030040020030010B57F
:1057A000080011001B68984710BDC046F0B546467A
:1057B0004F46D646C0B5437C80460E001700002BEE
:1057C00046D0002A3FDD4B1E9946244B012500247C
:1057D00000209A460DE04B461B5D0D3B5A4253415B
:1057E000325DDBB20A2A0BD02B00013401359F4217
:1057F0001ADD002CEFD14346325D1B7C0A2AF3D11F
:10580000002BF1D1A04204DA4346211A1B6830185C
:105810009847434650461B680221984701342800A8
:105820002B0001359F42E4DC874204DD4346391AF0
:105830001B6830189847F619013E33780D3B5A42E1
:10584000534142461374E0BCBA46B146A846F0BD87
:105850000368110030009847F5E7C0469C770010B8
:10586000F0B5C6460B6806000C0000B5802B06D0CC
:105870005A1C2260E418267180BCB846F0BD0F4B5C
:105880001D68002D16D00B1D98460D4F02E0ED68E7
:10589000002D0FD02B68002BF9D03B68002B01D0D6
:1058A000AB42F4D1280041462268FFF77FFFED6844
:1058B000002DEFD101220023DBE7C0463812002083
:1058C00040120020F0B557464E464546DE461C00C5
:1058D000D023E0B51B061F68344B83B006000D00D3
:1058E000180001A991469A4600F02AFF8046002838
:1058F00008D1019B7FB29F4204D0504600F028FFA0
:10590000012398466B1C03D1300000F095FD050083
:10591000002C27D1264F274B1C68002C18D04B4653
:10592000002B21D1244B994602E0E468002C0FD0D3
:105930002368002BF9D04B461B68002B01D0A342F3
:10594000F3D120002A003100B847E468002CEFD1E1
:105950004346002B25D103B0F0BCBB46B246A94656
:10596000A046F0BD154FD6E7134B99460A239B4638
:1059700002E0E468002CEBD02368002BF9D04B4602
:105980001B68002B01D0A342F3D12A003100200074
:10599000B8475A466B4620001A7101A90122B84740
:1059A000E7E7504600F0ACFED5E7C046940900207A
:1059B000AD57001038120020401200209D570010F3
:1059C00070B5040000F038FD00230100050001223D
:1059D0002000FFF777FF084B1C68002C06D0636897
:1059E000002B05D09847E468002CF8D1280070BD42
:1059F000E468002CF3D1F9E7381200200A4A136852
:105A0000002B05D10CE01A00DB680C32002B07D00C
:105A10009842F8D1002902D1C3681360C160704771
:105A20000029FCD01060FAE738120020F0B5474694
:105A3000CE46D02380B51B061F682D4BA3B00400B3
:105A40000D00180001A9984600F07AFE061E07D145
:105A5000019B7FB29F4203D0404600F079FE0136A1
:105A60008422002101A8FFF78DFE2B00220021488F
:105A700001A9FEF747FE019B0700002B14D11E4B26
:105A80001C68002C06D06368002B0BD09847E46894
:105A9000002CF8D1002E25D1380023B0C0BCB94667
:105AA000B046F0BDE468ECE7134B1D689946002D45
:105AB0001CD0124C02E0ED68002D0FD02B68002B9B
:105AC000F9D02368002B01D0AB42F4D12800019A11
:105AD00002A9FFF76BFEED68002DEFD14B46019553
