:020000041000EA
:1000000000B5324B212058609868022188439860DF
:10001000D860186158612E4B002199600221596106
:100020000121F02299502B49196001219960352056
:1000300000F044F80222904214D00621196600F024
:1000400034F8196E01211966002018661A6600F04E
:100050002CF8196E196E196E052000F02FF8012189
:100060000842F9D1002199601B49196000215960AB
:100070001A491B48016001219960EB211966A021F2
:10008000196600F012F800219960164914480160C1
:100090000121996001BC002800D000471248134993
:1000A000086003C880F30888084703B5996A0420EC
:1000B0000142FBD001200142F8D103BD02B5186610
:1000C0001866FFF7F2FF186E186E02BD00000240BE
:1000D000000000180000070000035F00212200005C
:1000E000F4000018222000A00001001008ED00E03C
:1000F00000000000000000000000000074B24E7A12
:1001000000200420F7010010C3010010C5010010F9
:10011000C1010010C1010010C1010010C101001097
:10012000C1010010C1010010C1010010C701001081
:10013000C1010010C1010010C9010010CB01001065
:10014000CD010010CD010010CD010010CD01001037
:10015000CD010010CD010010CD010010C100002024
:10016000A9010020CD010010CD010010CD0100102B
:10017000CD010010CD010010CD010010CD01001007
:10018000CD010010CD010010CD010010CD010010F7
:10019000CD010010CD010010CD010010CD010010E7
:1001A000CD010010CD010010CD010010CD010010D7
:1001B000CD010010CD010010CD010010CD010010C7
:1001C00000BE00BE00BE00BE00BE00BE00F04BF888
:1001D000103800BEF2EB8871F05800100C59001076
:1001E0003402001090A31AE700202149086006C8D5
:1001F00081F3088810471F48006800282FD10DA4FC
:100200000ECC002902D000F012F8F9E71A491B4A77
:10021000002000E001C19142FCD1194988471949E9
:1002200088471949884700BEFDE701C901C29A42C3
:10023000FBD370470C590010C0000020740400204C
:10024000C05C00100000042000000420C05C00100E
:1002500000100420001004200000000070470B482C
:1002600003F00AF90047EFF30580C0B270470000C1
:1002700008ED00E0000000D078040020E408002031
:10028000BD19001011030010851900105756000009
:1002900006005250ABB36053BC57001006005250DA
:1002A000861C0302CC570010060052505422A29D17
:1002B000D457001005005250DE65F468C05C001091
:1002C000F8B5C04606480749091A8B10C90FC91866
:1002D00010B5491003D0044B002B00D0984710BD37
:1002E000740400207404002000000000054B10B5C9
:1002F000002B03D00449054800E000BFFFF7E2FFF0
:1003000010BDC0460000000014080020B0490010D5
:10031000F0B52C4D8BB02C49280004F0EDF90121EB
:100320000400280004F0CAF9002380220593F82372
:1003300052025B0202920393C023060001271B03B3
:10034000102202A906A8049304F00CF8A31CE201F1
:100350001B03134306A9102202A8079304F002F816
:100360001A4B06211920059301F0F4FA31000123FC
:1003700019222800009704F031FA2200310002AB64
:10038000280004F06DFA3B00B3402A68AC461343E2
:100390002B60330010339F40B60066446B681F42E9
:1003A000FCD10123FA203361400000F079FC3A00CF
:1003B0006B681A401F42FAD1FA203261400000F007
:1003C0006FFCEBE700002050B0490010190010004E
:1003D000024B9C4661448900016070474000003434
:1003E0000021044B044ABFF35F8F02C39342FAD14A
:1003F0007047C046000100D0800100D0044A107848
:10040000431CDBB2172B00D9102313707047C04672
:10041000B8030020EFF3108072B6034A1368002B74
:10042000FCD0BFF35F8F70472C0100D0BFF35F8F0C
:100430000022024B1A6080F3108870472C0100D014
:1004400070B5EFF3108C72B60D4D2B68002BFCD0FD
:10045000BFF35F8F0724CB08C618C05C01230C4094
:10046000A3401C000440034207D118433070BFF37F
:100470005F8F2C608CF3108870BD100001F02AFB98
:100480002C0100D0F8B54746CE46884680B5EFF33C
:10049000108C72B6214D2C68002CFCD0BFF35F8FFE
:1004A0009A422CD8D4080727055D06190124174065
:1004B000BC402C421FD007210127894609E0D408FF
:1004C000055D06194C4639001440A1400C00294234
:1004D00011D001329342F2D201204042BFF35F8F2C
:1004E00000220E4B1A608CF3108800280FDBC0BC72
:1004F000B946B046F8BD254310003570EEE7BFF3AE
:100500005F8F00232B608CF310880120404243460C
:10051000002BECD0089801F0DDFAC0462C0100D089
:10052000024B18688007C00F7047C04600C00640E5
:100530000A4B1968EFF3108072B60A68002AFCD0E3
:10054000BFF35F8F1B68BFF35F8F00221A6080F3D9
:10055000108840BF002000217047C046740800206A
:100560003B2110B5024B034A034801F00DFAC04687
:10057000C0490010CC4C0010E449001070B50029AF
:1005800020D003681C7BA1421CD883680E48844697
:100590006144090159180D684968002A12D0A24225
:1005A00010D8624412019B185A6801208A4201D96E
:1005B000C0B270BD8A4201D00020F9E71B68AB428F
:1005C000F6D8F9E7FFF7CCFFFFFFFF0F3F2110B58B
:1005D000024B034A034801F0D7F9C046404A0010D5
:1005E000984C00105C4A0010682110B5024B034A79
:1005F000034801F0C9F9C046C84A0010284D001050
:10060000E44A001070B5002919D0057BA94216D81C
:100610004B0004685B18033BE318002A17D0914293
:100620000FD0AA420BD85000801803382418A170AC
:100630001978002901D11A7070BD6170FBE7FFF7CE
:10064000D3FF7121054B064A064801F09DF9702140
:10065000054B034A034801F097F9C046604B001070
:10066000144D0010E44A0010544B00105C2110B5EA
:10067000024B034A034801F087F9C046784B00104B
:10068000D84C0010E4490010F0B54F464646D64617
:10069000C0B598460AAB1C780BAB1B780600170058
:1006A00099460568002C36D06B7B29682A7BA342CB
:1006B0005BD0944264D863001B19033BC9188B7844
:1006C000002B52D12F4BE218B36812019B184246FF
:1006D0005A60089A1F609A60099ADA6000238B704A
:1006E0004B700B706B7B9A46002B2ED0220051462C
:1006F000A8686B689847002822D02200514628003D
:10070000FFF780FF53466B7354451FD0E0BCBA46D9
:10071000B146A846F0BDAC7B002CF7D02B7BA342A2
:100720002ED3630029681B19033BC9184B78AB73A0
:10073000002B00D1EB7300238B704B700B70C1E763
:10074000524621002800FFF75DFF6C733A004346D4
:10075000307D00F08BFB051E02D04B46002B0AD0EB
:100760000C9B002BD2D01D70D0E76521064B074AA9
:10077000074801F009F92100306800F039FEEFE781
:10078000FFF732FFFFFFFF0F9C4B0010344D0010AE
:10079000E4490010F0B5D6464F464646404DC0B538
:1007A00081468A466A68EFF3108872B61368002B98
:1007B000FCD0BFF35F8F2E68B47B002C48D0337B16
:1007C000A34266D3630037681B19033BFF187B788D
:1007D000B373002B00D1F373324BE218AB681201F4
:1007E0009B184A461A6052465A602F4A9A60002265
:1007F000DA60BA707A703A70777B002F36D02200B8
:100800003900B0687368984700282AD02200390060
:100810003000FFF7F7FE7773BC4228D000262B6824
:100820001B7BA3422FD3EB681B19013B19786B6824
:10083000BFF35F8F00221A6088F310880020002E1B
:1008400001D108022043E0BCBA46B146A846F0BD3B
:100850006B68BFF35F8F1C6088F3108801204042F3
:10086000F1E73A0021003000FFF7CCFE74734A46EE
:100870005346287D00F0FAFA061ECFD021002868E2
:1008800000F0B6FDCBE74021084B094A094801F0CA
:100890007BF86821084B094A094801F075F8C04601
:1008A000BC030020FFFFFF0F31050010C0490010FE
:1008B000F04C0010E4490010C84A0010284D001008
:1008C000E44A0010F0B5DE4657464E464546002342
:1008D000E0B58DB00A93944B8200D3580B909B46A1
:1008E00000235C469A4600F061FA02000B1E67DBAB
:1008F0006068EFF3108872B601680029FCD0BFF37E
:100900005F8F2068417B894600295FD0017B494584
:1009100000D2E5E08549A568494409016D182E68B3
:100920006F68B61A9F41002F58DD2A686B680B98D4
:1009300000F09CFA0022002300250026089209936B
:100940006368BFF35F8F52461A6088F31088002EE9
:1009500008D10028C7D10DB0F0BCBB46B246A946AD
:10096000A046F0BD4A460A9B29001B021A4310000C
:100970009046B047069007916268EFF3108B72B60D
:100980005F461368002BFCD0BB46BFF35F8F079B0D
:10099000002B79DB069A079B110019433FD023698E
:1009A000002B3CD0434500D0B2E000F0FFF9002915
:1009B00006DB069A079B12184B41994200D883E048
:1009C0003F215B4B5B4A5C4800F0DEFF00220023C6
:1009D00000250026002008920993B1E7002F01D1DD
:1009E000002EA2D1002100F045FC484500D089E04E
:1009F0002A686B68AE6808920993ED68002E7BD078
:100A000023681B7B4B4571D34A46E36800204B4467
:100A1000013B1B780A931B021343236190E74A466C
:100A20002368002A0ED05A7B4A450BD01D7B1868DC
:100A3000A9454FD84A4652004A448218033A927850
:100A4000002A05D0F6213D4B3D4A3E4800F09CFF70
:100A5000D97B002907D0A9423CD84A005218494600
:100A60008218033A51704A46DA73E168013A8B5CA6
:100A700001338B54534623616368BFF35F8F524643
:100A80001A608BF310882EE72369002BC7D04345EB
:100A900044D106980799089A099B121A8B41089825
:100AA000099999428CD801D1904289D8002B87DBD3
:100AB000514604910121039149462000029101957C
:100AC0000096FFF7E1FDD5E79942EFD1904200D9BA
:100AD00076E7EBE768211C4B1C4A1A4800F054FFEC
:100AE0003B211B4B1B4A1C4800F04EFF4021184B7A
:100AF0001A4A194800F048FF9021194B194A164824
:100B000000F042FF8C21184B164A134800F03CFFBE
:100B1000A221164B134A104800F036FF9F21134BB9
:100B2000104A0D4800F030FF34080020FFFFFF0F8F
:100B3000404A0010984C00105C4A0010244C0010F1
:100B4000044D0010E44A0010C84A0010284D00105F
:100B5000C0490010CC4C0010E4490010F04C0010CB
:100B6000DC4B0010B04C0010C44B0010E84B0010E0
:100B700010B5124C6368002B04D00A211048FFF70F
:100B800027FC10BD23000F4A1021206800F046FA10
:100B9000032000F0FFF8032000F0E0F903200A49E9
:100BA00000F01EF9FFF72AFC084B9C460323604423
:100BB0002375074B80006060DC60DEE7BC0300202B
:100BC000740800207D050010C508001040000034A6
:100BD00034080020F0B5C64600B504000D00FFF74C
:100BE00042FB00284ED106267642F71736196F4190
:100BF000AF4214D90026002700F0D8F802000B1EDF
:100C000013DB30003900801A9941002911DC0ED025
:100C10002900200000F0D4F880BCB846F0BDAF42F7
:100C200001D1A642E6D8002FE6DAFFF7CFFC002874
:100C3000EED0174B5B68002B27D030003900FFF750
:100C4000A9FD0028E4DB00239846BC46114A124F58
:100C50007B6A9C4504D8B96AB142D9D29C45D7D1A8
:100C60001168EFF3108072B60B68002BFCD0BFF355
:100C70005F8F1368BFF35F8F4146196080F3108860
:100C800020BFE5E7054800F025FFFFF7EFFCC04671
:100C9000BC0300207408002000400540484C0010B0
:100CA000FA2270B500239200002103F09DFA04009F
:100CB0000D0000F07BF802000B1E0DDB2000290068
:100CC000801859418B4207D801D1824204D80029AB
:100CD00002DBFFF77FFF70BDFFF778FCF0B5D6466B
:100CE0004F464646C0B5EFF305823F231340180038
:100CF0001038EFF3108C72B620490A68002AFCD035
:100D0000BFF35F8F0122170087401D4C1600A246DB
:100D100067631C4C2578A0462C00C4402640224224
:100D200009D1BFF35F8F0E608CF31088E0BCBA4628
:100D3000B146A846F0BD5246566A134A8400A258EE
:100D400096420ED34246114BBD43E3581570BFF394
:100D50005F8F00220A608CF31088002BE6D0984742
:100D6000E4E70B4A9B00904643441A681A60BFF3BD
:100D70005F8F00230B608CF31088D7E7280100D029
:100D800000400540E3080020780800208407002088
:100D9000D03F054010B5034B01001800024AFFF791
:100DA0004FFB10BDE00800204C4D0010034B596A6A
:100DB0000A00986A596A8A42FAD170470040054091
:100DC000064A536A9942FCD807D1044B02E05A6A9A
:100DD000914202D19A6A8242F9D37047004005409D
:100DE00070B504000D00EFF3108672B61A4A13684E
:100DF000002BFCD0BFF35F8F002D1BD0200000F034
:100E0000D3FB164981420AD0200000F0D5FB012116
:100E1000200000F0B7FB0123A340114A1360114BDF
:100E2000A400E550BFF35F8F00220B4B1A6086F3DE
:100E3000108870BD0121A1400A4BA200D5500A4B79
:100E400020001A788A4305491A7000F0E9FB002156
:100E5000200000F097FBE5E7280100D0DD0C001032
:100E60003860054084070020E3080020F0B5D6462E
:100E70004F464646C0B5314C616A0D00A66A616AAC
:100E8000A942FAD194461D008B4208D805D0012012
:100E9000E0BCBA46B146A846F0BDB242F7D9EFF37E
:100EA000108972B6264C21680029FCD0BFF35F8FF1
:100EB0000124244F844039780E0026438846F1B23D
:100EC00039708A46061D1D49B6004C6372501E4A91
:100ED0008600B3500B6A23420BD10B6C00202342D7
:100EE00025D0BFF35F8F0022154B1A6089F310885D
:100EF000CEE74B6A1A008E6A4B6A9342FAD19D4242
:100F000011D801D1B4450ED8C2450ED00B4B1F22CB
:100F10001C625C630123024093400C4A0120136071
:100F200043463B70DDE70020DBE70120D9E7C12124
:100F3000074B084A084800F027FDC046004005401E
:100F4000280100D0E30800207808002080E200E0BB
:100F5000704D0010FC4D0010944D0010EFF3108CFC
:100F600072B60A490B68002BFCD0BFF35F8F0123D8
:100F70008340074A0748136202789A430270BFF31E
:100F80005F8F00230B608CF310887047280100D01E
:100F900000400540E3080020682110B5024B034AD9
:100FA000034800F0F1FCC046C84A0010304F001062
:100FB000E44A001070B5002919D0057BA94216D863
:100FC0004B0004685B18033BE318002A17D09142DA
:100FD0000FD0AA420BD85000801803382418A170F3
:100FE0001978002901D11A7070BD6170FBE7FFF715
:100FF000D3FF7121054B064A064800F0C5FC70215D
:10100000054B034A034800F0BFFCC046604B00108C
:101010001C4F0010E44A0010544B001070B5836060
:101020000023CCB2437301330D0004734260837319
:10103000C473012C10D90068421C0133DBB2137059
:1010400003329C42F9D1FF2129404B005B18C018A4
:1010500000230338437070BD002C01D00068F2E714
:10106000FFF79AFFF8B505000C1E32D0017B8C42C9
:101070003FD8630002681B19033BD3185E78002E2B
:1010800027D08E4235D871008919033952180021B2
:101090005778517059703200210080686B6898470A
:1010A000002818D0320021002800FFF783FF390004
:1010B0002800FFF7D7FF061E0BD032002100A868DA
:1010C0006B68984700280DD0320021002800FFF7F8
:1010D00071FF2000F8BD220031002800FFF76AFFF1
:1010E0003400E4E7220031002800FFF763FF3400FA
:1010F000EFE7FFF751FFC046F0B54F46D6464646EC
:1011000004000D009146C0B5002900D1A1E0007B8C
:10111000814200D98FE04B005B182268033BD11855
:1011200098464B78002B00D08DE08B789C46002BA6
:1011300000D082E00E78002E66D0864200D97AE098
:1011400073009B19033BD3185F78002F44D0B8423B
:1011500000D270E07900C9190339521851788A46D3
:101160006146517059703A003100A0686368984731
:10117000002851D03A0031002000FFF71BFF370054
:1011800051462000FFF76EFF061E0BD032003900DB
:10119000A06863689847002846D0320039002000D4
:1011A000FFF708FF4B46207B002B1DD13E00B042CD
:1011B00041D3720023689219033A9B1800229A7057
:1011C000854238D822680023424430005370E0BC86
:1011D000BA46B146A846F0BD4A46002AEED0E17BA9
:1011E000002905D1E573E2E7E17B00291AD03E0032
:1011F000884220D323684A0052189B18033B5D7035
:10120000E573002EDCD0D2E74B46002BDBD0E17B30
:101210000029EDD1E573D6E7320039002000FFF751
:10122000C9FEADE7E573C1E73A0031002000FFF7E2
:10123000C1FE3700B6E7FFF7AFFE3B21084B094A76
:10124000094800F0A1FB3A21084B064A064800F085
:101250009BFB3821064B034A034800F095FBC04630
:10126000A44E0010084F0010204E00107C4E0010BD
:10127000184E0010F0B54F464646D646C0B5467BE0
:1012800004008946002E00D1A2E0017B8E4200D9E5
:1012900090E077000368BF19033FDA1950780028FF
:1012A00000D08FE090788446002800D084E0157844
:1012B000002D65D0A94200D27CE06A0050190338A5
:1012C0001818924642789046002A47D0914200D2A0
:1012D00070E052004244033A9B185A782900924623
:1012E00062465A704270A068424663689847002878
:1012F0004ED0424629002000FFF75CFEA84651462A
:101300002000FFF7AFFE051E4AD02A004146A06824
:1013100063689847002846D02A0045464146200089
:10132000FFF748FE217B4B46002B1AD1A94241D33F
:101330006A0092462368524652199A180023033ACB
:1013400093708E4236D823680022DB1930005A7021
:101350006573E0BCBA46B146A846F0BD4A46002ACD
:10136000E9D0E27B002A19D0914223D323685000B0
:1013700082189B18033B5E70E673002DE1D0D5E721
:101380004A46002AE0D0E27B002AEDD1E673DBE793
:101390002A0041462000FFF70DFEB0E7E673C5E7DF
:1013A0004546217BBFE7290042462000FFF702FEA9
:1013B000217BB8E7FFF7F0FD3B21084B084A0948BD
:1013C00000F0E2FA3A21084B054A064800F0DCFA40
:1013D0003821064B024A034800F0D6FAA44E00100A
:1013E000084F0010204E00107C4E0010184E0010C8
:1013F000F8B50500002946D0437B8B425ED0007BC8
:10140000814200D970E04E002C687618033EA61980
:10141000B278002A37D0824266D853009B18033B2B
:10142000E25CE7188A4232D0002A02D150E0002A5A
:1014300054D082424CD853009B18033BE3185A788F
:101440008A42F4D172785A7000230122B37073700B
:101450002800FFF751FE6E7B0400864246D0002E26
:101460000ED0002811D022003100A8686B68984780
:1014700000280FD0220031002800FFF79BFD340028
:1014800001206C7300E00020F8BD3400F8E77378A9
:101490003B70D9E72A7B944226D8630029681B1940
:1014A000033BCB1896421FD872009219033A891851
:1014B0008C701A78002A08D11E70E1E70122190009
:1014C000FFF71AFE68730120DEE74A701E70D7E747
:1014D0006821094B094A0A4800F056FA6721094B6E
:1014E000094A0A4800F050FAFFF756FD6D21084BF3
:1014F000054A064800F048FAC84A0010304F00106C
:10150000E44A0010C84E0010F04E0010204E0010AB
:10151000D04E001010B50400FEF770FF010020004F
:10152000FEF756FFFF232371BFF35F8F10BDC04648
:1015300010B50400FEF762FF01002000FEF748FF2F
:10154000FF23A380BFF35F8F10BDC046A72110B556
:10155000024B034A034800F017FAC046F84F001048
:10156000A051001010500010992110B5024B034AF1
:10157000034800F009FAC04674500010945100105E
:101580001050001001238340002904D0034A136047
:10159000034A13607047034A1360FBE780E200E0F0
:1015A00000E100E080E100E0024B10309B68800029
:1015B000C058704700ED00E010B5EFF3108C72B624
:1015C000114A1368002BFCD0BFF35F8F0F4B103014
:1015D0009B6880001B580E4A934201D099420CD15F
:1015E0000A4B9B681950BFF35F8FBFF35F8F0022D8
:1015F000054B1A608CF3108810BD7C21054B064A00
:10160000064800F0C1F9C046240100D000ED00E01A
:10161000CD010010A4500010B05100101050001067
:10162000F0B5DE4657464E464546E0B50C0083B061
:10163000EFF3108A72B66A4A1368002BFCD0BFF32E
:101640005F8F1022914681444A46664B96009B6804
:101650009D59654B98469D4205D0A54216D0634FD3
:10166000EB1B2F2B14D95F4B9B689D51BFF35F8FF2
:10167000BFF35F8F00225A4B1A608AF3108803B0C1
:10168000F0BCBB46B246A946A046F0BD1D00EAE745
:10169000012383409B465A46554B1B681A400192D2
:1016A0005A46544B1A60BFF35F8FFEF7DCFD0028EB
:1016B00002D0814500D082E001232A009A4393683A
:1016C0009C4208D172E04B005B189B00FB189968A4
:1016D000A1420BD01A00062151560029F3DA6021ED
:1016E000454B464A4648FF3100F04EF906241C5748
:1016F000002C3CDB62001119890091467A18906831
:101700009860D079D87106201056987100284ADB6D
:10171000043188469188181DCA0A1C2A58D14A05E6
:10172000121504324244BA18121A3648111F844660
:1017300035486244824249D80A05E021520D090227
:101740000A439A804B461819304B80001A78381893
:1017500082711C70019B002B05D05A462C4B1A60DD
:10176000234B1A607FE75A46224B1A607BE700281A
:101770000DD1FF2191712749918024490A789A71EE
:10178000254ADB1B5B415A43120D0A70E2E7234AEC
:10179000D21A083A5108120B1CD1214A9A80214AC8
:1017A0000A43DA80D6E7BD221202CAE7062414579C
:1017B0001300002C9EDA0028E9D14546DDE72C21F4
:1017C000194B0E4A0E48FF3100F0DEF8FFF7CCFE51
:1017D000FFF7BCFEA121154B154A094800F0D4F8CB
:1017E000240100D000ED00E0CD010010E403002052
:1017F00000E100E080E100E0105100108051001095
:1018000010500010FC070000FE0F0000E20800204E
:1018100080E200E000BDFFFFAAAA00001E04002035
:1018200000F0FFFF00F8FFFFDC5000100051001037
:1018300068510010F8B50126314C06430500331BF2
:101840002F2B55D8FEF70FFD00284AD0EFF3108C50
:1018500072B62C4A1368002BFCD0BFF35F8F2A4965
:101860002A008F68294B121B524153431B0D5AB259
:101870008300F858B04217D00623E356934222D093
:101880001223E356934228D01E23E356934226D0D8
:101890002A23E3560321934216D0CC211C4B1D4A28
:1018A0001D48490000F070F889681C48C8501C4B5E
:1018B00019781A70A971BFF35F8F0022114B1A605B
:1018C0008CF31088F8BD00214B005B18FF219B00B2
:1018D000E318997113499980E9E70121F4E702219E
:1018E000F2E78821104B0B4A0B48FF3100F04CF80F
:1018F000C2210E4B074A0848490000F045F8C0468F
:10190000E4030020240100D000ED00E0AAAA0000BA
:10191000C84E00104C51001010500010CD010010A6
:10192000E208002000BDFFFF4051001018510010D8
:10193000054B064A1360064A136053609360D360F8
:1019400013615361936170478080808000E400E000
:1019500004E400E0094A10B594464024830063443F
:101960001A68C00062408034144080225201134340
:101970001C60034B9C466044416010BD04C00140A4
:101980000040014000BEFDE730B50D000400190025
:1019900083B0002A09D0064B0192009322002B004D
:1019A000044802F07FFE00BEFDE7034B1A00F3E798
:1019B000CC510010DC510010D8510010334B344A88
:1019C00070B51A60334A344B34491A6014008B687E
:1019D0009C43FBD1324D334EB54208D2013E761BBB
:1019E000B60808CD984723000134B342F9D100F07E
:1019F00089F82D4A284B1A60284A9368DB43DB019B
:101A0000DD09002BF9D14022284B294C294E9A6739
:101A10005A671A67DA66B4420AD22368002B27D0C5
:101A2000012B2CD120000834FFF782FDB442F4D3FF
:101A3000214C224EC0222000B16802F093FCB46019
:101A4000FEF711FC002818D1FEF7CAFCFFF770FF63
:101A5000FFF78EF81A4C1B4EB44208D2013E361BDB
:101A6000B60808CC98472B0001359E42F9D170BDCD
:101A70002000FFF74FFD0834CDE700BEE4E78321E7
:101A8000114B124A1248FFF77FFFC04600E00040AA
:101A9000BFCDFBFEFE7F3C0000F0004000C00040D8
:101AA0006004002070040020FFFFFF0100F00140EF
:101AB00050040020600400200000002000ED00E041
:101AC00070040020740400200C520010A852001072
:101AD0002C5200100FB400B5084883B002F05AFD34
:101AE000049B002B07D005A91800019102F070FD9E
:101AF000034802F04FFD00BEFDE7C04694520010BF
:101B0000A452001010B50C2082B000F0E3F9FEF7EB
:101B100007FD00280ED0854B854A1A605A609A60EE
:101B2000DA601A615A619A61DA611A62814A5A620C
:101B300002B010BD804CA06700F0D4F901227F4BA9
:101B40001A60636C012BFCD103227D4B1A607A4A28
:101B5000936B012BFCD1013301217A4A7A4800931F
:101B6000043300F027F90523784A009301217848CF
:101B700000F020F9774B5A68FF2A02D880225200E1
:101B80005A6080226E4B694C12011A60216900294B
:101B900005D0606901F0CAFC01300138FDD1E022B6
:101BA0006C4B6D4819680A40026002221968514066
:101BB00001320A40042102609A681142FCD080215F
:101BC000664A09011160802252005A60644B236109
:101BD000644B5968FF2900D85A6003220121574BF2
:101BE0001A60604A93681942FCD0E02310680340F1
:101BF0005D480360126803234A4002211340594A9A
:101C0000036093681942FCD08021584B0901196088
:101C10008021574B490051606361564B5A68FF2A37
:101C200000D859608022544B12011A60E1690029E2
:101C300005D0606901F07AFC01300138FDD1E02364
:101C40004C4A11680B404D490B6080214C4B0901F7
:101C500019608021364B49005160E361494B5A6855
:101C6000FF2A00D859608022474B12011A60216A6E
:101C7000002905D0606901F059FC01300138FDD11F
:101C8000E023404A11680B4040490B608021404BE3
:101C90000901196080235B0053608022244BD2022B
:101CA00023623C4B5968914200D25A6080223A4BE1
:101CB00012011A60616A002905D0606901F036FCE2
:101CC00001300138FDD1E023324A11680B4033491D
:101CD0000B608021324B090119608023DB025360C5
:101CE000144B63622F4B5A68FF2A02D8802252009D
:101CF0005A6080222C4B12011A60A169002905D07C
:101D0000606901F013FC01300138FDD1E023254A60
:101D100011680B4025490B608021254B0901196092
:101D200080235B005360124BA36101E794070020FE
:101D3000006CDC021BB70000008000403CB000409B
:101D400030B00040002F685900800240008C864768
:101D500000C00240308000403090004030A0004081
:101D6000001BB7003C8000403C9000403CA000407D
:101D7000405973075480004054B0004054900040D4
:101D800054A000406080004060B00040609000407F
:101D900060A000406C8000406CB000406C9000403F
:101DA0006CA000404880004048B00040489000408F
:101DB00048A00040F8B5170004000C201D000E00DC
:101DC00001F0B4FB374BFA18374B9A4263D8430102
:101DD0001B1A9901C91AC90009188901380001F0B4
:101DE000A5FB02009823103A5B009A424DD86B1E67
:101DF000062B3ED8069B013B062B3AD8069B9D42FC
:101E00003DD31F0323682D043D43002B20DB274BCC
:101E10002749E3185A4253418022520194461B033A
:101E2000244A63441360244A13601F008A6897435E
:101E3000FBD1C023221D9B01134321222660A060F9
:101E40001A602268002AFCDA0822E5601A60F8BDF0
:101E50003F2322681340B342D9D1A3681B051B0D51
:101E60008342D4D1EE22E368D2021340AB42CED1FA
:101E7000EDE71C21114B124A1248FFF785FD222184
:101E8000114B0F4A0F48FFF77FFD19210F4B0C4AEA
:101E90000C48FFF779FD11210D4B094A0948FFF75E
:101EA00073FDC04680E84BD380F8A9320040FDBFE7
:101EB00000C0004000E0004000F0004098530010D7
:101EC000FC53001018530010E45300107C53001012
:101ED000B85200108023024A9B000343D36270472C
:101EE00000800540AA23064A1B0113602F230549E1
:101EF000D360054B19605368002BFCDA7047C0466D
:101F00000040024000B0FA00006002407047C04646
:101F1000F8B557464546DE464E46E0B598460A9B1C
:101F200006009A460D9B0F00934615009B0710D1A3
:101F30000B9B0C9A93420CD213005C460B9A9D1A91
:101F40005D4422004346013439002020B047A542B9
:101F5000F7D10B9C6319002C09D01D0053462A1B96
:101F6000013C185D39004346B047002CF6D10D9B6B
:101F70009B070ED55B46EC1A0C9BA34209D99946E8
:101F80002A004346390020200134B0470135A145DD
:101F9000F6D82800F0BCBB46B246A946A046F8BD1C
:101FA000F0B54F464646D646C0B584B098460EAB0F
:101FB0001B78129F994694460D9C109B119EBA0760
:101FC00025D4002E61D19C4200D3C0E001223A40CA
:101FD00092461F2C00D9B9E00C9A551E302201E020
:101FE000202C03D001342A55A342F9D85246002AA6
:101FF0000DD0A6420BD90C9A551E3022202C02D1AE
:1020000055E0202C53D001342A55B442F9D1FA06B8
:102010002DD57A0554D4002C4ED10F9B102B00D116
:1020200088E00F9B022B19D030230C9A01241370E7
:102030004B46002B20D02D230C9A135501340C9BBA
:10204000624600930397434602960194FFF760FFB0
:1020500004B0E0BCBA46B146A846F0BD01240C9AD3
:102060006033137030220C9B1B191A700134202C22
:10207000E5D04B46002BDED17B0730D43B07DED5C5
:1020800020230C9A13550134D9E7012215003D4055
:10209000AA463A421CD04A46002A2BD10C323A4278
:1020A00028D19C42A5D21F2C96D9202E15D92024A8
:1020B000FA06C4D57A0503D4A3421DD0B4421BD07E
:1020C0000F9B102B23D0022B0ED0202CB7D0C9E7AA
:1020D0009C429CD21F2C00D87EE7202497E72B231C
:1020E0000C9A13550134AAE7202CA8D00C9B1B197D
:1020F000013438E0013ED4E7631E012C00D18CE7A7
:102100000F9A102A25D0022A2AD01C00AAE7BB0663
:1021100007D4202C93D00C9B1A1901347823137008
:10212000D3E7202C00D18AE758220C9B1B191A7088
:102130000134CAE7BB0604D478230C9A0124137037
:1021400090E758230C9A012413708BE72024002673
:102150005DE7023CBA06E7D40C9A12191C00DDE7D1
:102160000C9A9246534462221A70AEE70B0010B5E7
:10217000002802D049681B68984710BDF0B5DE46BC
:1021800057464E464546E0B59BB09B46249B894644
:102190009846259B0B900C924046424619009A4661
:1021A00001F095FC002800D0D8E0012240465146BD
:1021B000774B524201F086FC002800D0CEE001228D
:1021C00040465146734B524201F066FC002800D055
:1021D000C4E0002200234046514601F05DFC002887
:1021E00000D0B9E1424653460A9209938023289AC7
:1021F000DB001A400E92289A1A4201D10623269338
:102200000A9A099B1600134300D0C7E0289B0025BB
:1022100000261B0500D49BE100230D93269A0D9BFD
:102220009A4200DC9FE1D31A013B26938023289A2F
:10223000DB001A430023002728920D93279B0024DC
:10224000BB4200D9DC1B0223289A1A400E92289A1E
:10225000134203D07B427B415B421C400D9B002B11
:1022600007D00A9809992A00330001F0B4FB0A90BC
:102270000991002200234046514601F00DFC002840
:1022800005D0802000068446099961440991289A66
:10229000414B0B9D13400493269B0A9A0293099B82
:1022A00003940092019349465B4628000C9A00F083
:1022B0008BF90400002F62D0289B220098061F2370
:1022C000C0179843631C984649465B466530A8474B
:1022D0000D9A0025D317D4185C40D30F9A46013FBE
:1022E00001E0202D13D00AAA94461F232000634446
:1022F0000A2101355E1901F019F9303131702000E1
:102300000A2101F013F926000400092EE9D805235B
:102310000693002304930A330393534605970B9FB8
:10232000029312AB009342465B4649463800019542
:10233000FFF736FE0E9B0400002B20D00C9BC51A25
:10234000279BAB421BD91E0022005B46494620203A
:102350000135B8470134AE42F6D810E0289B42461A
:102360000493279B49460393269B0B98029353465D
:10237000009201935B460C9A00F026F904002000BD
:102380001BB0F0BCBB46B246A946A046F0BDC04655
:10239000FFFFEF7FFFFFEFFFFFF7FFFF734B099F8B
:1023A0009C467800400D604401F0A4FB704A714BDC
:1023B00001F02FFB704A714B01F004FB3B03704AA4
:1023C0001B0B1A4304000D00300011006D4B00225E
:1023D00001F0EFFA6C4A6D4B01F01BFB02000B00A1
:1023E0002000290001F0EEFA01F09CFB0D9001F0B5
:1023F00081FB674A674B04000D0001F00AFB0022D5
:10240000654B01F0DFFA01F08DFB644A0600644B76
:102410002000290001F0FDFA040030000D000F96A5
:1024200001F068FB5F4A604B01F0F3FA02000B0019
:102430002000290001F0BDFA02000B0006000F0089
:1024400001F0E7FA320004000D003B0030003900D3
:1024500001F0B8FA002210901191544B200029008D
:1024600001F0B9FA0022524B01F0ACFA02000B0065
:102470002000290001F0AFFA00224E4B01F0A2FA31
:1024800002000B002000290001F0A5FA0D008021B8
:10249000040032003B000020C90501F08AFA020066
:1024A0000B002000290001F08DFA02000B001098AB
:1024B000119901F090FA0022314B01F083FA3E4B62
:1024C0000F9C9C4664440022230501F0A2FA0500FB
:1024D0000E0002000B000A98099901F0DDFA0028AD
:1024E0000AD00D9B2800013B31000D930022304B98
:1024F00001F071FA05000E00C6270D992B0063311B
:102500008F42BF4128997F420437090500D495E6E0
:10251000334300D182E6099C284A2100284B0A98BF
:1025200001F0C8FA002808D000222100254B0A98A3
:1025300001F0B2FA002800D070E6269B002B00D1F3
:102540007CE60E9B5A1E9341269AD31A269375E673
:10255000002304270D9371E643460A9380231B064C
:102560005344099342E6002326935FE601FCFFFFF4
:10257000FB799F501344D33FB3C8608B288AC63F72
:102580000000F03F0000F83F61436F63A787D23F30
:1025900071A379094F930A400000E03F1655B5BB7F
:1025A000B16B0240EF39FAFE422EE63F00002C40AC
:1025B0000000244000001840FF0300002D431CEBE6
:1025C000E2361A3F80842E41F0B54E46DE4657462D
:1025D0004546E0B597B09946209E219F229B8346B1
:1025E000984607910C923B0032003000390001F010
:1025F0006EFA002800D0ADE1012230003900CC4B4A
:10260000524201F049FA002800D003E101223000D3
:102610003900C84B524201F055FA002800D0D9E0E9
:10262000002230003900C44B01F04CFA002800D0E1
:10263000BBE0002230003900C04B01F02DFA002829
:1026400000D0B2E0002200233000390001F024FA6B
:10265000002800D0D3E000230D93249B5B0501D418
:102660000623984608AB9C46172200243023414697
:10267000624404E0013413550139202C01D00929AA
:10268000F8D888463000390001F04CFA4246AC4B8D
:10269000D2009B181A685B6805000892099301F044
:1026A00029FA02000B003000390001F082F9089A83
:1026B000099B01F0AEF90A900B9101F057FA82469E
:1026C00001F014FA02000B000A980B9901F071F95D
:1026D00000229C4B0A900B9101F0F4F9002800D1E4
:1026E000E2E001239C46E244504601F0FFF902007B
:1026F0000B000898099901F0D5F9002802D00023B1
:102700009A4601354346002B00D18BE008AB1726D3
:102710009C4608956644554614E001235B424344B9
:102720000A2128009A4600F001FF013430313719A0
:10273000397028000A2100F0F9FE092D00D8D0E0F8
:10274000D0460500202CE8D10EAB98460323249AEE
:102750001340012B00D0E8E0239A2023002A1DD04B
:102760000D9A002A00D0FDE024990C320A4215D0BF
:10277000239A013A2392239A9A4200D805E108AAA3
:102780009446172130226144202B07D0239801332F
:10279000CA54834200D1E9E0202BF7D1249A019357
:1027A0000392239A434602921EE0249B58460493C8
:1027B000239B00960197039343460C9A0293079933
:1027C0004B46FFF7DBFC17B0F0BCBB46B246A94650
:1027D000A046F0BD249B5B070ED403225A4B2499DC
:1027E0000192039123990291009358464B460C9A0B
:1027F0000799FFF78DFBE6E70422544BEFE73B0018
:1028000032000020002101F0D4F8012306000F005F
:102810000D9322E7249B0393239B029304230193AC
:102820004B4BE1E7280001F065F902000B00300096
:10283000390001F0BEF8434B002206000F0001F002
:102840002BF90EAB984600280AD10022300039003F
:102850003C4B01F037F9002802D1EB0700D50135D8
:10286000202C00D172E708AA94461723280063445D
:102870000A2101341E1900F031FE30312800317078
:102880000A2100F02BFE051EEAD10323249A1340EF
:10289000012B6DD0202C48D00D9B002B14D02D2265
:1028A0004146631C0A5579E700220A980B99254B8B
:1028B00001F0F2F8002800D024E75346002B30D175
:1028C00001239C46E2441DE7249B5B0724D4249A01
:1028D0002300120700D461E72022414601330A5544
:1028E0005CE75746089D202C00D12DE722003021BF
:1028F0004046002F09D00132B154202A00D123E7ED
:10290000831A013BE318002BF5D10EAB98462E231A
:102910004146541C8B54A3E72B224146631C0A55A5
:102920003CE7DB0700D4EDE6CAE7202336E7C046E4
:10293000FFFFEFFFFFFFEF7F65CDCD4165CDCDC13F
:10294000C05500100000E03F105400100854001063
:1029500018540010249B0393239B02930323019399
:102960000C4B41E7239A013A239217E7040091E7C1
:10297000239B002B8ED00D9B002B08D10C22249979
:102980002300114200D1F6E6F2E61C0082E72300A4
:10299000EEE6C04614540010F0B5DE4657464E46EB
:1029A0004546E0B5A1B01C002A9B81468B46924665
:1029B0000993002900D12BE120780027002800D1BD
:1029C0002DE1CB4B5E460893CA4B0C9309E03A00CD
:1029D000534631007D1CC8472F0001342078002861
:1029E00071D02528F3D110239B460C3B9846023B1F
:1029F00000229C460134207825000300203BDBB2F6
:102A0000102B03D808999B00CB589F460300303BFE
:102A1000092B6BD9002398462A2800D18AE000238D
:102A20000A932E2800D176E00300683BDBB2122B1C
:102A30001CD8B1499B00CB589F46012301341A434F
:102A4000D9E7634601341A43D5E7434601341A43B4
:102A5000D1E75B4601341A43CDE7082301341A431A
:102A6000C9E780235B0068781A43013567280AD8D4
:102A700024281DD90300253BDBB2422B18D80C9922
:102A80009B00CB589F460300693BDBB20F2B0FD84E
:102A900001219A4C9940A4460C400B946446214273
:102AA00000D0FFE10A2B00D1E1E0072B00D1B8E014
:102AB0007B1C98463A00534631006C1CC84720786E
:102AC000474600288DD1B3463C00BA4501D853464D
:102AD0005F1E53463A0059460020C847200021B0E7
:102AE000F0BCBB46B246A946A046F0BD002301009B
:102AF0009800C018013540004018297803000800EC
:102B00003038303B0928F3D99846002308000A934F
:102B10002E2800D088E780236878DB001A43030062
:102B2000303B691C092B00D804E12A2800D113E1AD
:102B30000D0079E7099B02CB8846002903DB60780A
:102B40000993651C6BE702210A43414649428846C6
:102B500060780993651C62E768786C2800D120E2F0
:102B600080235B001A43013580E780239B0068784F
:102B70001A4301357AE76878682800D117E2802384
:102B800001351A4372E7462800D188E10721099BE5
:102B90000492424607338B43190003920A9A48462F
:102BA00002920CC90092019309913A0053463100F8
:102BB000FFF70AFD6C1C070010E77B1C98463A00E3
:102BC000534631002520C84747466C1C06E792074C
:102BD00000D42EE2099B3A0001CB31009B46C0B2E3
:102BE0005346C84743467C1C4744012B00D8F8E2B3
:102BF000A8464D4622005346013431002020A84704
:102C0000BC42F7D1A9465B46454609936C1CE5E6F4
:102C10003B4B207899460027002800D0D1E60024BD
:102C200053E7099B190008C98846002B00D1A3E08F
:102C300021210A43934610A98C461F220F2162448A
:102C400009958C4615000B9C02E0202C0CD013003B
:102C50006046184001003731092800D8073901348F
:102C600029551A090F2BF0D8099D0B948DE0099B6B
:102C700002CB12930A9B8B46002B77D10878022156
:102C8000494200280CD001315C46594401E08C4295
:102C900003D063780134002BF9D15B46E31A0B9320
:102CA00080231100DB00194009911A4204D00A9BCD
:102CB0000B99994200D90B930223190011400D91F1
:102CC000134200D196E1002800D17EE1099B002B40
:102CD00000D14DE10A9B3A009C465B46BC44DB1B9D
:102CE00064469B464B460994A9461D0014E0C04625
:102CF00020540010B05400106454001041900000A3
:102D00000D1F001053463100571CA8475B46D85D85
:102D1000002800D155E13A009442F3D12B004D46F2
:102D20009946099F0D9B002B00D04EE1129B6C1C15
:102D3000099353E6002304009800C01801314000B5
:102D400000190C78030020003038303B0928F3D9F3
:102D500020000D000A9367E6099B023501CBC143B1
:102D6000C91708400A90099328785DE6087800287A
:102D700096D00A9B591E86E7102110008843113116
:102D800008438346520500D455E75B460693082363
:102D900005930A9B3A0004931023039300230293A4
:102DA0000B9B3100019318AB009348465346FFF745
:102DB000F7F8434607006C1C09930FE62023010037
:102DC0009943472904D180231B011A4302239843C6
:102DD000452801D120231A430721099B049242462A
:102DE00007338B43190003920A9A484602920CC992
:102DF0000092019309913A0053463100FFF7BEF962
:102E00006C1C0700EAE5622800D1F6E16F2800D1CA
:102E100032E1582800D1CFE010239A43063B0D93AE
:102E2000692800D024E10B92530546D501230B9A63
:102E30009A430B92692840D064283ED00B9A802395
:102E400011009B0019408B461A4200D0DCE1802320
:102E500014005B001C401A4200D07BE213005B06AA
:102E600000D48BE1FF22099B02CB11408B460993D2
:102E70005B46002B00D08CE10B9A10331100994374
:102E80000B91520500D484E100240B9B069343462A
:102E900005930A9B04930D9B0393002361E1202378
:102EA0001A4373E610230D937828ACD10C2311003C
:102EB00099430B915205B9D4BCE70B9A80231100BA
:102EC0009B0019408B461A4200D0D8E080231400A2
:102ED0005B001C401A4200D0E2E113005B0600D503
:102EE00027E1130009991B0600D495E208C91BB21B
:102EF000D8171A18424092B209919346DA0F1392EA
:102F0000002B09D1802310220B99DB000B40914349
:102F10000B91002B00D01BE10B9A6123920600D588
:102F20004123DBB210A90A3B1F228C461293434671
:102F30006244A84614970D9D5F461593B34616004C
:102F40000AE03033DBB201343355AF4200D24EE1F8
:102F5000202C00D14BE107002900380000F0E6FAF0
:102F6000CBB20929EDD9129A94466344DBB2EAE761
:102F70005B46DB1B9B460B9B4C4699465346AA4639
:102F80001D003A002B003100A0475B460137D85D99
:102F90000028F6D14B460B932B00A14655469A4686
:102FA000C0E6C0239B00A8781A4302355EE5C02323
:102FB000A8781A43023559E520231A43103B0D9394
:102FC00074E72B004D469946ACE60B9BBB469845F3
:102FD00000D8ABE647445C46A8464D46FF1A22009F
:102FE0005346013431002020A847BC42F7D1A946FE
:102FF00045469BE60B9A531C904500D822E2434677
:10300000DB199C1A4B46A9461D003A00534601376E
:1030100031002020A847A742F7D12B004D46994602
:10302000434601330B935B461878002800D04DE6E9
:103030007CE64346012B00D802E27C1E4444A846AD
:103040004D463A005346013731002020A847A74299
:10305000F7D1A9464546099B220001CB310098468D
:10306000C0B25346C8474346671C09936C1CB5E47D
:10307000642800D1D7E619E708230D9316E7072245
:10308000099B07339343013294469C44624609925C
:103090000CCB9C46DB1710931193109811990300E9
:1030A00053400E9364460B0063400F930E9B0F9C9E
:1030B0001B1A8C410E930F946346DB0F139300236E
:1030C0009B4663461A433BD00B9A6123920600D578
:1030D0004123DBB20A3B1293434610A91F228C46C0
:1030E000002415934B466244B14614971695270069
:1030F0000E9C0F9D90460D9E17930CE03032D2B27D
:1031000043460137DA55AB4500D177E1202F00D196
:1031100077E104000D00320000232000290000F0B8
:1031200047FAD2B2092AE9D9129B9C466244D2B22C
:10313000E6E7FF22099908C913401A000991DCE665
:103140000B9A10231100994300240B915205BBD513
:103150000B9B0693434605930A9B04930D9B039395
:10316000139B029318AB3A0001940093310053462D
:103170004846FEF715FF6C1C07002FE413001B06E2
:1031800000D458E1099B04CB1204120C9346099316
:103190006EE60B9A6123920600D5412310A91F22E7
:1031A0008C46DBB262440A3B139714965F461600C6
:1031B000AB4612930D9D08E03033DBB2013433553A
:1031C000AF421DD3202C1BD007002900380000F08F
:1031D000ADF9CBB20929EFD9129A94466344DBB218
:1031E000ECE75B46270009936C1CFFF7F7FB159B88
:1031F00045465E469846149FAAE702230D9355E67E
:103200005D46139F149E40E60722099B07339343B4
:10321000013294469C44624609921A685B68100029
:103220009B4613005A46134307D10B9A10331100E3
:1032300099430B91520500D526E60B9A612392061D
:1032400000D54123DBB210A90A3B1F228C46129302
:10325000434662441397159500245D460700B34624
:1032600090460D9E14930DE03032D2B243460134A5
:103270001A550023AB4200D1D4E0202C00D1D4E079
:1032800007000D00320000233800290000F090F9FB
:10329000D2B2092AE8D9129B9C466244D2B2E5E731
:1032A000099B1A0008CA1592DA179C185440DA0FC5
:1032B0001492002B08D1802310220B99DB000B40C5
:1032C00091430B91002B2BD10B9A6123920600D5D1
:1032D000412310A91F228C46DBB262440A3B12979D
:1032E00013965F461600AB4609930D9D08E03033F8
:1032F000DBB20137F355AC420ED3202F0CD00400C3
:103300002900200000F012F9CBB20929EFD9099A5F
:1033100094466344DBB2ECE75D46139EBB46129FC6
:103320000B9B3A000693434605930A9B3100049396
:103330000D9B48460393149B6C1C02935B460193C0
:1033400018AB00935346FEF72BFE159B070009931D
:10335000FFF744FB099B10CB1493002C08D180236A
:10336000DB0011001340102291430B91002B2BD155
:103370000B9A6123920600D5412310A91F228C4687
:10338000DBB262440A3B129713965F461600AB46C7
:1033900009930D9D08E03033DBB20137F355AC42A1
:1033A0000ED3202F0CD004002900200000F0BEF81E
:1033B000CBB20929EFD9099A94466344DBB2ECE712
:1033C0005D46139EBB46129F0B9B3A0006934346F5
:1033D00005930A9B310004930D9B484603930023F9
:1033E00002935B46019318AB00935346FEF7D8FD5A
:1033F000149B070009936C1CFFF7F0FAA64200D853
:1034000084E6159B0E940F959846179B3C004E46FC
:10341000169D9946149F9BE608C9D8171A18424072
:1034200009916AE5BE4200D827E7149B5E4698469C
:10343000139F159D29E5099B04CB9346099317E536
:103440003C0008E60B93F0E500B585B0039101213F
:1034500002900093034813004A4202A9FFF79CFA26
:1034600005B000BD6D21001001480421014B184733
:103470003004002099340010142310B5010018887E
:1034800004331B88984710BD162310B50100188817
:1034900002331B88984710BDF8B54746CE4680B525
:1034A0000F1E19D014239946043304000025012669
:1034B00098464B461888434621681B88984701C4A4
:1034C000431E9841013540420640AF42F1D13000E1
:1034D000C0BCB946B046F8BD0126F8E7124A936F62
:1034E0009B0815D29066D166002905D0FFE7FFE75B
:1034F000FFE7516F106F704704B580210906C217AE
:103500005140002800D0C84301F03AFA002104BD20
:10351000F0B5146E556E576F166FFFF7E3FF146624
:10352000556657671667F0BD000000D0114A936FCB
:103530009B0813D210665166002905D0FFE7FFE70C
:10354000FFE7516F106F704704B5002801D00020CD
:10355000C04301F015FA002104BDC046F0B5146E59
:10356000556E576F166FFFF7E5FF14665566576780
:103570001667F0BD000000D094464E4A926F920844
:10358000624601D230E0C046F0B54A4EB56F6D08D4
:10359000FCD3346E756E776F366F00F025F8944665
:1035A000444A14665566576716676246F0BDC046C2
:1035B0009446404A926F9208624601D258E0C04653
:1035C000F0B53C4EB56F6D08FCD3346E756E776FF9
:1035D000366F00F04DF89446364A146655665767C4
:1035E00016676246F0BDC046002B24DB11D00029CF
:1035F0003EDA00B5C943404200D1013100F038F84D
:10360000C943404200D10131DB43524200D1013372
:1036100000BD002AEBD1002801D1002905D00020EF
:10362000C90FC90701D1C043410800B501F0A0F995
:103630000022002300BD00B500290ADBDB43524213
:1036400000D1013300F014F8C943404200D10131E8
:1036500000BDC943404200D10131DB43524200D199
:10366000013300F005F8DB43524200D1013300BDC5
:10367000002923D1002B18D1002A0CD0BC460D4FB5
:1036800038667A6600210023FFE7FFE7FFE77A6FDD
:10369000386F67467047002801D00748010000B521
:1036A00001F066F90022002300BD02000B0000209B
:1036B00000217047000000D0FFFFFFFF002B00D06B
:1036C000BFE0130C28D1002AE7D080B4114F39662F
:1036D0007A66FFE7FFE730B4040C7B6F396F1B0499
:1036E00023433B667A66FFE7FFE7FFE7C04684B205
:1036F0007B6F3D6F1B0423433B667A66FFE7FFE762
:10370000C04600232C042D0C7A6F386F00196941D4
:10371000B0BC7047000000D0F0B594460025140EF0
:1037200001D112020835140F01D112010435940F92
:1037300001D192000235D40F01D152000135D40BD2
:103740000134254F7C66254C3C660E0C93B2FFE796
:10375000FFE7FFE73C6F6643360C7703BE467343D3
:10376000DF0B5B04C01AB941130C7343DB18C91A91
:10377000CE086643360CB64493B273431F0F1B0149
:10378000C01AB941130C73431F0B1B05C01AB94172
:10379000860D8F023E436643360C092D24DB520A08
:1037A0007243801A7703460A6643360C16235B1B66
:1037B000DE40DF40BF1964466643821B7046043515
:1037C00006330100D940A840C01900D30131A242FC
:1037D00006D20023F0BD0000000000D0FFFFFFFF75
:1037E000121B0130F3D3F1E709277F1BFE4064462B
:1037F000A2B27243801A00D20139220C7243130C18
:103800001204821A99410B007046043513370100E7
:10381000F940A840801900D30131002B02D1A24207
:103820000AD2F0BD013000D30131121BFAD2013BA4
:10383000F8D1A24200D2F0BD013000D30131121BF9
:10384000F7E7F0B51C0C00D080E00CB400251C0A92
:1038500004D11B02160E3343120208351C0B04D18F
:103860001B01160F3343120104359C0B04D19B003E
:10387000960F334392000235DC0B02D192185B4164
:1038800001351C00971864410134464F7C66464C54
:103890003C660E0CFFE7FFE7FFE7C0463C6F664360
:1038A000360C7703BE4697B27743C01B00D201396E
:1038B000C01B00D201399FB27743C91BC91B170C2B
:1038C00077437E04FF0B801BB941CE086643360C5C
:1038D0000C2D33DBB644120B1F053A431B0B97B27A
:1038E0007743C01B00D201399FB27743C91B170C25
:1038F00077433E043F0C801BB941860D8F023E4347
:10390000664329277F1BFE400C3D7746AF40BF1919
:1039100030BCA2B2ABB272437343801A9941220CFD
:103920007243130C1204801A994102000B000137F4
:10393000001BA941F9D2781E0021F0BD0C277F1B86
:10394000FE4077467F0BAF40FF19E0E700245D1C87
:1039500007D0144F7D663966FFE7FFE7FFE7FFE713
:103960003C6F95B29EB265436643401BB141150C56
:103970001E0C6543664336042F0C3E432D04401B4A
:10398000B141994204D202000B0020000021F0BD99
:1039900001D19042F7D3801A994101349942F2D370
:1039A000F6E70000000000D0FFFFFFFF4840414065
:1039B000484018B41B4B5B68FC46019308BD04DF0C
:1039C000BB3C001018B4174B1B68FC46019308BDA4
:1039D00000DFC53C00109446134A926F920809D24A
:1039E000624618B40F4BDB68FC46019308BD0CDF40
:1039F0007D3F00100C4AF0B5146E556E576F166F70
:103A00006246FFF7EEFF084A146655665767166769
:103A1000F0BD18B4034B9B68FC46019308BD08DF5A
:103A2000213E001078050020000000D0FFB5504076
:103A30004240504059404B40594000E0FFB5154FBF
:103A40004C00640D03D0BC4204D10C0314D80020F8
:103A5000090D09055C00640D03D0BC4204D11C03B0
:103A60000AD800221B0D1B0501264B4009D44B40F0
:103A700003D58B4200D18242FFBD9942FCD19042D6
:103A8000FFBD0B43DB1803431343F5D0C94349186B
:103A9000FFBD0000FF07000000B5FFF7CFFF80412A
:103AA00000BDC04600B5FFF7C9FF01D9002000BD29
:103AB000012000BD00B5FFF7B9FF01D9002000BD0E
:103AC000012000BD00B5FFF7B1FF804100BD01201E
:103AD00040054A00121804D85A00121801D80020D4
:103AE0007047012070470020704700000021002827
:103AF00005D17047C1174840401AFAD0C90713B51D
:103B0000064B1B6898470CBC441CA2401005120BC6
:103B10000349091B09051943114310BD5C08002026
:103B20001F04000010B54C00620D8023D218DB008A
:103B3000D21A5B057E2A10DD9E3A13DACC170903F0
:103B4000490819435242D140640001341532202AF9
:103B500005DAD0400843604310BD002010BD084680
:103B6000604310BDC80FC018013810BD18B4044B15
:103B70005B6AFC46019308BD24DF2D410010000064
:103B800078050020132370B51D78012D1ED019DD96
:103B90002D48FFF779FC06002C48FFF775FC02382A
:103BA00003789B007F2B48DD294C802231002000C8
:103BB00000F0D8FB022D2DD02648FFF75DFC264BE8
:103BC000186070BD224C254BA364F5E7234B204CB5
:103BD00023606360A360E36023616361A361E361C9
:103BE00023626362A362E36223636363A363E363A9
:103BF00023646364A364E36423656365A365E36589
:103C000023666366A366E36623676367A367E36768
:103C1000A364D1E7124B1A88B5231B029A4209D13B
:103C2000104A114B12889A4204D1104A104B128844
:103C30009A42C8D00020FDF74DFF32210D4B0E4AAD
:103C40000E48FDF7A1FEC046534400005346000055
:103C5000780500204C3300005C080020813C0010F7
:103C600054380000D8380000494600009C38000055
:103C70005946000010560010DC5600107056001017
:103C800007B56046002800D100BE01880A0A02304C
:103C9000DF2AFAD1C9B2820804D30288408800041E
:103CA000104300E00068024A5050039007BD000036
:103CB000780500200FB403BC0CBCF0B50124E40768
:103CC000634000E0F0B50C0DCF0F661E3605891B72
:103CD000640503D3C943404200D30131640D03D0CE
:103CE000661CF60A07D0E41B00207F00791C8907B8
:103CF0008912803C24031D0DDF0F6E1E36059B1BB1
:103D00006D0503D3DB43524200D301336D0D03D065
:103D10006E1CF60A07D0ED1B00227F007B1C9B0760
:103D20009B12803D2D032F1B661B58D4A446202ECA
:103D300046DA20371400BC401D00BD40F24033413C
:103D40002A4380185941CB0F05D0C943C0430022F4
:103D500064425041514162464D0D28D10D0D07D1AD
:103D600000281FD0241940414941013A0D0DF9D0D6
:103D7000640006D3013000D30131002C01D140088A
:103D80004000013A0BD4941CE40A04D112051144FA
:103D9000DB071944F0BDD907204B194300E0D907D0
:103DA0000020F0BD0029DDD1002CDBD1F0BD0132B7
:103DB000C6074008CD0728434908002EE1D0D9E7BF
:103DC0003C2E29DA203E40371400BC4000D00124AC
:103DD000F24014431A00BB401C43D317ACE7AC4677
:103DE000202F08DA20360400B4400D00B540F8401A
:103DF00039412843A5E73C2F0CDA203F4036040028
:103E0000B44000D00124F84004430800B1400C4302
:103E1000C117EAE710001900002494E70000F07FC2
:103E2000F0B50C0D661E3605891BE60A6405640DA7
:103E300002D0651CED0A04D0002001210905803C58
:103E40002403A4461C0D671E3F05DB1BE70A64051F
:103E5000640D02D0651CED0A04D0002201231B056D
:103E6000803C24037740644497B484B296B2744390
:103E7000070C7E43150C6F4380B26843361802D39B
:103E8000012000043F183004350C00197D418446A0
:103E900088B29AB250430C0C62431F0C7C438EB222
:103EA0007E43921902D301263604A4191604170C76
:103EB0003618674101BC81B29AB25143040C624387
:103EC0001B0C5C4380B25843121802D3012000043B
:103ED00024181004130C401863412D185E41002073
:103EE000474106BC88B293B258430C0C6343120C92
:103EF000544389B251435B1802D301210904641869
:103F000019041A0C091862416D18564100204741E6
:103F100018BCF902720D1143F0026A0D1043ED0254
:103F20000A0D03D16D1940414941013B124E9B1BC3
:103F30007600B3420ED26D0007D3013000267141E6
:103F40006646354301D1400840001B05C918E40707
:103F50002144F0BD0BDA013306D1013004D1013127
:103F60004F0D01D04908F2E7E1070020F0BD01360E
:103F700031050020EBE70000FF030000F0B51C0D49
:103F8000671E3F05DB1BE70A6405640D02D0661C53
:103F9000F60A04D0002201231B05803C2403D0250F
:103FA0002D060026F6432E661E096E66CE0FF61904
:103FB000B44649004F0D02D07E1CF60A03D0002003
:103FC0000021403F3F033E1BB600B444013F7F0544
:103FD000C91B49082E6F013676089C02950D2543B2
:103FE0007543ED137543AD1301356D10F603761B64
:103FF0000CB4CC02450D2C43A2B2B3B25A43270CE9
:104000007B43350C6F43A4B26C431B1902D30124CC
:1040100024043F191C041D0CA4187D4124196D4172
:10402000009A91B2ACB26143170C7C432B0C5F43F6
:1040300092B25A43A41802D301221204BF182204D8
:10404000230C52187B41019C6C431B19520ED90161
:104050000A434401A01A81B2B2B2514303145A4335
:10406000360C734387B27743D617D21900277E41A7
:1040700036049B191704160C7F185E417316ED1851
:10408000F301002680337541A90F06D16400690A47
:10409000E8055B0A184309D22FE0042294448033D8
:1040A0007541A90AA8059B0A184326D340414941F6
:1040B0002404009A019B0D005543641B4343E41AFA
:1040C00095B286B27543170C7E43030C5F4392B2E0
:1040D0005A43B61802D301221204BF183204330C1B
:1040E00052197B4152429C41002C02D400220130E3
:1040F00051414008CA071043490802B06246D70739
:104100009210084BD218084B9A4203D21205891814
:10411000C919F0BD0020002A01DC3900F0BD0133CF
:104120001905F5E7FD030000FE070000002200B5B9
:10413000203200F004F8080000BD000000220B153A
:104140000AD410B5944600F031F81414013400DAA2
:104150000021CB17144C20470020002170476244F7
:10416000343A0CD40C2A07DA0400914090405242B1
:104170002032D440214310BDD843D94310BD203252
:1041800007D40C469440524220321141D040204383
:1041900010BD0800C917203203D45242203210410A
:1041A00010BD1800190010BD5F4100100A0DCC0FA2
:1041B000531E1B05C91A520503D3C943404200D3FD
:1041C0000131520D03D0531CDB0A07D0121B002013
:1041D0006400611C89078912803A1203014BD21ACC
:1041E00070470000FF03000051434343C9188C4649
:1041F000110C83B24B4310B4040C614392B280B2F1
:10420000504362431C041B0C001910BC5941130499
:10421000120CC0185141614470470000132310B5BF
:1042200029481C78FFF730F90100012C0FD008DD78
:10423000831E1B789B007F2B40DD8022234800F0EB
:1042400091F82348FFF718F9224B186010BD1F4C56
:104250005422200000F086F81F4A204B12889A4210
:1042600029D1A72292011E4B12889A4223D11D4BBD
:104270001A881D4B9A421ED194231C4A9B01128816
:104280009A4218D11A4B1A881A4B9A4213D11A4AD9
:104290001A4B12689A420ED1194B6365A365E36508
:1042A00023666366A366E36623676367A367E367C2
:1042B0002362E361C5E71348FDF70CFC4221124B72
:1042C000124A1348FDF760FB5346000078060020B1
:1042D0004C3300005C080020EE290000C40F0000F1
:1042E000C20D0000962B0000C0B50000182B000086
:1042F000CC2A000010B50000FC2C000051ED8764B2
:1043000015430010D8510010F056001090570010BF
:104310002457001007B56046002800D100BE018870
:104320000A0A0230DF2AFAD1C9B2820804D302880D
:1043300040880004104300E00068024A5050039097
:1043400007BD00007806002001480421014B1847F2
:104350004004002099340010014B1B6818470000EE
:1043600040040020014B5B68184700004004002017
:10437000030010B5080011001B68984710BDC04627
:10438000F0B546464F46D646C0B5437C80460E0043
:104390001700002B46D0002A3FDD4B1E9946244BC8
:1043A0000125002400209A460DE04B461B5D0D3B85
:1043B0005A425341325DDBB20A2A0BD02B00013442
:1043C00001359F421ADD002CEFD14346325D1B7C44
:1043D0000A2AF3D1002BF1D1A04204DA4346211A74
:1043E0001B6830189847434650461B68022198477F
:1043F000013428002B0001359F42E4DC874204DDB4
:104400004346391A1B6830189847F619013E33782D
:104410000D3B5A42534142461374E0BCBA46B14682
:10442000A846F0BD0368110030009847F5E7C04684
:1044300004580010F0B5C6460B6806000C0000B525
:10444000802B06D05A1C2260E418267180BCB84626
:10445000F0BD0F4B1D68002D16D00B1D98460D4F5B
:1044600002E0ED68002D0FD02B68002BF9D03B68DF
:10447000002B01D0AB42F4D1280041462268FFF75F
:104480007FFFED68002DEFD101220023DBE7C0465E
:104490000C08002010080020F0B557464E4645464F
:1044A000DE461C00D023E0B51B061F68344B83B0EA
:1044B00006000D00180001A991469A4600F068FA1E
:1044C0008046002808D1019B7FB29F4204D050460D
:1044D00000F066FA012398466B1C03D1300000F00F
:1044E0000DFA0500002C27D1264F274B1C68002C05
:1044F00018D04B46002B21D1244B994602E0E468AA
:10450000002C0FD02368002BF9D04B461B68002BE2
:1045100001D0A342F3D120002A003100B847E4685B
:10452000002CEFD14346002B25D103B0F0BCBB4695
:10453000B246A946A046F0BD154FD6E7134B9946A3
:104540000A239B4602E0E468002CEBD02368002B92
:10455000F9D04B461B68002B01D0A342F3D12A00AF
:1045600031002000B8475A466B4620001A7101A955
:104570000122B847E7E7504600F0F2F9D5E7C04618
:1045800058040020814300100C080020100800206F
:104590007143001070B5040000F0B0F90023010071
:1045A000050001222000FFF777FF084B1C68002C54
:1045B00006D06368002B05D09847E468002CF8D13A
:1045C000280070BDE468002CF3D1F9E70C08002046
:1045D000F0B54746CE46D02380B51B061F682D4B4D
:1045E000A3B004000D00180001A9984600F0D0F90E
:1045F000061E07D1019B7FB29F4203D0404600F0C8
:10460000CFF901368422002101A8FFF7A5FE2B0077
:104610002200214801A9FEF717FF019B0700002B8C
:1046200014D11E4B1C68002C06D06368002B0BD0E5
:104630009847E468002CF8D1002E25D1380023B02B
:10464000C0BCB946B046F0BDE468ECE7134B1D684A
:104650009946002D1CD0124C02E0ED68002D0FD0C1
:104660002B68002BF9D02368002B01D0AB42F4D18A
:104670002800019A02A9FFF783FEED68002DEFD113
:104680004B4601951C68CEE7404600F069F9D5E736
:104690000195D1E758040020354400100C08002093
:1046A000100800200FB400B583B004A901C901911E
:1046B000FFF78EFF03B008BC04B018470B4B10B5D2
:1046C0009C46604443425841094A840082B00092AB
:1046D00008482200E31CFBF7D5FE844202DC001BE5
:1046E00002B010BD01204042FAE7C0460000D0AF42
:1046F00008580010E1080020F0B54F46D64646465F
:104700008846C0B50700FBF785FE43461D79814604
:10471000202D50D82B4B0524F818434258412A4BE2
:104720009A4683009C465346624698584346012267
:104730001C57AA402023013A5B1B002C31DB9C4212
:1047400036DCA2401600104232D1002D1CD0424669
:10475000434652781B7812021A4343469B781B0447
:1047600013434246D27812061A439046002241462D
:104770005300C95A4B0B00D10919131912339B006E
:104780000132D9519542F2D85346624606439E50B3
:104790004846FBF74BFE2000E0BCBA46B146A846AF
:1047A000F0BD16009E401C000642CED0013BF8D260
:1047B0000648FDF78FF94021054B064A0648FDF7EC
:1047C000E3F8C0460000D0AF7C070020BC580010C2
:1047D0002C580010D058001058580010F0B54E4614
:1047E0004546DE4657468A464900E0B50D008046FC
:1047F0005544ED0045448946290009ACDC31086880
:1048000024788446661EB44114481F2683466442B9
:1048100026405E44052B0CD9A0201F274005D83523
:10482000540104430532053B0C603A402E60052BD1
:10483000F6D84F465744FF003800520140449B06CB
:1048400013430200DC3213606346D8300660136005
:10485000F0BCBB46B246A946A046F0BD80E00000D1
:10486000F0B501248C401D000368A3430360002DB4
:1048700030D04B005C18E400041926002F68C836BD
:1048800037606F68DC347760AF68ED68B7602560CB
:104890005B18DB001D008024D035451964012C43D2
:1048A00080252D0625602560134C0D1D8C408460ED
:1048B00001242700AF403D0008318C401F210668CD
:1048C0000A403543056005682C430460C018D830A1
:1048D0000260F0BD4B005C18E4000419260080273C
:1048E000C8367F023760F8277F027760C027DC3444
:1048F0003F03B7602560CBE70101010110B58307D5
:104900000AD00300032102E001330B4205D01A78DC
:10491000002AF9D1181A10BD030019680C4A0D4C71
:104920008A188A4322420FD15968094A04338A18E7
:104930008A43224208D15968054A04338A188A43B7
:104940002242F1D000E001331A78002AFBD1E1E7DE
:10495000FFFEFEFE80808080F8B5C04600000000AB
:1049600001B40248844601BC604700BF59030020DF
:1049700001B40248844601BC604700BFA103002087
:1049800001B40248844601BC604700BFA103002077
:1049900001B40248844601BC604700BF15030020F3
:1049A00001B40248844601BC604700BFCD0200202C
:1049B000B849001003FF0000A08001600000000063
:1049C0006964202626206964203C3D20706F6F6C4E
:1049D0002D3E686561702D3E6D61785F6E6F646518
:1049E00073000000433A5C55736572735C616C69D7
:1049F0006E745C4465736B746F705C65755C756E2A
:104A0000695C5F79656172345C44697A657274616E
:104A10007469655C4D43554D455C7069636F2D73DA
:104A2000646B5C7372635C636F6D6D6F6E5C7069F9
:104A3000636F5F74696D655C74696D652E630000FA
:104A400075735F73696E63655F626F6F74203C3D61
:104A500020494E5436345F4D41580000433A5C556E
:104A6000736572735C616C696E745C4465736B74BE
:104A70006F705C65755C756E695C5F7965617234D9
:104A80005C44697A657274617469655C4D43554D27
:104A9000455C7069636F2D73646B5C7372635C63F8
:104AA0006F6D6D6F6E5C7069636F5F626173655C83
:104AB000696E636C7564652F7069636F2F747970AC
:104AC00065732E6800000000696420262620696452
:104AD000203C3D20686561702D3E6D61785F6E6F92
:104AE00064657300433A5C55736572735C616C690D
:104AF0006E745C4465736B746F705C65755C756E29
:104B0000695C5F79656172345C44697A657274616D
:104B10007469655C4D43554D455C7069636F2D73D9
:104B2000646B5C7372635C636F6D6D6F6E5C7069F8
:104B3000636F5F7574696C5C696E636C7564652F17
:104B40007069636F2F7574696C2F70686561702E62
:104B5000680000006368696C645F696400000000BD
:104B6000706172656E745F696420213D20636869BD
:104B70006C645F696400000064656661756C745FF5
:104B8000616C61726D5F706F6F6C5F696E69746983
:104B9000616C697A65642829000000002170685FF3
:104BA000636F6E7461696E735F6E6F646528706F9A
:104BB0006F6C2D3E686561702C2072657573655F42
:104BC0006964290072656D6F7665645F6964203D74
:104BD0003D206E6578745F696400000063616C6CF1
:104BE0006261636B00000000706F6F6C2D3E616C42
:104BF00061726D5F696E5F70726F6772657373204B
:104C00003D3D206D616B655F7075626C69635F69C6
:104C1000642869645F686967682C206E6578745FD2
:104C2000696429006964202626202170685F636F0B
:104C30006E7461696E735F6E6F646528686561701C
:104C40002C20696429000000417474656D707465DE
:104C50006420746F20736C65657020696E7369647D
:104C600065206F6620616E20657863657074696F7A
:104C70006E2068616E646C65723B2075736520629E
:104C80007573795F7761697420696620796F752023
:104C90006D757374000000007570646174655F75F4
:104CA000735F73696E63655F626F6F74000000000D
:104CB000616C61726D5F706F6F6C5F616C61726D62
:104CC0005F63616C6C6261636B0000006765745FB9
:104CD000656E747279000000616C61726D5F706F57
:104CE0006F6C5F6765745F64656661756C74000006
:104CF0006765745F656E7472795F69645F68696720
:104D00006800000070685F667265655F6E6F64655D
:104D10000000000070685F6164645F6368696C64D0
:104D20005F6E6F646500000070685F6765745F6E3A
:104D30006F6465006164645F616C61726D5F756E64
:104D40006465725F6C6F636B0000000048617264A1
:104D50007761726520616C61726D20256420616CE1
:104D6000726561647920636C61696D65640000003F
:104D700074696D65725F68772D3E696E7473202665
:104D8000203175203C3C20616C61726D5F6E756DE9
:104D900000000000433A5C55736572735C616C6996
:104DA0006E745C4465736B746F705C65755C756E76
:104DB000695C5F79656172345C44697A65727461BB
:104DC0007469655C4D43554D455C7069636F2D7327
:104DD000646B5C7372635C7270325F636F6D6D6F76
:104DE0006E5C68617264776172655F74696D65722B
:104DF0005C74696D65722E63000000006861726406
:104E0000776172655F616C61726D5F7365745F7409
:104E10006172676574000000726F6F745F6964008F
:104E2000433A5C55736572735C616C696E745C4483
:104E300065736B746F705C65755C756E695C5F79CA
:104E4000656172345C44697A657274617469655C29
:104E50004D43554D455C7069636F2D73646B5C7396
:104E600072635C636F6D6D6F6E5C7069636F5F75AD
:104E700074696C5C70686561702E63002170685F96
:104E80006765745F6E6F646528686561702C207259
:104E90006F6F745F6964292D3E7369626C696E6718
:104EA000000000002170685F6765745F6E6F646565
:104EB00028686561702C20726F6F745F6964292D9A
:104EC0003E706172656E7400666F756E64000000FE
:104ED0006E65775F7375625F7472656520213D2032
:104EE000686561702D3E726F6F745F6964000000C9
:104EF00070685F72656D6F76655F616E645F667224
:104F000065655F6E6F64650070685F72656D6F7672
:104F1000655F616E795F68656164000070685F61FC
:104F200064645F6368696C645F6E6F646500000051
:104F300070685F6765745F6E6F646500746F74613D
:104F40006C000000433A5C55736572735C616C6978
:104F50006E745C4465736B746F705C65755C756EC4
:104F6000695C5F79656172345C44697A6572746109
:104F70007469655C4D43554D455C7069636F2D7375
:104F8000646B5C7372635C636F6D6D6F6E5C706994
:104F9000636F5F73796E635C6D757465782E630003
:104FA0006D74782D3E636F72652E7370696E5F6CE1
:104FB0006F636B006C6F636B5F69735F6F776E65B8
:104FC000725F69645F76616C6964286D74782D3EE8
:104FD0006F776E65722900006D74782D3E656E7472
:104FE00065725F636F756E74000000006D757465A7
:104FF000785F65786974000030783163203D3D202A
:10500000282A696E7374293E3E3131750000000014
:10501000433A5C55736572735C616C696E745C4491
:1050200065736B746F705C65755C756E695C5F79D8
:10503000656172345C44697A657274617469655C37
:105040004D43554D455C7069636F2D73646B5C73A4
:1050500072635C7270325F636F6D6D6F6E5C6861FE
:105060007264776172655F6972715C6972712E63D7
:105070000000000064656C7461203E3D202D3230DC
:1050800034382026262064656C7461203C3D203233
:1050900030343620262620212864656C7461202651
:1050A0002031290063757272656E74203D3D205F6A
:1050B0005F756E68616E646C65645F757365725F61
:1050C000697271207C7C2063757272656E74203DFC
:1050D0003D2068616E646C65720000002165786334
:1050E000657074696F6E207C7C2065786365707470
:1050F000696F6E203D3D206E756D202B203136008E
:10510000212864656C7461203E3E20313175290090
:1051100066616C736500000069735F736861726536
:10512000645F6972715F7261775F68616E646C65FC
:105130007228736C6F745F68616E646C65722900AD
:10514000657863657074696F6E0000006972715FE5
:105150006164645F7461696C5F746F5F66726565DA
:105160005F6C697374000000696E736572745F62CE
:1051700072616E63685F616E645F6C696E6B000084
:105180006972715F72656D6F76655F68616E646C80
:10519000657200006D616B655F6272616E636800CD
:1051A0007265736F6C76655F6272616E6368000032
:1051B0006972715F7365745F6578636C7573697626
:1051C000655F68616E646C65720000002C20667516
:1051D0006E6374696F6E3A2000000000617373653E
:1051E0007274696F6E2022257322206661696C6576
:1051F000643A2066696C6520222573222C206C6934
:105200006E65202564257325730A000031203D3D1D
:10521000202875696E747074725F74296C2D3E73EA
:1052200070696E5F6C6F636B00000000433A5C5501
:10523000736572735C616C696E745C4465736B74E6
:105240006F705C65755C756E695C5F796561723401
:105250005C44697A657274617469655C4D43554D4F
:10526000455C7069636F2D73646B5C7372635C7211
:1052700070325F636F6D6D6F6E5C7069636F5F72CC
:10528000756E74696D655C72756E74696D652E639B
:10529000000000000A2A2A2A2050414E4943202AB1
:1052A0002A2A0A000A00000072756E74696D655F33
:1052B000696E69740000000076636F5F66726571E5
:1052C000203E3D20285049434F5F504C4C5F564391
:1052D0004F5F4D494E5F465245515F4D485A202A17
:1052E000204D485A292026262076636F5F66726516
:1052F00071203C3D20285049434F5F504C4C5F5635
:10530000434F5F4D41585F465245515F4D485A20CB
:105310002A204D485A290000433A5C557365727340
:105320005C616C696E745C4465736B746F705C6512
:10533000755C756E695C5F79656172345C44697A2D
:10534000657274617469655C4D43554D455C706967
:10535000636F2D73646B5C7372635C7270325F6336
:105360006F6D6D6F6E5C68617264776172655F709E
:105370006C6C5C706C6C2E6300000000666264698B
:1053800076203E3D203136202626206662646976EE
:10539000203C3D203332300028706F73745F6469A5
:1053A0007631203E3D203120262620706F73745FB9
:1053B00064697631203C3D2037292026262028703C
:1053C0006F73745F64697632203E3D20312026265B
:1053D00020706F73745F64697632203C3D203729FA
:1053E00000000000706F73745F64697632203C3D8A
:1053F00020706F73745F646976310000706C6C5F4D
:10540000696E697400000000666E692B0000000080
:10541000666E69006E616E00666E692D00000000A8
:105420005A2A00100C2A00100C2A0010522A0010D0
:105430000C2A00100C2A00100C2A00100C2A001054
:105440000C2A00100C2A00100C2A00104A2A001006
:105450000C2A0010422A00100C2A00100C2A0010FE
:105460003A2A0010762B00106C2A00106A2B0010CC
:105470006C2A0010582B00106C2A00106C2A0010A7
:105480006C2A00106C2A00106C2A00106C2A001084
:105490006C2A0010622A00106C2A00106C2A00107E
:1054A0006C2A00106C2A00106C2A0010622A00106E
:1054B000BA2B0010B02A0010B02A0010B02A001039
:1054C000B02A0010B02A0010B02A0010B02A001034
:1054D000B02A0010B02A0010B02A0010B02A001024
:1054E000B02A0010B02A0010B02A0010B02A001014
:1054F000B02A0010B02A0010B02A0010B02A001004
:10550000B02A0010B02A0010B02A0010B02A0010F3
:10551000B02A0010B02A0010B02A0010B02A0010E3
:10552000B02A0010B02A0010B02A0010B02A0010D3
:10553000BC2D0010862B0010BC2D0010B02A0010CE
:10554000B02A0010B02A0010B02A0010B02A0010B3
:10555000B02A0010B02A0010B02A0010B02A0010A3
:10556000B02A0010B02A0010B02A0010B02A001093
:10557000B02A0010B02A0010B02A0010062E001029
:10558000B02A0010B02A0010B02A0010B02A001073
:10559000B02A0010B02A0010B02A0010B02A001063
:1055A000B02A0010062E0010CE2B0010062E001080
:1055B000BC2D0010862B0010BC2D00100000000038
:1055C000000000000000F03F000000000000244048
:1055D00000000000000059400000000000408F4023
:1055E000000000000088C34000000000006AF8408E
:1055F0000000000080842E4100000000D0126341B2
:105600000000000084D797410000000065CDCD4127
:105610002A282875696E74385F74202A292828285A
:10562000766F6964202A29726F6D5F646174615FAF
:105630006C6F6F6B757028726F6D5F7461626C65F3
:105640005F636F6465282753272C20274627292965
:10565000292D322929202A2034203E3D2053465F1F
:105660005441424C455F56325F53495A4500000051
:10567000433A5C55736572735C616C696E745C442B
:1056800065736B746F705C65755C756E695C5F7972
:10569000656172345C44697A657274617469655CD1
:1056A0004D43554D455C7069636F2D73646B5C733E
:1056B00072635C7270325F636F6D6D6F6E5C706988
:1056C000636F5F646F75626C655C646F75626C6557
:1056D0005F696E69745F726F6D2E63005F5F6165F5
:1056E0006162695F646F75626C655F696E697400A1
:1056F0002A282875696E74385F74202A2928726FE9
:105700006D5F7461626C652D322929202A20342056
:105710003E3D2053465F5441424C455F56325F53F5
:10572000495A4500433A5C55736572735C616C6914
:105730006E745C4465736B746F705C65755C756EDC
:10574000695C5F79656172345C44697A6572746121
:105750007469655C4D43554D455C7069636F2D738D
:10576000646B5C7372635C7270325F636F6D6D6FDC
:105770006E5C7069636F5F666C6F61745C666C6FA2
:1057800061745F696E69745F726F6D2E63000000F3
:105790005F5F61656162695F666C6F61745F696EAE
:1057A000697400004465627567000000626F6F7481
:1057B000325F77323571303830000000312E342EB0
:1057C000300000007069636F000000006D63756D4C
:1057D000650000004A616E203131203230323300E2
:1057E00006005250BBFF3CB6C45700100600525092
:1057F000E182887FAC57001006005250D3F075420A
:10580000A45700100D0A00004E6F2050494F20731E
:1058100074617465206D616368696E65732061727F
:105820006520617661696C61626C650070726F679A
:1058300072616D2D3E6C656E677468203C3D205032
:10584000494F5F494E535452554354494F4E5F435D
:105850004F554E5400000000433A5C557365727317
:105860005C616C696E745C4465736B746F705C65CD
:10587000755C756E695C5F79656172345C44697AE8
:10588000657274617469655C4D43554D455C706922
:10589000636F2D73646B5C7372635C7270325F63F1
:1058A0006F6D6D6F6E5C68617264776172655F7059
:1058B000696F5C70696F2E63000000004E6F20708E
:1058C000726F6772616D2073706163650000000024
:1058D0005F70696F5F66696E645F6F66667365743B
:1058E0005F666F725F70726F6772616D00000000BB
:1058F000B4020010A80200109C020010E057001033
:0C59000090020010EC570010F857001047
:10590C000122314B70B5196B0A422FD02F4C1A6300
:10591C00A06883B2EF2B47D92D4B1A682D4B2E4D17
:10592C0019895A60A023DB051A600022D961227400
:10593C00298AA3895B18E1899BB2A3818B423ED350
:10594C005B1AA3816A890304013A1B0C934238D376
:10595C008022520294466044C01A204BA0601B68FF
:10596C0098470022EB8922604343E381164A136B6C
:10597C009B0700D470BD0323144C217C13630029B6
:10598C00F8D10122A068227482B2A181002A07D02A
:10599C00000C124A013000041368A0609847E081A3
:1059AC000F4800F08DF8E5E70E4A030412681B0C53
:1059BC0001325343064A9B001268D218AEE72260AC
:1059CC00D4E70130C9E7C046000020506008002031
:1059DC002C08002044080020CC0800207807002068
:1059EC00C408002030080020F0B54E46DE4657466D
:1059FC00454680202F49E0B50B6889B09C464B6822
:105A0C002D4C9846CB682D4E9B468B680003039318
:105A1C004B6907930B690693CB6904930B6A9A46FF
:105A2C004B6A9946CB6A05938B6901938B6A0293F7
:105A3C000F6B09E08B8E9A00925901333A439BB25B
:105A4C00E2618B86032B0BD863681D000540034273
:105A5C00F0D009B0F0BCBB46B246A946A046F0BD9A
:105A6C008B6B8D8601338B636345E1DB434509DB2F
:105A7C00019B8D633360534673604B46B360029B4E
:105A8C00F360D5E75B45D3DC634507D0039A9342BB
:105A9C000DD05B45CCD1079B0B63C9E7049B3360EE
:105AAC00534673604B46B360059BF360C0E7069B9F
:105ABC000B63BDE78808002000002050FC07002085
:105ACC0010B50268EFF3108172B61368002BFCD08E
