:020000041000EA
:1000000000B5324B212058609868022188439860DF
:10001000D860186158612E4B002199600221596106
:100020000121F02299502B49196001219960352056
:1000300000F044F80222904214D00621196600F024
:1000400034F8196E01211966002018661A6600F04E
:100050002CF8196E196E196E052000F02FF8012189
:100060000842F9D1002199601B49196000215960AB
:100070001A491B48016001219960EB211966A021F2
:10008000196600F012F800219960164914480160C1
:100090000121996001BC002800D000471248134993
:1000A000086003C880F30888084703B5996A0420EC
:1000B0000142FBD001200142F8D103BD02B5186610
:1000C0001866FFF7F2FF186E186E02BD00000240BE
:1000D000000000180000070000035F00212200005C
:1000E000F4000018222000A00001001008ED00E03C
:1000F00000000000000000000000000074B24E7A12
:1001000000200420F7010010C3010010C5010010F9
:10011000C1010010C1010010C1010010C101001097
:10012000C1010010C1010010C1010010C701001081
:10013000C1010010C1010010C9010010CB01001065
:10014000CD010010CD010010CD010010CD01001037
:10015000CD010010CD010010CD010010CD01001027
:10016000CD010010CD010010CD010010CD01001017
:10017000CD010010CD010010CD010010CD01001007
:10018000CD010010CD010010CD010010CD010010F7
:10019000CD010010CD010010CD010010CD010010E7
:1001A000CD010010CD010010CD010010CD010010D7
:1001B000CD010010CD010010CD010010CD010010C7
:1001C00000BE00BE00BE00BE00BE00BE00F04BF888
:1001D000103800BEF2EB8871247501104C750110C7
:1001E0003402001090A31AE700202149086006C8D5
:1001F00081F3088810471F48006800282FD10DA4FC
:100200000ECC002902D000F012F8F9E71A491B4A77
:10021000002000E001C19142FCD1194988471949E9
:1002200088471949884700BEFDE701C901C29A42C3
:10023000FBD370474C750110C0000020DC1B002070
:100240006890011000000420000004206890011054
:1002500000100420001004200000000070470B482C
:1002600005F000F90047EFF30580C0B270470000C9
:1002700008ED00E0000000D0E01B0020B42E0020BC
:10028000993700107D0400106137001057560000A8
:1002900006005250ABB36053844C0110060052501C
:1002A000861C0302944C0110060052505422A29D59
:1002B0009C4C011005005250DE65F46868900110F6
:1002C000F8B5C04606480749091A8B10C90FC91866
:1002D00010B5491003D0044B002B00D0984710BD37
:1002E000DC1B0020DC1B002000000000054B10B5CB
:1002F000002B03D00449054800E000BFFFF7E2FFF0
:1003000010BDC04600000000342E00202836011029
:10031000F0B5DE4657464E464546E0B5CB0F83B0B6
:100320000193CB17CC1883465C40092C00D880E0A1
:10033000632C00D88AE0FA239B009C4200D28BE019
:10034000474B9C4200D884E0464B20009846464BE1
:1003500001269946454B464F9A4605E0454545D905
:100360004D4560D9554561D94249050005F0D4F89D
:1003700031000436BD42F1D8CD1C5B465A46019F80
:100380000833136058462D22B91909F067FB5B4604
:10039000BA461B689A44384B6E1E9846304B5644FA
:1003A00099462000642105F0B7F820004D00642133
:1003B00005F0B2F843465B195B782700737043463B
:1003C0005B5D04003370023E4F45EAD8FA239B0080
:1003D0009F421FD23034E4B2534658461C7003B0DB
:1003E000F0BCBB46B246A946A046F0BD350005317B
:1003F000019E5B465A46B2460833136051442D2293
:10040000584609F02BFB5B461B689A44632CC2D804
:10041000194B98464346524664001B195B7853704B
:1004200043461C5DD8E78E1D4D1DA6E7CE1D8D1DD4
:10043000A3E70300019D083303602D22691C09F026
:100440000DFB5B46AA461B689A44C3E702210125BF
:10045000CEE70325042690E7022503268DE7C04654
:100460000F2700003F420F007F969800FFE0F50540
:100470009F860100102700008C360110F0B5DE4683
:1004800057464E464546E0B597B07D4810AB0AAAA0
:1004900009A902F0DBFF002803D17A48784903F06C
:1004A00007FA109A0A99099802F094FF06F0AEFA3A
:1004B000754D0321280000F06DF91321280000F08C
:1004C0003FFA724B724F984619003A00280000F02C
:1004D0001FFA43461B683A68413BFF3BD90FC918D6
:1004E0000223C83A01934910C63312B2280009B258
:1004F0000093783300F06AFA43460AA81968FFF7B8
:1005000007FF396810A8FFF703FF0B98A0260130FA
:1005100006F010F8834611987600013006F00AF8CC
:1005200004000A990490584612F008FD2000109922
:1005300012F004FD574B0593574B0693574B079307
:1005400000239A4613339946280000F0F5F902215A
:10055000280000F0F5F93B680224C83BDA0FD218F6
:1005600043461B685210413BFF3BD90FC918534605
:1005700002934B46491008320831280012B209B2E2
:1005800001940093059B00F04BFA3B682800C83BA0
:10059000DA0FD21843461B685210413BFF3BD90F7C
:1005A000C918534602934B4649101832083112B20B
:1005B00009B201940093069B00F032FA3B682800D0
:1005C000C83BDA0FD21843461B685210413BFF3B31
:1005D000D90FC918534602934B4649101832583167
:1005E00012B209B2019400935B4600F019FA3B681D
:1005F0002800C83BDA0FD21843461B685210413B13
:10060000FF3BD90FC918534602934B464910283275
:10061000083112B209B201940093079B00F000FA6E
:100620003B682800C83BDA0FD21843461B685210BB
:10063000413BFF3BD90FC918534602934B46491023
:10064000283258310194009312B2049B09B200F091
:10065000E7F900242100FF2300222800013400F0E4
:1006600099F9B442F6D1002440212200FF2328004A
:10067000FF31013400F08EF9C82CF5D164E7C04693
:100680007082030028360110A42E00207022002062
:10069000782200205C36011074360110803601107B
:1006A00010B5024800F074F810BDC046A42E00201A
:1006B000D023FF22F0B5A02600251B0683B01A65C3
:1006C00010200F4902F056FB0121102002F00EFB12
:1006D0000C4812F009FF0C4C0C4F7600BFF35F8FF3
:1006E00020680028FAD0012806D0A0223968F0231B
:1006F0000096520000F0C8FBBFF35F8F2560EDE766
:10070000110700105822002048220020502200200B
:100710008022F8B5CE464746D024184B520280B509
:1007200024061A60236DDB0714D5154B0125994665
:10073000144B154F9846154E01F01AF84B461B788E
:10074000002B0FD043463868198833689847236DCB
:100750001D42F1D1D023FF221B061A65C0BCB94649
:10076000B046F8BD4346198838684B089B00C0184E
:1007700033689847236D1D42DED1EBE780E200E04D
:1007800060150020A62E0020602200204C220020B0
:100790007047C046F8B5DE4657464E464546E0B57A
:1007A000002965D0032900D17CE0504B504C1968DA
:1007B0009A46504B20681D689B464D43002800D147
:1007C00083E04D4B18604D4B99461860002D2AD0A0
:1007D000002511F0B5FA070011F0B2FA060011F089
:1007E000AFFA4B461B68FF21984604F06DFE0323C9
:1007F0008C113800FF211C4004F066FE1F23994332
:100800000C433000FF2104F05FFE1C23C910194087
:1008100043460C435C5553461A685B461B680135DA
:100820005343AB42D5D8364C00210122200001F0C1
:1008300015F8344800F0ECFF0121002000F038FFEB
:10084000002840D0BFF35F8F2F4A10601368002B41
:1008500004D0BFF35F8F1368002BFAD1200012F091
:100860008BFE0020F0BCBB46B246A946A046F8BDB0
:10087000204B96259B46A0235A465B0013601B4ADB
:100880006D029246F02251460A60F0211F4A136021
:10089000174C2368002B19D0174A1360174A91464A
:1008A000136095E7134BFA259B46A0235A465B003D
:1008B00013600E4A2D029246C82251460A60134A1E
:1008C000C8211360E4E70130BCE7104A10684843D0
:1008D000043005F0C9FD084B20601860074B9946AD
:1008E0001860002D00D073E79DE7C0467C220020F1
:1008F0006822002074220020642200205022002060
:1009000058220020B106001048220020802200203A
:10091000002902D0054B1B680B60002A02D0044B53
:100920001B681360034B18687047C0467422002090
:100930007C2200208022002010B500F06FFB10BD4B
:10094000F8B54746CE460F4B80B51F680E00002F06
:1009500013DD0D4B1C680D4B1B6899460C4B1B6837
:100960009846002B09DD0025200042463100013564
:1009700005F0D0FD4C44BD42F6D1C0BCB946B046EE
:10098000F8BDC0467C22002050220020802200209A
:1009900074220020080010B510430ED407480068E8
:1009A00088420ADB06480068904206DB0548064C90
:1009B00000684243206841188B5410BD7422002007
:1009C0007C2200208022002050220020F8B5CE4654
:1009D000474680B51E0008AB0027DF5F09AB1B78D8
:1009E0009946002F13DD0C4B1C680C4B1B68984676
:1009F000002E0CDD00255A435218A41820003200A6
:100A00004946013505F086FD4444BD42F6DBC0BCD5
:100A1000B946B046F8BDC0465022002080220020D2
:100A2000F0B54E46DE4657464546E0B589B00692DB
:100A300012AA107813AA0E00117814AA12781C7842
:100A400004925A1C002C00D1C9E0924B05921B68FD
:100A50000193914B1B680293904B0793082399468F
:100A6000079BE4009C46082364449C46A4446346D8
:100A700003931023984610339C46069D0096049BD2
:100A8000002B52D0009B029A9A466A43019B524423
:100A900001269A46237852441E4200D1F5E0561CA6
:100AA000B24683465E46167002221A4200D1C2E068
:100AB000834656465F4652463770042601321E4230
:100AC00000D1C2E08346561CB2465E4616704A46C6
:100AD0001A4200D1C2E0834656465F4652463770FE
:100AE000464601321E4200D1C2E08346561CB24641
:100AF0005E46167062461A4200D1C2E052468346F4
:100B0000013256465F46377040261E4200D18EE0C5
:100B1000561CB24683465E46DB0916700200002B67
:100B200000D10A00534601351A70009B029A9A467A
:100B30006A43019B52449A46012752442378561C2B
:100B4000B24683461F4200D18B465F461770022291
:100B50001A4268D05246834601325E4657463E707E
:100B600004261E425BD0561CB24683465E46167073
:100B70004A461A424FD052468346013256465F4695
:100B8000377046461E4242D0561CB24683465E46E9
:100B9000167062461A4236D0524683460132564695
:100BA0005F46377040261E4229D0561CB246834607
:100BB0005E46DB09167019D053461870039B01344A
:100BC00001359C4200D05AE7059B009E01330593F6
:100BD000013B1C78083636B2002C00D040E709B043
:100BE000F0BCBB46B246A946A046F0BD53461970BC
:100BF000039B013401359C4200D040E7E4E7561CDA
:100C0000B2468B46D4E752468B460132C7E7561CA4
:100C1000B2468B46BBE752468B460132AEE7561CC6
:100C2000B2468B46A2E752468B46013295E7561CE8
:100C3000B2468B466FE78B4656465F465246377044
:100C4000042601321E4200D03CE78B46561CB246B9
:100C50005E4616704A461A4200D03CE78B4656461E
:100C60005F4652463770464601321E4200D03CE78E
:100C70008B46561CB2465E46167062461A4200D03B
:100C80003CE752468B4601323BE7561CB2468B4648
:100C900008E7C0465022002080220020583701106B
:100CA00030B5334899B008F00FFE08AA1100314B57
:100CB00031CB31C131CB31C118682F4D08609B88D1
:100CC0002B488B80E98A2D4B023909020B439BB2DA
:100CD000138393832A4B02A98B800292022408F08B
:100CE00081FD20000621013402F06CFC0A2CF8D1B1
:100CF00006210A2002F066FC4023EB5C002B31D079
:100D000001240823022200211948009408F0F8FD6C
:100D10001748009401230A22002108F0F1FDAC8A53
:100D20000020002C0DD0200005F09AFA011C05F0DF
:100D30006EFA8721C90505F08AFA05F0EBFAC0B210
:100D40000002104B240406930F4B044305930F4BF2
:100D5000132207930021064804AB049408F012FE06
:100D600019B030BD01210A2002F044FCC8E7C0469A
:100D700000002050583B0110481F00200860000070
:100D80000F1100000000064080FD010002288020B5
:100D9000F0B54646D6464F46334B88219C46C0B5F3
:100DA000DA8B8A46D31E1BBA0B4361462F4F304D58
:100DB0003B60088CE0260E38010404022940240E12
:100DC0002143FF24240220400143A02001437960F5
:100DD000C021B96061460988023909BA3143F96016
:100DE0006146898B234F04398846464609043602FA
:100DF0002940360E3143464626403143014339608F
:100E00001D4F3B6063465B8B9B1A191F8C466646E1
:100E1000090436022940360E3143664626403143E6
:100E200056460143033B79601BBA14493343043AE5
:100E30000B6013042B4015022D0E2B43224013434D
:100E400003430F4A4B600F4B5160596000219E389D
:100E5000186010609960D9609160D160E0BCBA46BA
:100E6000B146A846F0BDC046481F0020AC1F002078
:100E700000FFFF00A81F0020A01F0020BC1F0020B3
:100E8000241F0020041F0020F8B54E4B05001960F8
:100E90004D4B08211A60A0224C4BD205D150802125
:100EA000CC20490413580B42FCD10421474BA02409
:100EB000D1508022E4058831520463581E00164048
:100EC0001342FAD100210B2001F010FF0823404A01
:100ED00040481360404A414FA35001241022036848
:100EE000A343036003681343802203603C4B120654
:100EF0001A601A603E6008F0E7FC3A4E34702C8E9F
:100F0000002C5CD0013622000021300005F002FBED
:100F1000A419AE8E002E05D020003200012105F06C
:100F2000F9FAA419EE8E002E05D02000320002211D
:100F300005F0F0FAA4192A8F002A03D0012120001D
:100F400005F0E8FA29004422274805F0E9FA0122D1
:100F50000024264B1A60264B1C60264B3B60FFF793
:100F60009FFEFFF715FF244B244A0B201A60244AEA
:100F700024495A6002229A60234A1A61234B244A68
:100F80001C605A60234A9C601A610822224B1A6036
:100F900001F0F0FE00210B2002F060F901210B208E
:100FA00001F0A4FEA02286230421D205DB00D1504B
:100FB0000223084AFF3311680B431360F8BD741C09
:100FC000A7E7C046542200206C2200204404000001
:100FD00004340050000020500C040000441F002086
:100FE000D0102050E81F0020481F0020E41F0020E0
:100FF000E81E0020241F002080000050041F002055
:10100000F8000050C1000020F9941F00C0000050FB
:10101000100020501B10600004240050084B1A7868
:10102000002A09D0BFF35F8F1A78002AFAD11A7804
:10103000002A04D1BFF35F8F1A78002AFAD07047D4
:10104000A82E0020F0B5DE464E4657464546E0B590
:1010500087B00090042091460C00049302F032FE09
:10106000FA21890004F058FA00238446924A23604A
:101070008300634494469B0163440393A023CA46C0
:10108000A1465B008D4E059001938D4A039B9446CB
:101090001C008C4A6444934200D9DBE00623984646
:1010A000B4E041462000694304F036FA009BC31ABD
:1010B000DA179B1853409E420CD94A46106052469C
:1010C0001E0014600199049A1180109A02991170FF
:1010D000119A17707B1EDBB29B46002B00D191E06A
:1010E00019002000694304F017FA009BC31ADA17AD
:1010F0009B1853409E420DD94A46106052460199B2
:101100001460049A1E001180109A029911705946B9
:10111000119A1170BB1EDBB29B46002B72D01900D6
:101120002000694304F0F8F9009BC31ADA179B18F2
:1011300053409E420DD94A461060524601991460B0
:10114000049A1E001180109A029911705946119A42
:101150001170FB1EDBB29B46002B53D01900200000
:10116000694304F0D9F9009BC31ADA179B1853405E
:101170009E420DD94A461060524601991460049A65
:101180001E001180109A029911705946119A11701F
:101190003B1FDBB29B46002B34D019002000694373
:1011A00004F0BAF9009BC31ADA179B1853409E4209
:1011B0000DD94A461060524601991460049A1E00E7
:1011C0001180109A029911705946119A1170052FC9
:1011D00018D02900200004F09FF9009BC31ADA17E9
:1011E0009B1853409E420DD94A46106052460199C1
:1011F0001460049A1E001180109A02991170012146
:10120000119A117001235B429C46E0444346DFB2D1
:101210007B1CDAB243465D1C290020006943029220
:1012200004F07AF9009BC31ADA179B185340B342B3
:101230000CD24946086051461E000C600198049982
:10124000029A088010990A7011990A704346002B7F
:1012500000D026E7019D039A0599013DABB2521AD1
:10126000019303920F2B00D00FE7FA254C46D1468D
:10127000154EAD0030002168013D05F0BBFB002D8F
:10128000F8D12368009A00209A420DD1109B1A7859
:10129000119B1B785343009A5A4313004A46126825
:1012A0009B1A5A425341D8B207B0F0BCBB46B24673
:1012B000A946A046F0BDC04680E5F9FFA086010022
:1012C000801A0600804F1200783B0110F0B54E46A0
:1012D0004546DE465746E0B502888BB00290039241
:1012E00085880E00002D00D11500029CA768796842
:1012F000386804F08CFFB96804F089FFF96804F0DD
:1013000086FF3B69049028009A4604F0AFFFE3682B
:10131000814608939846637D002B31D1404604F006
:101320009FFF514604F093FFDD4904F07AFF4946E0
:1013300004F077FFDB4904F06FFF04F0B9FF04000D
:10134000022800DA95E16C436001001B800000195F
:10135000C00004F08BFF514604F063FFFC218905B7
:1013600004F05AFF04F0A4FFC830804500D96AE1B8
:1013700080460890029B1B69434501D2984608931A
:1013800004AA94460E230D2463449B46644407AD8F
:1013900009AA08A9404601940095FFF753FE099B4E
:1013A0000898F3605B461B88B06033822B78B37477
:1013B0002378F37404F054FF5146804604F047FF4D
:1013C000B74904F02EFF4946824604F02AFFB64989
:1013D000834604F021FF04F06BFF0400112800DCB9
:1013E00058E10123B1461C005E460134200004F0A0
:1013F0003DFF011C051C301C04F013FFAA4904F03A
:101400000BFF04F055FF1128EFDC4E46A1464B467A
:101410009BB29B464B4604001804000C04F026FFC8
:1014200005905B462000B382F48204F01FFF8346E0
:101430000499404604F00BFF994904F0F2FE594626
:1014400004F0EFFE291C04F0ECFE984904F0E4FEE1
:1014500004F02EFF039B8146834200DD030003223C
:101460009343338059465046039304F0DAFE291C17
:1014700004F0D7FE8D4904F0CFFE04F019FF4A4670
:10148000039BF28063433968B08040469B4604F07A
:10149000DEFE834904F0C5FE291C04F0C2FEFC21D7
:1014A000890504F0B9FE04F003FFB9680400404662
:1014B00004F0CDFE7A4904F0B4FE291C04F0B1FE1C
:1014C000FC21890504F0A8FE04F0F2FE8146032801
:1014D00000DCADE083B203937968404604F0B7FEC8
:1014E0006F4904F09EFE291C04F09BFEFC21890537
:1014F00004F092FE04F0DCFEF9688246404604F0F7
:10150000A6FE674904F08DFE291C04F08AFEFC212A
:10151000890504F081FE04F0CBFE53464A46E31AE7
:101520009B1A5A461B1A9B1ADA0FD2185210010046
:101530005244002B00DAA8E0013358104018032A67
:1015400002DC1018042204380C2800DC69E083B2A5
:101550004946B2838C18039A2418F2835C44029A99
:10156000748333845388127D9246002A53D0FA8ABA
:101570005B00934265DC01218B43591071807285B9
:10158000BA8AF38632859346FA8B9B1ABA6932631C
:1015900091B2DA0FBD8BD2185210AD1AADB2B5862A
:1015A00089463A8C002B6ADB01335B109BB2D21A5E
:1015B00032877B8C40467387394904F048FE059991
:1015C00004F02FFE80462004000C04F04FFE011CA6
:1015D000404604F026FE041C7062584604F046FEA5
:1015E000011C201C04F01DFE029BF0625A7D3E236C
:1015F000F25452460133F2541B3BFA5C1C33F25452
:101600004B460133ED18B5870BB0F0BCBB46B24674
:10161000A946A046F0BDFA8A11009A420EDC0B00E2
:10162000ACE712180D3A022A25DB0D230D208FE7B7
:1016300004234C44043C994603934DE719000B00E6
:101640009CE7130097E764196001001B80000019F4
:10165000C00004F00BFE514604F0E3FDFC218905B7
:1016600004F0DAFD04F024FEC830804500D981E69C
:101670007EE6022467E602220D230D2068E7591E4C
:10168000CB0F5B185B109BB291E7013BD80FC018E2
:10169000401053E7FE250123AD059B460595C0E6A6
:1016A00000007A44CDCCCC3DCDCC4C3ECDCCCC3E14
:1016B000F8B5CE4647460B1C80B5042900D9042353
:1016C000DBB299000B001F4A02338E581E4A8F5A14
:1016D0009B5AF18A99468B4200D989464B46002590
:1016E0009BB21A4C98461A4B05202360194BA580D3
:1016F000A36002F0E7FAFA21890003F00DFF164B10
:1017000042462361002363754B46E060A660278054
:101710006380F38A20005B0893426D4125750F4D6D
:101720002900FFF7D3FDEB68EA7C5801C01A80005E
:10173000C018A97CC00001F04DFE2800C0BCB9460D
:10174000B046F8BD64150020E03B0110EC1E0020FF
:101750008002E001B83B0110B01E0400F821002017
:1017600003BDC04610B5040001F00AFEA04710BD3D
:10177000D0221206136DDB0704D4012120BF136DA4
:101780001942FBD0D0231B06986D7047F0B50400BA
:1017900087B00F200E00170001F0BAFA00210500F3
:1017A0000F2001F0A3FA00230022009201930123ED
:1017B0000293D023049605940026002401210220E0
:1017C00003971B06002C14D01A6D1042FCD05C65E8
:1017D00040BF1A6D114203D120BF1A6D1142FBD0D8
:1017E0009A6DA2420AD000266C46B200A458E9E7DE
:1017F0009A6D1A6D1142FBD140BFE5E70136062E06
:10180000F2D129000F2001F071FA07B0F0BDC046F7
:101810000B4B0C4A10B5934201D201235B421900D5
:10182000094A985004329B50084B094A09488B508A
:10183000094B9A68044B9C466144FFF7A7FF10BD13
:101840000008042000000420F407000065170010C1
:10185000FC0700006117001000ED00E070B5040007
:101860000E00150000F020F80100200000F006F83E
:10187000A680E580BFF35F8F70BDC046024B9C46DB
:101880006144890001607047400000340021044B2E
:10189000044ABFF35F8F02C39342FAD17047C04638
:1018A000000100D0800100D0044A1078431CDBB254
:1018B000172B00D9102313707047C04678150020ED
:1018C00010B5064B064C82B00100009318221F236E
:1018D000200000F03FF802B010BDC046F43B0110FC
:1018E00088290020EFF3108072B6034A1368002B9A
:1018F000FCD0BFF35F8F70472C0100D0BFF35F8F28
:101900000022024B1A6080F3108870472C0100D02F
:1019100070B5EFF3108C72B60D4D2B68002BFCD018
:10192000BFF35F8F0724CB08C618C05C01230C40AF
:10193000A3401C000440034207D118433070BFF39A
:101940005F8F2C608CF3108870BD100001F0B0FF29
:101950002C0100D0F8B54746CE46884680B5EFF357
:10196000108C72B6214D2C68002CFCD0BFF35F8F19
:101970009A422CD8D4080727055D06190124174080
:10198000BC402C421FD007210127894609E0D4081A
:10199000055D06194C4639001440A1400C0029424F
:1019A00011D001329342F2D201204042BFF35F8F47
:1019B00000220E4B1A608CF3108800280FDBC0BC8D
:1019C000B946B046F8BD254310003570EEE7BFF3C9
:1019D0005F8F00232B608CF3108801204042434628
:1019E000002BECD0089801F063FFC0462C0100D01A
:1019F000024B18688007C00F7047C04600C0064001
:101A00000A4B1968EFF3108072B60A68002AFCD0FE
:101A1000BFF35F8F1B68BFF35F8F00221A6080F3F4
:101A2000108840BF002000217047C046682E00206B
:101A30003B2110B5024B034A034801F093FEC04618
:101A4000103C01100C3F0110343C011070B500290E
:101A500020D003681C7BA1421CD883680E488446B2
:101A60006144090159180D684968002A12D0A24240
:101A700010D8624412019B185A6801208A4201D989
:101A8000C0B270BD8A4201D00020F9E71B68AB42AA
:101A9000F6D8F9E7FFF7CCFFFFFFFF0F682110B57D
:101AA000024B034A034801F05DFEC046183D011099
:101AB000683F0110343D011070B5002919D0057B35
:101AC000A94216D84B0004685B18033BE318002AB0
:101AD00017D091420FD0AA420BD85000801803387B
:101AE0002418A1701978002901D11A7070BD617095
:101AF000FBE7FFF7D3FF7121054B064A064801F0CB
:101B000031FE7021054B034A034801F02BFEC0460D
:101B1000B03D0110543F0110343D0110A43D0110AF
:101B2000402110B5024B034A034801F01BFEC0469A
:101B3000103C0110303F0110343C01105C2110B505
:101B4000024B034A034801F00DFEC046C83D011098
:101B5000183F0110343C0110F0B54F464646D646BA
:101B6000C0B598460AAB1C780BAB1B780600170073
:101B700099460568002C36D06B7B29682A7BA342E6
:101B80005BD0944264D863001B19033BC9188B785F
:101B9000002B52D12F4BE218B36812019B1842461A
:101BA0005A60089A1F609A60099ADA6000238B7065
:101BB0004B700B706B7B9A46002B2ED02200514647
:101BC000A8686B689847002822D022005146280058
:101BD000FFF772FF53466B7354451FD0E0BCBA4603
:101BE000B146A846F0BDAC7B002CF7D02B7BA342BE
:101BF0002ED3630029681B19033BC9184B78AB73BC
:101C0000002B00D1EB7300238B704B700B70C1E77E
:101C1000524621002800FFF74FFF6C733A004346FD
:101C2000307D00F0B9FC051E02D04B46002B0AD0D7
:101C30000C9B002BD2D01D70D0E76521064B074AC4
:101C4000074801F08FFD2100306800F067FFEFE7E3
:101C5000FFF724FFFFFFFF0FEC3D0110743F011061
:101C6000343C0110F0B5D6464F464646404DC0B50F
:101C700081468A466A68EFF3108872B61368002BB3
:101C8000FCD0BFF35F8F2E68B47B002C48D0337B31
:101C9000A34266D3630037681B19033BFF187B78A8
:101CA000B373002B00D1F373324BE218AB6812010F
:101CB0009B184A461A6052465A602F4A9A60002280
:101CC000DA60BA707A703A70777B002F36D02200D3
:101CD0003900B0687368984700282AD0220039007C
:101CE0003000FFF7E9FE7773BC4228D000262B684E
:101CF0001B7BA3422FD3EB681B19013B19786B6840
:101D0000BFF35F8F00221A6088F310880020002E36
:101D100001D108022043E0BCBA46B146A846F0BD56
:101D20006B68BFF35F8F1C6088F31088012040420E
:101D3000F1E73A0021003000FFF7BEFE74734A4617
:101D40005346287D00F028FC061ECFD021002868CD
:101D500000F0E4FECBE74021084B094A094801F0B6
:101D600001FD6821084B094A094801F0FBFCC04607
:101D70007C150020FFFFFF0F011A0010103C01101E
:101D8000303F0110343C0110183D0110683F011034
:101D9000343D0110F0B5DE4657464E464546002319
:101DA000E0B58DB00A93944B8200D3580B909B46BC
:101DB00000235C469A4600F073FB02000B1E67DBB3
:101DC0006068EFF3108872B601680029FCD0BFF399
:101DD0005F8F2068417B894600295FD0017B4945A0
:101DE00000D2E5E08549A568494409016D182E68CF
:101DF0006F68B61A9F41002F58DD2A686B680B98F0
:101E000000F0CAFB00220023002500260892099357
:101E10006368BFF35F8F52461A6088F31088002E04
:101E200008D10028C7D10DB0F0BCBB46B246A946C8
:101E3000A046F0BD4A460A9B29001B021A43100027
:101E40009046B047069007916268EFF3108B72B628
:101E50005F461368002BFCD0BB46BFF35F8F079B28
:101E6000002B79DB069A079B110019433FD02369A9
:101E7000002B3CD0434500D0B2E000F011FB00291C
:101E800006DB069A079B12184B41994200D883E063
:101E90003F215B4B5B4A5C4801F064FC002200235D
:101EA00000250026002008920993B1E7002F01D1F8
:101EB000002EA2D1002100F073FD484500D089E03A
:101EC0002A686B68AE6808920993ED68002E7BD093
:101ED00023681B7B4B4571D34A46E36800204B4483
:101EE000013B1B780A931B021343236190E74A4688
:101EF0002368002A0ED05A7B4A450BD01D7B1868F8
:101F0000A9454FD84A4652004A448218033A92786B
:101F1000002A05D0F6213D4B3D4A3E4801F022FC07
:101F2000D97B002907D0A9423CD84A00521849461B
:101F30008218033A51704A46DA73E168013A8B5CC1
:101F400001338B54534623616368BFF35F8F52465E
:101F50001A608BF310882EE72369002BC7D0434506
:101F600044D106980799089A099B121A8B41089840
:101F7000099999428CD801D1904289D8002B87DBEE
:101F80005146049101210391494620000291019597
:101F90000096FFF7E1FDD5E79942EFD1904200D9D5
:101FA00076E7EBE768211C4B1C4A1A4801F0DAFB84
:101FB0003B211B4B1B4A1C4801F0D4FB4021184B12
:101FC0001A4A194801F0CEFB9021194B194A1648BC
:101FD00001F0C8FB8C21184B164A134801F0C2FBD4
:101FE000A221164B134A104801F0BCFB9F21134B52
:101FF000104A0D4801F0B6FB4C2E0020FFFFFF0FEA
:10200000903C0110D83E0110AC3C0110743E011010
:10201000443F0110343D0110183D0110683F01108C
:10202000103C01100C3F0110343C0110303F0110F6
:102030002C3E0110F03E0110143E0110383E0110FC
:1020400010B5124C6368002B04D00A211048FFF72A
:1020500015FC10BD23000F4A1021206800F074FB0E
:10206000032000F011FA032000F00EFB03200A49C0
:1020700000F04CFAFFF718FC084B9C460323604421
:102080002375074B80006060DC60DEE77C15002074
:10209000682E00204D1A0010951D001040000034DD
:1020A0004C2E0020034810B54368002B00D010BD13
:1020B000FFF744FD7C150020F0B54E4657464546D7
:1020C000DE46E0B585B0019300230600994600275F
:1020D0000F990092884610A9097803917268EFF36E
:1020E000108B72B61368002BFCD0BFF35F8F35687E
:1020F000AC7B002C00D18FE02B7BA34200D2A1E06F
:1021000062002B681219033A9B185A78AA73002AA6
:1021100000D1EA734E4AA118B2680901521800981A
:102120000199106051600E9991604146D1609F7095
:102130005F701F706B7B9A46002B0BD022005146BC
:10214000A8686B689847002849D1524621002800AA
:10215000FFF7B2FC6C73307D009A019B00F01CFA13
:102160008146002803D02100306800F0D7FC336896
:102170001B7BA34260D3F3681B19013B187873687B
:10218000BFF35F8F1F608BF310884B46002B08D185
:102190000002204305B0F0BCBB46B246A946A046AB
:1021A000F0BD039B002B45D00E9B41460020984775
:1021B000030004000D000B433CD0002919DA009AFB
:1021C000019B10001900001BA94104000D008B4267
:1021D0002BD93F211F4B204A204801F0C3FA22008F
:1021E00051462800FFF768FC53466B735445BED137
:1021F000B1E700F055F902000B1EEADBA4185D41BF
:10220000A942E6D801D1A042E3D8002DE1DB039B2F
:1022100000940195994661E77368BFF35F8F1C6076
:102220008BF3108801204042B4E78B42EDD182420B
:10223000CFD8EAE70020ADE74021094B094A0A4818
:1022400001F090FA6821094B094A0A4801F08AFA1C
:10225000FFFFFF0F903C0110D83E0110AC3C011075
:10226000103C0110303F0110343C0110183D0110AA
:10227000683F0110343D0110F8B542680400EFF3E7
:10228000108672B61368002BFCD0BFF35F8F2568F1
:10229000CFB26B7B2A68287BBB4232D0002F40D064
:1022A00087423ED8FF230B405800C0181218033A4B
:1022B0009278002A19D02269914236D0090ACAB20E
:1022C0009446E2680020D318013B1B78634510D187
:1022D0003900280000F022FC00280AD11221164BF8
:1022E000164A1748FF3101F03DFA23698B4215D099
:1022F00000206368BFF35F8F00221A6086F31088A6
:10230000F8BD23698B4210D00B0ADBB29C46002F2C
:1023100009D0874207D8FF230B40D2E70020226173
:10232000E7E7FFF7BBFBFFF7FBFB8521054B034A04
:102330000348490001F016FABC3E0110C03E0110EE
:10234000343C0110983E0110F8B5184D0C006B6834
:102350000700002B27D0FFF785FC011E09DC144A7B
:102360000020536A9C4203D8926A0130BA4215D3C6
:10237000F8BD20BF6B68002B15D02800FFF77CFF4D
:102380000B4B00205A6A9442F2D89B6A0130BB4240
:10239000EED2A41A631E9C41E0B2E9E7E31A5A1E8A
:1023A0009341D8B2E4E7FFF7C9FBC0467C15002093
:1023B00000400540F0B5D6464F464646C0B5EFF35F
:1023C00005823F23134018001038EFF3108C72B6CB
:1023D00020490A68002AFCD0BFF35F8F0122170052
:1023E00087401D4C1600A24667631C4C2578A0460A
:1023F0002C00C4402640224209D1BFF35F8F0E60FB
:102400008CF31088E0BCBA46B146A846F0BD5246EF
:10241000566A134A8400A25896420ED34246114B84
:10242000BD43E3581570BFF35F8F00220A608CF341
:102430001088002BE6D09847E4E70B4A9B009046B3
:1024400043441A681A60BFF35F8F00230B608CF35C
:102450001088D7E7280100D000400540B22E0020A8
:10246000742E002078280020D03F05403F2110B571
:10247000024B034A034801F075F9C046903C011035
:1024800064400110AC3C011010B5034B0100180072
:10249000024AFFF73DFA10BDAD2E0020983F011013
:1024A000034B596A0A00986A596A8A42FAD17047FE
:1024B0000040054070B504000D00134A536A19002E
:1024C000966A536A8B42FAD13000190024184D41A4
:1024D000AB4201D9FFF7CAFFAB4211D0002DF9DBA7
:1024E0002B0009494A6A9342FCD89A4207D1064A0E
:1024F00002E0516A8B4202D1916A8C42F9D870BDD8
:10250000A642E7D8EAE7C0460040054070B504009F
:102510000D00EFF3108672B61A4A1368002BFCD038
:10252000BFF35F8F002D1BD0200000F01BFC16496D
:1025300081420AD0200000F01DFC0121200000F0A3
:10254000D5FB0123A340114A1360114BA400E550B1
:10255000BFF35F8F00220B4B1A6086F3108870BDAB
:102560000121A1400A4BA200D5500A4B20001A7845
:102570008A4305491A7000F067FD0021200000F031
:10258000B5FBE5E7280100D0B52300103860054011
:1025900078280020B22E0020F0B5D6464F46464699
:1025A000C0B5314C616A0D00A66A616AA942FAD1D0
:1025B00094461D008B4208D805D00120E0BCBA46E5
:1025C000B146A846F0BDB242F7D9EFF3108972B612
:1025D000264C21680029FCD0BFF35F8F0124244FD3
:1025E000844039780E0026438846F1B239708A4615
:1025F000061D1D49B6004C6372501E4A8600B3503A
:102600000B6A23420BD10B6C0020234225D0BFF371
:102610005F8F0022154B1A6089F31088CEE74B6A52
:102620001A008E6A4B6A9342FAD19D4211D801D1A9
:10263000B4450ED8C2450ED00B4B1F221C625C6302
:102640000123024093400C4A0120136043463B7033
:10265000DDE70020DBE70120D9E7C121074B084A6D
:10266000084801F07FF8C04600400540280100D02E
:10267000B22E0020742E002080E200E0BC3F01104A
:1026800048400110E03F0110EFF3108C72B60A4988
:102690000B68002BFCD0BFF35F8F01238340074AF8
:1026A0000748136202789A430270BFF35F8F0023DA
:1026B0000B608CF310887047280100D00040054063
:1026C000B22E0020682110B5024B034A034801F0E6
:1026D00049F8C046183D011094410110343D0110E5
:1026E00070B5002919D0057BA94216D84B000468A3
:1026F0005B18033BE318002A17D091420FD0AA427F
:102700000BD85000801803382418A17019780029BC
:1027100001D11A7070BD6170FBE7FFF7D3FF712123
:10272000054B064A064801F01DF87021054B034A87
:10273000034801F017F8C046B03D01108041011078
:10274000343D0110A43D011070B583600023CCB26C
:10275000437301330D00047342608373C473012C0F
:1027600010D90068421C0133DBB2137003329C4263
:10277000F9D1FF2129404B005B18C0180023033812
:10278000437070BD002C01D00068F2E7FFF79AFF9C
:10279000F8B505000C1E32D0017B8C423FD8630097
:1027A00002681B19033BD3185E78002E27D08E4297
:1027B00035D87100891903395218002157785170A2
:1027C00059703200210080686B689847002818D043
:1027D000320021002800FFF783FF39002800FFF7AF
:1027E000D7FF061E0BD032002100A8686B689847FF
:1027F00000280DD0320021002800FFF771FF2000D3
:10280000F8BD220031002800FFF76AFF3400E4E73A
:10281000220031002800FFF763FF3400EFE7FFF7E5
:1028200051FFC046F0B54F46D646464604000D005F
:102830009146C0B5002900D1A1E0007B814200D9BA
:102840008FE04B005B182268033BD11898464B7809
:10285000002B00D08DE08B789C46002B00D082E0CE
:102860000E78002E66D0864200D97AE073009B195C
:10287000033BD3185F78002F44D0B84200D270E0F9
:102880007900C9190339521851788A466146517046
:1028900059703A003100A06863689847002851D009
:1028A0003A0031002000FFF71BFF3700514620009F
:1028B000FFF76EFF061E0BD032003900A068636878
:1028C0009847002846D0320039002000FFF708FF63
:1028D0004B46207B002B1DD13E00B04241D37200FD
:1028E00023689219033A9B1800229A70854238D8BF
:1028F00022680023424430005370E0BCBA46B1461F
:10290000A846F0BD4A46002AEED0E17B002905D159
:10291000E573E2E7E17B00291AD03E00884220D32C
:1029200023684A0052189B18033B5D70E573002E24
:10293000DCD0D2E74B46002BDBD0E17B0029EDD188
:10294000E573D6E7320039002000FFF7C9FEADE796
:10295000E573C1E73A0031002000FFF7C1FE370000
:10296000B6E7FFF7AFFE3B21084B094A094800F0E4
:10297000F9FE3A21084B064A064800F0F3FE3821DA
:10298000064B034A034800F0EDFEC0460841011023
:102990006C41011084400110E04001107C400110A6
:1029A000F0B54F464646D646C0B5467B040089463C
:1029B000002E00D1A2E0017B8E4200D990E077008A
:1029C0000368BF19033FDA195078002800D08FE060
:1029D00090788446002800D084E01578002D65D0DA
:1029E000A94200D27CE06A005019033818189246B8
:1029F00042789046002A47D0914200D270E05200BF
:102A00004244033A9B185A782900924662465A700B
:102A10004270A06842466368984700284ED04246FC
:102A200029002000FFF75CFEA84651462000FFF772
:102A3000AFFE051E4AD02A004146A0686368984749
:102A4000002846D02A00454641462000FFF748FEB0
:102A5000217B4B46002B1AD1A94241D36A009246F2
:102A60002368524652199A180023033A93708E42F3
:102A700036D823680022DB1930005A706573E0BC39
:102A8000BA46B146A846F0BD4A46002AE9D0E27BE4
:102A9000002A19D0914223D32368500082189B1832
:102AA000033B5E70E673002DE1D0D5E74A46002A6D
:102AB000E0D0E27B002AEDD1E673DBE72A00414655
:102AC0002000FFF70DFEB0E7E673C5E74546217B22
:102AD000BFE7290042462000FFF702FE217BB8E74E
:102AE000FFF7F0FD3B21084B084A094800F03AFE89
:102AF0003A21084B054A064800F034FE3821064BBF
:102B0000024A034800F02EFE084101106C410110FA
:102B100084400110E04001107C400110F8B5050030
:102B2000002946D0437B8B425ED0007B814200D996
:102B300070E04E002C687618033EA619B278002A81
:102B400037D0824266D853009B18033BE25CE718FB
:102B50008A4232D0002A02D150E0002A54D0824268
:102B60004CD853009B18033BE3185A788A42F4D19F
:102B700072785A7000230122B37073702800FFF737
:102B800051FE6E7B0400864246D0002E0ED00028F7
:102B900011D022003100A8686B68984700280FD038
:102BA000220031002800FFF79BFD340001206C73E8
:102BB00000E00020F8BD3400F8E773783B70D9E7F7
:102BC0002A7B944226D8630029681B19033BCB1843
:102BD00096421FD872009219033A89188C701A789D
:102BE000002A08D11E70E1E701221900FFF71AFE42
:102BF00068730120DEE74A701E70D7E76821094B31
:102C0000094A0A4800F0AEFD6721094B094A0A4803
:102C100000F0A8FDFFF756FD6D21084B054A064858
:102C200000F0A0FD183D011094410110343D011049
:102C30002C41011054410110844001103441011015
:102C40003F2110B5024B034A034800F08BFDC046FC
:102C5000903C011074420110AC3C011010B504000E
:102C6000FEF722FE01002000FEF708FEFF2323717D
:102C7000BFF35F8F10BDC04610B50400FEF714FE11
:102C800001002000FEF7FAFDFF23A380BFF35F8F52
:102C900010BDC04610B504000120FEF711FE044B24
:102CA0009C46604480002060BFF35F8F10BDC0462B
:102CB00040000034A72110B5024B034A034800F03E
:102CC00051FDC0468C42011014450110A442011070
:102CD000992110B5024B034A034800F043FDC0465A
:102CE0000843011008450110A4420110012383404C
:102CF000002904D0034A1360034A13607047034A53
:102D00001360FBE780E200E000E100E080E100E02A
:102D100001228240034B1B6813405A1E9341D8B2D4
:102D20007047C04600E100E001238340014A136080
:102D30007047C04600E200E0084B10309B688000FE
:102D4000C358002B07D0064A00209B1A2F229A4214
:102D50004041C0B270470020FCE7C04600ED00E0F3
:102D6000A4150020024B10309B688000C0587047AB
:102D700000ED00E010B5EFF3108C72B6114A136845
:102D8000002BFCD0BFF35F8F0F4B10309B6880008F
:102D90001B580E4A934201D099420CD10A4B9B68B2
:102DA0001950BFF35F8FBFF35F8F0022054B1A608E
:102DB0008CF3108810BD7C21054B064A064800F0B4
:102DC000D1FCC046240100D000ED00E0CD01001090
:102DD000384301103C450110A4420110F0B54E46A5
:102DE000DE4657464546E0B585B001911600EFF343
:102DF000108B72B6824A1368002BFCD0BFF35F8F32
:102E00000025804B5D57002D00DAE4E06A007E4C1F
:102E1000029252199200A7189046BA7910301A708F
:102E20007A4B82009B6892469B589946181B2F2824
:102E30003AD9774B994500D0D5E0434675499A1C5D
:102E40008C46754BA2189B1A74491A1F63448B4217
:102E500000D9BEE00121114200D0BAE04046704BDB
:102E6000120523526F4B520D13437B806E4BFE7144
:102E7000BB80FF23BB71019BBB600F43B946524629
:102E80004946624B9B689950BFF35F8FBFF35F8FDA
:102E900000225B4B1A608BF3108805B0F0BCBB4678
:102EA000B246A946A046F0BD0C21013802F034FB21
:102EB000002900D09DE001234A469A43D179B142CE
:102EC00008D84BE05900C91889006118C879B04288
:102ED0000AD90A000623D356002BF3DABD21039347
:102EE000131D984609021CE0414604318C46918826
:102EF0000393131D9846A444C80A1C2871D1634645
:102F00004805001504304044C01A424B011F9C463E
:102F1000424B604498425CD8E0200905490D00020C
:102F200001433C4B40469C463F1A3C4B381F67448C
:102F30009F424ED8029B95719C463A4F00056544CE
:102F4000039B400DAD00651938439080374AAB7143
:102F5000019B2A60A980EE71AB6090E741462D4D40
:102F60002D48AC4602316118401A2C4D011F6044B7
:102F7000A8422ED80B422CD12A480905490D0143FD
:102F800040460430201889B2101A0291011F894668
:102F900020498C466044A8421BD811002448091BD4
:102FA00049414843000D1E49B8718C46414665466B
:102FB000655202991B4D798049460905490D0D431B
:102FC0000199BD80B9601949FE711F43B94611606E
:102FD00055E7FFF77DFECD21164B174A174800F045
:102FE000C1FBFFF767FED421154B134A134800F0CD
:102FF000B9FBE021134B104A104800F0B3FBC04668
:10300000240100D0AE2E0020A415002000ED00E029
:10301000CD010010FC070000D4150020FE0F0000B9
:1030200000A1FFFF00E0FFFF00BDFFFF0148804758
:10303000AAAA00007043011024450110A442011007
:1030400098430110C0430110F0B5DE4657464E4686
:103050004546E0B50C0083B0EFF3108A72B66A4AB9
:103060001368002BFCD0BFF35F8F10229146814480
:103070004A46664B96009B689D59654B98469D4213
:1030800005D0A54216D0634FEB1B2F2B14D95F4BF5
:103090009B689D51BFF35F8FBFF35F8F00225A4B38
:1030A0001A608AF3108803B0F0BCBB46B246A9464A
:1030B000A046F0BD1D00EAE7012383409B465A4627
:1030C000554B1B681A4001925A46544B1A60BFF385
:1030D0005F8FFDF7C8F8002802D0814500D082E05C
:1030E00001232A009A4393689C4208D172E04B0066
:1030F0005B189B00FB189968A1420BD01A000621AF
:1031000051560029F3DA6021454B464A4648FF31C3
:1031100000F028FB06241C57002C3CDB6200111930
:10312000890091467A1890689860D079D871062005
:103130001056987100284ADB043188469188181D82
:10314000CA0A1C2A58D14A05121504324244BA1838
:10315000121A3648111F844635486244824249D8C3
:103160000A05E021520D09020A439A804B461819BC
:10317000304B80001A78381882711C70019B002B2C
:1031800005D05A462C4B1A60234B1A607FE75A46EB
:10319000224B1A607BE700280DD1FF21917127494E
:1031A000918024490A789A71254ADB1B5B415A4376
:1031B000120D0A70E2E7234AD21A083A5108120B9C
:1031C0001CD1214A9A80214A0A43DA80D6E7BD22DF
:1031D0001202CAE7062414571300002C9EDA0028B6
:1031E000E9D14546DDE72C21194B0E4A0E48FF3147
:1031F00000F0B8FAFFF76CFDFFF75CFDA121154B5D
:10320000154A094800F0AEFA240100D000ED00E0B4
:10321000CD010010A415002000E100E080E100E0F5
:1032200068440110F4440110A4420110FC0700009E
:10323000FE0F0000AE2E002080E200E000BDFFFF88
:10324000AAAA0000DE15002000F0FFFF00F8FFFF33
:103250003444011058440110DC440110032310B51C
:103260000400074A18409446C0009C43FC33834046
:103270006444226881409A4313000B43236010BDCD
:1032800000E400E0F8B50126314C06430500331B8D
:103290002F2B55D8FCF7E7FF00284AD0EFF3108C0E
:1032A00072B62C4A1368002BFCD0BFF35F8F2A49FB
:1032B0002A008F68294B121B524153431B0D5AB2EF
:1032C0008300F858B04217D00623E356934222D029
:1032D0001223E356934228D01E23E356934226D06E
:1032E0002A23E3560321934216D0CC211C4B1D4ABE
:1032F0001D48490000F036FA89681C48C8501C4B2C
:1033000019781A70A971BFF35F8F0022114B1A60F0
:103310008CF31088F8BD00214B005B18FF219B0047
:10332000E318997113499980E9E70121F4E7022133
:10333000F2E78821104B0B4A0B48FF3100F012FADC
:10334000C2210E4B074A0848490000F00BFAC0465C
:10335000A4150020240100D000ED00E0AAAA00007E
:103360002C410110C0440110A4420110CD010010F5
:10337000AE2E002000BDFFFF9844011070440110E4
:10338000054B064A1360064A136053609360D3608E
:1033900013615361936170478080808000E400E096
:1033A00004E400E0D02200B51206084B01001068CA
:1033B00083B01818064B002200930523FEF7CAFAC3
:1033C000002801DB1F23181A03B000BDA02E002027
:1033D000A4440110F0B583B005000E001400FEF700
:1033E00007FB002801D003B0F0BD154F01223B00C0
:1033F00001210097053000F073FA33002A00009491
:103400000121104800F064FC21002800714302F003
:1034100083F804000C4B002200930221042000F0EA
:103420005FFA2300002201210094052000F058FAE1
:103430003B00022200210097062000F051FAD2E75B
:10344000006CDC0200800240001BB700F0B5DE46D5
:1034500057464E464546E0B5070085B00420039325
:103460000191029200F02EFCFA21890002F054F83A
:1034700032238246FF33994686005644B6014F4BAD
:103480004F4AF318072493420ED901235B429C460E
:103490005346E144F61A4B46002BF0D100205DE084
:1034A000002900D186E0062421003000614302F0AB
:1034B00033F8874242D0631E9846012CE5D01D00A8
:1034C00065433000290002F027F887424DD0A31E43
:1034D0009B46022C4FD02D1B2900300002F01CF817
:1034E00087424AD0E31E9B46032C61D02D1B290046
:1034F000300002F011F8874243D0231F9B46042C72
:1035000045D02D1B2900300002F006F8874240D03C
:10351000631F9B46052C42D02D1B2900300001F073
:10352000FBFF87423DD04346052B3FD03000E91FCB
:1035300001F0F2FF8742B3D00624B5E70029BAD1E3
:10354000A04673019B1B9B00019A9B19DB00136033
:1035500042460120029B1C60039B1A6005B0F0BC30
:10356000BB46B246A946A046F0BD0029E9D0A31E3D
:103570009B46022CAFD1012496E70029B2D1D84650
:10358000DFE70029FBD0231F9B46042CB9D103247D
:103590008AE70029F3D0631F9B46052CBCD1042485
:1035A00082E70029EBD04346052BBFD105247BE7FA
:1035B000022479E701239846C3E7C046508EF4FF02
:1035C00050F80C00094A10B5944640248300634427
:1035D0001A68C000624080341440802252011343B4
:1035E0001C60034B9C466044416010BD04C0014018
:1035F00000400140074BC0009C466044036809023C
:103600005940C0239B00194080235B01034319608C
:103610007047C04604400140F8B5040006200D0084
:1036200000F050FB002844D02A4B2B49E2185342AB
:103630005A418023DB039C469205284B62441A6062
:10364000274B1A6010008B689843FBD1214B254A09
:10365000E31859424B4180215B00490099520620F2
:1036600000F030FB2900C00001F056FFC30921D152
:1036700040270121260080256162A36200232C36A9
:10368000AD0135432B60062000F01CFB39008000A3
:1036900001F042FF6022E36A53400E321A40802359
:1036A0005B0133431A60104B236310232B600D3BE7
:1036B000A364F8BD0D4A934203D900230C4F0D4972
:1036C000D8E77F220240013252089F011900BF183B
:1036D0001300CFE70080FCBF00C0004000E00040C6
:1036E00000F00040842E002001030000FEFF0000D7
:1036F000C0FF3F00FFFF000030B5054DAC6F640810
:10370000FDD3296E6A6E6B6F2C6F1EC030BD00003A
:10371000000000D030B5034D1EC829666A666B678D
:103720002C6730BD000000D000BEFDE7094A030051
:103730001068002805D00849C3188B4207D81360C9
:10374000704706480449C31810608B42F7D901201E
:103750004042F5E7282A002000000420B42E002073
:1037600000BEFDE730B50D000400190083B0002A4B
:1037700009D0064B0192009322002B00044803F06D
:1037800039F900BEFDE7034B1A00F3E75845011075
:103790006845011064450110334B344A70B51A6016
:1037A000334A344B34491A6014008B689C43FBD174
:1037B000324D334EB54208D2013E761BB60808CDD5
:1037C000984723000134B342F9D100F023F92D4A80
:1037D000284B1A60284A9368DB43DB01DD09002B84
:1037E000F9D14022284B294C294E9A675A671A670B
:1037F000DA66B4420AD22368002B27D0012B2CD1E1
:1038000020000834FFF738FAB442F4D3214C224E9A
:10381000C0222000B16802F083FEB460FCF723FDF3
:10382000002818D1FEF732F8FFF7AAFDFEF708FCD2
:103830001A4C1B4EB44208D2013E361BB60808CCC7
:1038400098472B0001359E42F9D170BD2000FFF74B
:1038500005FA0834CDE700BEE4E78321114B124A94
:103860001248FFF77FFFC04600E00040BFCDFBFEDF
:10387000FE7F3C0000F0004000C00040BC1B002068
:10388000CC1B0020FFFFFF0100F00140AC1B00201B
:10389000BC1B00200000002000ED00E0CC1B00203D
:1038A000DC1B00209845011030460110B84501107E
:1038B0000FB400B5084883B002F05AFF049B002BF8
:1038C00007D005A91800019103F02AF8034802F077
:1038D0004FFF00BEFDE7C046204601108C3B0110A3
:1038E000F0B54E464546DE465746E0B583B00192F8
:1038F0000C9A05008946934200D27AE01A0E93464C
:103900001E023000002359460C9A01F047FE3C4B42
:103910006C009C466419A4006444636807008342F9
:1039200034D32B1FDBB29846012B35D9C02380221C
:103930009B01234312011A60324BAD0059599A463C
:1039400000294FD1019B22685B015340E0221A40BD
:1039500080235B0123431A604246012A35D9802324
:1039600080229B01234312011A6030003A00002399
:103970005946676001F012FE53465851012003B0CA
:10398000F0BCBB46B246A946A046F0BD2B1FDBB239
:1039900098466060012BC9D84B46012BC6D1C02385
:1039A00003229B0123431A60023AA3681A42FCD007
:1039B000019B22685B015340E0221A4080235B0197
:1039C00023431A600F4AAD0092464A46216851408F
:1039D00003220A401A6001224B469A40A3681A4209
:1039E000FCD0BCE7586901F097FD01300138FDD1EA
:1039F000A8E72D21044B054A0548FFF7B3FEC04652
:103A0000008000408C2900204C47011060470110C5
:103A10008446011010B50C2082B000F0E9F9FDF7E2
:103A2000E7FF00280ED0854B854A1A605A609A60DD
:103A3000DA601A615A619A61DA611A62814A5A62DD
:103A400002B010BD804CA06700F028FA01227F4B25
:103A50001A60636C012BFCD103227D4B1A607A4AF9
:103A6000936B012BFCD1013301217A4A7A480093F0
:103A7000043300F02DF90523784A0093012178489A
:103A800000F026F9774B5A68FF2A02D880225200AC
:103A90005A6080226E4B694C12011A60216900291C
:103AA00005D0606901F038FD01300138FDD1E02218
:103AB0006C4B6D4819680A40026002221968514037
:103AC00001320A40042102609A681142FCD0802130
:103AD000664A09011160802252005A60644B2361DA
:103AE000644B5968FF2900D85A6003220121574BC3
:103AF0001A60604A93681942FCD0E02310680340C2
:103B00005D480360126803234A4002211340594A6A
:103B1000036093681942FCD08021584B0901196059
:103B20008021574B490051606361564B5A68FF2A08
:103B300000D859608022544B12011A60E1690029B3
:103B400005D0606901F0E8FC01300138FDD1E023C7
:103B50004C4A11680B404D490B6080214C4B0901C8
:103B600019608021364B49005160E361494B5A6826
:103B7000FF2A00D859608022474B12011A60216A3F
:103B8000002905D0606901F0C7FC01300138FDD182
:103B9000E023404A11680B4040490B608021404BB4
:103BA0000901196080235B0053608022244BD202FC
:103BB00023623C4B5968914200D25A6080223A4BB2
:103BC00012011A60616A002905D0606901F0A4FC45
:103BD00001300138FDD1E023324A11680B403349EE
:103BE0000B608021324B090119608023DB02536096
:103BF000144B63622F4B5A68FF2A02D8802252006E
:103C00005A6080222C4B12011A60A169002905D04C
:103C1000606901F081FC01300138FDD1E023254AC3
:103C200011680B4025490B608021254B0901196063
:103C300080235B005360124BA36101E78C290020B5
:103C4000006CDC021BB70000008000403CB000406C
:103C500030B00040002F685900800240008C864739
:103C600000C00240308000403090004030A0004052
:103C7000001BB7003C8000403C9000403CA000404E
:103C8000405973075480004054B0004054900040A5
:103C900054A000406080004060B000406090004050
:103CA00060A000406C8000406CB000406C90004010
:103CB0006CA000404880004048B000404890004060
:103CC00048A00040014B8000C05870478C2900205C
:103CD000F8B5170004000C201D000E0001F01CFCBC
:103CE000374BFA18374B9A4263D843011B1A990194
:103CF000C91AC90009188901380001F00DFC020039
:103D00009823103A5B009A424DD86B1E062B3ED882
:103D1000069B013B062B3AD8069B9D423DD31F03D1
:103D200023682D043D43002B20DB274B2749E31854
:103D30005A4253418022520194461B03244A634451
:103D40001360244A13601F008A689743FBD1C02385
:103D5000221D9B01134321222660A0601A60226865
:103D6000002AFCDA0822E5601A60F8BD3F232268C9
:103D70001340B342D9D1A3681B051B0D8342D4D194
:103D8000EE22E368D2021340AB42CED1EDE71C2114
:103D9000114B124A1248FFF7E5FC2221114B0F4A42
:103DA0000F48FFF7DFFC19210F4B0C4A0C48FFF7B7
:103DB000D9FC11210D4B094A0948FFF7D3FCC04635
:103DC00080E84BD380F8A9320040FDBF00C000401E
:103DD00000E0004000F0004050480110B4480110DD
:103DE000D04701109C480110344801107047011061
:103DF0008023024A9B000343D36270470080054042
:103E000010B5140080221C4BD2051A6000281AD06D
:103E100001231A4A18431A4BDA611A4A42401A62BD
:103E2000596298628022144BD2051A601649174ACB
:103E30001160E022D2041A60002C07D18022144BBA
:103E400012061A6010BD0E4BD861EBE763011B1B15
:103E50009A008023121912015B049A4208D20D4B7A
:103E60001A60074B5A608022094BD2051A60E9E7B5
:103E7000084B094A1A60F4E700B00540D3C007B008
:103E8000008005402D3FF84FFCFF01000820014055
:103E900000A005402C2E0020FFFFFF00AA23064AA9
:103EA0001B0113602F230549D360054B196053682C
:103EB000002BFCDA7047C0460040024000B0FA0018
:103EC000006002409A4200D2885470477047C04652
:103ED000F8B557464546DE464E46E0B598460A9B3D
:103EE00006009A460D9B0F00934615009B0710D1C4
:103EF0000B9B0C9A93420CD213005C460B9A9D1AB2
:103F00005D4422004346013439002020B047A542D9
:103F1000F7D10B9C6319002C09D01D0053462A1BB6
:103F2000013C185D39004346B047002CF6D10D9B8B
:103F30009B070ED55B46EC1A0C9BA34209D9994608
:103F40002A004346390020200134B0470135A145FD
:103F5000F6D82800F0BCBB46B246A946A046F8BD3C
:103F6000F0B54F464646D646C0B584B098460EAB2F
:103F70001B78129F994694460D9C109B119EBA0780
:103F800025D4002E61D19C4200D3C0E001223A40EA
:103F900092461F2C00D9B9E00C9A551E302201E040
:103FA000202C03D001342A55A342F9D85246002AC6
:103FB0000DD0A6420BD90C9A551E3022202C02D1CE
:103FC00055E0202C53D001342A55B442F9D1FA06D9
:103FD0002DD57A0554D4002C4ED10F9B102B00D137
:103FE00088E00F9B022B19D030230C9A0124137008
:103FF0004B46002B20D02D230C9A135501340C9BDB
:10400000624600930397434602960194FFF760FFD0
:1040100004B0E0BCBA46B146A846F0BD01240C9AF3
:104020006033137030220C9B1B191A700134202C42
:10403000E5D04B46002BDED17B0730D43B07DED5E5
:1040400020230C9A13550134D9E7012215003D4075
:10405000AA463A421CD04A46002A2BD10C323A4298
:1040600028D19C42A5D21F2C96D9202E15D92024C8
:10407000FA06C4D57A0503D4A3421DD0B4421BD09E
:104080000F9B102B23D0022B0ED0202CB7D0C9E7CA
:104090009C429CD21F2C00D87EE7202497E72B233C
:1040A0000C9A13550134AAE7202CA8D00C9B1B199D
:1040B000013438E0013ED4E7631E012C00D18CE7C7
:1040C0000F9A102A25D0022A2AD01C00AAE7BB0684
:1040D00007D4202C93D00C9B1A1901347823137029
:1040E000D3E7202C00D18AE758220C9B1B191A70A9
:1040F0000134CAE7BB0604D478230C9A0124137058
:1041000090E758230C9A012413708BE72024002693
:104110005DE7023CBA06E7D40C9A12191C00DDE7F1
:104120000C9A9246534462221A70AEE70B0010B507
:10413000002802D049681B68984710BDF0B5DE46DC
:1041400057464E464546E0B59BB09B46249B894664
:104150009846259B0B900C924046424619009A4681
:1041600001F0ABFC002800D0D8E0012240465146C7
:10417000774B524201F09CFC002800D0CEE0012297
:1041800040465146734B524201F07CFC002800D05F
:10419000C4E0002200234046514601F073FC002891
:1041A00000D0B9E1424653460A9209938023289AE7
:1041B000DB001A400E92289A1A4201D10623269358
:1041C0000A9A099B1600134300D0C7E0289B0025DC
:1041D00000261B0500D49BE100230D93269A0D9B1E
:1041E0009A4200DC9FE1D31A013B26938023289A50
:1041F000DB001A430023002728920D93279B0024FD
:10420000BB4200D9DC1B0223289A1A400E92289A3E
:10421000134203D07B427B415B421C400D9B002B31
:1042200007D00A9809992A00330001F0CAFB0A90C6
:104230000991002200234046514601F023FC00284A
:1042400005D0802000068446099961440991289A86
:10425000414B0B9D13400493269B0A9A0293099BA2
:1042600003940092019349465B4628000C9A00F0A3
:104270008BF90400002F62D0289B220098061F2390
:10428000C0179843631C984649465B466530A8476B
:104290000D9A0025D317D4185C40D30F9A46013FDE
:1042A00001E0202D13D00AAA94461F232000634466
:1042B0000A2101355E1901F02FF9303131702000EB
:1042C0000A2101F029F926000400092EE9D8052366
:1042D0000693002304930A330393534605970B9FD9
:1042E000029312AB009342465B4649463800019563
:1042F000FFF736FE0E9B0400002B20D00C9BC51A46
:10430000279BAB421BD91E0022005B46494620205A
:104310000135B8470134AE42F6D810E0289B42463A
:104320000493279B49460393269B0B98029353467D
:10433000009201935B460C9A00F026F904002000DD
:104340001BB0F0BCBB46B246A946A046F0BDC04675
:10435000FFFFEF7FFFFFEFFFFFF7FFFF734B099FAB
:104360009C467800400D604401F0BAFB704A714BE6
:1043700001F045FB704A714B01F01AFB3B03704A98
:104380001B0B1A4304000D00300011006D4B00227E
:1043900001F005FB6C4A6D4B01F031FB02000B0094
:1043A0002000290001F004FB01F0B2FB0D9001F0A8
:1043B00097FB674A674B04000D0001F020FB0022C9
:1043C000654B01F0F5FA01F0A3FB644A0600644B6B
:1043D0002000290001F013FB040030000D000F96AF
:1043E00001F07EFB5F4A604B01F009FB02000B000D
:1043F0002000290001F0D3FA02000B0006000F0094
:1044000001F0FDFA320004000D003B0030003900DD
:1044100001F0CEFA002210901191544B2000290097
:1044200001F0CFFA0022524B01F0C2FA02000B0059
:104430002000290001F0C5FA00224E4B01F0B8FA25
:1044400002000B002000290001F0BBFA0D008021C2
:10445000040032003B000020C90501F0A0FA020070
:104460000B002000290001F0A3FA02000B001098B5
:10447000119901F0A6FA0022314B01F099FA3E4B56
:104480000F9C9C4664440022230501F0B8FA050005
:104490000E0002000B000A98099901F0F3FA0028B7
:1044A0000AD00D9B2800013B31000D930022304BB8
:1044B00001F087FA05000E00C6270D992B00633125
:1044C0008F42BF4128997F420437090500D495E601
:1044D000334300D182E6099C284A2100284B0A98E0
:1044E00001F0DEFA002808D000222100254B0A98AE
:1044F00001F0C8FA002800D070E6269B002B00D1FE
:104500007CE60E9B5A1E9341269AD31A269375E693
:10451000002304270D9371E643460A9380231B066C
:104520005344099342E6002326935FE601FCFFFF14
:10453000FB799F501344D33FB3C8608B288AC63F92
:104540000000F03F0000F83F61436F63A787D23F50
:1045500071A379094F930A400000E03F1655B5BB9F
:10456000B16B0240EF39FAFE422EE63F00002C40CC
:104570000000244000001840FF0300002D431CEB06
:10458000E2361A3F80842E41F0B54E46DE4657464D
:104590004546E0B597B09946209E219F229B8346D1
:1045A000984607910C923B0032003000390001F030
:1045B00084FA002800D0ADE1012230003900CC4B54
:1045C000524201F05FFA002800D003E101223000DE
:1045D0003900C84B524201F06BFA002800D0D9E0F4
:1045E000002230003900C44B01F062FA002800D0EC
:1045F000BBE0002230003900C04B01F043FA002834
:1046000000D0B2E0002200233000390001F03AFA75
:10461000002800D0D3E000230D93249B5B0501D438
:104620000623984608AB9C461722002430234146B7
:10463000624404E0013413550139202C01D00929CA
:10464000F8D888463000390001F062FA4246AC4B97
:10465000D2009B181A685B6805000892099301F064
:104660003FFA02000B003000390001F098F9089A77
:10467000099B01F0C4F90A900B9101F06DFA824692
:1046800001F02AFA02000B000A980B9901F087F951
:1046900000229C4B0A900B9101F00AFA002800D1ED
:1046A000E2E001239C46E244504601F015FA020084
:1046B0000B000898099901F0EBF9002802D00023BB
:1046C0009A4601354346002B00D18BE008AB1726F4
:1046D0009C4608956644554614E001235B424344DA
:1046E0000A2128009A4600F017FF013430313719AB
:1046F000397028000A2100F00FFF092D00D8D0E002
:10470000D0460500202CE8D10EAB98460323249A0E
:104710001340012B00D0E8E0239A2023002A1DD06B
:104720000D9A002A00D0FDE024990C320A4215D0DF
:10473000239A013A2392239A9A4200D805E108AAC3
:104740009446172130226144202B07D0239801334F
:10475000CA54834200D1E9E0202BF7D1249A019377
:104760000392239A434602921EE0249B58460493E8
:10477000239B00960197039343460C9A0293079953
:104780004B46FFF7DBFC17B0F0BCBB46B246A94670
:10479000A046F0BD249B5B070ED403225A4B2499FC
:1047A0000192039123990291009358464B460C9A2B
:1047B0000799FFF78DFBE6E70422544BEFE73B0038
:1047C00032000020002101F0EAF8012306000F006A
:1047D0000D9322E7249B0393239B029304230193CD
:1047E0004B4BE1E7280001F07BF902000B003000A1
:1047F000390001F0D4F8434B002206000F0001F00D
:1048000041F90EAB984600280AD100223000390049
:104810003C4B01F04DF9002802D1EB0700D50135E2
:10482000202C00D172E708AA94461723280063447D
:104830000A2101341E1900F047FE30312800317082
:104840000A2100F041FE051EEAD10323249A1340F9
:10485000012B6DD0202C48D00D9B002B14D02D2285
:104860004146631C0A5579E700220A980B99254BAB
:1048700001F008F9002800D024E75346002B30D17E
:1048800001239C46E2441DE7249B5B0724D4249A21
:104890002300120700D461E72022414601330A5564
:1048A0005CE75746089D202C00D12DE722003021DF
:1048B0004046002F09D00132B154202A00D123E70D
:1048C000831A013BE318002BF5D10EAB98462E233B
:1048D0004146541C8B54A3E72B224146631C0A55C6
:1048E0003CE7DB0700D4EDE6CAE7202336E7C04605
:1048F000FFFFEFFFFFFFEF7F65CDCD4165CDCDC160
:10490000784A01100000E03FC8480110C04801107B
:10491000D0480110249B0393239B0293032301930C
:104920000C4B41E7239A013A239217E7040091E7E1
:10493000239B002B8ED00D9B002B08D10C22249999
:104940002300114200D1F6E6F2E61C0082E72300C4
:10495000EEE6C046CC480110F0B5DE4657464E465E
:104960004546E0B5A1B01C002A9B81468B46924685
:104970000993002900D12BE120780027002800D1DD
:104980002DE1CB4B5E460893CA4B0C9309E03A00ED
:10499000534631007D1CC8472F0001342078002881
:1049A00071D02528F3D110239B460C3B9846023B3F
:1049B00000229C460134207825000300203BDBB216
:1049C000102B03D808999B00CB589F460300303B1F
:1049D000092B6BD9002398462A2800D18AE00023AE
:1049E0000A932E2800D176E00300683BDBB2122B3D
:1049F0001CD8B1499B00CB589F46012301341A4370
:104A0000D9E7634601341A43D5E7434601341A43D4
:104A1000D1E75B4601341A43CDE7082301341A433A
:104A2000C9E780235B0068781A43013567280AD8F4
:104A300024281DD90300253BDBB2422B18D80C9942
:104A40009B00CB589F460300693BDBB20F2B0FD86E
:104A500001219A4C9940A4460C400B946446214293
:104A600000D0FFE10A2B00D1E1E0072B00D1B8E034
:104A70007B1C98463A00534631006C1CC84720788E
:104A8000474600288DD1B3463C00BA4501D853466D
:104A90005F1E53463A0059460020C847200021B007
:104AA000F0BCBB46B246A946A046F0BD00230100BB
:104AB0009800C0180135400040182978030008000C
:104AC0003038303B0928F3D99846002308000A9370
:104AD0002E2800D088E780236878DB001A43030083
:104AE000303B691C092B00D804E12A2800D113E1CE
:104AF0000D0079E7099B02CB8846002903DB60782B
:104B00000993651C6BE702210A43414649428846E6
:104B100060780993651C62E768786C2800D120E210
:104B200080235B001A43013580E780239B0068786F
:104B30001A4301357AE76878682800D117E28023A4
:104B400001351A4372E7462800D188E10721099B05
:104B50000492424607338B43190003920A9A48464F
:104B600002920CC90092019309913A005346310018
:104B7000FFF70AFD6C1C070010E77B1C98463A0003
:104B8000534631002520C84747466C1C06E792076C
:104B900000D42EE2099B3A0001CB31009B46C0B203
:104BA0005346C84743467C1C4744012B00D8F8E2D3
:104BB000A8464D4622005346013431002020A84724
:104BC000BC42F7D1A9465B46454609936C1CE5E615
:104BD0003B4B207899460027002800D0D1E60024DE
:104BE00053E7099B190008C98846002B00D1A3E0B0
:104BF00021210A43934610A98C461F220F216244AB
:104C000009958C4615000B9C02E0202C0CD013005B
:104C10006046184001003731092800D807390134AF
:104C200029551A090F2BF0D8099D0B948DE0099B8B
:104C300002CB12930A9B8B46002B77D10878022176
:104C4000494200280CD001315C46594401E08C42B5
:104C500003D063780134002BF9D15B46E31A0B9340
:104C600080231100DB00194009911A4204D00A9BED
:104C70000B99994200D90B930223190011400D9111
:104C8000134200D196E1002800D17EE1099B002B60
:104C900000D14DE10A9B3A009C465B46BC44DB1BBD
:104CA00064469B464B460994A9461D0014E0C04645
:104CB000D8480110684901101C49011041900000BA
:104CC000CD3E001053463100571CA8475B46D85DC7
:104CD000002800D155E13A009442F3D12B004D4613
:104CE0009946099F0D9B002B00D04EE1129B6C1C36
:104CF000099353E6002304009800C01801314000D6
:104D000000190C78030020003038303B0928F3D913
:104D100020000D000A9367E6099B023501CBC143D1
:104D2000C91708400A90099328785DE6087800289A
:104D300096D00A9B591E86E7102110008843113136
:104D400008438346520500D455E75B460693082383
:104D500005930A9B3A0004931023039300230293C4
:104D60000B9B3100019318AB009348465346FFF765
:104D7000F7F8434607006C1C09930FE62023010057
:104D80009943472904D180231B011A4302239843E6
:104D9000452801D120231A430721099B049242464A
:104DA00007338B43190003920A9A484602920CC9B2
:104DB0000092019309913A0053463100FFF7BEF982
:104DC0006C1C0700EAE5622800D1F6E16F2800D1EB
:104DD00032E1582800D1CFE010239A43063B0D93CF
:104DE000692800D024E10B92530546D501230B9A84
:104DF0009A430B92692840D064283ED00B9A8023B6
:104E000011009B0019408B461A4200D0DCE1802340
:104E100014005B001C401A4200D07BE213005B06CA
:104E200000D48BE1FF22099B02CB11408B460993F2
:104E30005B46002B00D08CE10B9A10331100994394
:104E40000B91520500D484E100240B9B069343464A
:104E500005930A9B04930D9B0393002361E1202398
:104E60001A4373E610230D937828ACD10C2311005C
:104E700099430B915205B9D4BCE70B9A80231100DA
:104E80009B0019408B461A4200D0D8E080231400C2
:104E90005B001C401A4200D0E2E113005B0600D523
:104EA00027E1130009991B0600D495E208C91BB23B
:104EB000D8171A18424092B209919346DA0F13920A
:104EC000002B09D1802310220B99DB000B4091436A
:104ED0000B91002B00D01BE10B9A6123920600D5A9
:104EE0004123DBB210A90A3B1F228C461293434692
:104EF0006244A84614970D9D5F461593B34616006D
:104F00000AE03033DBB201343355AF4200D24EE118
:104F1000202C00D14BE107002900380000F0FCFAFA
:104F2000CBB20929EDD9129A94466344DBB2EAE781
:104F30005B46DB1B9B460B9B4C4699465346AA4659
:104F40001D003A002B003100A0475B460137D85DB9
:104F50000028F6D14B460B932B00A14655469A46A6
:104F6000C0E6C0239B00A8781A4302355EE5C02343
:104F7000A8781A43023559E520231A43103B0D93B4
:104F800074E72B004D469946ACE60B9BBB46984513
:104F900000D8ABE647445C46A8464D46FF1A2200BF
:104FA0005346013431002020A847BC42F7D1A9461E
:104FB00045469BE60B9A531C904500D822E2434697
:104FC000DB199C1A4B46A9461D003A00534601378F
:104FD00031002020A847A742F7D12B004D46994623
:104FE000434601330B935B461878002800D04DE60A
:104FF0007CE64346012B00D802E27C1E4444A846CE
:105000004D463A005346013731002020A847A742B9
:10501000F7D1A9464546099B220001CB31009846AD
:10502000C0B25346C8474346671C09936C1CB5E49D
:10503000642800D1D7E619E708230D9316E7072265
:10504000099B07339343013294469C44624609927C
:105050000CCB9C46DB171093119310981199030009
:1050600053400E9364460B0063400F930E9B0F9CBE
:105070001B1A8C410E930F946346DB0F139300238E
:105080009B4663461A433BD00B9A6123920600D598
:105090004123DBB20A3B1293434610A91F228C46E0
:1050A000002415934B466244B14614971695270089
:1050B0000E9C0F9D90460D9E17930CE03032D2B29D
:1050C00043460137DA55AB4500D177E1202F00D1B7
:1050D00077E104000D00320000232000290000F0D9
:1050E0005DFAD2B2092AE9D9129B9C466244D2B237
:1050F000E6E7FF22099908C913401A000991DCE686
:105100000B9A10231100994300240B915205BBD533
:105110000B9B0693434605930A9B04930D9B0393B5
:10512000139B029318AB3A0001940093310053464D
:105130004846FEF715FF6C1C07002FE413001B0602
:1051400000D458E1099B04CB1204120C9346099336
:105150006EE60B9A6123920600D5412310A91F2207
:105160008C46DBB262440A3B139714965F461600E6
:10517000AB4612930D9D08E03033DBB2013433555A
:10518000AF421DD3202C1BD007002900380000F0AF
:10519000C3F9CBB20929EFD9129A94466344DBB222
:1051A000ECE75B46270009936C1CFFF7F7FB159BA8
:1051B00045465E469846149FAAE702230D9355E69E
:1051C0005D46139F149E40E60722099B07339343D5
:1051D000013294469C44624609921A685B6810004A
:1051E0009B4613005A46134307D10B9A1033110004
:1051F00099430B91520500D526E60B9A612392063E
:1052000000D54123DBB210A90A3B1F228C46129322
:10521000434662441397159500245D460700B34644
:1052200090460D9E14930DE03032D2B243460134C5
:105230001A550023AB4200D1D4E0202C00D1D4E099
:1052400007000D00320000233800290000F0A6F905
:10525000D2B2092AE8D9129B9C466244D2B2E5E751
:10526000099B1A0008CA1592DA179C185440DA0FE5
:105270001492002B08D1802310220B99DB000B40E5
:1052800091430B91002B2BD10B9A6123920600D5F1
:10529000412310A91F228C46DBB262440A3B1297BD
:1052A00013965F461600AB4609930D9D08E0303318
:1052B000DBB20137F355AC420ED3202F0CD00400E3
:1052C0002900200000F028F9CBB20929EFD9099A6A
:1052D00094466344DBB2ECE75D46139EBB46129FE7
:1052E0000B9B3A000693434605930A9B31000493B7
:1052F0000D9B48460393149B6C1C02935B460193E1
:1053000018AB00935346FEF72BFE159B070009933D
:10531000FFF744FB099B10CB1493002C08D180238A
:10532000DB0011001340102291430B91002B2BD175
:105330000B9A6123920600D5412310A91F228C46A7
:10534000DBB262440A3B129713965F461600AB46E7
:1053500009930D9D08E03033DBB20137F355AC42C1
:105360000ED3202F0CD004002900200000F0D4F828
:10537000CBB20929EFD9099A94466344DBB2ECE732
:105380005D46139EBB46129F0B9B3A000693434615
:1053900005930A9B310004930D9B48460393002319
:1053A00002935B46019318AB00935346FEF7D8FD7A
:1053B000149B070009936C1CFFF7F0FAA64200D873
:1053C00084E6159B0E940F959846179B3C004E461D
:1053D000169D9946149F9BE608C9D8171A18424093
:1053E00009916AE5BE4200D827E7149B5E469846BD
:1053F000139F159D29E5099B04CB9346099317E557
:105400003C0008E60B93F0E50EB4012230B584B001
:1054100007AC08CC064D01000094280052420394CA
:10542000FFF79AFA04B030BC08BC03B01847C04676
:10543000C53E001000B585B0039101210290009394
:10544000034813004A4202A9FFF786FA05B000BDDF
:105450002D41001001480421014B1847F015002090
:1054600085540010142310B50100188804331B88DC
:10547000984710BD162310B50100188802331B8809
:10548000984710BDF8B54746CE4680B50F1E19D0D7
:1054900014239946043304000025012698464B4600
:1054A0001888434621681B88984701C4431E9841C9
:1054B000013540420640AF42F1D13000C0BCB94690
:1054C000B046F8BD0126F8E7124A936F9B0815D243
:1054D0009066D166002905D0FFE7FFE7FFE7516F2F
:1054E000106F704704B580210906C217514000288B
:1054F00000D0C8430EF038F8002104BDF0B5146E9A
:10550000556E576F166FFFF7E3FF146655665767C2
:105510001667F0BD000000D0114A936F9B0813D2AC
:1055200010665166002905D0FFE7FFE7FFE7516FDE
:10553000106F704704B5002801D00020C0430EF062
:1055400013F8002104BDC046F0B5146E556E576FB8
:10555000166FFFF7E5FF1466556657671667F0BDCF
:10556000000000D094464E4A926F9208624601D2E3
:1055700030E0C046F0B54A4EB56F6D08FCD3346ECE
:10558000756E776F366F00F025F89446444A1466BE
:105590005566576716676246F0BDC0469446404A56
:1055A000926F9208624601D258E0C046F0B53C4E78
:1055B000B56F6D08FCD3346E756E776F366F00F083
:1055C0004DF89446364A1466556657671667624624
:1055D000F0BDC046002B24DB11D000293EDA00B517
:1055E000C943404200D1013100F038F8C94340427C
:1055F00000D10131DB43524200D1013300BD002A0A
:10560000EBD1002801D1002905D00020C90FC9071E
:1056100001D1C043410800B50DF07EFF00220023F8
:1056200000BD00B500290ADBDB43524200D1013343
:1056300000F014F8C943404200D1013100BDC94314
:10564000404200D10131DB43524200D1013300F02E
:1056500005F8DB43524200D1013300BD002923D1BC
:10566000002B18D1002A0CD0BC460D4F38667A6644
:1056700000210023FFE7FFE7FFE77A6F386F6746F7
:105680007047002801D00748010000B50DF044FF25
:105690000022002300BD02000B0000200021704703
:1056A000000000D0FFFFFFFF002B00D0BFE0130C75
:1056B00028D1002AE7D080B4114F39667A66FFE717
:1056C000FFE730B4040C7B6F396F1B0423433B6648
:1056D0007A66FFE7FFE7FFE7C04684B27B6F3D6F66
:1056E0001B0423433B667A66FFE7FFE7C0460023BF
:1056F0002C042D0C7A6F386F00196941B0BC7047CB
:10570000000000D0F0B594460025140E01D112021D
:105710000835140F01D112010435940F01D1920004
:105720000235D40F01D152000135D40B0134254F7D
:105730007C66254C3C660E0C93B2FFE7FFE7FFE763
:105740003C6F6643360C7703BE467343DF0B5B0446
:10575000C01AB941130C7343DB18C91ACE0866434B
:10576000360CB64493B273431F0F1B01C01AB941E4
:10577000130C73431F0B1B05C01AB941860D8F0212
:105780003E436643360C092D24DB520A7243801ACD
:105790007703460A6643360C16235B1BDE40DF4068
:1057A000BF1964466643821B704604350633010008
:1057B000D940A840C01900D30131A24206D200232B
:1057C000F0BD0000000000D0FFFFFFFF121B013002
:1057D000F3D3F1E709277F1BFE406446A2B2724370
:1057E000801A00D20139220C7243130C1204821A5F
:1057F00099410B007046043513370100F940A84069
:10580000801900D30131002B02D1A2420AD2F0BD8F
:10581000013000D30131121BFAD2013BF8D1A24270
:1058200000D2F0BD013000D30131121BF7E7F0B513
:105830001C0C00D080E00CB400251C0A04D11B0213
:10584000160E3343120208351C0B04D11B01160F30
:105850003343120104359C0B04D19B00960F334354
:1058600092000235DC0B02D192185B4101351C001D
:10587000971864410134464F7C66464C3C660E0CDA
:10588000FFE7FFE7FFE7C0463C6F6643360C770350
:10589000BE4697B27743C01B00D20139C01B00D26D
:1058A00001399FB27743C91BC91B170C77437E048C
:1058B000FF0B801BB941CE086643360C0C2D33DB41
:1058C000B644120B1F053A431B0B97B27743C01B1C
:1058D00000D201399FB27743C91B170C77433E04AE
:1058E0003F0C801BB941860D8F023E43664329273A
:1058F0007F1BFE400C3D7746AF40BF1930BCA2B2C3
:10590000ABB272437343801A9941220C7243130C59
:105910001204801A994102000B000137001BA941B3
:10592000F9D2781E0021F0BD0C277F1BFE40774680
:105930007F0BAF40FF19E0E700245D1C07D0144F38
:105940007D663966FFE7FFE7FFE7FFE73C6F95B24B
:105950009EB265436643401BB141150C1E0C654366
:10596000664336042F0C3E432D04401BB14199423F
:1059700004D202000B0020000021F0BD01D19042B2
:10598000F7D3801A994101349942F2D3F6E7000027
:10599000000000D0FFFFFFFF48404140484018B4DE
:1059A0001B4B5B68FC46019308BD04DFA75C00103D
:1059B00018B4174B1B68FC46019308BD00DFB15CAF
:1059C00000109446134A926F920809D2624618B4A6
:1059D0000F4BDB68FC46019308BD0CDF695F0010CC
:1059E0000C4AF0B5146E556E576F166F6246FFF78E
:1059F000EEFF084A1466556657671667F0BD18B47F
:105A0000034B9B68FC46019308BD08DF0D5E001048
:105A1000E81C0020000000D0FFB55040424050403C
:105A200059404B40594000E0FFB5154F4C00640D04
:105A300003D0BC4204D10C0314D80020090D090581
:105A40005C00640D03D0BC4204D11C030AD80022C0
:105A50001B0D1B0501264B4009D44B4003D58B423F
:105A600000D18242FFBD9942FCD19042FFBD0B4361
:105A7000DB1803431343F5D0C9434918FFBD0000A9
:105A8000FF07000000B5FFF7CFFF804100BDC04613
:105A900000B5FFF7C9FF01D9002000BD012000BDFE
:105AA00000B5FFF7B9FF01D9002000BD012000BDFE
:105AB00000B5FFF7B1FF804100BD012040054A005D
:105AC000121804D85A00121801D80020704701207B
:105AD00070470020704700000021002805D1704762
