:020000041000EA
:1000000000B5324B212058609868022188439860DF
:10001000D860186158612E4B002199600221596106
:100020000121F02299502B49196001219960352056
:1000300000F044F80222904214D00621196600F024
:1000400034F8196E01211966002018661A6600F04E
:100050002CF8196E196E196E052000F02FF8012189
:100060000842F9D1002199601B49196000215960AB
:100070001A491B48016001219960EB211966A021F2
:10008000196600F012F800219960164914480160C1
:100090000121996001BC002800D000471248134993
:1000A000086003C880F30888084703B5996A0420EC
:1000B0000142FBD001200142F8D103BD02B5186610
:1000C0001866FFF7F2FF186E186E02BD00000240BE
:1000D000000000180000070000035F00212200005C
:1000E000F4000018222000A00001001008ED00E03C
:1000F00000000000000000000000000074B24E7A12
:1001000000200420F7010010C3010010C5010010F9
:10011000C1010010C1010010C1010010C101001097
:10012000C1010010C1010010C1010010C701001081
:10013000C1010010C1010010C9010010CB01001065
:10014000CD010010CD010010CD010010CD01001037
:10015000CD010010CD010010CD010010CD01001027
:10016000CD010010CD010010CD010010CD01001017
:10017000CD010010CD010010CD010010CD01001007
:10018000CD010010CD010010CD010010CD010010F7
:10019000CD010010CD010010CD010010CD010010E7
:1001A000CD010010CD010010CD010010CD010010D7
:1001B000CD010010CD010010CD010010CD010010C7
:1001C00000BE00BE00BE00BE00BE00BE00F04BF888
:1001D000103800BEF2EB88711C550310385503101F
:1001E0003402001090A31AE700202149086006C8D5
:1001F00081F3088810471F48006800282FD10DA4FC
:100200000ECC002902D000F012F8F9E71A491B4A77
:10021000002000E001C19142FCD1194988471949E9
:1002200088471949884700BEFDE701C901C29A42C3
:10023000FBD3704738550310C0000020C80C0020C5
:1002400040610310000004200000042040610310FE
:1002500000100420001004200000000070470B482C
:1002600013F036FD0047EFF30580C0B27047000081
:1002700008ED00E0000000D0C80C00202829012073
:10028000ED1C0110B1F800100D1E011057560000B2
:1002900006005250ABB3605328460310060052507C
:1002A000861C030238460310060052505422A29DB9
:1002B0004046031005005250DE65F46840610310AB
:1002C000F8B5C04610B5064C2378002B07D1054B76
:1002D000002B02D0044800E000BF0123237010BDB2
:1002E000901200200000000090CF0110044B10B5C8
:1002F000002B03D00349044800E000BF10BDC046F6
:10030000000000009412002090CF011070B5424B05
:10031000424D434AEB5CAC5C1C40DB431C43414B0D
:10032000E4B21B78002B35D03F490B68002B2FD04F
:100330003E4BEA5C3E4BEB5C93431A005DB28B781C
:10034000002B08D03B4EF0180130FF3000781042EF
:1003500001D0F35C9C430B78002B19D00221194289
:1003600002D0002D00DA8C43990603D5D10601D5C1
:1003700040218C431121194203D0510701D57F211F
:100380000C4077218B4303D0930601D57F231C407B
:10039000200070BD0EF096FE2E23EB5C002B19D1D1
:1003A0001033034200D09C4343072ED5012308217C
:1003B00002229C43014003401040002901D0022248
:1003C0009443002B01D004239C430028ACD0082385
:1003D0009C43A9E7C30401D510239C4380218023BB
:1003E00080228026C9001B015200B6000140034054
:1003F00002403040002901D001218C43002B01D064
:1004000002239C43002ADED1DFE7082101230222D8
:10041000014003401040D0E7E6070000881C0020A0
:10042000E4070000ED2601201C250120E50700005F
:10043000E707000088D2011070B5424B424D434A95
:10044000EB5CAC5C1C40424BEB5CDB431C43414B24
:10045000E4B21B78002B36D03F4A1368002B30D013
:10046000384BE95C394BEB5C8B4391785DB20029EA
:1004700008D03A48465C1E4204D041180131FF3191
:1004800009788C431278002A1BD00221114203D034
:10049000194201D07D310C40910603D55B0601D590
:1004A00010239C431123134244D0002D09DA7721F5
:1004B0000D3B9C4363B28A43E4B2002A01D0DF249F
:1004C0001C40200070BD0EF0FDFD2E23EB5C002BC8
:1004D0001DD1C30401D510239C43430501D501233D
:1004E0009C43802180228023090152009B0001400F
:1004F00002401840002901D002239C43002A01D069
:1005000004239C430028A7D008239C43A4E710237E
:10051000034200D09C43042108230122022601400B
:10052000034002403040002901D001218C43002BC0
:10053000E2D1E3E777239A43C3D0002DC1DA63B257
:10054000BDE7C046E4070000881C0020E607000065
:10055000E7070000ED2601201C25012088D20110AC
:1005600010B50BF0BBF808F0A3FD00F02DFD01F075
:10057000D3F80EF0A5FC08F039FC03480EF00CFD92
:100580000FF002FA10BDC04630250120F0B5C64676
:1005900000B51D4C1D4B0026984620791C4D1D4F63
:1005A00016E00DF0CFFD2B88013B9BB2002B1CD039
:1005B0002B802079002821D096222368B96A9200E6
:1005C000C91A4B015B1A9B005B18DB00934218D2DF
:1005D000BB6AA6822362E6610028E2D00EF09AFA96
:1005E0002B88013B9BB2002BE2D143462B8000F0CD
:1005F000B5FC01F05BF820790028DDD104BC904601
:10060000F0BD08F0E9FBF9E7881C00201B0600009C
:1006100052030020004005407047C046F0B5CE466A
:10062000474680B587B06B4600241C822B4B1B7855
:10063000002B04D107B00CBC90469946F0BD284D64
:10064000002205A928000FF0F7FC264B1526994635
:10065000059B254F413BFF3BD90FC91849104B461D
:10066000E022280009B20294019700960FF06AFF79
:100670001E4BE8229846059B2800413BFF3BD90FC3
:10068000C9184910434609B20294019700960FF029
:1006900059FF174B1A68174B1B68002A1AD041469E
:1006A000C95C684601740598DB004138FF38C10F0A
:1006B00009184910C918002302930F4B1C320193EB
:1006C0001523D2000093280012B209B204AB0FF038
:1006D00039FFAFE74946C95CE3E7C046ED26012094
:1006E000D826012090CF0110FFFF0000BCCF0110E1
:1006F000B01B00204C030020E0FF00005849F8B573
:100700000A78002A31D1574B1C78002C15D14506A8
:1007100004D5002A68D101230B70F8BD820669D583
:10072000514A117800297ED014705049504A116006
:100730001F221A704F4B1C70EFE74E4D4C492A7820
:100740000968885C4C49092869D00E78002E41D090
:100750004A4B8000C3584A4A1B0413601B0E137097
:100760000023D37000230B70D7E7C30616D43D4B8C
:100770001C78C50705D5434E3568002D31D0013DA5
:10078000356085071FD4450702D500263E4D2E60F3
:100790000507BAD501263C4D2E60B6E7394B1B68DC
:1007A0000A2B23D00B2B45D0072B47DC374C7B3B48
:1007B00023702F4B00251C6001242A4B1C702D4CEC
:1007C00025700124D5E72F4E3568272DDBD0013564
:1007D0003560D8E72A4806600132013C2A701C7057
:1007E00099E78707F3D4CEE70C7096E7274C0333DD
:1007F0002370DEE70EF034FD002828D0244B1A7851
:10080000002A00D089E71D4A800082581C49120442
:100810000A60120E0A700122CC701A707DE7087807
:1008200000289FD1D8E72E221A498B5C58424341B9
:100830008B5472E7154C92332370BAE7124C24683C
:10084000002C09D0144CE35C104C2370B1E70C4B26
:100850001C600F4B1C7060E7104CE35CF4E7C04673
:10086000ED260120F226012050030020E8CF0110E0
:10087000681B0020F02601204803002008D001104A
:100880001C2501204C030020B01B0020641B00200D
:10089000EF260120881C0020BCCF011090CF011052
:1008A00010B50A00010002480EF09CFB10BDC046C6
:1008B0003025012010B5044C200008F03DFC20003C
:1008C00008380EF069FB10BD382501200F231840B1
:1008D000031F70B50B2B00D9AEE0A84A9B00D3587C
:1008E0009F4610220C00A64BA64894431C540A4273
:1008F00016D0FF22D200995A103A995210E01022D5
:100900000C009F4BA04894431C540A4208D09F4AB5
:10091000995A9F4A995203E0FF23994ADB00D15428
:1009200070BD974B9B4A9954964A9A5CD207F7D46C
:10093000994A9954F4E7924A944BD154F0E7904B7A
:10094000964A9954904A9A5CD207E9D4944A9954A9
:10095000E6E78B4C8C4BE35C7F2B74D90F23914AD9
:100960000B40A354904AA25C910089184900C91811
:100970008E4BE25C93009A1813019B1ADB00C91896
:100980008B4BE25C8B4B5343C9188B4BE150C7E751
:100990007B4A7D4BD35C7F2B00D9B0E00B099800DC
:1009A0001B180F205B0001401943844BD154B7E75B
:1009B000734A754BD35C7F2B00D981E00B099800FB
:1009C0001B180F205B00014019437D4BD154A7E752
:1009D0006B4C6D4B4AB2E35CC906C90F7F2B00D943
:1009E000A3E08B00C9180F23490013401943C9B273
:1009F000002A01DA0C31C9B2724A8123A1540122C2
:100A00001B01E2548CE7FE235D4ADB00D1547F21B9
:100A10006D4BD35C1B018B436C49505C0343082036
:100A2000034353547CE74BB2002B37DB54486649F1
:100A3000425C9A43425473E7514B1818644B9C46EE
:100A4000604401706CE781230F2500221B010D40DB
:100A5000E25410F0DBFC002900D189E0FA220023E7
:100A6000920013F0D5F95B4913F08CF96422534BD3
:100A70005543E05C524A43011B1A9B001B18A05CC3
:100A8000554ADB0042435B199B184E4AA05C534A0F
:100A900042439B18524ACB1AA35041E71F20384AC1
:100AA000494C0140135D1943484B1155D45C21401A
:100AB000084200D134E7802149420C43D4542FE747
:100AC0000B0998001B180F205B0001401943374B9E
:100AD000D154354BD05C83001B1832485B00105C4E
:100AE0001B18880041180801411AC9005B183049D9
:100AF000505C304941435B182F49535010E70B09B4
:100B000098001B180F205B0001401943264B8800FA
:100B1000D154244B4118D35C49005B182349505CE5
:100B2000810008180101091ADFE78B00C9180F239B
:100B3000490013400B43DBB2002A01DA0C33DBB26D
:100B40001B4AA354184AA15C8A0052181549520046
:100B5000615C52181549605C810008180101091A8E
:100B6000C900521813494B43D318134AA350D7E670
:100B7000FA21890013F006F975E7C04688D4011000
:100B8000881C0020F2070000F3070000FA070000AD
:100B9000EA070000F9070000E9070000FB07000072
:100BA000EB070000FC070000FD070000FE07000047
:100BB000FF070000A08C00000C080000ED070000FB
:100BC000EE070000EF07000001080000F107000039
:100BD000E4070000005C260560EA000080EE3600B5
:100BE000040800000F2370B518400D2803D8A34A4D
:100BF0008300D3589F46A24B1818A24B9C466044D2
:100C0000007870BDFFF782FBFBE7FFF715FCF8E704
:100C10009B4C9D4BE35C002B00D180E09B4BE0584C
:100C2000FA21890013F082F808000A2113F07EF8F7
:100C30000022954BC0B2E254E3E7914C924BE35C47
:100C4000002B00D1B8E0FA21904B8900E05813F056
:100C50006DF83C2113F06AF8CCB220000A2113F0A1
:100C600091F8000145B20A21200013F08BF848B238
:100C70002843C0B2C5E7824C834BE35C002B5FD0B6
:100C8000824B8349E058E2E700227D4C7E4BE254E0
:100C900010F0BCFB00293DD0FA220023920013F093
:100CA000B7F87C4B7C49E358C01A13F06BF801226B
:100CB0000E00764B3000E150734B7849E25413F04C
:100CC00035F8774BC5B29E4218D90C3DEDB20A21DA
:100CD000280013F057F80A210401280013F052F8F5
:100CE00080200C4340422043C0B28AE76021644A1E
:100CF0006C4BD05C88430021D15482E70A21280044
:100D000013F040F80A210401280013F03BF80C43CB
:100D1000E0B276E7FA21890013F034F8C1E710F069
:100D200075FB00297CD0FA220023920013F070F8A2
:100D3000584B5949E358C01A13F024F808006FE7DC
:100D400010F064FB002970D0FA220023920013F007
:100D50005FF8504B5049E358C01A13F013F80800DD
:100D60004B4912F0E3FF3C2112F0E0FFC8B20A2128
:100D700013F008F8444B0001E35C45B2002B68D146
:100D800010F044FB002955D0FA220023920013F002
:100D90003FF8404B4049E358C01A12F0F3FF0800F7
:100DA0003B4912F0C3FF3C2112F0C0FFC8B20A2138
:100DB00012F0E8FF48B25BE710F028FB002943D0AF
:100DC000FA220023920013F023F8324B3249E35801
:100DD000C01A12F0D7FF0800FA21890012F0A6FF0E
:100DE0003C2112F0A3FFC8B20A2112F0CBFF264B20
:100DF0000001E35C45B2002B35D110F007FB002960
:100E00001DD0FA220023920013F002F8214B224950
:100E1000E358C01A12F0B6FF0800FA218900C0E7B3
:100E2000FA21890012F0AEFF82E7FA21890012F060
:100E3000A9FF8EE7FA21890012F0A4FFA9E7FA21A1
:100E4000890012F09FFFE1E7FA21890012F09AFF72
:100E5000BBE70E4B0E49E05812F068FF3C2112F040
:100E600065FFCCB2FFE6FA21084B8900E05812F08A
:100E70005DFF3C2112F05AFFCCB2F4E6B8D4011069
:100E8000881C0020E407000011080000080800008A
:100E900060EA000004080000005C260580EE3600D1
:100EA000FF2D9302F1070000FE23212110B5264AF1
:100EB000DB00D3581C0C2140012927D0D90116D5BD
:100EC000C0218024C9051940E405A14234D01F493E
:100ED000545A211AA04208DD1D49001B515A091A13
:100EE00018012DD48020800003431848115280211E
:100EF000F0200901515800011940014202D080211F
:100F000009020B43FE21C900535010BDFD21C90049
:100F1000515A0C1A81420BDAFF24E400145B411A87
:100F2000641A190301D50B490B40802149000B437A
:100F3000FD21C9005452C1E7D905D8D50120C6E723
:100F400005480340CEE7C046881C0020EA070000A1
:100F5000FA070000FFFFFEFFFFFFFFFE10B510F0D5
:100F600055FA00291FD0FA220023920012F050FFF8
:100F70000F4C104B1049E358C01A12F0D7FE08006E
:100F8000642112F0D3FE0D4BE35898420AD17F2220
:100F90000B4BE35C5B0193430A4AA15C0B430421C6
:100FA0000B43A35410BDFA21890012F0EBFEDFE7DA
:100FB000881C002004080000005C26050C080000C6
:100FC00001080000F107000010B5054C10220021B7
:100FD000200013F0B7FE01235B426360636110BD24
:100FE0006C2400200F23B34A18408300D35870B5F7
:100FF0000C009F46B04DB14BEB5C7F2B00D9CBE092
:101000000F231C40842300221B01EA5410F0FEF938
:10101000002900D148E1FA220023920012F0F8FEE4
:10102000A74912F0AFFE6422A64B5443E85CA64ADF
:1010300043011B1A9B001B18DB00AA5C1B19A34C65
:101040005443A34A1B19A85CA24A42439B18A24AD4
:10105000CB1AAB5070BD08001022974B97499043B4
:1010600058542242F6D09D4A995A9D4A9952F1E726
:10107000914B18189B4B9C4660440170EAE738235B
:10108000CD438B4300D00CE140238B4EAD03F55292
:101090000DF01AFE934BF454DCE7874A924BD1547F
:1010A000D8E7854B914A9954914A9A5CD207D1D49A
:1010B000904A9954CEE7804A884BD154CAE77E4B78
:1010C0008D4A99547D4A9A5CD207C3D48B4A99546D
:1010D000C0E7794A794BD35C7F2B77D80B0999000D
:1010E0005B180F215B000C401C43764BD454B1E7D6
:1010F000714A724BD35C7F2B00D986E00B099900B3
:101100005B180F215B000C401C436F4BD454A1E7CC
:10111000694D6A4BCC06EB5C4AB2E40F7F2B00D9D9
:101120009CE0A300E4180F23640013402343DBB2C8
:10113000002A01DA0C33DBB2654AAB548423012266
:101140001B01EA5486E782235B4A1B01D1547F21AD
:101150006B4BD35C1B018B436A49505C03430820F3
:101160000343535407F066FD74E74BB2002B62DB78
:1011700051486349425C9A4342546BE7080010228D
:101180004D4B5B4990435854224200D162E7564A86
:10119000995A5D4A99525DE70F215C4B2140E95411
:1011A0005B4BEB5C9C00E4185A4B6400EA5C6418EF
:1011B00093009A1813019B1ADB00E418564BEA5C63
:1011C000564B5343E418564BEC5043E70B09990038
:1011D0005B180F215B000C401C434D4BA100D45405
:1011E0000C194A4B4B49D35C515C64001B198C00B1
:1011F00061180C01641A4849E400505C47491B1906
:1012000041435B184649535024E70B0999005B188A
:101210000F215B000C401C433E4BD4543C4BD15C33
:101220008B005B1839495B00515C5B18A1000C19FD
:1012300021010C1BDFE71F201F4A314D0440535D85
:101240001C43304B5455D15C0C40204200D101E787
:101250009F380143D15407F0EDFCFBE6A300E318EF
:101260000F245B0014402343DBB2002A01DA0C3365
:10127000DBB2294AAB54264AA95C8A00521823499A
:101280005200695C52182349685C8100081801010A
:10129000091AC900521821494B43D318204AAB50B0
:1012A000D8E607F085FDEFE6FA21890012F06AFD25
:1012B000B6E6C046F0D40110881C002023080000C8
:1012C000005C26051D0800001E08000060EA000002
:1012D0001F08000080EE3600340800002A080000D5
:1012E0001A0800001408000028080000290800005F
:1012F00022080000190800002B0800001B0800004D
:101300003108000021080000180800002C08000027
:101310002D0800002E0800002F080000A08C0000FF
:101320003C0800000F2370B518400D2803D8A74AC9
:101330008300D3589F46A64B1818A64B9C46604482
:101340000478200070BD3F24A14AA24BD05C044029
:101350003F2CF6D007F02CFDF3E79D4D9E4BEB5C48
:10136000002B00D182E09D4BE858FA21890012F051
:10137000DDFC08000A2112F0D9FC0022964BC4B211
:10138000EA54DEE7924D944BEB5C002B00D1BAE0BF
:10139000FA21924B8900E85812F0C8FC3C2112F067
:1013A000C5FCCDB228000A2112F0ECFC000146B2C7
:1013B0000A21280012F0E6FC4CB23443E4B2C0E744
:1013C000834D854BEB5C002B61D0844B8449E858FE
:1013D000E2E700227E4D804BEA5410F017F8002916
:1013E0003FD0FA220023920012F012FD7D4B7E497D
:1013F000EB58C01A12F0C6FC01220C00774B2000FB
:10140000E950754B7949EA5412F090FC784BC5B21B
:101410009C421AD90C3DEDB20A21280012F0B2FC10
:101420000A210401280012F0ADFC2143802464420B
:101430000C43E4B285E76021654A6E4BD45C8C4373
:101440000021D15407F004FC7BE70A21280012F0A8
:1014500099FC0A210401280012F094FC0C43E4B228
:101460006FE7FA21890012F08DFCBFE70FF0CEFF85
:1014700000297CD0FA220023920012F0C9FC594BBB
:101480005949EB58C01A12F07DFC08006DE70FF0C7
:10149000BDFF002970D0FA220023920012F0B8FCA0
:1014A000504B5149EB58C01A12F06CFC08004C49E3
:1014B00012F03CFC3C2112F039FCC8B20A2112F0B7
:1014C00061FC454B0001EB5C46B2002B68D10FF08C
:1014D0009DFF002955D0FA220023920012F098FCBB
:1014E000404B4149EB58C01A12F04CFC08003C49F3
:1014F00012F01CFC3C2112F019FCC8B20A2112F0B7
:1015000041FC4CB259E70FF081FF002943D0FA2289
:101510000023920012F07CFC324B3349EB58C01A86
:1015200012F030FC0800FA21890012F0FFFB3C2188
:1015300012F0FCFBC8B20A2112F024FC264B000179
:10154000EB5C46B2002B35D10FF060FF00291DD0B7
:10155000FA220023920012F05BFC224B2249EB5846
:10156000C01A12F00FFC0800FA218900C0E7FA2126
:10157000890012F007FC82E7FA21890012F002FCD0
:101580008EE7FA21890012F0FDFBA9E7FA21890014
:1015900012F0F8FBE1E7FA21890012F0F3FBBBE758
:1015A0000E4B0F49E85812F0C1FB3C2112F0BEFB74
:1015B000CDB2FDE6FA21094B8900E85812F0B6FBDE
:1015C0003C2112F0B3FBCDB2F2E6C04630D501109B
:1015D000881C0020140800004108000038080000A2
:1015E00060EA000034080000005C260580EE36004A
:1015F000FF2D9302210800008223212110B5244AE7
:101600001B01D3581C0C2140012927D0D90116D524
:10161000C0218024C9051940E405A14231D01D49EB
:10162000545A211AA04208DD1B49001B515A091ABD
:1016300018012AD4802080000343164811528321C8
:10164000F0200901515800011940014202D08021C7
:1016500009020B4382210901535010BD0F49515A11
:101660000C1A81420ADA0E4C411A145B641A1903EF
:1016700001D50C490B40802149000B4307495452C6
:10168000C4E7D905DBD50120C9E707480340D1E706
:10169000881C00201A0800002A0800001808000012
:1016A00028080000FFFFFEFFFFFFFFFE10B50FF050
:1016B000ADFE00291FD0FA220023920012F0A8FBF1
:1016C0000F4C104B1049E358C01A12F02FFB0800C2
:1016D000642112F02BFB0D4BE35898420AD17F2274
:1016E0000B4BE35C5B0193430A4AA15C0B4304216F
:1016F0000B43A35410BDFA21890012F043FBDFE72E
:10170000881C002034080000005C26053C0800000E
:10171000310800002108000010B5054C10220021FE
:10172000200013F00FFB01235B42636010BDC04635
:101730009C2400200723184870B58446174CFF26C8
:10174000E189A3616379013189B2E2186244080A30
:101750001070FF22581E0240A21862441170E181ED
:10176000D91E61711021023B627ADBB2E318634437
:101770001143197004231A43636AB6009B596272BD
:1017800007489847636A05009B5906489847000236
:101790002843E08170BDC04644090000881C002039
:1017A000FEFF0000FFFF0000062370B5184CE08923
:1017B000A361431C626AE381030A9B009B5898471C
:1017C0001449E3798C46C318DBB25A1CD2B2A21872
:1017D0006244E31812786344187812021043030A33
:1017E000626A9B009B586082A57998470543EDB2D9
:1017F0000222637A002D08D093437F2229001340F0
:1018000091430B43A571637270BD1343F5E7C04666
:10181000881C002044080000082370B52C4CE08987
:10182000A361431C626AE381030A9B009B589847AB
:101830002849E3798C46C318DBB25A1CD2B2A218ED
:101840006244E31812786344187812021043030AC2
:10185000626A9B009B5860829847FF2340001B02EE
:1018600018422AD00122637A1343FF2202422AD06F
:10187000FD3A9343C1B27F220800134090430343D3
:10188000608AA26A6372030A9B009B589847608A29
:10189000626A030A9B009B58A57998470543EDB2FD
:1018A0000222637A002D11D093437F222900134036
:1018B00091430B43A571637270BD0122637A934318
:1018C000FF220242D4D102221343D3E71343ECE7B1
:1018D000881C002044080000032310B5054CE08953
:1018E000A361431C626AE381030A9B009B589847EB
:1018F000608210BD881C0020032310B5104CE089C5
:10190000A361431C626AE381030A9B009B589847CA
:101910000C4B60829C46201860440378A279022117
:101920001A43637A002A08D08B437F2110000B40B2
:10193000884303436372A27110BD0B43F5E7C046B1
:10194000881C002044080000052370B5184CE0896D
:10195000A361431C626AE381030A9B009B5898477A
:10196000144A23189446608263441978FF2349007F
:101970001B02194212D00122637A1343FF220A424A
:1019800012D0FD3A9343C9B27F220D001340954314
:101990002B436372A36A1B68984770BD0122637A68
:1019A0009343FF220A42ECD102221343EBE7C046E5
:1019B000881C002044080000052370B5244CE089F1
:1019C000A361431C626AE381030A9B009B5898470A
:1019D000636A60821B689847FF2340001B0218421D
:1019E0002AD00122637A1343FF2202422AD0FD3A11
:1019F0009343C1B27F220800134090430343608A9F
:101A0000A26A6372030A9B009B589847608A626AC5
:101A1000030A9B009B58A57998470543EDB2022223
:101A2000637A002D11D093437F2229001340914304
:101A30000B43A571637270BD0122637A9343FF2249
:101A40000242D4D102221343D3E71343ECE7C0464A
:101A5000881C002003221021064B9A615A7A0A43FF
:101A60005979481E58715B1803498C4663441A70B3
:101A70007047C046881C00204409000070B502264B
:101A80000E4CE089626A431CE381030A9B009B5869
:101A9000A6616082A57998470543EDB2637A002D6F
:101AA00008D0B3437F222900134091430B43A57113
:101AB000637270BD02221343F4E7C046881C002005
:101AC0000223114910B58B61FF238A791B02520052
:101AD0001A4210D001204B7A0343FF20104210D04D
:101AE000FD388343D2B27F20140003408443234354
:101AF0004B728A7110BD01204B7A8343FF20104244
:101B0000EED102200343EDE7881C002070B50225CA
:101B1000124CE089626A431CE381030A9B009B58D4
:101B2000A5616082A679984730407F220100637AE0
:101B3000914313400B43002808D0AB435AB2002A0C
:101B400009DB012293436372A07170BD022213432B
:101B50005AB2002AF5DA01221343F4E7881C002068
:101B6000042370B50B4CE089626AA361030A9B00F1
:101B70009B5898470500E089626A0130030A9B0080
:101B80009B589847E3890002284302336082E3812F
:101B900070BDC046881C0020042370B5164CE08937
:101BA000626AA361030A9B009B5898470500E0897D
:101BB000626A0130030A9B009B589847E389000240
:101BC000284380B20233626AE381030A9B009B5878
:101BD0006082A57998470543EDB20222637A002D11
:101BE00008D093437F222900134091430B43A571F2
:101BF000637270BD1343F5E7881C0020062370B59F
:101C00001F4CE089626AA361030A9B009B589847B6
:101C10000500E089626A0130030A9B009B589847DF
:101C2000E3890002284380B20233626AE381030A37
:101C30009B009B5860829847FF2340001B0218427C
:101C400015D00122637A1343FF22024215D0FD3AD8
:101C50009343C1B27F220800134090430343608A3C
:101C60006372A26A030A9B009B58984770BD0122C9
:101C7000637A9343FF220242E9D102221343E8E749
:101C8000881C0020062370B52B4CE089626AA36192
:101C9000030A9B009B5898470500E089626A01305F
:101CA000030A9B009B589847E3890002284380B2AF
:101CB0000233626AE381030A9B009B586082984763
:101CC000FF2340001B0218422AD00122637A1343EB
:101CD000FF2202422AD0FD3A9343C1B27F2208007C
:101CE000134090430343608AA26A6372030A9B0015
:101CF0009B589847608A626A030A9B009B58A579A3
:101D000098470543EDB20222637A002D11D0934328
:101D10007F222900134091430B43A571637270BD6C
:101D20000122637A9343FF220242D4D10222134359
:101D3000D3E71343ECE7C046881C0020052370B5A9
:101D40001C4CE089A361431C626AE381030A9B0087
:101D50009B589847184A231894460130C0B220185F
:101D60006044027863441B7812029B18FF22207A99
:101D70009BB2C01843401A4202D0A3690133A36149
:101D800080B2626A030A9B009B586082A5799847DB
:101D90000543EDB20222637A002D08D093437F22DF
:101DA0002900134091430B43A571637270BD134327
:101DB000F5E7C046881C002044080000082370B5E1
:101DC0002D4CE089A361431C626AE381030A9B00F6
:101DD0009B589847294903008C46421CD2B2A2184E
:101DE000E3186244634410781B78227A00029B183F
:101DF000C01880B2626A030A9B009B5860829847B1
:101E0000FF2340001B0218422AD00122637A1343A9
:101E1000FF2202422AD0FD3A9343C1B27F2208003A
:101E2000134090430343608AA26A6372030A9B00D3
:101E30009B589847608A626A030A9B009B58A57961
:101E400098470543EDB20222637A002D11D09343E7
:101E50007F222900134091430B43A571637270BD2B
:101E60000122637A9343FF220242D4D10222134318
:101E7000D3E71343ECE7C046881C00204408000069
:101E8000042310B5074CE089A361431C626AE38117
:101E9000030A9B009B589847E379C018C0B2608240
:101EA00010BDC046881C0020042370B5114CE08989
:101EB000A361431C626AE381030A9B009B58984715
:101EC000E379A579C018636AC0B21B68608298473D
:101ED0000543EDB20222637A002D08D093437F229E
:101EE0002900134091430B43A571637270BD1343E6
:101EF000F5E7C046881C0020062310B51A4CE0897F
:101F0000A361431C626AE381030A9B009B589847C4
:101F1000E379C018636AC0B21B6860829847FF23E8
:101F200040001B02184215D00122637A1343FF229E
:101F3000024215D0FD3A9343C1B27F2208001340FC
:101F400090430343608A6372A26A030A9B009B5812
:101F5000984710BD0122637A9343FF220242E9D1E0
:101F600002221343E8E7C046881C0020062370B510
:101F7000254CE089A361431C626AE381030A9B004C
:101F80009B589847E379C018636AC0B21B686082A7
:101F90009847FF2340001B0218422AD00122637A8F
:101FA0001343FF2202422AD0FD3A9343C1B27F225B
:101FB0000800134090430343608AA26A6372030AD5
:101FC0009B009B589847608A626A030A9B009B5853
:101FD000A57998470543EDB20222637A002D11D00E
:101FE00093437F222900134091430B43A5716372F1
:101FF00070BD0122637A9343FF220242D4D10222B0
:102000001343D3E71343ECE7881C0020022201218D
:10201000024B9A615A7A8A435A727047881C002090
:10202000042370B51A4CE089626AA361030A9B001D
:102030009B589847237A181885B2C30502D5A3691F
:102040000133A361E089626A0130030A9B009B5857
:102050009847E3890002281880B20233626AE3815C
:10206000030A9B009B586082A57998470543EDB20F
:102070000222637A002D08D093437F222900134067
:1020800091430B43A571637270BD1343F5E7C046DE
:10209000881C00200222014B9A617047881C002096
:1020A000072370B52C4CE089626AA361030A9B0088
:1020B0009B5898470500E089626A0130030A9B003B
:1020C0009B589847237A00025B191818E38980B25D
:1020D0000233626AE381030A9B009B58608298473F
:1020E000FF2340001B0218422AD00122637A1343C7
:1020F000FF2202422AD0FD3A9343C1B27F22080058
:10210000134090430343608AA26A6372030A9B00F0
:102110009B589847608A626A030A9B009B58A5797E
:1021200098470543EDB20222637A002D11D0934304
:102130007F222900134091430B43A571637270BD48
:102140000122637A9343FF220242D4D10222134335
:10215000D3E71343ECE7C046881C00200422014B60
:102160009A617047881C0020042370B51A4CE089DE
:10217000626AA361030A9B009B589847E379181889
:1021800085B2C30502D5A3690133A361E089626A00
:102190000130030A9B009B589847E38900022818E6
:1021A00080B20233626AE381030A9B009B5860821B
:1021B000A57998470543EDB20222637A002D08D035
:1021C00093437F222900134091430B43A57163720F
:1021D00070BD1343F5E7C046881C0020072370B587
:1021E000204CE089626AA361030A9B009B589847D0
:1021F0000500E089626A0130030A9B009B589847FA
:1022000000020543E079E389401980B20233626A33
:10221000E381030A9B009B5860829847FF2340009C
:102220001B02184215D00122637A1343FF22024297
:1022300015D0FD3A9343C1B27F220800134090436A
:102240000343608A6372A26A030A9B009B58984703
:1022500070BD0122637A9343FF220242E9D1022238
:102260001343E8E7881C0020072370B52C4CE08955
:10227000626AA361030A9B009B5898470500E089A6
:10228000626A0130030A9B009B589847000205438D
:10229000E079E389401980B20233626AE381030A7C
:1022A0009B009B5860829847FF2340001B02184206
:1022B0002AD00122637A1343FF2202422AD0FD3A38
:1022C0009343C1B27F220800134090430343608AC6
:1022D000A26A6372030A9B009B589847608A626AED
:1022E000030A9B009B58A57998470543EDB202224B
:1022F000637A002D11D093437F222900134091432C
:102300000B43A571637270BD0122637A9343FF2270
:102310000242D4D102221343D3E71343ECE7C04671
:10232000881C0020062370B5134CE089626AA36103
:10233000030A9B009B5898470500E089626A0130B8
:10234000030A9B009B589847000228430B4DE289E3
:10235000AC466179013292B263186344150A1D706C
:10236000FF234D1E2B40E31880B263440239608284
:102370001A706171E08170BD881C00204409000062
:10238000062370B5184CE089A361431C626AE3819F
:10239000030A9B009B5898471449E3798C46C3185D
:1023A000DBB25A1CD2B2A2186244E318127863441A
:1023B000187812021043030A626A9B009B586082DD
:1023C000A579984702000221637A2A40284208D062
:1023D0008B437F2110000B40884303436372A2713B
:1023E00070BD0B43F5E7C046881C00204408000080
:1023F000082370B52F4C0125E089A361431C626A54
:10240000E381030A9B009B5898472B49E3798C464C
:10241000C318DBB25A1CD2B2A2186244E318127875
:102420006344187812021043030A626A9B009B58A7
:102430006082984742002800637A1840104301B236
:1024400080B2FF22060096432AD001221343FF22C6
:10245000DBB2024228D0FD3A93437F2208001340AA
:1024600090430343608AA26A6372030A9B009B58ED
:10247000C9B29847608A626A030A9B009B58A57993
:10248000984702000221637A2A4028420FD08B43EA
:102490007F2110000B40884303436372A27170BD1B
:1024A000FF22AB430242D6D102221343D5E70B43AE
:1024B000EEE7C046881C002044080000032310B546
:1024C0000F4CE089A361431C626AE381030A9B000D
:1024D0009B5898470B4B60829C46201860440278BA
:1024E0003F211000637A88430B40A17903431142D6
:1024F00003D102221343637210BD02229343FAE711
:10250000881C002044080000032370B50F4CE089AC
:10251000A361431C626AE381030A9B009B589847AE
:10252000636A60821B68A579984702000221637A7A
:102530002A40284208D08B437F2110000B4088435B
:1025400003436372A27170BD0B43F5E7881C002042
:1025500070B5012605233500184CE089A361431CA2
:10256000626AE381030A9B009B5898471449637A87
:102570008C461D4029002218608262441278520065
:1025800011430D00120A12D001221343FF22DBB2C5
:102590002A4210D0FD3A93437F220D001340954309
:1025A0002B436372A36AC9B21B68984770BDFF22B0
:1025B000B3432A42EED102221343EDE7881C0020E8
:1025C00044080000052370B5264C0125E089A3616D
:1025D000431C626AE381030A9B009B589847636A25
:1025E00060821B68984742002800637A18401043B5
:1025F00001B280B2FF22060096432AD00122134383
:10260000FF22DBB2024228D0FD3A93437F2208002A
:10261000134090430343608AA26A6372030A9B00DB
:102620009B58C9B29847608A626A030A9B009B580C
:10263000A579984702000221637A2A4028420FD0E8
:102640008B437F2110000B40884303436372A271C8
:1026500070BDFF22AB430242D6D102221343D5E71D
:102660000B43EEE7881C002004230849084A8C46E7
:102670003021936153790133DBB25371D318634432
:102680001B788B4320210B43537270474409000091
:10269000881C002070B502260E4CE089626A431C3B
:1026A000E381030A9B009B58A6616082A579984745
:1026B0000200637A2A40284208D0B3437F211000E9
:1026C0000B40884303436372A27170BD02210B4328
:1026D000F4E7C046881C002030B5012502232800FD
:1026E00010498B614B7A8A791840040052001443D8
:1026F0002000120A0FD001221343FF22DBB2024254
:102700000DD0FD3A93437F222000134090430343B2
:102710004B728C7130BDFF22AB430242F1D10222D9
:102720001343F0E7881C0020042370B5164CE089A1
:10273000626AA361030A9B009B5898470500E089E1
:10274000626A0130030A9B009B589847E3890002A4
:10275000284380B20233626AE381030A9B009B58DC
:10276000608298473F220100637A91431340A27927
:102770000B43DBB2024203D102221343637270BDEA
:1027800002229343FAE7C046881C0020042370B558
:10279000164CE089626AA361030A9B009B58984724
:1027A0000500E089626A0130030A9B009B58984744
:1027B000E3890002284380B20233626AE381030A9C
:1027C0009B009B586082A579984702000221637A9A
:1027D0002A40284208D08B437F2110000B408843B9
:1027E00003436372A27170BD0B43F5E7881C0020A0
:1027F000062370B5224CE089626AA361030A9B003C
:102800009B5898470500E089626A0130030A9B00E3
:102810009B589847E3890002284380B20233626ADA
:10282000E381030A9B009B58608298470125420080
:102830002800637A1840104301B280B2FF220600DC
:10284000964315D001221343FF22DBB2024213D07C
:10285000FD3A93437F220800134090430343608A6C
:102860006372A26A030A9B009B58C9B2984770BD65
:10287000FF22AB430242EBD102221343EAE7C046F8
:10288000881C0020062370B52D4CE089626AA36184
:10289000030A9B009B5898470500E089626A013053
:1028A000030A9B009B589847E3890002284380B2A3
:1028B0000233626AE381030A9B009B586082984757
:1028C000012542002800637A1840104301B280B20B
:1028D000FF22060096432AD001221343FF22DBB2D7
:1028E000024228D0FD3A93437F22080013409043D0
:1028F0000343608AA26A6372030A9B009B58C9B2B1
:102900009847608A626A030A9B009B58A57998479A
:1029100002000221637A2A4028420FD08B437F2194
:1029200010000B40884303436372A27170BDFF2205
:10293000AB430242D6D102221343D5E70B43EEE765
:10294000881C0020052370B51C4CE089A361431C42
:10295000626AE381030A9B009B589847184A231830
:1029600094460130C0B220186044027863441B785A
:1029700012029B18FF22207A9BB2C01843401A42D1
:1029800002D0A3690133A36180B2626A030A9B008B
:102990009B586082A579984702000221637A2A40F9
:1029A000284208D08B437F2110000B40884303430B
:1029B0006372A27170BD0B43F5E7C046881C00200E
:1029C00044080000082370B52F4C0125E089A3615D
:1029D000431C626AE381030A9B009B5898472B497A
:1029E00003008C46421CD2B2A218E318624463442E
:1029F00010781B78227A00029B18C01880B2626A95
:102A0000030A9B009B586082984742002800637A23
:102A10001840104301B280B2FF22060096432AD02C
:102A200001221343FF22DBB2024228D0FD3A934336
:102A30007F220800134090430343608AA26A6372B6
:102A4000030A9B009B58C9B29847608A626A030ACE
:102A50009B009B58A579984702000221637A2A407F
:102A600028420FD08B437F2110000B408843034343
:102A70006372A27170BDFF22AB430242D6D1022223
:102A80001343D5E70B43EEE7881C00204408000001
:102A9000042370B5114CE089A361431C626AE38191
:102AA000030A9B009B589847E379A579C018636A8D
:102AB000C0B21B686082984702000221637A2A40F4
:102AC000284208D08B437F2110000B4088430343EA
:102AD0006372A27170BD0B43F5E7C046881C0020ED
:102AE000062370B51C4C0125E089A361431C626A72
:102AF000E381030A9B009B589847E379C018636AF7
:102B0000C0B21B686082984742002800637A184070
:102B1000104301B280B2FF220600964315D0012275
:102B20001343FF22DBB2024213D0FD3A93437F22CC
:102B30000800134090430343608A6372A26A030A49
:102B40009B009B58C9B2984770BDFF22AB4302421D
:102B5000EBD102221343EAE7881C0020062370B55C
:102B6000284C0125E089A361431C626AE381030AC2
:102B70009B009B589847E379C018636AC0B21B68F2
:102B80006082984742002800637A1840104301B2DF
:102B900080B2FF22060096432AD001221343FF226F
:102BA000DBB2024228D0FD3A93437F220800134053
:102BB00090430343608AA26A6372030A9B009B5896
:102BC000C9B29847608A626A030A9B009B58A5793C
:102BD000984702000221637A2A4028420FD08B4393
:102BE0007F2110000B40884303436372A27170BDC4
:102BF000FF22AB430242D6D102221343D5E70B4357
:102C0000EEE7C046881C002002220121024B9A6197
:102C10005A7A0A435A727047881C0020042370B500
:102C20001A4CE089626AA361030A9B009B5898478B
:102C3000237A181885B2C30502D5A3690133A361AD
:102C4000E089626A0130030A9B009B589847E38938
:102C50000002281880B20233626AE381030A9B00F3
:102C60009B586082A579984702000221637A2A4026
:102C7000284208D08B437F2110000B408843034338
:102C80006372A27170BD0B43F5E7C046881C00203B
:102C9000072370B52E4CE089626AA361030A9B008A
:102CA0009B5898470500E089626A0130030A9B003F
:102CB0009B589847237A00025B191818E38980B261
:102CC0000233626AE381030A9B009B586082984743
:102CD000012542002800637A1840104301B280B2F7
:102CE000FF22060096432AD001221343FF22DBB2C3
:102CF000024228D0FD3A93437F22080013409043BC
:102D00000343608AA26A6372030A9B009B58C9B29C
:102D10009847608A626A030A9B009B58A579984786
:102D200002000221637A2A4028420FD08B437F2180
:102D300010000B40884303436372A27170BDFF22F1
:102D4000AB430242D6D102221343D5E70B43EEE751
:102D5000881C0020042370B50E4CE089626AA361D0
:102D6000030A9B009B589847E379181885B2C3055E
:102D700002D5A3690133A361E089626A0130030AC5
:102D80009B009B589847E38900022D180233658207
:102D9000E38170BD881C0020042370B51A4CE089C3
:102DA000626AA361030A9B009B589847E37918184D
:102DB00085B2C30502D5A3690133A361E089626AC4
:102DC0000130030A9B009B589847E38900022818AA
:102DD00080B20233626AE381030A9B009B586082DF
:102DE000A579984702000221637A2A40284208D038
:102DF0008B437F2110000B40884303436372A27111
:102E000070BD0B43F5E7C046881C0020072370B552
:102E1000234CE089626AA361030A9B009B58984790
:102E20000500E089626A0130030A9B009B589847BD
:102E300000020543E079E389401980B20233626AF7
:102E4000E381030A9B009B5860829847012542005A
:102E50002800637A1840104301B280B2FF220600B6
:102E6000964315D001221343FF22DBB2024213D056
:102E7000FD3A93437F220800134090430343608A46
:102E80006372A26A030A9B009B58C9B2984770BD3F
:102E9000FF22AB430242EBD102221343EAE7C046D2
:102EA000881C0020072370B52E4CE089626AA3615C
:102EB000030A9B009B5898470500E089626A01302D
:102EC000030A9B009B58984700020543E079E38979
:102ED000401980B20233626AE381030A9B009B5867
:102EE00060829847012542002800637A1840104309
:102EF00001B280B2FF22060096432AD0012213437A
:102F0000FF22DBB2024228D0FD3A93437F22080021
:102F1000134090430343608AA26A6372030A9B00D2
:102F20009B58C9B29847608A626A030A9B009B5803
:102F3000A579984702000221637A2A4028420FD0DF
:102F40008B437F2110000B40884303436372A271BF
:102F500070BDFF22AB430242D6D102221343D5E714
:102F60000B43EEE7881C00200E480622844630B54D
:102F70000D4B5C799A61611CC9B25A18624412788F
:102F8000881C5A72FF220131104018180A40604410
:102F90009A180078624412780002024303345C718C
:102FA000DA8130BD44090000881C0020062370B57A
:102FB000184CE089A361431C626AE381030A9B0009
:102FC0009B5898471449E3798C46C318DBB25A1CC6
:102FD000D2B2A2186244E31812786344187812023D
:102FE0001043030A626AA5799B009B586082984748
:102FF0002A0042400221637AD2B2854208D08B4334
:103000007F2110000B40884303436372A27170BD9F
:103010000B43F5E7881C002044080000082370B526
:10302000294CE089A361431C626AE381030A9B0087
:103030009B5898472549E3798C46C318DBB25A1C44
:10304000D2B2A2186244E3181278634418781202CC
:103050001043030A626A9B009B58608298470122D2
:10306000637A4108024226D01343DBB202220029D0
:1030700025D093437F22608A13406372A26A030AB9
:103080009B009B58C9B29847608A626A030AA57977
:103090009B009B5898472A0042400221637AD2B293
:1030A00085420ED08B437F2110000B4088430343A1
:1030B0006372A27170BD934302220029D9D11343D8
:1030C000D8E70B43EFE7C046881C00204408000007
:1030D000032310B5114CE089A361431C626AE381AC
:1030E000030A9B009B5898470D4BA1799C460A0008
:1030F00060822018604403785A4099420AD0022125
:10310000637A8B437F2110000B4088430343637233
:10311000A27110BD0221637A0B43F3E7881C0020E3
:1031200044080000052310B5144CE089A361431C3A
:10313000626AE381030A9B009B589847636A608236
:103140001B6898470122637A4108024210D013435A
:10315000DBB2022200290FD093437F22608A134002
:103160006372A26A030A9B009B58C9B2984710BDBC
:10317000934302220029EFD11343EEE7881C00207D
:10318000052370B5204CE089A361431C626AE3818A
:10319000030A9B009B589847636A60821B689847A4
:1031A0000122637A4108024226D01343DBB2022295
:1031B000002925D093437F22608A13406372A26A5C
:1031C000030A9B009B58C9B29847608A626A030A47
:1031D000A5799B009B5898472A0042400221637AB8
:1031E000D2B285420ED08B437F2110000B40884322
:1031F00003436372A27170BD934302220029D9D1A7
:103200001343D8E70B43EFE7881C00200322064B4B
:103210009A615A799979501E58719B18034A9446BD
:10322000634419707047C046881C002044090000A0
:1032300070B502250E4CE089626A431CE381030AE3
:10324000A6799B009B58A561608298473200424056
:10325000637AD2B2864208D0AB437F2110000B4084
:10326000884303436372A27170BD02210B43F4E7EC
:10327000881C00200223012110B50D4A9361937927
:103280005C10580819420BD0537A0B43DBB2022171
:10329000002C0AD08B437F210B405372907110BDDC
:1032A000537A8B430221002CF4D10B43F3E7C04641
:1032B000881C0020022370B5114CE089A361431CD7
:1032C000626AE381030A9B009B586082A579984754
:1032D00001222840637A024208D01A43D2B2400841
:1032E00008D07D2313406372A07170BD93431A0010
:1032F0004008F6D17F23134002221343F3E7C04670
:10330000881C0020032370B50A4CE089626AA3611F
:10331000030A9B009B5898470500E089626A0130C8
:10332000030A9B009B5898470002284380B26082A2
:10333000E08170BD881C0020042370B5174CE08923
:10334000626AA361030A9B009B5898470500E089C5
:10335000626A0130030A9B009B589847E389000288
:10336000284380B20233626AE381030AA5799B0095
:103370009B58608298472A0042400221637AD2B269
:10338000854208D08B437F2110000B4088430343C4
:103390006372A27170BD0B43F5E7C046881C002024
:1033A000062370B51B4CE089626AA361030A9B0087
:1033B0009B5898470500E089626A0130030A9B0028
:1033C0009B589847E3890002284380B20233626A1F
:1033D000E381030A9B009B58608298470122637A2D
:1033E0004108024210D01343DBB2022200290FD061
:1033F00093437F22608A13406372A26A030A9B0090
:103400009B58C9B2984770BD934302220029EFD15F
:103410001343EEE7881C0020062370B5274CE08993
:10342000626AA361030A9B009B5898470500E089E4
:10343000626A0130030A9B009B589847E3890002A7
:10344000284380B20233626AE381030A9B009B58DF
:10345000608298470122637A4108024226D01343D2
:10346000DBB20222002925D093437F22608A1340D9
:103470006372A26A030A9B009B58C9B29847608A8C
:10348000626A030AA5799B009B5898472A0042402C
:103490000221637AD2B285420ED08B437F21100085
:1034A0000B40884303436372A27170BD93430222B1
:1034B0000029D9D11343D8E70B43EFE7881C00203C
:1034C000052370B51C4CE089A361431C626AE3814B
:1034D000030A9B009B589847184A231894460130CA
:1034E000C0B220186044027863441B7812029B1813
:1034F000FF22207A9BB2C01843401A4202D0A3692F
:103500000133A36180B2626A030AA5799B009B58CC
:10351000608298472A0042400221637AD2B28542F3
:1035200008D08B437F2110000B4088430343637214
:10353000A27170BD0B43F5E7881C00204408000011
:10354000082370B5294CE089A361431C626AE381BA
:10355000030A9B009B589847254903008C46421C50
:10356000D2B2A218E3186244634410781B78227A1E
:1035700000029B18C01880B2626A030A9B009B5825
:10358000608298470122637A4108024226D01343A1
:10359000DBB20222002925D093437F22608A1340A8
:1035A0006372A26A030A9B009B58C9B29847608A5B
:1035B000626A030AA5799B009B5898472A004240FB
:1035C0000221637AD2B285420ED08B437F21100054
:1035D0000B40884303436372A27170BD9343022280
:1035E0000029D9D11343D8E70B43EFE7881C00200B
:1035F00044080000042370B5114CE089A361431C0A
:10360000626AE381030A9B009B589847E379A57996
:10361000C018636AC0B21B68608298472A004240A3
:103620000221637AD2B2854208D08B437F211000F9
:103630000B40884303436372A27170BD0B43F5E7EF
:10364000881C0020062310B5164CE089A361431C9A
:10365000626AE381030A9B009B589847E379C0188C
:10366000636AC0B21B68608298470122637A41088E
:10367000024210D01343DBB2022200290FD0934341
:103680007F22608A13406372A26A030A9B009B58E0
:10369000C9B2984710BD934302220029EFD11343CA
:1036A000EEE7C046881C0020062370B5224CE08956
:1036B000A361431C626AE381030A9B009B589847FD
:1036C000E379C018636AC0B21B6860829847012220
:1036D000637A4108024226D01343DBB2022200295A
:1036E00025D093437F22608A13406372A26A030A43
:1036F0009B009B58C9B29847608A626A030AA57901
:103700009B009B5898472A0042400221637AD2B21C
:1037100085420ED08B437F2110000B40884303432A
:103720006372A27170BD934302220029D9D1134361
:10373000D8E70B43EFE7C046881C00200222042193
:10374000024B9A615A7A8A435A727047881C002049
:10375000042370B51A4CE089626AA361030A9B00D6
:103760009B589847237A181885B2C30502D5A369D8
:103770000133A361E089626A0130030A9B009B5810
:103780009847E3890002281880B20233626AE38115
:10379000030AA5799B009B58608298472A00424003
:1037A0000221637AD2B2854208D08B437F21100078
:1037B0000B40884303436372A27170BD0B43F5E76E
:1037C000881C0020072370B5284CE089626AA36139
:1037D000030A9B009B5898470500E089626A013004
:1037E000030A9B009B589847237A00025B1918181C
:1037F000E38980B20233626AE381030A9B009B582B
:10380000608298470122637A4108024226D013431E
:10381000DBB20222002925D093437F22608A134025
:103820006372A26A030A9B009B58C9B29847608AD8
:10383000626A030AA5799B009B5898472A00424078
:103840000221637AD2B285420ED08B437F211000D1
:103850000B40884303436372A27170BD93430222FD
:103860000029D9D11343D8E70B43EFE7881C002088
:10387000042370B51A4CE089626AA361030A9B00B5
:103880009B589847E379181885B2C30502D5A369F8
:103890000133A361E089626A0130030A9B009B58EF
:1038A0009847E3890002281880B20233626AE381F4
:1038B000030AA5799B009B58608298472A004240E2
:1038C0000221637AD2B2854208D08B437F21100057
:1038D0000B40884303436372A27170BD0B43F5E74D
:1038E000881C0020072370B51C4CE089626AA36124
:1038F000030A9B009B5898470500E089626A0130E3
:10390000030A9B009B58984700020543E079E3892E
:10391000401980B20233626AE381030A9B009B581C
:10392000608298470122637A4108024210D0134313
:10393000DBB2022200290FD093437F22608A13401A
:103940006372A26A030A9B009B58C9B2984770BD74
:10395000934302220029EFD11343EEE7881C002095
:10396000072370B5284CE089626AA361030A9B00B3
:103970009B5898470500E089626A0130030A9B0062
:103980009B58984700020543E079E389401980B2CB
:103990000233626AE381030A9B009B586082984766
:1039A0000122637A4108024226D01343DBB202228D
:1039B000002925D093437F22608A13406372A26A54
:1039C000030A9B009B58C9B29847608A626A030A3F
:1039D000A5799B009B5898472A0042400221637AB0
:1039E000D2B285420ED08B437F2110000B4088431A
:1039F00003436372A27170BD934302220029D9D19F
:103A00001343D8E70B43EFE7881C002006230C4A3A
:103A100030B59361F9330B4D1900AC465079841CD5
:103A200021400130511803406144D31809786344A0
:103A30001B7809020B4301335471D38130BDC0465A
:103A4000881C002044090000F8B506234F4CE0898B
:103A5000A361431C626AE381030A9B009B58984759
:103A60004B49E3798C46C318DBB25A1CD2B2A21878
:103A70006244E31812786344187812021043030A70
:103A8000626A9B009B5860829847657AA6792B07EB
:103A900037D50F2101220B000F002A4033409B181D
:103AA0000740DB19092B4FD837008F433B430700F2
:103AB0008F43F9B2CB18FF21B2181218114252D11C
:103AC00002222A437F27DDB23A4094462A00BA43B5
:103AD000170062463A4337005F4029003F0602D58F
:103AE000704000064CD540208243F820400018402A
:103AF00090283CD96033DDB201231A432900627259
:103B00001AE00123FF222B409B191B181A4215D0E3
:103B10007D22D9B22A400F007F25AF433A4370403F
:103B2000000602D45E4030062DD440208243FF2B95
:103B300022D901231A436272A171F8BD0221823A8F
:103B40002A400A43D9B2EAE7370006338F430B40D5
:103B50003B4307008F43F9B21031CB18FF21B21855
:103B600012181142ACD0022295432A00AAE7FF2086
:103B700000010340F02BBFD801239A436272DBE7B8
:103B800040200243B1E740200243D0E7881C0020D8
:103B900044080000F8B50823644CE089A361431C85
:103BA000626AE381030A9B009B5898476049E37966
:103BB0008C46C318DBB25A1CD2B2A2186244E31876
:103BC00012786344187812021043030A626A9B0059
:103BD0009B5860829847FF21637ADA0111404208BE
:103BE0001143012289B2024254D01343DBB20222B4
:103BF000002953D093437F250A00608AAA432B40B3
:103C000013436372A26A030A9B009B58C9B2984788
:103C1000608A626A030A9B009B589847667A33075A
:103C20003ED50F2101220B000F00A57932402B4019
:103C30009B180740DB19092B55D82F008F433B43B6
:103C400007008F43F9B2CB18FF21AA1812181142AE
:103C500058D1022232437F27DEB23A4094463200E6
:103C6000BA43170062463A432F005F4031003F06D7
:103C700002D56840000652D540208243F82040001B
:103C80001840902842D96033DEB201231A43310034
:103C9000627220E0934302220029ABD11343AAE7CA
:103CA0000123FF22A7793340DB191B181A4214D0D5
:103CB0007D22D9B232400E00AE4332437840000636
:103CC00002D45F4038062DD440208243FF2B22D9F6
:103CD00001231A436272A171F8BD0221823A324077
:103CE0000A43D9B2EAE72F0006338F430B403B4328
:103CF00007008F43F9B21031CB18FF21AA18121810
:103D00001142A6D0022296433200A4E7FF20000110
:103D10000340F02BB9D801239A436272DBE74020BD
:103D20000243ABE740200243D0E7C046881C002096
:103D300044080000F8B503234B4CE089A361431C01
:103D4000626AE381030A9B009B589847474B608255
:103D50009C462018657A60440378A6792A0738D5EE
:103D60000F200122010007002A40314089181F401E
:103D7000C919092951D83700874339431F008743A0
:103D8000FF20B218D2187918104255D102222A43C6
:103D90007F27CDB23A4094462A00BA4317006246C4
:103DA0003A4337004F4028003F0603D573405BB2CB
:103DB000002B52DA40239A431300F82252000A40A3
:103DC000902A41D96031CDB2012213432800637299
:103DD0001BE00121FF2229408919C9180A4216D087
:103DE0007D22C8B22A4007007F25AF433A43734083
:103DF0005BB2002B02DB4E40330631D440239A43A2
:103E0000FF291DD901231A436272A071F8BD022057
:103E1000823A2A400243C8B2E9E7370006318743B5
:103E2000014039431F008743380010304118FF20FC
:103E3000B218D2181042A9D0022295432A00A7E74F
:103E400001239A436272E0E7FF2212011140F02938
:103E5000BAD8012293436372D7E740231343ACE7F8
:103E600040231A43CCE7C046881C002044080000C9
:103E7000052370B5184CE089A361431C626AE38195
:103E8000030A9B009B589847144AFF219446231825
:103E9000634460821A78637ADD012940550829431A
:103EA0000125154211D001221343DBB20222002961
:103EB0000FD093437F220D00134095432B43637231
:103EC000A36AC9B21B68984770BD0222AB430029A0
:103ED000EFD11343EEE7C046881C002044080000E1
:103EE000F8B505235B4CE089A361431C626AE3815A
:103EF000030A9B009B589847636A60821B68984737
:103F0000FF21637ADA01114042081143012289B28C
:103F1000024254D01343DBB20222002953D0934310
:103F20007F250A00608AAA432B4013436372A26A6A
:103F3000030A9B009B58C9B29847608A626A030AC9
:103F40009B009B589847667A33073ED50F21012284
:103F50000B000F00A57932402B409B180740DB195E
:103F6000092B55D82F008F433B4307008F43F9B2ED
:103F7000CB18FF21AA181218114258D1022232433D
:103F80007F27DEB23A4094463200BA4317006246B9
:103F90003A432F005F4031003F0602D568400006DB
:103FA00052D540208243F82040001840902842D942
:103FB0006033DEB201231A433100627220E0934382
:103FC00002220029ABD11343AAE70123FF22A779DC
:103FD0003340DB191B181A4214D07D22D9B232406B
:103FE0000E00AE4332437840000602D45F403806EC
:103FF0002DD440208243FF2B22D901231A43627221
:10400000A171F8BD0221823A32400A43D9B2EAE7EF
:104010002F0006338F430B403B4307008F43F9B219
:104020001031CB18FF21AA1812181142A6D0022273
:1040300096433200A4E7FF2000010340F02BB9D8DB
:1040400001239A436272DBE740200243ABE7402042
:104050000243D0E7881C002004230C490C4A8C46FC
:104060009361537902200133DBB25371D318634457
:104070001978537A9171002906D083437F20034039
:1040800081430B43537270470343F7E74409000031
:10409000881C0020F8B50223454CE089A361431C2D
:1040A000626AE381030A9B009B5860829847657AA5
:1040B000A6792B0737D50F2101220B000F002A40CC
:1040C00033409B180740DB19092B4FD837008F432B
:1040D0003B4307008F43F9B2CB18FF21B2181218E7
:1040E000114252D102222A437F27DDB23A40944640
:1040F0002A00BA43170062463A4337005F4029005E
:104100003F0602D5704000064CD540208243F8207F
:104110004000184090283CD96033DDB201231A4397
:10412000290062721AE00123FF222B409B191B1801
:104130001A4215D07D22D9B22A400F007F25AF4305
:104140003A437040000602D45E4030062DD4402031
:104150008243FF2B22D901231A436272A171F8BD59
:104160000221823A2A400A43D9B2EAE737000633ED
:104170008F430B403B4307008F43F9B21031CB18FC
:10418000FF21B21812181142ACD0022295432A0026
:10419000AAE7FF2000010340F02BBFD801239A4378
:1041A0006272DBE740200243B1E740200243D0E7E0
:1041B000881C00200223FF2210B510498B614B7A26
:1041C0008879DC01224044082243012404420ED0B5
:1041D00001200343DBB20220002A0CD083437F205E
:1041E00014000340844323434B728A7110BD0220A4
:1041F000A343002AF2D10343F1E7C046881C002004
:1042000070B502253D4CE089626A431CE381030AD4
:104210009B009B58A5616082A6799847637A3040DD
:1042200041081A071AD4FF20DA01104002000A439D
:1042300016007F210B408E4310003343002A4DD1DE
:1042400002210B4301218B4351004A40402111427E
:104250004ED0402213436372A07131E0FF22DD0192
:104260002A400A43D9072CD47F210B400221002A7F
:104270002CD08B430100402551400D422CD04021D1
:104280000B430F260125310005400140491905293E
:1042900004D9F0211140063232400A4301000F26B2
:1042A0001025B14328400818502823D91640603201
:1042B0001100F0220A40012132430B436372A271C4
:1042C00070BD80210B430221002AD2D10B43010093
:1042D000402551400D42D2D1AB43D2E7AB4351060A
:1042E000B0D501210B4351004A4040211142B0D1C9
:1042F0008B43B0E701218B43E0E7C046881C0020D8
:10430000F8B50523164DE8896A6AAB61030A9B007C
:104310009B5898470400E8896A6A0130030A9B00A9
:104320009B5898470002044327B2A4B26A6A230A42
:104330009B009B5820009847FF230600380001345B
:104340001C409843204380B26A6A030A9B009B5832
:1043500098470002304380B26882E881F8BDC046C9
:10436000881C0020F8B504234E4CE089626AA361E2
:10437000030A9B009B5898470500E089626A013058
:10438000030A9B009B589847E3890002284380B2A8
:104390000233626AE381030A9B009B58608298475C
:1043A000657AA6792B0737D50F2101220B000F0064
:1043B0002A4033409B180740DB19092B4FD83700A0
:1043C0008F433B4307008F43F9B2CB18FF21B2184C
:1043D0001218114252D102222A437F27DDB23A40FD
:1043E00094462A00BA43170062463A4337005F40BA
:1043F00029003F0602D5704000064CD5402082437C
:10440000F8204000184090283CD96033DDB20123E9
:104410001A43290062721AE00123FF222B409B19E4
:104420001B181A4215D07D22D9B22A400F007F25D1
:10443000AF433A437040000602D45E4030062DD4AC
:1044400040208243FF2B22D901231A436272A171BB
:10445000F8BD0221823A2A400A43D9B2EAE737007E
:1044600006338F430B403B4307008F43F9B21031B3
:10447000CB18FF21B21812181142ACD0022295437A
:104480002A00AAE7FF2000010340F02BBFD8012338
:104490009A436272DBE740200243B1E740200243C7
:1044A000D0E7C046881C0020062370B51F4CE08969
:1044B000626AA361030A9B009B5898470500E08944
:1044C000626A0130030A9B009B589847E389000207
:1044D000284380B20233626AE381030A9B009B583F
:1044E00060829847FF21637ADA0111404208114344
:1044F000012289B2024213D01343DBB20222002907
:1045000012D093437F220800134090430343608AF4
:104510006372A26A030A9B009B58C9B2984770BD98
:10452000934302220029ECD11343EBE7881C0020BF
:10453000F8B50623624CE089626AA361030A9B0016
:104540009B5898470500E089626A0130030A9B0086
:104550009B589847E3890002284380B20233626A7D
:10456000E381030A9B009B5860829847FF21637A8E
:10457000DA01114042081143012289B2024254D0AB
:104580001343DBB20222002953D093437F250A0054
:10459000608AAA432B4013436372A26A030A9B00FA
:1045A0009B58C9B29847608A626A030A9B009B586D
:1045B0009847667A33073ED50F2101220B000F0082
:1045C000A57932402B409B180740DB19092B55D8A1
:1045D0002F008F433B4307008F43F9B2CB18FF21D5
:1045E000AA181218114258D1022232437F27DEB294
:1045F0003A4094463200BA43170062463A432F00CD
:104600005F4031003F0602D56840000652D5402089
:104610008243F82040001840902842D96033DEB22F
:1046200001231A433100627220E0934302220029E1
:10463000ABD11343AAE70123FF22A7793340DB194B
:104640001B181A4214D07D22D9B232400E00AE435C
:1046500032437840000602D45F4038062DD4402013
:104660008243FF2B22D901231A436272A171F8BD44
:104670000221823A32400A43D9B2EAE72F000633D8
:104680008F430B403B4307008F43F9B21031CB18E7
:10469000FF21AA1812181142A6D002229643320016
:1046A000A4E7FF2000010340F02BB9D801239A436F
:1046B0006272DBE740200243ABE740200243D0E7D1
:1046C000881C0020F8B50523534CE089A361431CE6
:1046D000626AE381030A9B009B5898474F4A23185C
:1046E00094460130C0B220186044027863441B78BD
:1046F00012029B18FF22207A9BB2C01843401A4234
:1047000002D0A3690133A36180B2626A030A9B00ED
:104710009B5860829847657AA6792B0737D50F2179
:1047200001220B000F002A4033409B180740DB1981
:10473000092B4FD837008F433B4307008F43F9B213
:10474000CB18FF21B2181218114252D102222A436B
:104750007F27DDB23A4094462A00BA4317006246EA
:104760003A4337005F4029003F0602D570400006FB
:104770004CD540208243F8204000184090283CD976
:104780006033DDB201231A43290062721AE001236B
:10479000FF222B409B191B181A4215D07D22D9B23B
:1047A0002A400F007F25AF433A437040000602D4F1
:1047B0005E4030062DD440208243FF2B22D90123B6
:1047C0001A436272A171F8BD0221823A2A400A435B
:1047D000D9B2EAE7370006338F430B403B4307006B
:1047E0008F43F9B21031CB18FF21B21812181142C1
:1047F000ACD0022295432A00AAE7FF200001034023
:10480000F02BBFD801239A436272DBE740200243BA
:10481000B1E740200243D0E7881C00204408000094
:10482000F8B50823644CE089A361431C626AE38104
:10483000030A9B009B589847604903008C46421C22
:10484000D2B2A218E3186244634410781B78227A2B
:1048500000029B18C01880B2626A030A9B009B5832
:1048600060829847FF21637ADA01114042081143C0
:10487000012289B2024254D01343DBB20222002942
:1048800053D093437F250A00608AAA432B401343E9
:104890006372A26A030A9B009B58C9B29847608A58
:1048A000626A030A9B009B589847667A33073ED595
:1048B0000F2101220B000F00A57932402B409B18DD
:1048C0000740DB19092B55D82F008F433B430700C6
:1048D0008F43F9B2CB18FF21AA181218114258D1F0
:1048E000022232437F27DEB23A4094463200BA4376
:1048F000170062463A432F005F4031003F0602D561
:104900006840000652D540208243F82040001840FD
:10491000902842D96033DEB201231A43310062721B
:1049200020E0934302220029ABD11343AAE70123DD
:10493000FF22A7793340DB191B181A4214D07D22BD
:10494000D9B232400E00AE4332437840000602D462
:104950005F4038062DD440208243FF2B22D901230B
:104960001A436272A171F8BD0221823A32400A43B1
:10497000D9B2EAE72F0006338F430B403B430700D1
:104980008F43F9B21031CB18FF21AA181218114227
:10499000A6D0022296433200A4E7FF200001034084
:1049A000F02BB9D801239A436272DBE7402002431F
:1049B000ABE740200243D0E7881C002044080000F9
:1049C000F8B50423484CE089A361431C626AE38183
:1049D000030A9B009B589847E379C018636AC0B2EA
:1049E0001B6860829847657AA6792B0737D50F2117
:1049F00001220B000F002A4033409B180740DB19AF
:104A0000092B4FD837008F433B4307008F43F9B240
:104A1000CB18FF21B2181218114252D102222A4398
:104A20007F27DDB23A4094462A00BA431700624617
:104A30003A4337005F4029003F0602D57040000628
:104A40004CD540208243F8204000184090283CD9A3
:104A50006033DDB201231A43290062721AE0012398
:104A6000FF222B409B191B181A4215D07D22D9B268
:104A70002A400F007F25AF433A437040000602D41E
:104A80005E4030062DD440208243FF2B22D90123E3
:104A90001A436272A171F8BD0221823A2A400A4388
:104AA000D9B2EAE7370006338F430B403B43070098
:104AB0008F43F9B21031CB18FF21B21812181142EE
:104AC000ACD0022295432A00AAE7FF200001034050
:104AD000F02BBFD801239A436272DBE740200243E8
:104AE000B1E740200243D0E7881C0020062310B520
:104AF0001A4CE089A361431C626AE381030A9B00AC
:104B00009B589847E379C018636AC0B21B686082FB
:104B10009847FF21637ADA011140420811430122CC
:104B200089B2024213D01343DBB20222002912D011
:104B300093437F220800134090430343608A6372CB
:104B4000A26A030A9B009B58C9B2984710BD9343C1
:104B500002220029ECD11343EBE7C046881C002059
:104B6000F8B506235D4CE089A361431C626AE381CA
:104B7000030A9B009B589847E379C018636AC0B248
:104B80001B6860829847FF21637ADA01114042086E
:104B90001143012289B2024254D01343DBB20222F4
:104BA000002953D093437F250A00608AAA432B40F3
:104BB00013436372A26A030A9B009B58C9B29847C9
:104BC000608A626A030A9B009B589847667A33079B
:104BD0003ED50F2101220B000F00A57932402B405A
:104BE0009B180740DB19092B55D82F008F433B43F7
:104BF00007008F43F9B2CB18FF21AA1812181142EF
:104C000058D1022232437F27DEB23A409446320026
:104C1000BA43170062463A432F005F4031003F0617
:104C200002D56840000652D540208243F82040005B
:104C30001840902842D96033DEB201231A43310074
:104C4000627220E0934302220029ABD11343AAE70A
:104C50000123FF22A7793340DB191B181A4214D015
:104C60007D22D9B232400E00AE4332437840000676
:104C700002D45F4038062DD440208243FF2B22D936
:104C800001231A436272A171F8BD0221823A3240B7
:104C90000A43D9B2EAE72F0006338F430B403B4368
:104CA00007008F43F9B21031CB18FF21AA18121850
:104CB0001142A6D0022296433200A4E7FF20000151
:104CC0000340F02BB9D801239A436272DBE74020FE
:104CD0000243ABE740200243D0E7C046881C0020D7
:104CE00002220421024B9A615A7A0A435A7270478F
:104CF000881C0020F8B50423514CE089626AA36146
:104D0000030A9B009B589847237A181885B2C3055D
:104D100002D5A3690133A361E089626A0130030A05
:104D20009B009B589847E3890002281880B2023301
:104D3000626AE381030A9B009B5860829847657A08
:104D4000A6792B0737D50F2101220B000F002A402F
:104D500033409B180740DB19092B4FD837008F438E
:104D60003B4307008F43F9B2CB18FF21B21812184A
:104D7000114252D102222A437F27DDB23A409446A3
:104D80002A00BA43170062463A4337005F402900C1
:104D90003F0602D5704000064CD540208243F820E3
:104DA0004000184090283CD96033DDB201231A43FB
:104DB000290062721AE00123FF222B409B191B1865
:104DC0001A4215D07D22D9B22A400F007F25AF4369
:104DD0003A437040000602D45E4030062DD4402095
:104DE0008243FF2B22D901231A436272A171F8BDBD
:104DF0000221823A2A400A43D9B2EAE73700063351
:104E00008F430B403B4307008F43F9B21031CB185F
:104E1000FF21B21812181142ACD0022295432A0089
:104E2000AAE7FF2000010340F02BBFD801239A43DB
:104E30006272DBE740200243B1E740200243D0E743
:104E4000881C0020F8B50723634CE089626AA361DF
:104E5000030A9B009B5898470500E089636A01306C
:104E6000020A9200D3589847237A00025B19181857
:104E7000E38980B20233626AE381030A9B009B5894
:104E800060829847FF21637ADA011140420811439A
:104E9000012289B2024254D01343DBB2022200291C
:104EA00053D093437F250A00608AAA432B401343C3
:104EB0006372A26A030A9B009B58C9B29847608A32
:104EC000626A030A9B009B589847667A33073ED56F
:104ED0000F2101220B000F00A57932402B409B18B7
:104EE0000740DB19092B55D82F008F433B430700A0
:104EF0008F43F9B2CB18FF21AA181218114258D1CA
:104F0000022232437F27DEB23A4094463200BA434F
:104F1000170062463A432F005F4031003F0602D53A
:104F20006840000652D540208243F82040001840D7
:104F3000902842D96033DEB201231A4331006272F5
:104F400020E0934302220029ABD11343AAE70123B7
:104F5000FF22A7793340DB191B181A4214D07D2297
:104F6000D9B232400E00AE4332437840000602D43C
:104F70005F4038062DD440208243FF2B22D90123E5
:104F80001A436272A171F8BD0221823A32400A438B
:104F9000D9B2EAE72F0006338F430B403B430700AB
:104FA0008F43F9B21031CB18FF21AA181218114201
:104FB000A6D0022296433200A4E7FF20000103405E
:104FC000F02BB9D801239A436272DBE740200243F9
:104FD000ABE740200243D0E7881C0020F8B504234B
:104FE000514CE089626AA361030A9B009B58984771
:104FF000E379181885B2C30502D5A3690133A3610B
:10500000E089626A0130030A9B009B589847E38954
:105010000002281880B20233626AE381030A9B000F
:105020009B5860829847657AA6792B0737D50F2160
:1050300001220B000F002A4033409B180740DB1968
:10504000092B4FD837008F433B4307008F43F9B2FA
:10505000CB18FF21B2181218114252D102222A4352
:105060007F27DDB23A4094462A00BA4317006246D1
:105070003A4337005F4029003F0602D570400006E2
:105080004CD540208243F8204000184090283CD95D
:105090006033DDB201231A43290062721AE0012352
:1050A000FF222B409B191B181A4215D07D22D9B222
:1050B0002A400F007F25AF433A437040000602D4D8
:1050C0005E4030062DD440208243FF2B22D901239D
:1050D0001A436272A171F8BD0221823A2A400A4342
:1050E000D9B2EAE7370006338F430B403B43070052
:1050F0008F43F9B21031CB18FF21B21812181142A8
:10510000ACD0022295432A00AAE7FF200001034009
:10511000F02BBFD801239A436272DBE740200243A1
:10512000B1E740200243D0E7881C0020072370B578
:10513000204CE089626AA361030A9B009B58984750
:105140000500E089626A0130030A9B009B5898477A
:1051500000020543E079E389401980B20233626AB4
:10516000E381030A9B009B5860829847FF21637A82
:10517000DA01114042081143012289B2024213D0E0
:105180001343DBB20222002912D093437F2208008E
:10519000134090430343608A6372A26A030A9B0030
:1051A0009B58C9B2984770BD934302220029ECD1A5
:1051B0001343EBE7881C0020F8B50723634CE08914
:1051C000626AA361030A9B009B5898470500E08927
:1051D000636A0130020A9200D358984700020543DF
:1051E000E079E389401980B20233626AE381030AFD
:1051F0009B009B5860829847FF21637ADA01114037
:1052000042081143012289B2024254D01343DBB257
:105210000222002953D093437F250A00608AAA43C3
:105220002B4013436372A26A030A9B009B58C9B2C6
:105230009847608A626A030A9B009B589847667A7F
:1052400033073ED50F2101220B000F00A579324014
:105250002B409B180740DB19092B55D82F008F4393
:105260003B4307008F43F9B2CB18FF21AA1812184D
:10527000114258D1022232437F27DEB23A4094468F
:105280003200BA43170062463A432F005F403100B4
:105290003F0602D56840000652D540208243F820E0
:1052A00040001840902842D96033DEB201231A43EF
:1052B0003100627220E0934302220029ABD11343F4
:1052C000AAE70123FF22A7793340DB191B181A42F2
:1052D00014D07D22D9B232400E00AE433243784022
:1052E000000602D45F4038062DD440208243FF2BB5
:1052F00022D901231A436272A171F8BD0221823AB8
:1053000032400A43D9B2EAE72F0006338F430B40FD
:105310003B4307008F43F9B21031CB18FF21AA1885
:1053200012181142A6D0022296433200A4E7FF20B1
:1053300000010340F02BB9D801239A436272DBE7E6
:1053400040200243ABE740200243D0E7881C002006
:105350000222034B9A61DA89511CD9815A82704723
:10536000881C0020062310B5104CE089A361431C63
:10537000626AE381030A9B009B5898470C49E379D2
:105380008C46C318DBB25A1CD2B2A2186244E3188E
:1053900063441278187812021043030AA26A9B0031
:1053A000A1799B586082984710BDC046881C002098
:1053B00044080000062310B5184CE089A361431C83
:1053C000626AE381030A9B009B5898471449E3797A
:1053D0008C46C318DBB25A1CD2B2A2186244E3183E
:1053E00063441278187812021043030AA26A9B00E1
:1053F000A1799B5860829847608AA26A030A9B0041
:10540000E1799B589847A379608AE179A26A1940AB
:10541000030A9B009B58984710BDC046881C00207B
:1054200044080000032310B5074CE089A361431C26
:10543000626AE381030A9B009B589847A36A217A1A
:105440001B686082984710BD881C0020032310B59C
:10545000074CE089A361431C626AE381030A9B0055
:105460009B589847A36AA1791B686082984710BD32
:10547000881C0020032310B5074CE089A361431C5E
:10548000626AE381030A9B009B589847A36AE1790B
:105490001B686082984710BD881C0020032310B54C
:1054A0000F4CE089A361431C626AE381030A9B00FD
:1054B0009B589847A36AA17960821B689847608AC5
:1054C000A26A030A9B00E1799B589847A379608AF6
:1054D000E179A26A1940030A9B009B58984710BDC6
:1054E000881C0020022009490B7A4A7A013BDBB272
:1054F00088610B72002B06D082437F2002408343D9
:1055000013434B72704702200243F6E7881C0020C9
:105510000220084AD179537A90619171002906D00E
:1055200083437F20034081430B4353727047022023
:105530000343F6E7881C002070B512260225104CA4
:105540007642E089626A431CE381A379A561334313
:10555000E67960821E40030A9B009B5898473040C2
:105560007F220100637A914313400B43002803D04C
:10557000AB436372A07170BD02221343F9E7C046CA
:10558000881C0020042370B50E4CE089626AA36178
:10559000030A9B009B5898470500E089626A013026
:1055A000030A9B009B589847E3890002284380B276
:1055B0000233A26AE381030A9B00217A9B5860822E
:1055C000984770BD881C0020042370B50E4CE089FC
:1055D000626AA361030A9B009B5898470500E08913
:1055E000626A0130030A9B009B589847E3890002D6
:1055F000284380B20233A26AE381030A9B00A179A7
:105600009B586082984770BD881C0020042370B5A9
:105610000E4CE089626AA361030A9B009B5898477D
:105620000500E089626A0130030A9B009B58984795
:10563000E3890002284380B20233A26AE381030AAD
:105640009B00E1799B586082984770BD881C0020C0
:10565000042370B5164CE089626AA361030A9B00BB
:105660009B5898470500E089626A0130030A9B0055
:105670009B589847E3890002284380B20233A26A0C
:10568000E381030A9B00A1799B5860829847608A56
:10569000A26A030A9B00E1799B589847A379608A24
:1056A000E179A26A1940030A9B009B58984770BD94
:1056B000881C0020062310B5104CE089A361431C10
:1056C000626AE381030A9B009B5898470C490300D8
:1056D0008C46421CD2B2A218E3186244634410788C
:1056E0001B78227A00029B18C01880B2A26A030AB3
:1056F0009B00A1799B586082984710BD881C0020B0
:1057000044080000042310B5094CE089A361431C40
:10571000626AE381030A9B009B589847E379217AE8
:10572000C018A36AC0B21B686082984710BDC0460B
:10573000881C0020042310B5094CE089A361431C98
:10574000626AE381030A9B009B589847E379A17939
:10575000C018A36AC0B21B686082984710BDC046DB
:10576000881C0020042310B5094CE089A361431C68
:10577000626AE381030A9B009B589847237AE17988
:10578000C018A36AC0B21B686082984710BDC046AB
:10579000881C0020042310B5114CE089A361431C30
:1057A000626AE381030A9B009B589847237AA17998
:1057B000C018A36AC0B260821B689847608AA26A58
:1057C000030A9B00E1799B589847A379608AE179A5
:1057D000A26A1940030A9B009B58984710BDC04617
:1057E000881C00200220084A117A537A9061917136
:1057F000002906D083437F20034081430B4353722B
:10580000704702200343F6E7881C0020052370B58B
:105810000F4CE089626AA361030A9B009B5898477A
:105820000500E089626A0130030A9B009B58984793
:10583000237A00025B191818E38980B20233A26A46
:10584000E381030A9B00A1799B586082984770BD51
:10585000881C00200222024B9A61DA795A71704743
:10586000881C0020052370B50F4CE089626AA36193
:10587000030A9B009B5898470500E089626A013043
:10588000030A9B009B58984700020543E079E3898F
:10589000401980B20233A26AE381030A9B00A17916
:1058A0009B586082984770BD881C0020052370B506
:1058B0000C4CE089626AA361030A9B009B589847DD
:1058C0000500E089626A0130030A9B009B589847F3
:1058D000E379000228431818E38960820233E381E8
:1058E00070BDC046881C002070B502250C4CE089B4
:1058F000626A431CE381030A9B009B58A561608296
:10590000984703002072607A002B06D0A8437F22BC
:10591000104093431843607270BD02221043F6E7B3
:10592000881C0020062310B5164CE089A361431C97
:10593000626AE381030A9B009B5898471249E37906
:105940008C46C318DBB25A1CD2B2A2186244E318C8
:1059500012786344187812021043030A626A9B00AB
:105960009B586082984702220300A071607A002B46
:1059700006D090437F22104093431843607210BDBD
:105980001043F7E7881C00204408000070B502258A
:105990000C4CE089626A431CE381030A9B009B581C
:1059A000A561608298470300E071607A002B06D001
:1059B000A8437F22104093431843607270BD0222B7
:1059C0001043F6E7881C0020062310B5204CE08920
:1059D000A361431C626AE381030A9B009B589847BA
:1059E0001C49E3798C46C318DBB25A1CD2B2A21808
:1059F0006244E31812786344187812021043030AD1
:105A0000626A9B009B586082984702220300A07143
:105A1000607A002B18D090437F22934310401843A4
:105A20006072608A626A030A9B009B589847022250
:105A30000300E071607A002B08D090437F22104071
:105A400093431843607210BD1043E5E71043F5E738
:105A5000881C002044080000032310B50E4CE08988
:105A6000A361431C626AE381030A9B009B58984729
:105A70000A4B60829C462018604402780221637AB7
:105A80002272002A06D08B437F210B408A431343A6
:105A9000637210BD0B43F7E7881C00204408000028
:105AA000032310B50E4CE089A361431C626AE381B5
:105AB000030A9B009B5898470A4B60829C4620181B
:105AC000604402780221637AA271002A06D08B43D7
:105AD0007F210B408A431343637210BD0B43F7E7EA
