:0200000460009A
:100000004643464200000156000000000103030081
:1000100000000000000000000000000000000000E0
:1000200000000000000000000000000000000000D0
:1000300000000000000000000000000000000000C0
:1000400000000000010408000000000000000000A3
:100050000000800000000000000000000000000020
:100060000000000000000000000000000000000090
:100070000000000000000000000000000000000080
:10008000EB04180A063204260000000000000000FD
:10009000050404240000000000000000000000002F
:1000A0000000000000000000000000000000000050
:1000B0000604000000000000000000000000000036
:1000C0000000000000000000000000000000000030
:1000D00020041808000000000000000000000000DC
:1000E0000000000000000000000000000000000010
:1000F0000000000000000000000000000000000000
:10010000D8041808000000000000000000000000F3
:100110000204180804200000000000000000000095
:1001200000000000000000000000000000000000CF
:10013000600400000000000000000000000000005B
:1001400000000000000000000000000000000000AF
:10015000000000000000000000000000000000009F
:10016000000000000000000000000000000000008F
:10017000000000000000000000000000000000007F
:10018000000000000000000000000000000000006F
:10019000000000000000000000000000000000005F
:1001A000000000000000000000000000000000004F
:1001B000000000000000000000000000000000003F
:1001C000000100000010000001000000000000001D
:1001D000000001000000000000000000000000001E
:1001E000000000000000000000000000000000000F
:1001F00000000000000000000000000000000000FF
:10020000FFFFFFFFFFFFFFFFFFFFFFFFFFFFFFFFFE
:10021000FFFFFFFFFFFFFFFFFFFFFFFFFFFFFFFFEE
:10100000D100204327140060000000000000000011
:10101000201000600010006000A4016000000000CB
:101020000000006000B0010000000000FFFFFFFFB3
:10103000FFFFFFFFFFFFFFFFFFFFFFFFFFFFFFFFC0
:10104000FFFFFFFFFFFFFFFFFFFFFFFFFFFFFFFFB0
:10105000FFFFFFFFFFFFFFFFFFFFFFFFFFFFFFFFA0
:10106000FFFFFFFFFFFFFFFFFFFFFFFFFFFFFFFF90
:10140000884207D0904205D251F8043B40F8043B93
:101410008242F9D87047884204D2002340F8043B46
:101420008142FBD870472DE9F843644A644B5A6403
:10143000644A1A644FF42A029A63634B9D46BFF3D1
:101440004F8FBFF36F8F00F01DFA604B0822604989
:101450006048C3F85421604AFFF7D2FF5F4A6049F1
:101460006048FFF7CDFF60496048FFF7D4FF4FF4B5
:1014700070025F4B5F491A6000235F4A42F82310F5
:1014800001335D4DB02BF9D15C4B80215C4A03F8F0
:10149000011B9342FBD14D4C4FF08037594A5A4BB8
:1014A000DFF89C91DFF89C811D60C4F80471C4F8DA
:1014B0000091C4F8F470C4F8F0801368534E43F4FC
:1014C000E02313604FF0FF32F36923F07F0343F012
:1014D0004003F361736A23F07F0343F040037362B8
:1014E000374B9A66DA661A675A6700F0CEF9484BAE
:1014F0006322AB63474BEB630025474B1A60032223
:101500005D6043F8042C454AC3F80C2D444A136827
:1015100043F080731360434A136843F00103136080
:10152000414B1A68414B1A6000F068FBC4F8047123
:101530003F48C4F80091C4F8F470C4F8F08000F09B
:10154000F3FCF36E43F44053F3663A4B1D60C3F86B
:101550000851C3F81851C3F82851C3F8385103F59E
:10156000A0239A6BD20708D4334A5A6542F6156213
:101570001A659A6B42F001029A639A6842F001126E
:101580009A6000F0F1F900F091FC00F0E1FC00F04D
:1015900063FB00F078F9294A1368284C132BFBD918
:1015A00000F0E8FB2368B3F5967FFBD300F06CF9FD
:1015B00000F0AEFC00F0C4FC30BFFDE7BFAAAAAA51
:1015C00000C00A40070020000080062000800D4077
:1015D0009054006000000000400F0100C03E002059
:1015E000D463016000000020E0870120C03E00209D
:1015F00088ED00E031E50000003C002000E400E060
:10160000A0E400E024ED00E008ED00E000C00F40A1
:1016100019F700001DF7000014E000E00000202092
:10162000FCED00E0001000E0041000E0B07B0020C2
:10163000002CA330004008400000C056B47B0020BE
:101640001B1018200C0D1113F8B58F005C4B0C46C5
:1016500038461A6000F058FC5A4B054618601E4682
:1016600020B92021584800F07BFCA3E03A46002135
:1016700000F05EFC25F01F033D44BFF34F8F534A3B
:10168000136020339D42FBD8BFF34F8FBFF36F8FA2
:101690004F4B32681A604F4A4F4B1C80D36F43F454
:1016A0004023D3674D4B4E4A1A674FF43162C3F85B
:1016B000802042F21072C3F890201A6F22F48052F8
:1016C0001A67196F454A0029FBDAD2F870310126F2
:1016D00044494FF4803523F40003434823F4004386
:1016E000C2F87031136F23F48033136702F51032A0
:1016F000D36923F4406343F40063D361936A23F412
:10170000FF7323F0010343F079039362A2F5A02253
:10171000536823F4002323F0070343F400235360AA
:101720000022324B1A66DE60196131495D619861B1
:10173000D961C3F8E020C3F88C6006F1E066C3F815
:101740009060C3F89450C3F898000320C3F89C102D
:101750002849C1F82801C1F82401C1F88001D3F853
:101760008810254841F01041C3F88810234999603A
:101770002349C1F8200123484FF08075056080F8A7
:1017800083237F20204A1070204AC1F85821D0219D
:101790001F4A204811704021A2F23E3211601621EA
:1017A0009A6842F480729A6000F0DAFB21461A4887
:1017B00000F0DAFB1848BDE8F84000F0CDBB00BFF0
:1017C000C0650020004200205634002070EF00E089
:1017D000FC65002000C00F40E27B002000800D402F
:1017E0001B201100010000471B1F01000040384072
:1017F000001F1F1F00801F402100000001000090FB
:10180000003C002004E100E038E400E07500000046
:1018100046E400E0773400203C3A0020024B186890
:1018200008B100F091BB7047004200200004084B53
:10183000012200F47020C3F8A010C3F8A400C3F87C
:10184000B0205A69D207FCD50122014B5A6170477A
:1018500000402A40094B0A4AC3F8A000C3F8A4205C
:101860000122C3F8B0205969044AC907FBD5D2F850
:101870000001212380B25361704700BF00402A401D
:101880000400030070477047704710B5214A0020DC
:10189000214C1023214920601360214B1960112134
:1018A000116020491960122111601F4919601F49F8
:1018B00011601F4919601F4911601F4919601F49B4
:1018C00041F0150111601E49196001F181510D317E
:1018D00011601C4919601C4911601C4919601C49A0
:1018E00011601C4919601C4911601C4A1A600123CF
:1018F0002360BFF34F8FBFF36F8F194B1860BFF397
:101900004F8FBFF36F8F174A136843F44033136050
:1019100010BD00BF9CED00E094ED00E03F00001022
:10192000A0ED00E0250008030900100013002000CE
:10193000210002071400002025000813E087012081
:101940000900001027000B1317000040330010138C
:10195000180000602F000B07190000702F000B13F8
:1019600050EF00E014ED00E073B58F4B4FF40054DE
:101970008E4A8F49C3F85C22C3F8601248F20C719A
:10198000C3F86422A2F53042C3F8682202F5E042AF
:10199000C3F86C22C3F87022C3F87422C3F878220B
:1019A0001822DA661A675A679A67DA67C3F88020DE
:1019B000C3F88420C3F888200122C3F82C27C3F879
:1019C0003027C3F83427C3F83827C3F83C27C3F8B7
:1019D0005027784A936923F0604323F4407343F01F
:1019E000204343F440739361D2F8843043F00C03F6
:1019F000C2F88430704B1A6842F002021A601A680A
:101A000011406E4A0A436E491A604FF0FF325A6025
:101A100002F57702886802F56052024042F00052F7
:101A20009A60DA6822F07802DA60664A186A024040
:101A300042F0004242F040021A62624A186A0240D2
:101A4000614842F0004242F040025A625F4A9A62A4
:101A5000DA62D1F8B82022F03F0242F00102C3F866
:101A6000B820D1F8BC2040F2056122F03F0242F0DC
:101A70000102C3F8BC2000221A611C661867C3F873
:101A800080105C665867C3F884101968504821F0CC
:101A9000020119604F4999610221D9614E4941F80B
:101AA000042B8142FBD11A6842F001021A60424ABB
:101AB0001468414B14F00104FAD1464A022621462B
:101AC00020469A6140F2F562DE61C3F8002240F2DE
:101AD0006642C3F8102240F29942C3F820223F4ADE
:101AE000C3F8302242F20142C3F8342240F23542B8
:101AF000C3F840223A4AC3F850223A4AC3F8542263
:101B0000394AC3F8602242F20122C3F86422FFF787
:101B10008DFE21460120FFF789FE21463046FFF762
:101B200085FE2046FFF796FE45F60D530546984282
:101B300031D121460420FFF779FE20464FF4000101
:101B40002A4CFFF773FE4FF400010120FFF76EFEF1
:101B50004FF400013046FFF769FE4FF40000FFF735
:101B600079FEA84207D14FF400010420FFF75EFE82
:101B70001023237001E0082323701D4900231D4A10
:101B80002078521A0093012302EB00521A4800F009
:101B9000D3F902B070BD10222146174802B0BDE84B
:101BA000704000F0C5B900BF00801F40F9B00100CF
:101BB000F910010000C00F4000402A401200FFFF52
:101BC00000802A4000FFF07C63000200FF000F83CA
:101BD00000432A40F05AF05A00422A409F0418302D
:101BE000EB06180A063201263806180A0787002075
:101BF000000000700000007084870120F0B5154BD4
:101C000040204FF480314FF480544FF400554FF48E
:101C1000404643F242071A6912F0020F03D09E6158
:101C200059619F61F7E712F4005F01D15D61F2E74E
:101C300012F4805F01D15C61EDE7002AEBDA12F467
:101C4000803F01D09961E6E7520601D45861E2E78E
:101C5000F0BD00BF00800D40394AB3EE096A394833
:101C600013689FED395A23F0010310B51360032365
:101C7000364C1361364BD3F8E030D9B2016007EE31
:101C8000901AC3F30B201B0DB8EEE77A314907EE2B
:101C9000900A2060F8EEE76A07EE903A37EE455A70
:101CA0002D4BF8EEE77A37EE466A77EEE67A81ED6D
:101CB000006A25EE275AC3ED007A1368C5EE065A6E
:101CC00075EEA65AFCEEE55A15EE901ADFED235A92
:101CD00037EE657A43EA0153136027EE277A204BEB
:101CE00066EE277AD2F81011C7EE065A35EEA67ABC
:101CF000BCEEC77A17EE100A87EE867A03EA004335
:101D00000B43C2F81031D2F8101177EE267AFCEEB0
:101D1000E77A17EE903AC3F30B030B43C2F8103186
:101D2000136843F00203136000220E4B1A700E4A30
:101D30000E4BC3F8402101220D4B1A6010BD00BFAD
:101D400080810D40A07B00200000AA429C7B0020E7
:101D500000441F40A47B0020A87B00200000B44268
:101D60000000FF0F40E400E0D5E60000003C00204A
:101D700008E100E038B540F661722D4BC3F8202130
:101D800000F0CEF82B4A2C49D2F8803043F0030300
:101D9000C2F8803040F20442284BC3F86021284A40
:101DA0001068014019B9D3F8A811890718D04FF06D
:101DB00000415163D3F8402142F00202C3F84021B0
:101DC0001E4AD2F840319B07FBD44FF400321D4B22
:101DD00019201A604FF00042194B9A6300F09CF8EA
:101DE000174B00214FF08042174D144C9A63284640
:101DF00019600A234FF42072C4F8A83100F098F853
:101E00004FF48103114A2B604FF480032B6440F29E
:101E10004313C4F85851C4F848310D4BC3F8042299
:101E20000C4B4FF400321A600123C4F8403138BD26
:101E300000800D4000C00F40001C1E0000002E401E
:101E400000900D408CE200E00000002091E90000CD
:101E5000003C00200CE100E008B50E4B1B6E9B0718
:101E600001D4FBBE16E072B600220B4BC3F8402132
:101E7000A3F50D13094A1A64A3F1FF53A3F52B230D
:101E80009D46BFF34F8F064B06480360064B1B6809
:101E90009B68984700441F4000002E40030020002C
:101EA000000012EB008020201C0020000F4BDA6E97
:101EB00042F44032DA66DA6E42F44072DA66A3F532
:101EC000603340F237625A64A0229A649A6C120618
:101ED000FCD4074B40F237625A64A0229A649A6C91
:101EE00012F08002FBD1034B1A70704700C00F4004
:101EF00000800C40FE860020F8B500BFF8BC08BC8E
:101F00009E467047000000005FF800F0E10001000D
:101F10005FF800F0950001005FF800F011E40000A8
:101F20005FF800F0EDEE00005FF800F0E9FB000064
:101F30005FF800F071E300005FF800F0E3FF0000DD
:101F40005FF800F0D1FA00005FF800F0F100010046
:101F50005FF800F025FF00005FF800F0D9F80000FE
:101F60005FF800F07DF300005FF800F097F90000E3
:101F700025010000E51C0000413D0000454800002F
:081F8000014E00008187000002
:101F8800090180961180FF3A81550A3601082A0412
:101F9800000000F02B040000014021800A13800A91
:101FA8002980FF0000000000000000000000000081
:101FB8000000000000000000000000000000000019
:101FC8000000000000000000000000000000000009
:101FD80000000000000000000000000000000000F9
:101FE80000000000000000000000000000000000E9
:101FF80000000000000000000000000000000000D9
:1020080000000000000000000000000000000000C8
:1020180000000000000000000000000000000000B8
:102028000000007F41414141417F000027312721C5
:102038007100000077417711710000007741774106
:102048007100000017517741410000007711774176
:102058007100000077117751710000007741474106
:102068004100000077517751710000000020243EA4
:1020780004000000594B5B4BD90000000000000031
:102088000000000000000000000000000000000048
:102098000000000000000000000000000000000038
:1020A8000000000000000000000000183C3C181868
:1020B800001800363600000000000036367F367FF4
:1020C8003636000C3E031E301F0C00006333180C1C
:1020D8006663001C361C6E3B336E00060603000068
:1020E800000000180C0606060C1800060C18181834
:1020F8000C060000663CFF3C660000000C0C3F0C20
:102108000C000000000000000C0C060000003F005E
:1021180000000000000000000C0C006030180C06E5
:102128000301003E63737B6F673E000C0E0C0C0CC2
:102138000C3F001E33301C06333F001E33301C306A
:10214800331E00383C36337F3078003F031F303071
:10215800331E001C06031F33331E003F3330180C98
:102168000C0C001E33331E33331E001E33333E3037
:10217800180E00000C0C00000C0C00000C0C0000E9
:102188000C0C06180C0603060C180000003F000093
:102198003F0000060C1830180C06001E3330180CCF
:1021A800000C003E637B7B7B031E000C1E33333F19
:1021B8003333003F66663E66663F003C66030303B2
:1021C800663C001F36666666361F007F46161E167A
:1021D800467F007F46161E16060F003C66030373F3
:1021E800667C003333333F333333001E0C0C0C0C46
:1021F8000C1E007830303033331E006766361E36CA
:102208006667000F06060646667F0063777F7F6B6A
:1022180063630063676F7B736363001C3663636388
:10222800361C003F66663E06060F001E3333333BFE
:102238001E38003F66663E366667001E33070E3856
:10224800331E003F2D0C0C0C0C1E0033333333337C
:10225800333F0033333333331E0C006363636B7FC8
:102268007763006363361C1C3663003333331E0CFC
:102278000C1E007F6331184C667F001E060606069A
:10228800061E0003060C18306040001E18181818A7
:10229800181E00081C366300000000000000000043
:1022A8000000FF0C0C18000000000000001E303E6B
:1022B800336E000706063E66663B0000001E3303C9
:1022C800331E003830303E33336E0000001E333F7B
:1022D800031E001C36060F06060F0000006E33337F
:1022E8003E301F0706366E666667000C000E0C0C43
:1022F8000C1E00300030303033331E070666361EA1
:102308003667000E0C0C0C0C0C1E000000337F7F8F
:102318006B630000001F333333330000001E333378
:10232800331E0000003B66663E060F00006E333326
:102338003E307800003B6E66060F0000003E031E2C
:10234800301F00080C3E0C0C2C18000000333333EF
:10235800336E0000003333331E0C000000636B7FC4
:102368007F3600000063361C3663000000333333C9
:102378003E301F00003F190C263F00380C0C070C9C
:102388000C38001818180018181800070C0C380C0E
:102398000C07006E3B000000000000000000000079
:1023A8000000001C224A564C201E001824427E427F
:1023B8004242007C22223C22227C001C22404040D7
:1023C800221C0078242222222478007E4040784073
:1023D800407E007E404078404040001C22404E42F3
:1023E800221C004242427E424242001C0808080861
:1023F800081C000E04040404443800424448704891
:102408004442004040404040407E0042665A5A42A2
:102418004242004262524A46424200182442424224
:102428002418007C42427C40404000182442424A22
:10243800241A007C42427C484442003C42403C0210
:10244800423C003E0808080808080042424242424E
:10245800423C0042424224241818004242425A5A3E
:1024680066420042422418244242002222221C08CA
:102478000808007E02041820407E003C202020200E
:10248800203C000C10103C10706E003C0404040446
:10249800043C0000081C2A08080808000010207FD7
:1024A80020100000000000000000000808080800D4
:1024B800000800242424000000000024247E247E38
:1024C800242400081E281C0A3C0800006264081026
:1024D800264600304848304A443A000408100000B4
:1024E8000000000408101010080400201008080854
:1024F800102000082A1C3E1C2A08000008083E0874
:1025080008000000000000000808100000007E001D
:102518000000000000000000181800000204081065
:102528002040003C42465A62423C000818280808ED
:10253800083E003C42020C30407E003C42021C0235
:10254800423C00040C14247E0404007E40780402FB
:102558004438001C20407C42423C007E4204081063
:102568001010003C42423C42423C003C42423E0287
:1025780004380000000800000800000000080000FF
:102588000808100E18306030180E0000007E007E1B
:1025980000000070180C060C1870003C42020C1069
:1025A80000100000000000FF000000081C3E7F7FB4
:1025B8001C3E001010101010101010000000FF003A
:1025C8000000000000FF000000000000FF00000005
:1025D8000000000000000000FF0000202020202054
:1025E800202020040404040404040400000000E083
:1025F800100808080808040300000008080810E08C
:1026080000000080808080808080FF80402010084B
:102618000402010102040810204080FF80808080AD
:10262800808080FF01010101010101003C7E7E7E66
:102638007E3C00000000000000FF00367F7F7F3EE8
:102648001C0800404040404040404000000000035B
:102658000408088142241818244281003C4242425E
:10266800423C00081C2A772A0808000202020202DB
:10267800020202081C3E7F3E1C080008080808FFEA
:10268800080808A050A050A050A050080808080842
:102698000808080000013E54141400FF7F3F1F0F74
:1026A8000703010000000000000000F0F0F0F0F067
:1026B800F0F0F000000000FFFFFFFFFF0000000047
:1026C80000000000000000000000FF808080808083
:1026D800808080AA55AA55AA55AA55010101010171
:1026E80001010100000000AA55AA55FFFEFCF8F000
:1026F800E0C0800303030303030303080808080F6B
:10270800080808000000000F0F0F0F080808080F3E
:1027180000000000000000F80808080000000000A1
:1027280000FFFF000000000F08080808080808FF5D
:1027380000000000000000FF08080808080808F862
:10274800080808C0C0C0C0C0C0C0C0E0E0E0E0E009
:10275800E0E0E00707070707070707FFFF0000009B
:10276800000000FFFFFF0000000000000000000064
:10277800FFFFFF01010101010101FF00000000F05E
:10278800F0F0F00F0F0F0F0000000008080808F81D
:10279800000000F0F0F0F000000000F0F0F0F00FA2
:1027A8000F0F0FE3DDB5A9B3DFE1FFE7DBBD81BDA7
:1027B800BDBDFF83DDDDC3DDDD83FFE3DDBFBFBF5F
:1027C800DDE3FF87DBDDDDDDDB87FF81BFBF87BFA3
:1027D800BF81FF81BFBF87BFBFBFFFE3DDBFB1BD03
:1027E800DDE3FFBDBDBD81BDBDBDFFE3F7F7F7F775
:1027F800F7E3FFF1FBFBFBFBBBC7FFBDBBB78FB725
:10280800BBBDFFBFBFBFBFBFBF81FFBD99A5A5BDF2
:10281800BDBDFFBD9DADB5B9BDBDFFE7DBBDBDBD50
:10282800DBE7FF83BDBD83BFBFBFFFE7DBBDBDB532
:10283800DBE5FF83BDBD83B7BBBDFFC3BDBFC3FD24
:10284800BDC3FFC1F7F7F7F7F7F7FFBDBDBDBDBDC6
:10285800BDC3FFBDBDBDDBDBE7E7FFBDBDBDA5A5B6
:1028680099BDFFBDBDDBE7DBBDBDFFDDDDDDE3F70A
:10287800F7F7FF81FDFBE7DFBF81FFC3DFDFDFDFA6
:10288800DFC3FFF3EFEFC3EF8F91FFC3FBFBFBFB4E
:10289800FBC3FFFFF7E3D5F7F7F7F7FFFFEFDF809D
:1028A800DFEFFFFFFFFFFFFFFFFFFFF7F7F7F7FF80
:1028B800FFF7FFDBDBDBFFFFFFFFFFDBDB81DB81FC
:1028C800DBDBFFF7E1D7E3F5C3F7FFFF9D9BF7EFEE
:1028D800D9B9FFCFB7B7CFB5BBC5FFFBF7EFFFFF40
:1028E800FFFFFFFBF7EFEFEFF7FBFFDFEFF7F7F780
:1028F800EFDFFFF7D5E3C1E3D5F7FFFFF7F7C1F740
:10290800F7FFFFFFFFFFFFFFF7F7EFFFFFFF81FF75
:10291800FFFFFFFFFFFFFFFFE7E7FFFFFDFBF7EF0D
:10292800DFBFFFC3BDB9A59DBDC3FFF7E7D7F7F765
:10293800F7C1FFC3BDFDF3CFBF81FFC3BDFDE3FDFD
:10294800BDC3FFFBF3EBDB81FBFBFF81BF87FBFD17
:10295800BBC7FFE3DFBF83BDBDC3FF81BDFBF7EF8F
:10296800EFEFFFC3BDBDC3BDBDC3FFC3BDBDC1FD4B
:10297800FBC7FFFFFFF7FFFFF7FFFFFFFFF7FFFFB3
:10298800F7F7EFF1E7CF9FCFE7F1FFFFFF81FF8177
:10299800FFFFFF8FE7F3F9F3E78FFFC3BDFDF3EF09
:1029A800FFEFFFFFFFFFFF00FFFFFFF7E3C180809E
:1029B800E3C1FFEFEFEFEFEFEFEFEFFFFFFF00FFF8
:1029C800FFFFFFFFFF00FFFFFFFFFFFF00FFFFFF0D
:1029D800FFFFFFFFFFFFFFFF00FFFFDFDFDFDFDF9E
:1029E800DFDFDFFBFBFBFBFBFBFBFBFFFFFFFF1F4F
:1029F800EFF7F7F7F7F7FBFCFFFFFFF7F7F7EF1F26
:102A0800FFFFFF7F7F7F7F7F7F7F007FBFDFEFF745
:102A1800FBFDFEFEFDFBF7EFDFBF7F007F7F7F7FC3
:102A28007F7F7F00FEFEFEFEFEFEFEFFC3818181EA
:102A380081C3FFFFFFFFFFFFFF00FFC9808080C148
:102A4800E3F7FFBFBFBFBFBFBFBFBFFFFFFFFFFCB5
:102A5800FBF7F77EBDDBE7E7DBBD7EFFC3BDBDBD92
:102A6800BDC3FFF7E3D588D5F7F7FFFDFDFDFDFDF5
:102A7800FDFDFDF7E3C180C1E3F7FFF7F7F7F700C6
:102A8800F7F7F75FAF5FAF5FAF5FAFF7F7F7F7F74E
:102A9800F7F7F7FFFFFEC1ABEBEBFF0080C0E0F0FC
:102AA800F8FCFEFFFFFFFFFFFFFFFF0F0F0F0F0FE9
:102AB8000F0F0FFFFFFFFF0000000000FFFFFFFFE9
:102AC800FFFFFFFFFFFFFFFFFFFF007F7F7F7F7F8D
:102AD8007F7F7F55AA55AA55AA55AAFEFEFEFEFE7F
:102AE800FEFEFEFFFFFFFF55AA55AA000103070FD0
:102AF8001F3F7FFCFCFCFCFCFCFCFCF7F7F7F7F045
:102B0800F7F7F7FFFFFFFFF0F0F0F0F7F7F7F7F050
:102B1800FFFFFFFFFFFFFF07F7F7F7FFFFFFFFFFCD
:102B2800FF0000FFFFFFFFF0F7F7F7F7F7F7F700F1
:102B3800FFFFFFFFFFFFFF00F7F7F7F7F7F7F707CC
:102B4800F7F7F73F3F3F3F3F3F3F3F1F1F1F1F1F05
:102B58001F1F1FF8F8F8F8F8F8F8F80000FFFFFF53
:102B6800FFFFFF000000FFFFFFFFFFFFFFFFFFFF6A
:102B7800000000FEFEFEFEFEFEFE00FFFFFFFF0F50
:102B88000F0F0FF0F0F0F0FFFFFFFFF7F7F7F70771
:102B9800FFFFFF0F0F0F0FFFFFFFFF0F0F0F0FF0CC
:102BA800F0F0F01C224A564C201E00000038043C6D
:102BB800443A0040405C6242625C0000003C424093
:102BC800423C0002023A4642463A0000003C427E3D
:102BD800403C000C12107C1010100000003A4646D1
:102BE8003A023C40405C6242424200080018080831
:102BF800081C0004000C04040444384040444850B5
:102C08006844001808080808081C000000764949AC
:102C180049490000005C624242420000003C4242D6
:102C2800423C0000005C62625C404000003A46465C
:102C38003A020200005C624040400000003E403C16
:102C4800027C0010107C1010120C0000004242425E
:102C5800463A000000424242241800000041494917
:102C6800493600000042241824420000004242462F
:102C78003A023C00007E0418207E003C20202020E0
:102C8800203C000C10103C10706E003C040404043E
:102C9800043C0000081C2A08080808000010207FCF
:102CA80020100000000000000000000808080800CC
:102CB800000800242424000000000024247E247E30
:102CC800242400081E281C0A3C080000626408101E
:102CD800264600304848304A443A000408100000AC
:102CE800000000040810101008040020100808084C
:102CF800102000082A1C3E1C2A08000008083E086C
:102D080008000000000000000808100000007E0015
:102D1800000000000000000018180000020408105D
:102D28002040003C42465A62423C000818280808E5
:102D3800083E003C42020C30407E003C42021C022D
:102D4800423C00040C14247E0404007E40780402F3
:102D58004438001C20407C42423C007E420408105B
:102D68001010003C42423C42423C003C42423E027F
:102D780004380000000800000800000000080000F7
:102D88000808100E18306030180E0000007E007E13
:102D980000000070180C060C1870003C42020C1061
:102DA80000100000000000FF0000001824427E42CE
:102DB8004242007C22223C22227C001C22404040CD
:102DC800221C0078242222222478007E4040784069
:102DD800407E007E404078404040001C22404E42E9
:102DE800221C004242427E424242001C0808080857
:102DF800081C000E04040404443800424448704887
:102E08004442004040404040407E0042665A5A4298
:102E18004242004262524A4642420018244242421A
:102E28002418007C42427C40404000182442424A18
:102E3800241A007C42427C484442003C42403C0206
:102E4800423C003E08080808080800424242424244
:102E5800423C0042424224241818004242425A5A34
:102E680066420042422418244242002222221C08C0
:102E78000808007E02041820407E0008080808FFA1
:102E8800080808A050A050A050A05008080808083A
:102E9800080808CCCC3333CCCC3333CC663399CC4C
:102EA8006633990000000000000000F0F0F0F0F038
:102EB800F0F0F000000000FFFFFFFFFF000000003F
:102EC80000000000000000000000FF80808080807B
:102ED800808080AA55AA55AA55AA55010101010169
:102EE80001010100000000AA55AA55993366CC9942
:102EF8003366CC0303030303030303080808080F1E
:102F0800080808000000000F0F0F0F080808080F36
:102F180000000000000000F8080808000000000099
:102F280000FFFF000000000F08080808080808FF55
:102F380000000000000000FF08080808080808F85A
:102F4800080808C0C0C0C0C0C0C0C0E0E0E0E0E001
:102F5800E0E0E00707070707070707FFFF00000093
:102F6800000000FFFFFF000000000000000000005C
:102F7800FFFFFF010244485060400000000000F0DD
:102F8800F0F0F00F0F0F0F0000000008080808F815
:102F9800000000F0F0F0F000000000F0F0F0F00F9A
:102FA8000F0F0FE3DDB5A9B3DFE1FFFFFFC7FBC3D9
:102FB800BBC5FFBFBFA39DBD9DA3FFFFFFC3BDBF93
:102FC800BDC3FFFDFDC5B9BDB9C5FFFFFFC3BD81C9
:102FD800BFC3FFF3EDEF83EFEFEFFFFFFFC5B9B915
:102FE800C5FDC3BFBFA39DBDBDBDFFF7FFE7F7F795
:102FF800F7E3FFFBFFF3FBFBFBBBC7BFBFBBB7AFF1
:1030080097BBFFE7F7F7F7F7F7E3FFFFFF89B6B6D8
:10301800B6B6FFFFFFA39DBDBDBDFFFFFFC3BDBD8E
:10302800BDC3FFFFFFA39D9DA3BFBFFFFFC5B9B9E8
:10303800C5FDFDFFFFA39DBFBFBFFFFFFFC1BFC30E
:10304800FD83FFEFEF83EFEFEDF3FFFFFFBDBDBDA6
:10305800B9C5FFFFFFBDBDBDDBE7FFFFFFBEB6B6CD
:10306800B6C9FFFFFFBDDBE7DBBDFFFFFFBDBDB995
:10307800C5FDC3FFFF81FBE7DF81FFC3DFDFDFDFC4
:10308800DFC3FFF3EFEFC3EF8F91FFC3FBFBFBFB46
:10309800FBC3FFFFF7E3D5F7F7F7F7FFFFEFDF8095
:1030A800DFEFFFFFFFFFFFFFFFFFFFF7F7F7F7FF78
:1030B800FFF7FFDBDBDBFFFFFFFFFFDBDB81DB81F4
:1030C800DBDBFFF7E1D7E3F5C3F7FFFF9D9BF7EFE6
:1030D800D9B9FFCFB7B7CFB5BBC5FFFBF7EFFFFF38
:1030E800FFFFFFFBF7EFEFEFF7FBFFDFEFF7F7F778
:1030F800EFDFFFF7D5E3C1E3D5F7FFFFF7F7C1F738
:10310800F7FFFFFFFFFFFFFFF7F7EFFFFFFF81FF6D
:10311800FFFFFFFFFFFFFFFFE7E7FFFFFDFBF7EF05
:10312800DFBFFFC3BDB9A59DBDC3FFF7E7D7F7F75D
:10313800F7C1FFC3BDFDF3CFBF81FFC3BDFDE3FDF5
:10314800BDC3FFFBF3EBDB81FBFBFF81BF87FBFD0F
:10315800BBC7FFE3DFBF83BDBDC3FF81BDFBF7EF87
:10316800EFEFFFC3BDBDC3BDBDC3FFC3BDBDC1FD43
:10317800FBC7FFFFFFF7FFFFF7FFFFFFFFF7FFFFAB
:10318800F7F7EFF1E7CF9FCFE7F1FFFFFF81FF816F
:10319800FFFFFF8FE7F3F9F3E78FFFC3BDFDF3EF01
:1031A800FFEFFFFFFFFFFF00FFFFFFE7DBBD81BD74
:1031B800BDBDFF83DDDDC3DDDD83FFE3DDBFBFBF55
:1031C800DDE3FF87DBDDDDDDDB87FF81BFBF87BF99
:1031D800BF81FF81BFBF87BFBFBFFFE3DDBFB1BDF9
:1031E800DDE3FFBDBDBD81BDBDBDFFE3F7F7F7F76B
:1031F800F7E3FFF1FBFBFBFBBBC7FFBDBBB78FB71B
:10320800BBBDFFBFBFBFBFBFBF81FFBD99A5A5BDE8
:10321800BDBDFFBD9DADB5B9BDBDFFE7DBBDBDBD46
:10322800DBE7FF83BDBD83BFBFBFFFE7DBBDBDB528
:10323800DBE5FF83BDBD83B7BBBDFFC3BDBFC3FD1A
:10324800BDC3FFC1F7F7F7F7F7F7FFBDBDBDBDBDBC
:10325800BDC3FFBDBDBDDBDBE7E7FFBDBDBDA5A5AC
:1032680099BDFFBDBDDBE7DBBDBDFFDDDDDDE3F700
:10327800F7F7FF81FDFBE7DFBF81FFF7F7F7F700FF
:10328800F7F7F75FAF5FAF5FAF5FAFF7F7F7F7F746
:10329800F7F7F73333CCCC3333CCCC3399CC663314
:1032A80099CC66FFFFFFFFFFFFFFFF0F0F0F0F0F08
:1032B8000F0F0FFFFFFFFF0000000000FFFFFFFFE1
:1032C800FFFFFFFFFFFFFFFFFFFF007F7F7F7F7F85
:1032D8007F7F7F55AA55AA55AA55AAFEFEFEFEFE77
:1032E800FEFEFEFFFFFFFF55AA55AA66CC9933667E
:1032F800CC9933FCFCFCFCFCFCFCFCF7F7F7F7F082
:10330800F7F7F7FFFFFFFFF0F0F0F0F7F7F7F7F048
:10331800FFFFFFFFFFFFFF07F7F7F7FFFFFFFFFFC5
:10332800FF0000FFFFFFFFF0F7F7F7F7F7F7F700E9
:10333800FFFFFFFFFFFFFF00F7F7F7F7F7F7F707C4
:10334800F7F7F73F3F3F3F3F3F3F3F1F1F1F1F1FFD
:103358001F1F1FF8F8F8F8F8F8F8F80000FFFFFF4B
:10336800FFFFFF000000FFFFFFFFFFFFFFFFFFFF62
:10337800000000FEFDBBB7AF9FBFFFFFFFFFFF0FC1
:103388000F0F0FF0F0F0F0FFFFFFFFF7F7F7F70769
:10339800FFFFFF0F0F0F0FFFFFFFFF0F0F0F0FF0C4
:1033A800F0F0F078E367E443424D4241534943303B
:1033B800C841C71DCDF7C8A4CBBECB80D005CCA4CF
:1033C800C99FC870C827C91CC882C8D1C83AC92EA5
:1033D800C84AC92CD864E152E161E1B2D323D87F4D
:1033E800CA9FCA56C89BC65DC685CA26E1BAE1C34C
:1033F800E17ACB41C639DCCCDC58DC00007DD39EB9
:10340800D371DF94E0EAD9EDDF61E268E2B1E20B63
:10341800E30DD87CD765D4ADD78BD7ECD600D72CA5
:10342800D737D77969D87952D87B2ADA7B11DB7FED
:103438007ADF50E8CF46E5CF7DB3DF5AD3CE6415A7
:10344800D0454EC4464FD24E4558D4444154C14944
:103458004E505554A3494E5055D44449CD52454138
:10346800C44C45D4474F54CF5255CE49C652455304
:10347800544F52C5474F5355C25245545552CE52D8
:1034880045CD53544FD04FCE574149D44C4F41C4EA
:10349800534156C55645524946D94445C6504F4BE7
:1034A800C55052494E54A35052494ED4434F4ED45E
:1034B8004C4953D4434CD2434DC45359D34F504530
:1034C800CE434C4F53C54745D44E45D7544142A8E7
:1034D80054CF46CE535043A8544845CE4E4FD453AC
:1034E8005445D0ABADAAAFDE414EC44FD2BEBDBC31
:1034F8005347CE494ED44142D35553D24652C55074
:103508004FD35351D2524EC44C4FC74558D0434F56
:10351800D35349CE5441CE4154CE504545CB4C456A
:10352800CE535452A45641CC4153C3434852A44CA1
:10353800454654A45249474854A44D4944A447CF4A
:1035480000544F4F204D414E592046494C45D346D3
:10355800494C45204F5045CE46494C45204E4F5486
:10356800204F5045CE46494C45204E4F5420464F9B
:10357800554EC4444556494345204E4F5420505259
:103588004553454ED44E4F5420494E50555420462D
:10359800494CC54E4F54204F555450555420464918
:1035A8004CC54D495353494E472046494C45204E3A
:1035B800414DC5494C4C4547414C2044455649432B
:1035C80045204E554D4245D24E45585420574954F2
:1035D800484F555420464FD253594E5441D852451E
:1035E8005455524E20574954484F555420474F532D
:1035F80055C24F5554204F4620444154C1494C4C64
:103608004547414C205155414E544954D94F564590
:1036180052464C4FD74F5554204F46204D454D4F9D
:1036280052D9554E44454627442053544154454D9C
:10363800454ED4424144205355425343524950D4F5
:10364800524544494D27442041525241D944495694
:103658004953494F4E204259205A4552CF494C4C64
:103668004547414C204449524543D454595045207C
:103678004D49534D415443C8535452494E47205421
:103688004F4F204C4F4EC746494C4520444154C1EA
:10369800464F524D554C4120544F4F20434F4D50AB
:1036A8004C45D843414E275420434F4E54494E551C
:1036B800C5554E44454627442046554E4354494F28
:1036C800CE5645524946D94C4F41C49EC1ACC1B5AE
:1036D800C1C2C1D0C1E2C1F0C1FFC110C225C2350B
:1036E800C23BC24FC25AC26AC272C27FC290C29D56
:1036F800C2AAC2BAC2C8C2D5C2E4C2EDC200C30ED1
:10370800C31EC324C383C30D4F4B0D000D20455268
:10371800524F520020494E20000D0A52454144594B
:103728002E0D0A000D0A425245414B00A0BAE8E8A6
:10373800E8E8BD0101C981D021A54AD00ABD02012E
:103748008549BD0301854ADD0301D007A549DD028E
:1037580001F0078A186912AAD0D8602008C48531F8
:10376800843238A55AE55F8522A8A55BE560AAE8FA
:1037780098F023A55A38E522855AB003C65B38A5C8
:1037880058E5228558B008C6599004B15A9158880E
:10379800D0F9B15A9158C65BC659CAD0F2600A69C5
:1037A8003EB0358522BAE422902E60C4349028D0E9
:1037B80004C533902248A2099848B557CA10FA2080
:1037C80026D5A2F7689561E830FA68A868C43490ED
:1037D80006D005C533B00160A2106C00038A0AAA9E
:1037E800BD26C38522BD27C3852320CCFFA900851C
:1037F8001320D7CA2045CBA000B12248297F2047F3
:10380800CBC86810F4207AC6A969A0C3201ECBA42F
:103818003AC8F00320C2DDA976A0C3201ECBA98038
:103828002090FF6C02032060C5867A847B20730099
:10383800AAF0F0A2FF863A90062079C54CE1C7208D
:103848006BC92079C5840B2013C69044A001B15FD1
:103858008523A52D8522A5608525A55F88F15F189C
:10386800652D852D8524A52E69FF852EE560AA384E
:10387800A55FE52DA8B003E8C6251865229003C604
:103888002318B1229124C8D0F9E623E625CAD0F23C
:103898002059C62033C5AD0002F08818A52D855AD9
:1038A800650B8558A42E845B9001C8845920B8C341
:1038B800A514A4158DFE018CFF01A531A432852D18
:1038C800842EA40B88B9FC01915F8810F82059C692
:1038D8002033C54C80C4A52BA42C8522842318A092
:1038E80001B122F01DA004C8B122D0FBC8986522FE
:1038F800AAA0009122A5236900C8912286228523C7
:1039080090DD60A200200FE1C90DF00D9D0002E8D6
:10391800E05990F1A2174C37C44CCACA6C0403A6EC
:103928007AA004840FBD00021007C9FFF03EE8D05A
:10393800F4C920F0378508C922F056240F702DC924
:103948003FD004A999D025C9309004C93C901D8462
:1039580071A000840B88867ACAC8E8BD000238F9CD
:103968009EC0F0F5C980D030050BA471E8C899FB5A
:1039780001B9FB01F03638E93AF004C949D00285AB
:103988000F38E955D09F8508BD0002F0DFC508F063
:10399800DBC899FB01E8D0F0A67AE60BC8B99DC050
:1039A80010FAB99EC0D0B4BD000210BE99FD01C680
:1039B8007BA9FF857A60A52BA62CA001855F866070
:1039C800B15FF01FC8C8A515D15F9018F00388D063
:1039D80009A51488D15F900CF00A88B15FAA88B154
:1039E8005FB0D71860D0FDA900A8912BC8912BA56E
:1039F8002B186902852DA52C6900852E208EC6A955
:103A080000D02D20E7FFA537A43885338434A52DB1
:103A1800A42E852F843085318432201DC8A21986B2
:103A28001668A868A2FA9A489848A900853E8510A1
:103A38006018A52B69FF857AA52C69FF857B6090A6
:103A480006F004C9ABD0E9206BC92013C620790061
:103A5800F00CC9ABD08E207300206BC9D086686883
:103A6800A5140515D006A9FF85148515A001840F96
:103A7800B15FF043202CC820D7CAC8B15FAAC8B12B
:103A88005FC515D004E414F002B02C844920CDDDC4
:103A9800A920A449297F2047CBC922D006A50F49D0
:103AA800FF850FC8F011B15FD010A8B15FAAC8B1E7
:103AB8005F865F8560D0B54C74C46C060310D7C9A7
:103AC800FFF0D3240F30CF38E97FAA8449A0FFCA7A
:103AD800F008C8B99EC010FA30F5C8B99EC030B217
:103AE8002047CBD0F5A980851020A5C9208AC3D04E
:103AF800058A690FAA9A6868A90920FBC32006C924
:103B08001898657A48A57B690048A53A48A53948B8
:103B1800A9A420FFCE208DCD208ACDA566097F25BA
:103B2800628562A98BA0C7852284234C43CEA9BC99
:103B3800A0D920A2DB207900C9A9D00620730020D3
:103B48008ACD202BDC2038CEA54A48A54948A98132
:103B580048202CC8A57AA47BC002EAF004853D84DD
:103B68003EA000B17AD043A002B17A18D0034C4BE2
:103B7800C8C8B17A8539C8B17A853A98657A857A9C
:103B88009002E67B6C080320730020EDC74CAEC79B
:103B9800F03CE9809011C923B0170AA8B90DC048B4
:103BA800B90CC0484C73004CA5C9C93AF0D64C08AA
:103BB800CFC94BD0F9207300A9A420FFCE4CA0C8D0
:103BC80038A52BE901A42CB00188854184426020E6
:103BD800E1FFB00118D03CA57AA47BA63AE8F00C26
:103BE800853D843EA539A43A853B843C6868A98113
:103BF800A0C390034C69C44C74C4D017A21AA43E45
:103C0800D0034C37C4A53D857A847BA53BA43C856D
:103C180039843A6008A9002090FF28D0034C59C67F
:103C28002060C64C97C8A90320FBC3A57B48A57A8A
:103C380048A53A48A53948A98D4820790020A0C848
:103C48004CAEC7206BC92009C938A539E514A53A77
:103C5800E515B00B9838657AA67B9007E8B004A5FF
:103C68002BA62C2017C6901EA55FE901857AA560B2
:103C7800E900857B60D0FDA9FF854A208AC39AC9DF
:103C88008DF00BA20C2CA2114C37C44C08CF6868DD
:103C9800853968853A68857A68857B2006C99818C9
:103CA800657A857A9002E67B60A23A2CA2008607A4
:103CB800A0008408A508A60785078608B17AF0E859
:103CC800C508F0E4C8C922D0F3F0E9209ECD2079D8
:103CD80000C989F005A9A720FFCEA561D005200954
:103CE800C9F0BB207900B0034CA0C84CEDC7209E9A
:103CF800D748C98DF004C989D091C665D004684CED
:103D0800EFC7207300206BC9C92CF0EE6860A200D1
:103D180086148615B0F7E92F8507A5158522C919D8
:103D2800B0D4A5140A26220A262265148514A522D1
:103D38006515851506142615A514650785149002C2
:103D4800E6152073004C71C9208BD08549844AA997
:103D5800B220FFCEA50E48A50D48209ECD682A208A
:103D680090CDD018681012201BDC20BFD1A000A570
:103D7800649149C8A5659149604CD0DB68A44AC0E4
:103D8800DFD04C20A6D6C906D03DA0008461846649
:103D98008471201DCA20E2DAE671A471201DCA20B0
:103DA8000CDCAAF005E88A20EDDAA471C8C006D0B8
:103DB800DF20E2DA209BDCA664A463A5654CDBFF68
:103DC800B12220800090034C48D2E92F4C7EDDA020
:103DD80002B164C5349017D00788B164C533900E1A
:103DE800A465C42E9008D00DA564C52DB007A564A0
:103DF800A4654C68CAA000B1642075D4A550A4512C
:103E0800856F8470207AD6A961A0008550845120DE
:103E1800DBD6A000B1509149C8B1509149C8B15002
:103E28009149602086CA4CB5CB209ED7F005A92CB5
:103E380020FFCE0886132015E1284CA0CA2021CBEC
:103E4800207900F035F043C9A3F050C9A618F04B0B
:103E5800C92CF037C93BF05E209ECD240D30DE2002
:103E6800DDDD2087D42021CB203BCBD0D3A9009DFA
:103E78000002A2FFA001A513D010A90D2047CB2452
:103E8800131005A90A2047CB49FF603820F0FF9896
:103E980038E90BB0FC49FF6901D016083820F0FF5B
:103EA8008409209BD7C929D0592890068AE509900A
:103EB80005AAE8CAD0062073004CA2CA203BCBD082
:103EC800F22087D420A6D6AAA000E8CAF0BCB12266
:103ED8002047CBC8C90DD0F320E5CA4C28CBA51381
:103EE800F003A9202CA91D2CA93F2009E129FF6076
:103EF800A511F0113004A0FFD004A53FA4408539D6
:103F0800843A4C08CFA513F005A2184C37C4A90C65
:103F1800A0CD201ECBA53DA43E857A847B6020A63B
:103F2800D3C923D010207300209ED7A92C20FFCE00
:103F38008613201BE1A201A002A9008D0102A9405D
:103F4800200FCCA613D01360209ED7A92C20FFCE1B
:103F58008613201BE120CECBA51320CCFFA2008620
:103F68001360C922D00B20BDCEA93B20FFCE202153
:103F7800CB20A6D3A92C8DFF0120F9CBA513F00DDA
:103F880020B7FF2902F00620B5CB4CF8C8AD0002D7
:103F9800D01EA513D0E32006C94CFBC8A513D00634
:103FA8002045CB203BCB4C60C5A641A442A9982C08
:103FB800A900851186438444208BD08549844AA56D
:103FC8007AA47B854B844CA643A444867A847B20C0
:103FD8007900D0202411500C2021E18D0002A2FF8D
:103FE800A001D00C3075A513D0032045CB20F9CB08
:103FF800867A847B207300240D103124115009E83F
:10400800867AA9008507F00C8507C922F007A93A26
:104018008507A92C188508A57AA47B69009001C892
:10402800208DD420E2D720DAC94C91CC20F3DCA52E
:104038000E20C2C9207900F007C92CF0034C4DCBE3
:10404800A57AA47B85438444A54BA44C857A847BBC
:10405800207900F02D20FDCE4C15CC2006C9C8AA29
:10406800D012A20DC8B17AF06CC8B17A853FC8B138
:104078007AC8854020FBC8207900AAE083D0DC4CB0
:1040880051CCA543A444A61110034C27C8A000B1E5
:1040980043F00BA513D007A9FCA0CC4C1ECB603F66
:1040A80045585452412049474E4F5245440D003F10
:1040B8005245444F2046524F4D2053544152540DBF
:1040C80000D004A000F003208BD08549844A208AC0
:1040D800C3F005A20A4C37C49A8A186904486906CD
:1040E800852468A00120A2DBBABD09018566A5491F
:1040F800A44A2067D820D0DBA001205DDCBA38FDB7
:104108000901F017BD0F018539BD1001853ABD12AF
:1041180001857ABD1101857B4CAEC78A6911AA9ABF
:10412800207900C92CD0F12073002024CD209ECD09
:10413800182438240D3003B00360B0FDA2164C37A4
:10414800C4A67AD002C67BC67AA20024488A48A9A7
:104158000120FBC32083CEA900854D20790038E9D2
:10416800B19017C903B013C9012A4901454DC54D7E
:104178009061854D2073004CBBCDA64DD02CB07BF3
:1041880069079077650DD0034C3DD669FF85220AF3
:104198006522A868D980C0B067208DCD482020CE80
:1041A80068A44B1017AAF056D05F460D8A2AA67A43
:1041B800D002C67BC67AA01B854DD0D7D980C0B0A7
:1041C8004890D9B982C048B981C0482033CEA54D9E
:1041D8004CA9CD4C08CFA566BE80C0A8688522E64C
:1041E800226885239848201BDCA56548A56448A556
:1041F8006348A56248A561486C2200A0FF68F023C7
:10420800C964F003208DCD844B684A85126885699E
:1042180068856A68856B68856C68856D68856E4594
:1042280066856FA561606C0A03A900850D2073007F
:10423800B0034CF3DC2013D190034C28CFC9FFD036
:104248000FA9A8A0CE20A2DB4C730082490FDAA1E7
:10425800C92EF0DEC9ABF058C9AAF0D1C922D00FD7
:10426800A57AA47B69009001C82087D44CE2D7C9FD
:10427800A8D013A018D03B20BFD1A56549FFA8A599
:104288006449FF4C91D3C9A5D0034CF4D3C9B49069
:10429800034CA7CF20FACE209ECDA9292CA9282CE3
:1042A800A92CA000D17AD0034C7300A20B4C37C4C0
:1042B800A01568684CFACD38A564E900A565E9C081
:1042C8009008A987E564A9E3E56560208BD085643B
:1042D8008465A645A446A50DF026A900857020147E
:1042E800CF901CE054D018C0C9D0142084CF845E6D
:1042F800888471A006845DA0242068DE4C6FD46099
:10430800240E100DA000B164AAC8B164A88A4C910B
:10431800D32014CF902DE054D01BC049D025208441
:10432800CF98A2A04C4FDC20DEFF866484638565AD
:10433800A000846260E053D00AC054D00620B7FFC2
:104348004C3CDCA564A4654CA2DB0A48AA20730097
:10435800E08F902020FACE209ECD20FDCE208FCD5C
:1043680068AAA56548A564488A48209ED768A88A8F
:10437800484CD6CF20F1CE68A8B9EABF8555B9EB2D
:10438800BF85562054004C8DCDA0FF2CA000840B77
:1043980020BFD1A564450B8507A565450B85082079
:1043A800FCDB20BFD1A565450B2508450BA8A564F6
:1043B800450B2507450B4C91D32090CDB013A56E26
:1043C800097F256A856AA969A000205BDCAA4C617F
:1043D800D0A900850DC64D20A6D685618662846366
:1043E800A56CA46D20AAD6866C846DAA38E561F008
:1043F80008A9019004A661A9FF8566A0FFE8C8CABC
:10440800D007A666300F18900CB16CD162F0EFA2FD
:10441800FFB002A201E88A2A2512F002A9FF4C3C4B
:10442800DC20FDCEAA2090D0207900D0F460A20034
:10443800207900860C85452079002013D1B0034CE3
:1044480008CFA200860D860E20730090052013D198
:10445800900BAA20730090FB2013D1B0F6C924D08A
:1044680006A9FF850DD010C925D013A510D0D0A955
:1044780080850E054585458A0980AA2073008646F1
:10448800380510E928D0034CD1D1A0008410A52DFF
:10449800A62E8660855FE430D004C52FF022A5459E
:1044A800D15FD008A546C8D15FF07D8818A55F699F
:1044B8000790E1E8D0DCC9419005E95B38E9A560DF
:1044C8006848C92AD005A913A0DF60A545A446C934
:1044D80054D00BC0C9F0EFC049D0034C08CFC95322
:1044E800D004C054F0F5A52FA430855F8460A531B1
:1044F800A432855A845B1869079001C88558845985
:1045080020B8C3A558A459C8852F8430A000A54554
:10451800915FC8A546915FA900C8915FC8915FC81F
:10452800915FC8915FC8915FA55F186902A4609008
:1045380001C88547844860A50B0A6905655FA460C2
:104548009001C88558845960908000000020BFD130
:10455800A564A46560207300209ECD208DCDA5663E
:10456800300DA561C9909009A9A5A0D1205BDCD028
:104578007A4C9BDCA50C050E48A50D48A000984870
:10458800A54648A5454820B2D1688545688546684E
:10459800A8BABD020148BD010148A5649D0201A554
:1045A800659D0101C8207900C92CF0D2840B20F741
:1045B800CE68850D68850E297F850CA62FA53086C7
:1045C8005F8560C532D004E431F039A000B15FC81E
:1045D800C545D006A546D15FF016C8B15F18655F1E
:1045E800AAC8B15F656090D7A2122CA20E4C37C43E
:1045F800A213A50CD0F72094D1A50BA004D15FD0AD
:10460800E74CEAD22094D12008C4A0008472A20505
:10461800A545915F1001CAC8A546915F1002CACA94
:104628008671A50BC8C8C8915FA20BA900240C50BD
:104638000868186901AA686900C8915FC88A915F0B
:10464800204CD386718572A422C60BD0DC6559B084
:104658005D8559A88A65589003C8F0522008C4851A
:10466800318432A900E672A471F005889158D0FB14
:10467800C659C672D0F5E65938A531E55FA0029152
:104688005FA532C8E560915FA50CD062C8B15F85AF
:104698000BA90085718572C868AA8564688565D18B
:1046A8005F900ED006C88AD15F90074C45D24C3532
:1046B800C4C8A572057118F00A204CD38A6564AA8B
:1046C80098A42265658671C60BD0CA8572A205A515
:1046D800451001CAA5461002CACA8628A900205555
:1046E800D38A655885479865598548A8A547608441
:1046F80022B15F852888B15F8529A910855DA20050
:10470800A0008A0AAA982AA8B0A406712672900B5B
:10471800188A6528AA986529A8B093C65DD0E36071
:10472800A50DF00320A6D62026D538A533E531A857
:10473800A534E532A200860D85628463A2904C44BC
:10474800DC3820F0FFA900F0EBA63AE8D0A0A215CB
:104758002CA21B4C37C420E1D320A6D320FACEA923
:10476800808510208BD0208DCD20F7CEA9B220FFD8
:10477800CE48A54848A54748A57B48A57A4820F8CB
:10478800C84C4FD4A9A520FFCE098085102092D00F
:10479800854E844F4C8DCD20E1D3A54F48A54E487A
:1047A80020F1CE208DCD68854E68854FA002B14E90
:1047B8008547AAC8B14EF0998548C8B147488810BE
:1047C800FAA44820D4DBA57B48A57A48B14E857A5F
:1047D800C8B14E857BA54848A54748208ACD68853D
:1047E8004E68854F207900F0034C08CF68857A68B9
:1047F800857BA00068914E68C8914E68C8914E6844
:10480800C8914E68C8914E60208DCDA00020DFDD94
:104818006868A9FFA000F012A664A46586508451B8
:1048280020F4D486628463856160A22286078608A4
:10483800856F847085628463A0FFC8B16FF00CC572
:1048480007F004C508D0F3C922F0011884619865FF
:104858006F8571A6709001E88672A570F004C90290
:10486800D00B982075D4A66FA4702088D6A616E021
:1048780022D005A2194C37C4A5619500A5629501FF
:10488800A5639502A00086648465847088840D867B
:1048980017E8E8E8861660460F4849FF386533A4EC
:1048A80034B00188C4329011D004C531900B8533DF
:1048B800843485358436AA6860A210A50F30B620E6
:1048C80026D5A980850F68D0D0A637A53886338528
:1048D80034A000844F844EA531A632855F8660A936
:1048E80019A20085228623C516F00520C7D5F0F742
:1048F800A9078553A52DA62E85228623E430D0044A
:10490800C52FF00520BDD5F0F385588659A9038534
:1049180053A558A659E432D007C531D0034C06D662
:1049280085228623A000B122AAC8B12208C8B122D4
:1049380065588558C8B122655985592810D38A30D9
:10494800D0C8B122A0000A6905652285229002E636
:1049580023A623E459D004C558F0BA20C7D5F0F3EC
:10496800B1223035C8B1221030C8B122F02BC8B1FD
:1049780022AAC8B122C5349006D01EE433B01AC5A5
:10498800609016D004E45F9010865F8560A522A62B
:1049980023854E864FA5538555A553186522852234
:1049A8009002E623A623A00060A54F054EF0F5A5CA
:1049B8005529044AA88555B14E655F855AA5606991
:1049C80000855BA533A6348558865920BFC3A455F6
:1049D800C8A558914EAAE659A559C8914E4C2AD552
:1049E800A56548A564482083CE208FCD68856F686B
:1049F8008570A000B16F1871649005A2174C37C478
:104A08002075D4207AD6A550A45120AAD6208CD6B9
:104A1800A56FA47020AAD620CAD44CB8CDA000B1E6
:104A28006F48C8B16FAAC8B16FA86886228423A846
:104A3800F00A4888B122913598D0F868186535850C
:104A4800359002E63660208FCDA564A46585228462
:104A58002320DBD608A000B12248C8B122AAC8B1D9
:104A680022A86828D013C434D00FE433D00B4818D8
:104A7800653385339002E634688622842360C4183F
:104A8800D00CC517D0088516E9038517A00060204B
:104A9800A1D78A48A901207DD468A00091626868DE
:104AA8004CCAD42061D7D150989004B150AA9848E4
:104AB8008A48207DD4A550A45120AAD668A8681891
:104AC800652285229002E62398208CD64CCAD420F1
:104AD80061D718F15049FF4C06D7A9FF85652079A1
:104AE80000C929F00620FDCE209ED72061D7F04BC3
:104AF800CA8A4818A200F150B0B649FFC56590B1FE
:104B0800A565B0AD20F7CE68A8688555686868AA1D
:104B1800688550688551A555489848A0008A602046
:104B280082D74CA2D320A3D6A200860DA8602082EB
:104B3800D7F008A000B122A84CA2D34C48D22073C9
:104B480000208ACD20B8D1A664D0F0A6654C7900A3
:104B58002082D7D0034CF7D8A67AA47B86718472BA
:104B6800A622867A1865228524A623867B9001E8EA
:104B78008625A000B1244898912420790020F3DCF0
:104B880068A0009124A671A472867A847B60208A2A
:104B9800CD20F7D720FDCE4C9ED7A566309DA561C8
:104BA800C991B097209BDCA564A465841485156021
:104BB800A51548A5144820F7D7A000B114A8688502
:104BC800146885154CA2D320EBD78AA000911460F5
:104BD80020EBD78649A200207900F00320F1D78680
:104BE8004AA000B114454A2549F0F860A911A0DF90
:104BF8004C67D8208CDAA56649FF8566456E856FB7
:104C0800A5614C6AD82099D9903C208CDAD0034C05
:104C1800FCDBA6708656A269A569A8F0CE38E561C6
:104C2800F02490128461A46E846649FF6900A00094
:104C38008456A261D004A0008470C9F930C7A8A521
:104C480070560120B0D9246F1057A061E069F002B6
:104C5800A0693849FF65568570B90400F504856573
:104C6800B90300F5038564B90200F5028563B9014B
:104C780000F5018562B0032047D9A0009818A66204
:104C8800D04AA6638662A6648663A6658664A67013
:104C9800866584706908C920D0E4A90085618566A5
:104CA8006065568570A565656D8565A564656C85C7
:104CB80064A563656B8563A562656A85624C36D9B0
:104CC80069010670266526642663266210F238E5B7
:104CD80061B0C749FF69018561900EE661F04266DF
:104CE80062666366646665667060A56649FF856688
:104CF800A56249FF8562A56349FF8563A56449FFED
:104D08008564A56549FF8565A57049FF8570E670CE
:104D1800D00EE665D00AE664D006E663D002E66205
:104D280060A20F4C37C4A225B4048470B403940461
:104D3800B4029403B4019402A4689401690830E8A9
:104D4800F0E6E908A8A570B01416019002F60176FD
:104D58000176017602760376046AC8D0EC18608181
:104D680000000000037F5E56CB7980139B0B6480A4
:104D7800763893168238AA3B20803504F33481357F
:104D880004F334808000000080317217F8202BDC97
:104D9800F00210034C48D2A561E97F48A9808561DB
:104DA800A9D6A0D92067D8A9DBA0D9200FDBA9BC38
:104DB800A0D92050D8A9C1A0D92040E0A9E0A0D905
:104DC8002067D868207EDDA9E5A0D9208CDAD00339
:104DD8004C8BDA20B7DAA90085268527852885290E
:104DE800A5702059DAA5652059DAA5642059DAA5F5
:104DF800632059DAA562205EDA4C8FDBD0034C833E
:104E0800D94A0980A8901918A529656D8529A5286A
:104E1800656C8528A527656B8527A526656A85267F
:104E280066266627662866296670984AD0D6608501
:104E3800228423A004B122856D88B122856C88B1B3
:104E480022856B88B122856E4566856FA56E0980BF
:104E5800856A88B1228569A56160A569F01F186512
:104E6800619004301D182C101469808561D0034CA2
:104E7800FBD8A56F856660A56649FF300568684C54
:104E8800F7D84C7ED9200CDCAAF010186902B0F2D1
:104E9800A200866F2077D8E661F0E76084200000E2
:104EA80000200CDCA9F9A0DAA200866F20A2DB4C56
:104EB80012DB208CDAF076201BDCA90038E561854E
:104EC8006120B7DAE661F0BAA2FCA901A46AC4625B
:104ED800D010A46BC463D00AA46CC464D004A46DBD
:104EE800C465082A9009E89529F0321034A90128E8
:104EF800B00E066D266C266B266AB0E630CE10E240
:104F0800A8A56DE565856DA56CE564856CA56BE563
:104F180063856BA56AE562856A984C4FDBA940D02A
:104F2800CE0A0A0A0A0A0A8570284C8FDBA2144C9A
:104F380037C4A5268562A5278563A5288564A52984
:104F480085654CD7D885228423A004B1228565883D
:104F5800B122856488B122856388B122856609807B
:104F6800856288B1228561847060A25C2CA257A0FA
:104F780000F004A649A44A201BDC86228423A0044E
:104F8800A565912288A564912288A563912288A5A8
:104F980066097F2562912288A5619122847060A5A7
:104FA8006E8566A205B5689560CAD0F986706020DE
:104FB8001BDCA206B5609568CAD0F9867060A56149
:104FC800F0FB067090F7206FD9D0F24C38D9A56164
:104FD800F009A5662AA9FFB002A90160202BDC858B
:104FE80062A9008563A288A56249FF2AA900856590
:104FF80085648661857085664CD2D846666085244E
:105008008425A000B124C8AAF0C4B124456630C2E2
:10501800E461D021B1240980C562D019C8B124C582
:1050280063D012C8B124C564D00BC8A97FC570B1BC
:1050380024E565F028A566900249FF4C31DCA5619E
:10504800F04A38E9A024661009AAA9FF8568204D0E
:10505800D98AA261C9F910062099D9846860A8A5DF
:1050680066298046620562856220B0D9846860A599
:1050780061C9A0B020209BDC8470A5668466498045
:105088002AA9A08561A56585074CD2D88562856364
:1050980085648565A860A000A20A945DCA10FB908B
:1050A8000FC92DD0048667F004C92BD005207300E2
:1050B800905BC92EF02EC945D0302073009017C9D7
:1050C800ABF00EC92DF00AC9AAF008C92BF004D01C
:1050D800076660207300905C2460100EA90038E514
:1050E8005E4C49DD665F245F50C3A55E38E55D858B
:1050F8005EF012100920FEDAE65ED0F9F00720E231
:10510800DAC65ED0F9A5673001604CB4DF48245F89
:105118001002E65D20E2DA6838E930207EDD4C0ACC
:10512800DD48200CDC68203CDCA56E4566856FA652
:10513800614C6AD8A55EC90A9009A9642460301137
:105148004C7ED90A0A18655E0A18A000717A38E9F7
:1051580030855E4C30DD9B3EBC1FFD9E6E6B27FD8F
:105168009E6E6B2800A971A0C320DADDA53AA63986
:1051780085628663A290382049DC20DFDD4C1ECB97
:10518800A001A92024661002A92D99FF0085668434
:1051980071C8A930A661D0034C04DFA900E080F0F3
:1051A80002B009A9BDA0DD2028DAA9F7855DA9B854
:1051B800A0DD205BDCF01E1012A9B3A0DD205BDCB3
:1051C800F002100E20E2DAC65DD0EE20FEDAE65DCF
:1051D800D0DC2049D8209BDCA201A55D18690A30E3
:1051E80009C90BB00669FFAAA90238E902855E86DB
:1051F8005D8AF0021013A471A92EC899FF008AF0E5
:1052080006A930C899FF008471A000A280A565187E
:105218007919DF8565A5647918DF8564A563791731
:10522800DF8563A5627916DF8562E8B00410DE3099
:105238000230DA8A900449FF690A692FC8C8C8C8C9
:105248008447A471C8AA297F99FF00C65DD006A922
:105258002EC899FF008471A4478A49FF2980AAC0F3
:1052680024F004C03CD0A6A471B9FF0088C930F06E
:10527800F8C92EF001C8A92BA65EF02E1008A900C7
:1052880038E55EAAA92D990101A9459900018AA2CC
:105298002F38E8E90AB0FB693A9903018A990201B3
:1052A800A900990401F00899FF00A900990001A933
:1052B80000A001608000000000FA0A1F0000989614
:1052C80080FFF0BDC0000186A0FFFFD8F0000003FA
:1052D800E8FFFFFF9C0000000AFFFFFFFFFFDF0A57
:1052E8008000034BC0FFFF736000000E10FFFFFD3E
:1052F800A80000003CBFAAAAAAAAAAAAAAAAAAAA5F
:10530800AAAAAAAAAAAAAAAAAAAAAAAAAAAAAAAAF5
:10531800AAAAAAAA200CDCA911A0DF20A2DBF0709F
:10532800A569D0034CF9D8A24EA00020D4DBA56E05
:10533800100F20CCDCA94EA000205BDCD00398A481
:105348000720FEDB984820EAD9A94EA0002028DAD9
:1053580020EDDF684A900AA561F006A56649FF8539
:1053680066608138AA3B29077134583E5674167E08
:10537800B31B772FEEE3857A1D841C2A7C6359586A
:105388000A7E75FDE7C680317218108100000000A2
:10539800A9BFA0DF2028DAA570695090032023DC7C
:1053A800855620A2A0D0EBE5B9334487C068B6B7CC
:1053B8002699C700160355005300420020005300E9
:1053C80065007200690061006C00180354006500F4
:1053D80065006E00730079006400750069006E0056
:1053E8006F000403090409024B00020100C03208DF
:1053F8000B00020202010009040000010202010080
:1054080005240010010524010101042402060524D5
:105418000600010705820310001009040100020AB2
:105428000000000705030240000007058402400051
:105438000009024B00020100C032080B0002020200
:105448000100090400000102020100052400100106
:1054580005240101010424020605240600010705AC
:10546800820310000509040100020A000000070574
:105478000302000200070584020002000A06000277
:08548800EF02014001000100E8
:10549000000000000000000000000000000000000C
:1054A00000000000000000000000000000000000FC
:1054B0000E480F4B02881B6833F8121001320D4B57
:1054C00019800D4B19884B00013B13409BB20380A0
:1054D00013B90A4A137004E0994205D10122074B1F
:1054E0001A704022064B1A60704700BFE47B002010
:1054F000FC65002022403840E27B0020503B002029
:1055000008E200E0194B1A78194B70B5194E1A4D84
:105510001A4C8AB131881B682868984731882A68F4
:10552000490822F01F0302EB8102BFF34F8F236073
:1055300020339A42FBD814E031882A6848081B6857
:1055400002EB8000984733882A685B08990053185B
:1055500023F01F020B44BFF34F8F2260203293428F
:10556000FBD8BFF34F8FBFF36F8F70BD503B002050
:10557000C0650020E27B00200042002070EF00E0C8
:10558000024B1B780BB104F0E3BB70470987002086
:1055900010B5054C237833B9044B13B10448AFF36D
:1055A00000800123237010BDD060002000000000A7
:1055B000440F0100084B10B51BB108490848AFF370
:1055C00000800848036803B910BD074B002BFBD0CF
:1055D000BDE81040184700BF00000000D460002064
:1055E000440F0100C03E0020000000000122014BDA
:1055F0001A707047098700200022026070477047C8
:105600004160704710B50446FFF7F6FF00230449D8
:105610002046638223756375FFF7F2FF204610BDB5
:1056200080841E0010B50446FFF7E9FF204610BD38
:1056300081607047418270470175704701440A7369
:1056400070470000FF2149F21113014AD1547047FD
:105650002F8700200F4A49F21113017BD35C11B947
:1056600043F03C0303E003F0DF0343F01C03417B02
:1056700009B103F0FB03817B09B103F0F703C17BA0
:1056800009B103F0EF0349F21111535449F21F110C
:10569000535470472F870020094B49F2221149F2D9
:1056A000201259569A5C0029017CA8BF42F0800262
:1056B00009B102F07F0249F220115A54704700BF2D
:1056C0002F870020194A49F2201370B5448AD55C0F
:1056D000E1B225B9002C14BF0B46FF231FE0260AB8
:1056E000B54204D1002914BF0B46FF2300E0FF237D
:1056F000F72D07D1007D90B174B1F72E0CD101F0D8
:10570000FD030CE0DF2D0AD1407D40B134B1DF2E26
:1057100004D101F0FE0302E0FD2300E0FE2349F284
:105720002111535449F22F11535470BD2F8700207B
:10573000F8B5404C49F2271649F2261E49F22D12BF
:1057400014F806C049F22E1314F80E1049F2191776
:10575000A55C49F2181251EA0C21E35CA25CE75DFA
:1057600005D145F0400549F22D1165540BE001F1DA
:10577000FF3C023989B204F80EC04FEA112E04F83A
:1057800006E00029EDD049F229162A49A65D46B364
:1057900052EA072215D149F2281245F02005A15CF2
:1057A00049F21812A15449F2191249F22911A654CA
:1057B0000022625449F22A11625449F22D12A55472
:1057C0000FE002F1FF3E023A49F2181792B201F8D7
:1057D00007E049F219174FEA122E01F807E0002AF4
:1057E000D9D003F07F031D4223D0806803F0C6FBAD
:1057F000F8B1690616D549F22B120E4BA25C52067F
:105800000BD549F224110C4A585C49F22611128832
:10581000585449F2271112125A5405F0BF0549F2A3
:105820002D13E554AB0642BF25F0200349F22D129B
:10583000A354F8BD2F8700205318012010B504464B
:10584000FFF776FF2046FFF705FF2046FFF724FF0E
:105850002046FFF737FF23680133236010BD0000A7
:1058600010B50446FFF7C8FE002304492046237202
:105870000123A373FFF7C4FE204610BD20E81000EB
:1058800010B50446FFF7BBFE204610BD184B0022A2
:105890001A804FF6FF725A804BF2E4029A8044F667
:1058A0009F72DA804BF2FF121A8144F206725A811B
:1058B00040F6BE229A814DF6A362DA814CF6A02210
:1058C0001A824EF68E525A824EF292429A8249F6CD
:1058D000BF72DA824EF2FF421A8348F632725A835E
:1058E00048F29F429A834EF2F062DA83704700BF1B
:1058F000C27B0020EF2910B511D8094A49F20F03E5
:105900000846D35C074A03F0070332F8134003F05C
:10591000EFFB00F5207320F8024B9842FBD110BD3D
:105920002F870020C27B00202DE9F04F1F468BB04F
:105930006D4849F20303102F0191C35C04D1C3F3F6
:105940004503162BC8BF521007FB02FB019B5B44AB
:10595000EF2B00F3C58049F2020349F20501002450
:10596000C35C415C03F07F069B00890103F4007374
:10597000724301F4E051C6F128059BB2AD00194411
:10598000A3F5D8439BB211441A44411883180291DD
:10599000564A039349F20F03C35C03F007011B0946
:1059A00032F8133032F81110ADF8203025EAE573E3
:1059B000ADF822105B00059333010693BC4280F2E0
:1059C0008F80019B03EB0B00204403F091FBBDF89B
:1059D00022200023AB4203DA20F813200133F9E739
:1059E000059B0021DFF80CC1C318414ADFF8FC8099
:1059F00000931CF8093B03F00F0332F81320BDF8A5
:105A0000203022440493009B07920433B14258DAB9
:105A1000029A0798525C02FB070240F6FE7092B2AF
:105A200002F55F4E0EF1FF0E1FFA8EFE86452E48E0
:105A30009CBF02F5C04292B210F80290039A12F88D
:105A400001E00EF007020EF0080E38F812A00EF07A
:105A5000FF02ADF824A0BEF1000F13D1A3F1020E96
:105A600009FA02F001320EF1020E000656BFBDF82F
:105A700010002EF804AC2EF8040C082AF0D10131E5
:105A80001033C3E79CF800209A464FF0000E12092D
:105A900038F81220ADF8262009FA0EF20AA80EF105
:105AA000020E0AF1040AC2F38112BEF1080F00EBE4
:105AB000420232F8082C2AF8082C2AF8062CEBD1DE
:105AC000DDE7069B009A1A4400231046BDF8222009
:105AD000AB4203DA20F813200133F9E701346DE714
:105AE0000BB0BDE8F08F00BF2F870020C27B0020E5
:105AF000880F002034170120002383737047807BB8
:105B000070470000F8B547230D4601680446B1FB15
:105B1000F3F203FB1213F3B9344849F2030649F2D6
:105B20000403825DC15CD31143EA4101D3074BD426
:105B3000B1F59C7F3ADC0823013149F2030649F2B2
:105B40000407825D02F07F0242EAC11282554A10C8
:105B5000C255A2891AB923681D442560F8BD67891A
:105B6000B9421FD33A4491421CDAC81B591E90FB1C
:105B7000F3F203FB1202D2B28A42ECD1227A394606
:105B80002046FFF7D1FE237A184A0133DBB2237295
:105B9000925DC2F345029342DDDB002323720123B1
:105BA000A373D8E72046FFF7A5FED4E7C2F345026A
:105BB0000823D200A281A2890221C2F1F00292FB45
:105BC000F1F200216281B8E7B1F59C7F01DC10237E
:105BD000B2E7C2F345021201A281835DC3F345031C
:105BE000162B01DDDB00A3811023E4E72F870020C3
:105BF000002070477047704770470120704770471A
:105C0000006910B10368DB6818477047006910B17C
:105C100003681B6918477047006910B103685B6926
:105C200018474FF0FF307047006910B103689B6957
:105C30001847704707B5006910B94FF0FF3009E009
:105C4000036801220DF107019B6898470028F4D0F2
:105C50009DF8070003B05DF804FB07B500698DF8F7
:105C6000071028B1036801220DF10701DB6898478E
:105C700003B05DF804FB0000314B012201461A70AD
:105C8000304B93F86E00402820D13D291BD007DC13
:105C9000242916D0262918D0222908BF232115E04F
:105CA000E0290CD003DCA72908BF5E210EE0E7291C
:105CB00003D0E92908BF402108E07B2106E07D21CF
:105CC00004E05D2102E07E2100E07C211E4B1B7878
:105CD000002B32D0D72920D00ADC0A2922D0202953
:105CE00025D009292BD1194A137823F0400322E04B
:105CF000D92903D00CDBDA2905D07047134A137871
:105D000023F0080317E0114A137823F0040312E08C
:105D10000E4A137823F002030DE00C4A137823F0A7
:105D2000010308E0094A137823F0100303E0074A4F
:105D3000137823F020031370704704F0CDB8704738
:105D4000197C0020A04D0020513B0020F686002049
:105D5000314B012201461A70304B93F86E004028F7
:105D600020D13D291BD007DC242916D0262918D0A4
:105D7000222908BF232115E0E0290CD003DCA72944
:105D800008BF5E210EE0E72903D0E92908BF4021C2
:105D900008E07B2106E07D2104E05D2102E07E2118
:105DA00000E07C211E4B1B78002B32D0D72920D05D
:105DB0000ADC0A2922D0202925D009292BD1194A09
:105DC000137843F0400322E0D92903D00CDBDA2911
:105DD00005D07047134A137843F0080317E0114ABF
:105DE000137843F0040312E00E4A137843F00203E1
:105DF0000DE00C4A137843F0010308E0094A1378D8
:105E000043F0100303E0074A137843F020031370B4
:105E1000704704F053B87047197C0020A04D002053
:105E2000513B0020F686002013B50346006D0C465A
:105E300028B10DF1060201A90AF0B9F808E0586D81
:105E400008B9002021E00DF1060201A907F040FF8A
:105E50000028F6D0BDF80430BDF806200BB9002AA2
:105E6000EFD002F01F0149002170C2F34511D21298
:105E70006170A27003F01F022271C3F343125B1220
:105E8000013A03F5EA636271A37102B010BD13B564
:105E90000346006D0C4628B10DF1060201A90AF077
:105EA00096F808E0586D08B9002021E00DF10602CF
:105EB00001A907F01DFF0028F6D0BDF80430BDF899
:105EC00006200BB9002AEFD002F01F014900217013
:105ED000C2F34511D2126170A27003F01F02227149
:105EE000C3F343125B12013A03F5EA636271A371D3
:105EF00002B010BD38B5856D0446BDB94FF4807051
:105F00000FF036FB0146A06570B10570206D20B121
:105F10004FF480720BF034FA08E0606D30B14FF44A
:105F2000807209F02FFA01E0014BA365A06D38BD26
:105F3000FC860020D0B5046D6CB1012B08BF002A8F
:105F400014D21146204609F04AFE78B120460AF0E4
:105F50004BFA58B1D0BD446D44B1204608F001F869
:105F600020B12046BDE8D04008F0C6BD0020D0BD1D
:105F700010B5044600684368013B43603BB90368C1
:105F8000DB6A9847206810B103685B689847002374
:105F9000236010BD054B10B503600446036913B1BF
:105FA0001030FFF7E5FF204610BD00BF640700205A
:105FB00010B50446FFF7EEFF142120460EF0DAFF7D
:105FC000204610BD10B5084C04F13C00FFF7E2FF7D
:105FD00004F12800FFF7DEFF04F11400FFF7DAFFF9
:105FE0002046FFF7D7FF10BD4C3A002010B10368E0
:105FF0009B681847704710B103681B6B18477047C0
:1060000038B50B6804460D4613B15A6801325A6020
:1060100023691BB104F11000FFF7AAFF2B6820468B
:10602000236138BD036D13B1586900217047436D7A
:1060300013B193E8030070471846F6E7036D13B1F8
:10604000D86900217047436D13B1186959697047C9
:106050001846F6E770B5044608460D460FF0EFFB0C
:1060600023680246294620465B68BDE87040184711
:1060700038B50546FFF7EEFF044628460EF074FEDD
:10608000204438BD38B505460EF0CDFE04462846FE
:106090000EF06AFE204438BD826B30B562B11378D1
:1060A00003F0080303F0FF00FBB1D3695069181A2D
:1060B0001BD56FF0004018E0C06BB0B190F83130E4
:1060C0001B0707D5D0E90445D0E90023A01A65EBEA
:1060D000030101E00020002100236FF000428B4209
:1060E00008BF824201D2104630BD30BD08B5103025
:1060F000FFF7D2FF08BD08B51830FFF7CDFF08BD88
:10610000836B1BB11B7813F0700F05E0C06B30B1CF
:1061100090F8313013F0500F14BF01200020704769
:1061200008B51830FFF7ECFF08BD10B5044618306D
:10613000FFF7E6FF60B1206D10B1002109F04FFDBF
:10614000606D28B100220023BDE8104007F009BFB0
:1061500010BD836B23B9C06B003018BF012070479E
:106160000120704708B51830FFF7F3FF08BD10B5E0
:106170000446806D18B10FF003FA0023A3651834AC
:106180002046FFF7E6FF20B12046BDE810400BF0A7
:10619000E0BA10BD064B10B503600446FFF7E7FFF9
:1061A000044B04F11800A3600BF0D3FA204610BD95
:1061B000B40700200406002010B50446FFF7EAFFEC
:1061C0005C2120460EF0D6FE204610BD0346806BB3
:1061D00008B109F0D4BCD86B08B107F0ADBE4FF0E0
:1061E000FF30704708B51030FFF7F0FF08BD08B565
:1061F0001830FFF7EBFF08BD0346806B08B109F0CC
:1062000003BCD86B08B107F0D5BD4FF0FF30704725
:1062100007B501220DF107011030FFF7EDFF01284E
:106220000CBF9DF807004FF0FF3003B05DF804FB92
:1062300008B51830FFF7E0FF08BDD0B4846B44B157
:10624000012B08BF002A09D220461146D0BC09F014
:10625000C6BCC06B10B1D0BC07F083BE0020D0BC60
:10626000704738B50146049814461D4610B901F12F
:1062700018001DE001280AD10B6D01F118000BB1C7
:106280005A6912E04B6D7BB1D3E900230EE002287E
:1062900011D10B6D01F118000BB1DA6905E04B6DFE
:1062A00013B1D3E9042301E00022002312196B414A
:1062B000FFF7C3FF38BD002038BD0346806B08B12F
:1062C00009F0B8BDD86B08B108F026BA704708B518
:1062D0001030FFF7F2FF08BD08B51830FFF7EDFFEB
:1062E00008BDF0B5D0F838E09DF814409DF818507E
:1062F0009DF81C609DF82070BEF1000F08D0089733
:106300007046079606950594BDE8F0400AF015B86A
:10631000C06B38B10897079606950594BDE8F04024
:1063200008F060BBF0BD1FB58A79A2F150031B06CF
:1063300011D40C7802F26C724B79183003944C78BB
:1063400001330294DBB28C78019409790091042125
:10635000FFF7C7FF00E0002004B010BD1FB58A7929
:10636000A2F150031B0611D40C7802F26C724B7927
:10637000183003944C7801330294DBB28C7801948A
:10638000097900910221FFF7ACFF00E0002004B082
:1063900010BD0346806B08B10AF05AB8D86B08B13B
:1063A00008F00ABC704708B51830FFF7F2FF08BDC7
:1063B00008B51030FFF7EDFF08BD07B502AB0122AD
:1063C000103003F8011D1946FFF7E3FF03B05DF835
:1063D00004FB000000234FF47A7203710373054B32
:1063E000826003600B69036113B15A6801325A601D
:1063F000704700BF6407002010B50446006940B133
:106400000368DB6A984704F11000BDE81040FFF70D
:10641000AFBD10BD38B500250E4B044610314560A8
:10642000183040F8183C11F80C3C00F80C3C0A4BB2
:1064300040F8103C51F8083C40F8083C11F8043C86
:1064400000F8043C0BF054F9044BA5652046A3600A
:1064500038BD00BFB40700201008002090070020BE
:106460002DE9F04395B000251C4B4FF47A760DF1E1
:1064700050082A461831044604A848F8503D8DF8C3
:10648000045002968DF80C50129513950BF0B4F948
:1064900004A8DFF85090FFF75CFE80B15C200EF09E
:1064A00067FD07464146FFF7B5FF7B68257101335D
:1064B000A6602573C4F8009027617B6005E0207119
:1064C000A6602073C4F800902061054B04A80093D7
:1064D0000BF03FF9204615B0BDE8F083900700208F
:1064E0000406002064070020012B70B5044694B018
:1064F00005D0022B40F2022318BF002301E044F232
:106500000223043168460BF007FA04A8FFF721FEC6
:10651000114E90B15C200EF02BFD69460546FFF749
:1065200079FF00234FF47A722660237123736B681E
:10653000A260013325616B6006E04FF47A7320712D
:106540002073A36026602061044B04A800930BF025
:1065500000F9204614B070BD640700200406002036
:1065600070B5324B8AB00024314A00934FF47A73ED
:10657000304905A8029323468DF804408DF80C405D
:106580000494FFF7B1FF2C4E09A92B48FFF738FD03
:1065900005A8FFF7FFFC316929B10B68002205A8A7
:1065A000DB6B984703E0244905A8FFF713FF09A90F
:1065B0006846FFF725FD05A8FFF7ECFC0498FFF7F8
:1065C0001AFD48B3049820B103685B6B98470546F1
:1065D00000E01A4D29461A48FFF74AFD049868B1B1
:1065E00003689B6B984748B1164928460FF015F988
:1065F00068B1154928460FF010F940B1134B182027
:106600001722294600FB043001340FF035F96846A3
:10661000FFF7F2FE3F2CBEDD0748FFF7EDFE6846B0
:10662000FFF7B8FC20460AB070BD00BF6407002029
:10663000B6860020EC600020A03A0020323900200D
:106640003C3A00200B3600200A3600208B7D0020CB
:106650000146024808B5FFF70BFD08BD3C3A002093
:106660000146024808B5FFF70DFD08BD3C3A002081
:1066700010B5064C01460023102220460EF098FB70
:106680002046BDE810400EF06FBB00BF3C3A002032
:10669000044B28B91A780AB1187001E001221A7067
:1066A00018787047107C0020014B1888704700BF95
:1066B000C07B00202DE9F04F232085B00DF026F996
:1066C00000284FF0240014BF002404240DF01EF90C
:1066D00010B944F00804A4B226200DF017F910B93F
:1066E00044F00104A4B225200DF010F910B944F0D3
:1066F0000204A4B222200DF009F910B944F01004EC
:10670000A4B2A04B1B780BB92402A4B29E4B1B78F9
:106710005E0744BF44F00404A4B21D0744BF44F024
:106720000804A4B298074FF0290044BF44F00204C3
:10673000A4B2D90744BF44F00104A4B2DA0644BFAE
:1067400044F01004A4B29F0644BF44F02004A4B255
:106750005E0644BF44F04004A4B20DF0D7F810B96F
:1067600044F02004A4B228200DF0D0F810B944F071
:106770004004A4B2854A4FF0FF33854D00271068CE
:106780000DF1040B2B6001AB5168DFF808A203C3C5
:10679000906818601BF81760012130460DF0C8F8AA
:1067A000002130460DF092F813200DF0AFF8B0FA4A
:1067B00080F812200DF0AAF800284FEA58184FF080
:1067C000110014BF0023022348EA03080DF09EF8CD
:1067D00000284FF0050014BF0023042348EA0308F3
:1067E0000DF094F800284FF01D0014BF002308237B
:1067F00048EA03080DF08AF800284FF01E0014BF85
:106800000023102348EA03080DF080F800284FF019
:10681000200014BF0023202348EA03090DF076F876
:1068200000284FF00101304614BF4FF000084FF030
:1068300040080DF04BF8304649EA080805210DF0F4
:1068400077F8544E0AF807800137062FA2D17379E2
:1068500003F0080202F0FF011AB123F0080301213E
:106860007371727902F0100000F0FF0320B1494B00
:1068700022F010025A7101230027D5F800E03846B3
:10688000325C002A18BF864600F1010018BF0127BC
:106890000628F5D10FB1C5F800E0550644BF44F015
:1068A0000204A4B2900644BF44F00104A4B2D70786
:1068B000394F48BF44F00804BE4648BFA4B255074C
:1068C000364D44BF44F00404A4B2900738682A68E7
:1068D00048BF44F01004A0EB020248BFA4B2642AEF
:1068E00007D92F4A286015780DB9012500E0002549
:1068F00015702C4D2C4F2D4A13B101232B703CE009
:106900002B70002938D097F800C02949BCF1000F3E
:106910001BD1D1F800E0BEF1000F03D1254B186068
:10692000012325E00EF1010EBEF1010FC1F800E0D8
:106930001FD90B601F490968401AB0F5FA7F18D2B9
:10694000117801B90123137013E00868012810D1F0
:10695000DEF80000DFF85CE0DEF800E0CEEB0000DF
:10696000B0F57A7F05D91078B0FA80F04009107040
:106970000B6001233B7000E039701378E3B1084BE2
:1069800019781EE0107C0020F68600208C0D002077
:106990009C3A0020AF860020B47B0020DC7A0020E7
:1069A000187C0020AD830020AC830020167C0020E2
:1069B000F8650020CC6500203B780BB9297801B13F
:1069C00001210E200CF082FF3B78002B3AD0327967
:1069D00044F04003102A9BB202D144F06004A3B2F9
:1069E0002A78002A2DD0194B9C6BDA6C42F00102F8
:1069F000DA649A6B22F002029A639A6B9207FCD4D3
:106A000072B61248036D426D466D1049B242056D73
:106A1000F8D1AB42F6D1D20B42EA434302338B6545
:106A20008A6D0A489342FBD144F002038363836B6F
:106A3000064A9B07FBD5936B43F04003936330BF3B
:106A4000FDE71C46204605B0BDE8F08F00400D4034
:106A500008B5FFF72FFE034A1388108020EA0303CE
:106A600098B208BDC07B00201B4B1C4A19781278D5
:106A70001B4B30B549B10AB11A4A0FE01A4A1278D5
:106A80000AB11A4A0AE01A4A08E00AB1194A05E0AE
:106A9000154A12780AB1184A00E0184A1A60184AD2
:106AA0001268002A15DB1102164801F47F41825C4E
:106AB00015481143002230F8125054008D4205D180
:106AC0000021124A1B681160185B30BD01322A2A6E
:106AD000F1D1002030BD00BF167C0020AC83002027
:106AE000387A0020A0110020AD8300204C11002036
:106AF000F8100020A410002050100020FC0F0020EF
:106B00009C3A0020AF860020A80F0020F8650020E6
:106B100008B5022123200CF00BFF022124200CF0E9
:106B200007FF022126200CF003FF022125200CF094
:106B3000FFFE022122200CF0FBFE022129200CF096
:106B4000F7FE022128200CF0F3FE01210E200CF0AC
:106B5000EFFE01210E200CF0B9FE012110200CF0F7
:106B6000E7FE012106200CF0E3FE012118200CF0C5
:106B7000DFFE012119200CF0DBFE01211C200CF0AE
:106B8000D7FE01211F200CF0D3FE012110200CF0B4
:106B90009DFE012106200CF099FE012118200CF029
:106BA00095FE012119200CF091FE01211C200CF012
:106BB0008DFE01211F200CF089FE022113200CF014
:106BC000B7FE022112200CF0B3FE022111200CF0BE
:106BD000AFFE022105200CF0ABFE02211D200CF0BF
:106BE000A7FE02211E200CF0A3FE02212020BDE8FA
:106BF00008400CF09DBE000030B50B4C01250B4B3E
:106C000085B0204600211D7002F084FD40F2FF7225
:106C10001F23204602958DE80C000022044B1146EC
:106C200002F000FE05B030BD1E8700204E3B002064
:106C30008C35002041F2100303402DE9F04F974DB1
