:0200000460009A
:100000004643464200000156000000000103030081
:1000100000000000000000000000000000000000E0
:1000200000000000000000000000000000000000D0
:1000300000000000000000000000000000000000C0
:1000400000000000010408000000000000000000A3
:100050000000800000000000000000000000000020
:100060000000000000000000000000000000000090
:100070000000000000000000000000000000000080
:10008000EB04180A063204260000000000000000FD
:10009000050404240000000000000000000000002F
:1000A0000000000000000000000000000000000050
:1000B0000604000000000000000000000000000036
:1000C0000000000000000000000000000000000030
:1000D00020041808000000000000000000000000DC
:1000E0000000000000000000000000000000000010
:1000F0000000000000000000000000000000000000
:10010000D8041808000000000000000000000000F3
:100110000204180804200000000000000000000095
:1001200000000000000000000000000000000000CF
:10013000600400000000000000000000000000005B
:1001400000000000000000000000000000000000AF
:10015000000000000000000000000000000000009F
:10016000000000000000000000000000000000008F
:10017000000000000000000000000000000000007F
:10018000000000000000000000000000000000006F
:10019000000000000000000000000000000000005F
:1001A000000000000000000000000000000000004F
:1001B000000000000000000000000000000000003F
:1001C000000100000010000001000000000000001D
:1001D000000001000000000000000000000000001E
:1001E000000000000000000000000000000000000F
:1001F00000000000000000000000000000000000FF
:10020000FFFFFFFFFFFFFFFFFFFFFFFFFFFFFFFFFE
:10021000FFFFFFFFFFFFFFFFFFFFFFFFFFFFFFFFEE
:10100000D100204327140060000000000000000011
:10101000201000600010006000A4016000000000CB
:101020000000006000B0010000000000FFFFFFFFB3
:10103000FFFFFFFFFFFFFFFFFFFFFFFFFFFFFFFFC0
:10104000FFFFFFFFFFFFFFFFFFFFFFFFFFFFFFFFB0
:10105000FFFFFFFFFFFFFFFFFFFFFFFFFFFFFFFFA0
:10106000FFFFFFFFFFFFFFFFFFFFFFFFFFFFFFFF90
:10140000884207D0904205D251F8043B40F8043B93
:101410008242F9D87047884204D2002340F8043B46
:101420008142FBD870472DE9F843644A644B5A6403
:10143000644A1A644FF42A029A63634B9D46BFF3D1
:101440004F8FBFF36F8F00F019FA604B082260498D
:101450006048C3F85421604AFFF7D2FF5F4A6049F1
:101460006048FFF7CDFF60496048FFF7D4FF4FF4B5
:1014700070025F4B5F491A6000235F4A42F82310F5
:1014800001335D4DB02BF9D15C4B80215C4A03F8F0
:10149000011B9342FBD14D4C4FF08037594A5A4BB8
:1014A000DFF89C91DFF89C811D60C4F80471C4F8DA
:1014B0000091C4F8F470C4F8F0801368534E43F4FC
:1014C000E02313604FF0FF32F36923F07F0343F012
:1014D0004003F361736A23F07F0343F040037362B8
:1014E000374B9A66DA661A675A6700F0CAF9484BB2
:1014F0006322AB63474BEB630025474B1A60032223
:101500005D6043F8042C454AC3F80C2D444A136827
:1015100043F080731360434A136843F00103136080
:10152000414B1A68414B1A6000F064FBC4F8047127
:101530003F48C4F80091C4F8F470C4F8F08000F09B
:10154000E3FCF36E43F44053F3663A4B1D60C3F87B
:101550000851C3F81851C3F82851C3F8385103F59E
:10156000A0239A6BD20708D4334A5A6542F6156213
:101570001A659A6B42F001029A639A6842F001126E
:101580009A6000F0EDF900F08DFC00F0C5FC00F071
:101590005FFB00F074F9294A1368284C132BFBD920
:1015A00000F0E4FB2368B3F5967FFBD300F068F905
:1015B00000F0B6FC00F0A4FC30BFFDE7BFAAAAAA69
:1015C00000C00A40070020000080062000800D4077
:1015D0006454006000000000900E0100C03E002036
:1015E000F86201600000002020870120C03E00203A
:1015F00088ED00E051E30000003C002000E400E042
:10160000A0E400E024ED00E008ED00E000C00F40A1
:1016100039F500003DF5000014E000E00000202056
:10162000FCED00E0001000E0041000E0047B00206E
:10163000002CA330004008400000C056087B00206A
:101640001B1018200C0D1113F8B58F005A4B0C46C7
:1016500038461A6000F06CFC584B054618601E4670
:1016600020B95749574800F067FCF8BD3A460021B9
:1016700000F066FC25F01F033D44BFF34F8F524A34
:10168000136020339D42FBD8BFF34F8FBFF36F8FA2
:101690004E4B32681A604E4A4E4B1C80D36F43F457
:1016A0004023D3674C4B4D4A1A674FF43162C3F85D
:1016B000802042F21072C3F890201A6F22F48052F8
:1016C0001A67196F444A0029FBDAD2F870310126F3
:1016D00043494FF4803523F40003424823F4004388
:1016E000C2F87031136F23F48033136702F51032A0
:1016F000D36923F4406343F40063D361936A23F412
:10170000FF7323F0010343F079039362A2F5A02253
:10171000536823F4002323F0070343F400235360AA
:101720000022314B1A66DE60196130495D619861B3
:10173000D961C3F8E020C3F88C6006F1E066C3F815
:101740009060C3F89450C3F898000320C3F89C102D
:101750002749C1F82801C1F82401C1F88001D3F854
:101760008810244841F01041C3F88810224999603C
:101770002249C1F8200122484FF08075056080F8A9
:1017800083237F201F4A10701F4AC1F85821D0219F
:101790001E4A0C4811704021A2F23E3211609A6834
:1017A0001B4942F480729A6000F0CEFB2146054846
:1017B00000F0CEFBF8BD00BFE46400200041002033
:1017C0000C3600207039002070EF00E040650020EA
:1017D00000C00F40167B002000800D401B20110030
:1017E000010000471B1F010000403840001F1F1F61
:1017F00000801F403100000001000090003C0020EC
:1018000004E100E038E400E08501000046E400E087
:101810002D360020024B186808B100F09DBB7047C0
:10182000004100200004084B012200F47020C3F89E
:10183000A010C3F8A400C3F8B0205A69D207FCD5A1
:101840000122014B5A61704700402A40094B0A4A65
:10185000C3F8A000C3F8A4200122C3F8B02059693E
:10186000044AC907FBD5D2F80001212380B2536195
:10187000704700BF00402A400400030070477047D3
:10188000704710B5214A0020214C102321492060C7
:101890001360214B19601121116020491960122138
:1018A00011601F4919601F4911601F4919601F49C4
:1018B00011601F4919601F4941F0150111601E494F
:1018C000196001F181510D3111601C4919601C49E9
:1018D00011601C4919601C4911601C4919601C49A0
:1018E00011601C4A1A6001232360BFF34F8FBFF3BE
:1018F0006F8F194B1860BFF34F8FBFF36F8F174A6D
:10190000136843F44033136010BD00BF9CED00E04A
:1019100094ED00E03F000010A0ED00E0250008037A
:10192000090010001300200021000207140000200D
:1019300025000813208701200900001027000B1341
:101940001700004033001013180000602F000B0731
:10195000190000702F000B1350EF00E014ED00E0B1
:1019600073B58F4B4FF400548E4A8F49C3F85C22F5
:10197000C3F8601248F20C71C3F86422A2F5304239
:10198000C3F8682202F5E042C3F86C22C3F8702263
:10199000C3F87422C3F878221822DA661A675A67E5
:1019A0009A67DA67C3F88020C3F88420C3F88820D8
:1019B0000122C3F82C27C3F83027C3F83427C3F813
:1019C0003827C3F83C27C3F85027784A936923F097
:1019D000604323F4407343F0204343F44073936126
:1019E000D2F8843043F00C03C2F88430704B1A688C
:1019F00042F002021A601A6811406E4A0A436E49A8
:101A00001A604FF0FF325A6002F57702886802F5DB
:101A10006052024042F000529A60DA6822F0780286
:101A2000DA60664A186A024042F0004242F0400220
:101A30001A62624A186A0240614842F0004242F06B
:101A400040025A625F4A9A62DA62D1F8B82022F004
:101A50003F0242F00102C3F8B820D1F8BC2040F2A6
:101A6000056122F03F0242F00102C3F8BC200022CF
:101A70001A611C661867C3F880105C665867C3F863
:101A800084101968504821F0020119604F4999618A
:101A90000221D9614E4941F8042B8142FBD11A68D9
:101AA00042F001021A60424A1468414B14F00104EA
:101AB000FAD1464A0226214620469A6140F2F56252
:101AC000DE61C3F8002240F26642C3F8102240F201
:101AD0009942C3F820223F4AC3F8302242F2014221
:101AE000C3F8342240F23542C3F840223A4AC3F8E0
:101AF00050223A4AC3F85422394AC3F8602242F2CB
:101B00000122C3F86422FFF78DFE21460120FFF772
:101B100089FE21463046FFF785FE2046FFF796FEF8
:101B200045F60D530546984231D121460420FFF772
:101B300079FE20464FF400012A4CFFF773FE4FF464
:101B400000010120FFF76EFE4FF400013046FFF761
:101B500069FE4FF40000FFF779FEA84207D14FF469
:101B600000010420FFF75EFE1023237001E008232C
:101B700023701D4900231D4A2078521A0093012327
:101B800002EB00521A4800F0CFF902B070BD1022EB
:101B90002146174802B0BDE8704000F0D1B900BF3F
:101BA00000801F40F9B00100F910010000C00F4093
:101BB00000402A401200FFFF00802A4000FFF07C16
:101BC00063000200FF000F8300432A40F05AF05ADE
:101BD00000422A409F041830EB06180A06320126FC
:101BE0003806180A478600200000007000000070C8
:101BF000C4860120F0B5154B40204FF480314FF4DE
:101C000080544FF400554FF4404643F242071A699E
:101C100012F0020F03D09E6159619F61F7E712F441
:101C2000005F01D15D61F2E712F4805F01D15C6178
:101C3000EDE7002AEBDA12F4803F01D09961E6E784
:101C4000520601D45861E2E7F0BD00BF00800D40AC
:101C5000394AB3EE096A394813689FED395A23F0BF
:101C6000010310B513600323364C1361364BD3F8D0
:101C7000E030D9B2016007EE901AC3F30B201B0DC0
:101C8000B8EEE77A314907EE900A2060F8EEE76A8D
:101C900007EE903A37EE455A2D4BF8EEE77A37EEDD
:101CA000466A77EEE67A81ED006A25EE275AC3EDA3
:101CB000007A1368C5EE065A75EEA65AFCEEE55A90
:101CC00015EE901ADFED235A37EE657A43EA015399
:101CD000136027EE277A204B66EE277AD2F8101190
:101CE000C7EE065A35EEA67ABCEEC77A17EE100A92
:101CF00087EE867A03EA00430B43C2F81031D2F82C
:101D0000101177EE267AFCEEE77A17EE903AC3F3DD
:101D10000B030B43C2F81031136843F00203136046
:101D200000220E4B1A700E4A0E4BC3F840210122BE
:101D30000D4B1A6010BD00BF80810D40F47A002069
:101D40000000AA42F07A002000441F40F87A0020E8
:101D5000FC7A00200000B4420000FF0F40E400E0E5
:101D6000F5E40000003C002008E100E038B540F652
:101D700061722D4BC3F8202100F0F2F82B4A2C4958
:101D8000D2F8803043F00303C2F8803040F20442BE
:101D9000284BC3F86021284A1068014019B9D3F8CC
:101DA000A811890718D04FF000415163D3F84021A2
:101DB00042F00202C3F840211E4AD2F840319B078C
:101DC000FBD44FF400321D4B19201A604FF0004233
:101DD000194B9A6300F09CF8174B00214FF080429A
:101DE000174D144C9A63284619600A234FF4207249
:101DF000C4F8A83100F0A4F84FF48103114A2B6015
:101E00004FF480032B6440F24313C4F85851C4F8D4
:101E100048310D4BC3F804220C4B4FF400321A60CA
:101E20000123C4F8403138BD00800D4000C00F4090
:101E3000001C1E0000002E4000900D408CE200E0CF
:101E400000000020B1E70000003C00200CE100E0B1
:101E500008B50E4B1B6E9B0701D4FBBE16E072B695
:101E600000220B4BC3F84021A3F50D13094A1A6455
:101E7000A3F1FF53A3F52B239D46BFF34F8F064BD2
:101E800006480360064B1B689B68984700441F4048
:101E900000002E4003002000000012EB00802020F4
:101EA0001C0020000F4BDA6E42F44032DA66DA6E24
:101EB00042F44072DA66A3F5603340F237625A6446
:101EC000A0229A649A6C1206FCD4074B40F2376247
:101ED0005A64A0229A649A6C12F08002FBD1034BE0
:101EE0001A70704700C00F4000800C403E860020F2
:101EF000F8B500BFF8BC08BC9E4670470000000063
:101F00005FF800F01DFA00005FF800F035FB0000FC
:101F10005FF800F031E200005FF800F071FE0000B1
:101F20005FF800F0E1FF00005FF800F02FFF000015
:101F30005FF800F02D0001005FF800F0A10C000038
:101F40005FF800F091E100005FF800F0850C000000
:101F50005FF800F0B50C00005FF800F03D000100F4
:101F60005FF800F00DED0000250200008D1D00005F
:101F7000ED3D000095430000454C000065810000E8
:101F80001C224A564C201E001824427E4242420027
:101F90007C22223C22227C001C22404040221C0049
:101FA00078242222222478007E40407840407E001F
:101FB0007E404078404040001C22404E42221C009F
:101FC0004242427E424242001C08080808081C00A7
:101FD0000E0404040444380042444870484442005B
:101FE0004040404040407E0042665A5A42424200D1
:101FF0004262524A46424200182442424224180099
:102000007C42427C40404000182442424A241A004C
:102010007C42427C484442003C42403C02423C00FC
:102020003E080808080808004242424242423C007A
:1020300042424224241818004242425A5A66420040
:1020400042422418244242002222221C080808008E
:102050007E02041820407E003C20202020203C00EE
:102060000C10103C10706E003C04040404043C008E
:1020700000081C2A08080808000010207F20100013
:102080000000000000000000080808080000080028
:10209000242424000000000024247E247E24240024
:1020A000081E281C0A3C080000626408102646002E
:1020B000304848304A443A0004081000000000004C
:1020C0000408101010080400201008080810200050
:1020D000082A1C3E1C2A08000008083E08080000C8
:1020E00000000000000808100000007E0000000052
:1020F0000000000000181800000204081020400032
:102100003C42465A62423C000818280808083E0033
:102110003C42020C30407E003C42021C02423C0029
:10212000040C14247E0404007E4078040244380029
:102130001C20407C42423C007E42040810101000EB
:102140003C42423C42423C003C42423E0204380097
:102150000000080000080000000008000008081047
:102160000E18306030180E0000007E007E00000067
:1021700070180C060C1870003C42020C1000100085
:1021800000000000FF000000081C3E7F7F1C3E0096
:102190001010101010101010000000FF00000000C0
:1021A0000000FF000000000000FF00000000000031
:1021B0000000000000FF0000202020202020202020
:1021C000040404040404040400000000E0100808EF
:1021D000080808040300000008080810E0000000D8
:1021E00080808080808080FF804020100804020171
:1021F0000102040810204080FF8080808080808061
:10220000FF01010101010101003C7E7E7E7E3C0058
:10221000000000000000FF00367F7F7F3E1C0800AA
:102220004040404040404040000000000304080897
:102230008142241818244281003C424242423C0020
:10224000081C2A772A08080002020202020202027F
:10225000081C3E7F3E1C080008080808FF08080804
:10226000A050A050A050A05008080808080808086E
:102270000000013E54141400FF7F3F1F0F070301AD
:102280000000000000000000F0F0F0F0F0F0F0F0CE
:1022900000000000FFFFFFFFFF0000000000000043
:1022A00000000000000000FF80808080808080802F
:1022B000AA55AA55AA55AA5501010101010101011A
:1022C00000000000AA55AA55FFFEFCF8F0E0C0800F
:1022D0000303030303030303080808080F0808089F
:1022E000000000000F0F0F0F080808080F00000083
:1022F00000000000F8080808000000000000FFFFD0
:10230000000000000F08080808080808FF00000087
:1023100000000000FF08080808080808F808080876
:10232000C0C0C0C0C0C0C0C0E0E0E0E0E0E0E0E0AD
:102330000707070707070707FFFF00000000000067
:10234000FFFFFF00000000000000000000FFFFFF93
:1023500001010101010101FF00000000F0F0F0F0B7
:102360000F0F0F0F0000000008080808F800000019
:10237000F0F0F0F000000000F0F0F0F00F0F0F0FA1
:10238000E3DDB5A9B3DFE1FFE7DBBD81BDBDBDFF87
:1023900083DDDDC3DDDD83FFE3DDBFBFBFDDE3FF45
:1023A00087DBDDDDDDDB87FF81BFBF87BFBF81FF4F
:1023B00081BFBF87BFBFBFFFE3DDBFB1BDDDE3FFAF
:1023C000BDBDBD81BDBDBDFFE3F7F7F7F7F7E3FF87
:1023D000F1FBFBFBFBBBC7FFBDBBB78FB7BBBDFFB3
:1023E000BFBFBFBFBFBF81FFBD99A5A5BDBDBDFF1D
:1023F000BD9DADB5B9BDBDFFE7DBBDBDBDDBE7FF35
:1024000083BDBD83BFBFBFFFE7DBBDBDB5DBE5FF60
:1024100083BDBD83B7BBBDFFC3BDBFC3FDBDC3FF90
:10242000C1F7F7F7F7F7F7FFBDBDBDBDBDBDC3FFF2
:10243000BDBDBDDBDBE7E7FFBDBDBDA5A599BDFF0C
:10244000BDBDDBE7DBBDBDFFDDDDDDE3F7F7F7FF9E
:1024500081FDFBE7DFBF81FFC3DFDFDFDFDFC3FF1E
:10246000F3EFEFC3EF8F91FFC3FBFBFBFBFBC3FF5E
:10247000FFF7E3D5F7F7F7F7FFFFEFDF80DFEFFFB9
:10248000FFFFFFFFFFFFFFFFF7F7F7F7FFFFF7FF84
:10249000DBDBDBFFFFFFFFFFDBDB81DB81DBDBFF68
:1024A000F7E1D7E3F5C3F7FFFF9D9BF7EFD9B9FF3E
:1024B000CFB7B7CFB5BBC5FFFBF7EFFFFFFFFFFF00
:1024C000FBF7EFEFEFF7FBFFDFEFF7F7F7EFDFFFDC
:1024D000F7D5E3C1E3D5F7FFFFF7F7C1F7F7FFFF44
:1024E000FFFFFFFFFFF7F7EFFFFFFF81FFFFFFFF9A
:1024F000FFFFFFFFFFE7E7FFFFFDFBF7EFDFBFFF9A
:10250000C3BDB9A59DBDC3FFF7E7D7F7F7F7C1FF77
:10251000C3BDFDF3CFBF81FFC3BDFDE3FDBDC3FF61
:10252000FBF3EBDB81FBFBFF81BF87FBFDBBC7FF41
:10253000E3DFBF83BDBDC3FF81BDFBF7EFEFEFFF5F
:10254000C3BDBDC3BDBDC3FFC3BDBDC1FDFBC7FF93
:10255000FFFFF7FFFFF7FFFFFFFFF7FFFFF7F7EFC3
:10256000F1E7CF9FCFE7F1FFFFFF81FF81FFFFFF83
:102570008FE7F3F9F3E78FFFC3BDFDF3EFFFEFFF45
:10258000FFFFFFFF00FFFFFFF7E3C18080E3C1FF14
:10259000EFEFEFEFEFEFEFEFFFFFFF00FFFFFFFFCA
:1025A000FFFF00FFFFFFFFFFFF00FFFFFFFFFFFF39
:1025B000FFFFFFFFFF00FFFFDFDFDFDFDFDFDFDF2A
:1025C000FBFBFBFBFBFBFBFBFFFFFFFF1FEFF7F73B
:1025D000F7F7F7FBFCFFFFFFF7F7F7EF1FFFFFFF32
:1025E0007F7F7F7F7F7F7F007FBFDFEFF7FBFDFE79
:1025F000FEFDFBF7EFDFBF7F007F7F7F7F7F7F7F69
:1026000000FEFEFEFEFEFEFEFFC381818181C3FF50
:10261000FFFFFFFFFFFF00FFC9808080C1E3F7FFDE
:10262000BFBFBFBFBFBFBFBFFFFFFFFFFCFBF7F7D1
:102630007EBDDBE7E7DBBD7EFFC3BDBDBDBDC3FF28
:10264000F7E3D588D5F7F7FFFDFDFDFDFDFDFDFDA9
:10265000F7E3C180C1E3F7FFF7F7F7F700F7F7F704
:102660005FAF5FAF5FAF5FAFF7F7F7F7F7F7F7F77A
:10267000FFFFFEC1ABEBEBFF0080C0E0F0F8FCFE1B
:10268000FFFFFFFFFFFFFFFF0F0F0F0F0F0F0F0FDA
:10269000FFFFFFFF0000000000FFFFFFFFFFFFFF45
:1026A000FFFFFFFFFFFFFF007F7F7F7F7F7F7F7F39
:1026B00055AA55AA55AA55AAFEFEFEFEFEFEFEFE2E
:1026C000FFFFFFFF55AA55AA000103070F1F3F7F19
:1026D000FCFCFCFCFCFCFCFCF7F7F7F7F0F7F7F769
:1026E000FFFFFFFFF0F0F0F0F7F7F7F7F0FFFFFF65
:1026F000FFFFFFFF07F7F7F7FFFFFFFFFFFF0000F8
:10270000FFFFFFFFF0F7F7F7F7F7F7F700FFFFFF1F
:10271000FFFFFFFF00F7F7F7F7F7F7F707F7F7F710
:102720003F3F3F3F3F3F3F3F1F1F1F1F1F1F1F1FB9
:10273000F8F8F8F8F8F8F8F80000FFFFFFFFFFFFDF
:10274000000000FFFFFFFFFFFFFFFFFFFF00000093
:10275000FEFEFEFEFEFEFE00FFFFFFFF0F0F0F0F4F
:10276000F0F0F0F0FFFFFFFFF7F7F7F707FFFFFFCD
:102770000F0F0F0FFFFFFFFF0F0F0F0FF0F0F0F025
:102780001C224A564C201E00000038043C443A00EB
:1027900040405C6242625C0000003C4240423C00BF
:1027A00002023A4642463A0000003C427E403C006B
:1027B0000C12107C1010100000003A46463A023C01
:1027C00040405C62424242000800180808081C00B1
:1027D00004000C0404044438404044485068440059
:1027E0001808080808081C000000764949494900F3
:1027F00000005C624242420000003C4242423C0017
:1028000000005C62625C404000003A46463A0202C8
:1028100000005C624040400000003E403C027C0002
:1028200010107C1010120C000000424242463A0088
:102830000000424242241800000041494949360044
:10284000000042241824420000004242463A023C62
:1028500000007E0418207E003C20202020203C0028
:102860000C10103C10706E003C04040404043C0086
:1028700000081C2A08080808000010207F2010000B
:102880000000000000000000080808080000080020
:10289000242424000000000024247E247E2424001C
:1028A000081E281C0A3C0800006264081026460026
:1028B000304848304A443A00040810000000000044
:1028C0000408101010080400201008080810200048
:1028D000082A1C3E1C2A08000008083E08080000C0
:1028E00000000000000808100000007E000000004A
:1028F000000000000018180000020408102040002A
:102900003C42465A62423C000818280808083E002B
:102910003C42020C30407E003C42021C02423C0021
:10292000040C14247E0404007E4078040244380021
:102930001C20407C42423C007E42040810101000E3
:102940003C42423C42423C003C42423E020438008F
:10295000000008000008000000000800000808103F
:102960000E18306030180E0000007E007E0000005F
:1029700070180C060C1870003C42020C100010007D
:1029800000000000FF0000001824427E4242420086
:102990007C22223C22227C001C22404040221C003F
:1029A00078242222222478007E40407840407E0015
:1029B0007E404078404040001C22404E42221C0095
:1029C0004242427E424242001C08080808081C009D
:1029D0000E04040404443800424448704844420051
:1029E0004040404040407E0042665A5A42424200C7
:1029F0004262524A4642420018244242422418008F
:102A00007C42427C40404000182442424A241A0042
:102A10007C42427C484442003C42403C02423C00F2
:102A20003E080808080808004242424242423C0070
:102A300042424224241818004242425A5A66420036
:102A400042422418244242002222221C0808080084
:102A50007E02041820407E0008080808FF080808C5
:102A6000A050A050A050A050080808080808080866
:102A7000CCCC3333CCCC3333CC663399CC6633995E
:102A80000000000000000000F0F0F0F0F0F0F0F0C6
:102A900000000000FFFFFFFFFF000000000000003B
:102AA00000000000000000FF808080808080808027
:102AB000AA55AA55AA55AA55010101010101010112
:102AC00000000000AA55AA55993366CC993366CC0C
:102AD0000303030303030303080808080F08080897
:102AE000000000000F0F0F0F080808080F0000007B
:102AF00000000000F8080808000000000000FFFFC8
:102B0000000000000F08080808080808FF0000007F
:102B100000000000FF08080808080808F80808086E
:102B2000C0C0C0C0C0C0C0C0E0E0E0E0E0E0E0E0A5
:102B30000707070707070707FFFF0000000000005F
:102B4000FFFFFF00000000000000000000FFFFFF8B
:102B5000010244485060400000000000F0F0F0F036
:102B60000F0F0F0F0000000008080808F800000011
:102B7000F0F0F0F000000000F0F0F0F00F0F0F0F99
:102B8000E3DDB5A9B3DFE1FFFFFFC7FBC3BBC5FFB3
:102B9000BFBFA39DBD9DA3FFFFFFC3BDBFBDC3FFBF
:102BA000FDFDC5B9BDB9C5FFFFFFC3BD81BFC3FFF3
:102BB000F3EDEF83EFEFEFFFFFFFC5B9B9C5FDC33D
:102BC000BFBFA39DBDBDBDFFF7FFE7F7F7F7E3FF6D
:102BD000FBFFF3FBFBFBBBC7BFBFBBB7AF97BBFFA5
:102BE000E7F7F7F7F7F7E3FFFFFF89B6B6B6B6FFEB
:102BF000FFFFA39DBDBDBDFFFFFFC3BDBDBDC3FFA7
:102C0000FFFFA39D9DA3BFBFFFFFC5B9B9C5FDFDD4
:102C1000FFFFA39DBFBFBFFFFFFFC1BFC3FD83FF7A
:102C2000EFEF83EFEFEDF3FFFFFFBDBDBDB9C5FFD4
:102C3000FFFFBDBDBDDBE7FFFFFFBEB6B6B6C9FFF8
:102C4000FFFFBDDBE7DBBDFFFFFFBDBDB9C5FDC3BA
:102C5000FFFF81FBE7DF81FFC3DFDFDFDFDFC3FFD4
:102C6000F3EFEFC3EF8F91FFC3FBFBFBFBFBC3FF56
:102C7000FFF7E3D5F7F7F7F7FFFFEFDF80DFEFFFB1
:102C8000FFFFFFFFFFFFFFFFF7F7F7F7FFFFF7FF7C
:102C9000DBDBDBFFFFFFFFFFDBDB81DB81DBDBFF60
:102CA000F7E1D7E3F5C3F7FFFF9D9BF7EFD9B9FF36
:102CB000CFB7B7CFB5BBC5FFFBF7EFFFFFFFFFFFF8
:102CC000FBF7EFEFEFF7FBFFDFEFF7F7F7EFDFFFD4
:102CD000F7D5E3C1E3D5F7FFFFF7F7C1F7F7FFFF3C
:102CE000FFFFFFFFFFF7F7EFFFFFFF81FFFFFFFF92
:102CF000FFFFFFFFFFE7E7FFFFFDFBF7EFDFBFFF92
:102D0000C3BDB9A59DBDC3FFF7E7D7F7F7F7C1FF6F
:102D1000C3BDFDF3CFBF81FFC3BDFDE3FDBDC3FF59
:102D2000FBF3EBDB81FBFBFF81BF87FBFDBBC7FF39
:102D3000E3DFBF83BDBDC3FF81BDFBF7EFEFEFFF57
:102D4000C3BDBDC3BDBDC3FFC3BDBDC1FDFBC7FF8B
:102D5000FFFFF7FFFFF7FFFFFFFFF7FFFFF7F7EFBB
:102D6000F1E7CF9FCFE7F1FFFFFF81FF81FFFFFF7B
:102D70008FE7F3F9F3E78FFFC3BDFDF3EFFFEFFF3D
:102D8000FFFFFFFF00FFFFFFE7DBBD81BDBDBDFF14
:102D900083DDDDC3DDDD83FFE3DDBFBFBFDDE3FF3B
:102DA00087DBDDDDDDDB87FF81BFBF87BFBF81FF45
:102DB00081BFBF87BFBFBFFFE3DDBFB1BDDDE3FFA5
:102DC000BDBDBD81BDBDBDFFE3F7F7F7F7F7E3FF7D
:102DD000F1FBFBFBFBBBC7FFBDBBB78FB7BBBDFFA9
:102DE000BFBFBFBFBFBF81FFBD99A5A5BDBDBDFF13
:102DF000BD9DADB5B9BDBDFFE7DBBDBDBDDBE7FF2B
:102E000083BDBD83BFBFBFFFE7DBBDBDB5DBE5FF56
:102E100083BDBD83B7BBBDFFC3BDBFC3FDBDC3FF86
:102E2000C1F7F7F7F7F7F7FFBDBDBDBDBDBDC3FFE8
:102E3000BDBDBDDBDBE7E7FFBDBDBDA5A599BDFF02
:102E4000BDBDDBE7DBBDBDFFDDDDDDE3F7F7F7FF94
:102E500081FDFBE7DFBF81FFF7F7F7F700F7F7F733
:102E60005FAF5FAF5FAF5FAFF7F7F7F7F7F7F7F772
:102E70003333CCCC3333CCCC3399CC663399CC665A
:102E8000FFFFFFFFFFFFFFFF0F0F0F0F0F0F0F0FD2
:102E9000FFFFFFFF0000000000FFFFFFFFFFFFFF3D
:102EA000FFFFFFFFFFFFFF007F7F7F7F7F7F7F7F31
:102EB00055AA55AA55AA55AAFEFEFEFEFEFEFEFE26
:102EC000FFFFFFFF55AA55AA66CC993366CC99330C
:102ED000FCFCFCFCFCFCFCFCF7F7F7F7F0F7F7F761
:102EE000FFFFFFFFF0F0F0F0F7F7F7F7F0FFFFFF5D
:102EF000FFFFFFFF07F7F7F7FFFFFFFFFFFF0000F0
:102F0000FFFFFFFFF0F7F7F7F7F7F7F700FFFFFF17
:102F1000FFFFFFFF00F7F7F7F7F7F7F707F7F7F708
:102F20003F3F3F3F3F3F3F3F1F1F1F1F1F1F1F1FB1
:102F3000F8F8F8F8F8F8F8F80000FFFFFFFFFFFFD7
:102F4000000000FFFFFFFFFFFFFFFFFFFF0000008B
:102F5000FEFDBBB7AF9FBFFFFFFFFFFF0F0F0F0FC0
:102F6000F0F0F0F0FFFFFFFFF7F7F7F707FFFFFFC5
:102F70000F0F0F0FFFFFFFFF0F0F0F0FF0F0F0F01D
:102F800078E367E443424D424153494330C841C767
:102F90001DCDF7C8A4CBBECB80D005CCA4C99FC89B
:102FA00070C827C91CC882C8D1C83AC92EC84AC926
:102FB0002CD864E152E161E1B2D323D87FCA9FCA21
:102FC00056C89BC65DC685CA26E1BAE1C3E17ACB85
:102FD00041C639DCCCDC58DC00007DD39ED371DFE8
:102FE00094E0EAD9EDDF61E268E2B1E20BE30DD8EB
:102FF0007CD765D4ADD78BD7ECD600D72CD737D7B5
:103000007969D87952D87B2ADA7B11DB7F7ADF5055
:10301000E8CF46E5CF7DB3DF5AD3CE6415D0454E19
:10302000C4464FD24E4558D4444154C1494E5055E0
:1030300054A3494E5055D44449CD524541C44C4502
:10304000D4474F54CF5255CE49C6524553544F5290
:10305000C5474F5355C25245545552CE5245CD5394
:10306000544FD04FCE574149D44C4F41C453415691
:10307000C55645524946D94445C6504F4BC5505296
:10308000494E54A35052494ED4434F4ED44C495309
:10309000D4434CD2434DC45359D34F5045CE434CE7
:1030A0004F53C54745D44E45D7544142A854CF4607
:1030B000CE535043A8544845CE4E4FD4535445D0D8
:1030C000ABADAAAFDE414EC44FD2BEBDBC5347CE5E
:1030D000494ED44142D35553D24652C5504FD35393
:1030E00051D2524EC44C4FC74558D0434FD3534989
:1030F000CE5441CE4154CE504545CB4C45CE535491
:1031000052A45641CC4153C3434852A44C45465463
:10311000A45249474854A44D4944A447CF00544FB2
:103120004F204D414E592046494C45D346494C45C8
:10313000204F5045CE46494C45204E4F54204F50CD
:1031400045CE46494C45204E4F5420464F554EC41F
:10315000444556494345204E4F542050524553450F
:103160004ED44E4F5420494E5055542046494CC5DC
:103170004E4F54204F55545055542046494CC54D40
:10318000495353494E472046494C45204E414DC571
:10319000494C4C4547414C20444556494345204EF7
:1031A000554D4245D24E45585420574954484F55E5
:1031B0005420464FD253594E5441D852455455523B
:1031C0004E20574954484F555420474F5355C24FEE
:1031D0005554204F4620444154C1494C4C45474129
:1031E0004C205155414E544954D94F564552464CA6
:1031F0004FD74F5554204F46204D454D4F52D9552E
:103200004E44454627442053544154454D454ED4E1
:10321000424144205355425343524950D4524544AD
:10322000494D27442041525241D9444956495349B6
:103230004F4E204259205A4552CF494C4C454741A8
:103240004C204449524543D454595045204D49538C
:103250004D415443C8535452494E4720544F4F2078
:103260004C4F4EC746494C4520444154C1464F52ED
:103270004D554C4120544F4F20434F4D504C45D855
:1032800043414E275420434F4E54494E55C5554E49
:1032900044454627442046554E4354494FCE564553
:1032A000524946D94C4F41C49EC1ACC1B5C1C2C1FF
:1032B000D0C1E2C1F0C1FFC110C225C235C23BC2BC
:1032C0004FC25AC26AC272C27FC290C29DC2AAC213
:1032D000BAC2C8C2D5C2E4C2EDC200C30EC31EC387
:1032E00024C383C30D4F4B0D000D204552524F5246
:1032F0000020494E20000D0A52454144592E0D0A26
:10330000000D0A425245414B00A0BAE8E8E8E8BD8A
:103310000101C981D021A54AD00ABD02018549BD5C
:103320000301854ADD0301D007A549DD0201F0074D
:103330008A186912AAD0D8602008C485318432382E
:10334000A55AE55F8522A8A55BE560AAE898F02369
:10335000A55A38E522855AB003C65B38A558E52240
:103360008558B008C6599004B15A915888D0F9B11F
:103370005A9158C65BC659CAD0F2600A693EB03548
:103380008522BAE422902E60C4349028D004C5333C
:10339000902248A2099848B557CA10FA2026D5A20B
:1033A000F7689561E830FA68A868C4349006D005DB
:1033B000C533B00160A2106C00038A0AAABD26C3FF
:1033C0008522BD27C3852320CCFFA900851320D7E4
:1033D000CA2045CBA000B12248297F2047CBC8682E
:1033E00010F4207AC6A969A0C3201ECBA43AC8F065
:1033F0000320C2DDA976A0C3201ECBA9802090FFA8
:103400006C02032060C5867A847B207300AAF0F0EA
:10341000A2FF863A90062079C54CE1C7206BC920EF
:1034200079C5840B2013C69044A001B15F8523A504
:103430002D8522A5608525A55F88F15F18652D85FE
:103440002D8524A52E69FF852EE560AA38A55FE5A8
:103450002DA8B003E8C6251865229003C62318B12D
:10346000229124C8D0F9E623E625CAD0F22059C615
:103470002033C5AD0002F08818A52D855A650B854F
:1034800058A42E845B9001C8845920B8C3A514A405
:10349000158DFE018CFF01A531A432852D842EA44B
:1034A0000B88B9FC01915F8810F82059C62033C5FC
:1034B0004C80C4A52BA42C8522842318A001B12202
:1034C000F01DA004C8B122D0FBC8986522AAA000B4
:1034D0009122A5236900C891228622852390DD6070
:1034E000A200200FE1C90DF00D9D0002E8E0599007
:1034F000F1A2174C37C44CCACA6C0403A67AA004C4
:10350000840FBD00021007C9FFF03EE8D0F4C920C7
:10351000F0378508C922F056240F702DC93FD0041A
:10352000A999D025C9309004C93C901D8471A00090
:10353000840B88867ACAC8E8BD000238F99EC0F0BC
:10354000F5C980D030050BA471E8C899FB01B9FB1F
:1035500001F03638E93AF004C949D002850F38E95C
:1035600055D09F8508BD0002F0DFC508F0DBC89983
:10357000FB01E8D0F0A67AE60BC8B99DC010FAB9F5
:103580009EC0D0B4BD000210BE99FD01C67BA9FF4C
:10359000857A60A52BA62CA001855F8660B15FF0BF
:1035A0001FC8C8A515D15F9018F00388D009A514CD
:1035B00088D15F900CF00A88B15FAA88B15FB0D75C
:1035C0001860D0FDA900A8912BC8912BA52B1869D4
:1035D00002852DA52C6900852E208EC6A900D02D30
:1035E00020E7FFA537A43885338434A52DA42E8584
:1035F0002F843085318432201DC8A219861668A810
:1036000068A2FA9A489848A900853E85106018A5D6
:103610002B69FF857AA52C69FF857B609006F004F5
:10362000C9ABD0E9206BC92013C6207900F00CC9C2
:10363000ABD08E207300206BC9D0866868A51405B6
:1036400015D006A9FF85148515A001840FB15FF080
:1036500043202CC820D7CAC8B15FAAC8B15FC5151E
:10366000D004E414F002B02C844920CDDDA920A4BC
:1036700049297F2047CBC922D006A50F49FF850FD6
:10368000C8F011B15FD010A8B15FAAC8B15F865F62
:103690008560D0B54C74C46C060310D7C9FFF0D355
:1036A000240F30CF38E97FAA8449A0FFCAF008C8A8
:1036B000B99EC010FA30F5C8B99EC030B22047CBD1
:1036C000D0F5A980851020A5C9208AC3D0058A69B4
:1036D0000FAA9A6868A90920FBC32006C918986533
:1036E0007A48A57B690048A53A48A53948A9A4208D
:1036F000FFCE208DCD208ACDA566097F256285620B
:10370000A98BA0C7852284234C43CEA9BCA0D92075
:10371000A2DB207900C9A9D006207300208ACD2021
:103720002BDC2038CEA54A48A54948A98148202C41
:10373000C8A57AA47BC002EAF004853D843EA000BF
:10374000B17AD043A002B17A18D0034C4BC8C8B1AB
:103750007A8539C8B17A853A98657A857A9002E691
:103760007B6C080320730020EDC74CAEC7F03CE92A
:10377000809011C923B0170AA8B90DC048B90CC070
:10378000484C73004CA5C9C93AF0D64C08CFC94B78
:10379000D0F9207300A9A420FFCE4CA0C838A52BD7
:1037A000E901A42CB00188854184426020E1FFB08A
:1037B0000118D03CA57AA47BA63AE8F00C853D849C
:1037C0003EA539A43A853B843C6868A981A0C39092
:1037D000034C69C44C74C4D017A21AA43ED0034C45
:1037E00037C4A53D857A847BA53BA43C8539843AC2
:1037F0006008A9002090FF28D0034C59C62060C65D
:103800004C97C8A90320FBC3A57B48A57A48A53AD5
:1038100048A53948A98D4820790020A0C84CAEC7DA
:10382000206BC92009C938A539E514A53AE515B0BA
:103830000B9838657AA67B9007E8B004A52BA62CD8
:103840002017C6901EA55FE901857AA560E900856D
:103850007B60D0FDA9FF854A208AC39AC98DF00BF1
:10386000A20C2CA2114C37C44C08CF68688539686B
:10387000853A68857A68857B2006C99818657A85B7
:103880007A9002E67B60A23A2CA2008607A0008410
:1038900008A508A60785078608B17AF0E8C508F0EC
:1038A000E4C8C922D0F3F0E9209ECD207900C9896F
:1038B000F005A9A720FFCEA561D0052009C9F0BB5E
:1038C000207900B0034CA0C84CEDC7209ED748C952
:1038D0008DF004C989D091C665D004684CEFC7202B
:1038E0007300206BC9C92CF0EE6860A200861486B4
:1038F00015B0F7E92F8507A5158522C919B0D4A5FC
:10390000140A26220A262265148514A52265158527
:103910001506142615A514650785149002E61520D2
:1039200073004C71C9208BD08549844AA9B220FF0D
:10393000CEA50E48A50D48209ECD682A2090CDD05A
:1039400018681012201BDC20BFD1A000A56491498B
:10395000C8A5659149604CD0DB68A44AC0DFD04C53
:1039600020A6D6C906D03DA000846184668471205B
:103970001DCA20E2DAE671A471201DCA200CDCAA5F
:10398000F005E88A20EDDAA471C8C006D0DF20E295
:10399000DA209BDCA664A463A5654CDBFFB1222082
:1039A000800090034C48D2E92F4C7EDDA002B16428
:1039B000C5349017D00788B164C533900EA465C490
:1039C0002E9008D00DA564C52DB007A564A4654C44
:1039D00068CAA000B1642075D4A550A451856F8435
:1039E00070207AD6A961A0008550845120DBD6A032
:1039F00000B1509149C8B1509149C8B15091496046
:103A00002086CA4CB5CB209ED7F005A92C20FFCE2E
:103A10000886132015E1284CA0CA2021CB2079006C
:103A2000F035F043C9A3F050C9A618F04BC92CF0EB
:103A300037C93BF05E209ECD240D30DE20DDDD2039
:103A400087D42021CB203BCBD0D3A9009D0002A25C
:103A5000FFA001A513D010A90D2047CB24131005FA
:103A6000A90A2047CB49FF603820F0FF9838E90BBE
:103A7000B0FC49FF6901D016083820F0FF84092006
:103A80009BD7C929D0592890068AE5099005AAE84C
:103A9000CAD0062073004CA2CA203BCBD0F22087AC
:103AA000D420A6D6AAA000E8CAF0BCB1222047CBF9
:103AB000C8C90DD0F320E5CA4C28CBA513F003A943
:103AC000202CA91D2CA93F2009E129FF60A511F098
:103AD000113004A0FFD004A53FA4408539843A4C9E
:103AE00008CFA513F005A2184C37C4A90CA0CD200F
:103AF0001ECBA53DA43E857A847B6020A6D3C92336
:103B0000D010207300209ED7A92C20FFCE86132032
:103B10001BE1A201A002A9008D0102A940200FCC47
:103B2000A613D01360209ED7A92C20FFCE86132089
:103B30001BE120CECBA51320CCFFA200861360C9C9
:103B400022D00B20BDCEA93B20FFCE2021CB20A62A
:103B5000D3A92C8DFF0120F9CBA513F00D20B7FFC1
:103B60002902F00620B5CB4CF8C8AD0002D01EA546
:103B700013D0E32006C94CFBC8A513D0062045CBC3
:103B8000203BCB4C60C5A641A442A9982CA9008536
:103B90001186438444208BD08549844AA57AA47B2E
:103BA000854B844CA643A444867A847B207900D03C
:103BB000202411500C2021E18D0002A2FFA001D091
:103BC0000C3075A513D0032045CB20F9CB867A8421
:103BD0007B207300240D103124115009E8867AA946
:103BE000008507F00C8507C922F007A93A8507A9C7
:103BF0002C188508A57AA47B69009001C8208DD473
:103C000020E2D720DAC94C91CC20F3DCA50E20C2EB
:103C1000C9207900F007C92CF0034C4DCBA57AA43C
:103C20007B85438444A54BA44C857A847B20790012
:103C3000F02D20FDCE4C15CC2006C9C8AAD012A26A
:103C40000DC8B17AF06CC8B17A853FC8B17AC88521
:103C50004020FBC8207900AAE083D0DC4C51CCA5E1
:103C600043A444A61110034C27C8A000B143F00B95
:103C7000A513D007A9FCA0CC4C1ECB603F455854DF
:103C800052412049474E4F5245440D003F52454452
:103C90004F2046524F4D2053544152540D00D004F2
:103CA000A000F003208BD08549844A208AC3F00508
:103CB000A20A4C37C49A8A186904486906852468A0
:103CC000A00120A2DBBABD09018566A549A44A204E
:103CD00067D820D0DBA001205DDCBA38FD0901F0F7
:103CE00017BD0F018539BD1001853ABD1201857AD6
:103CF000BD1101857B4CAEC78A6911AA9A20790053
:103D0000C92CD0F12073002024CD209ECD1824385A
:103D1000240D3003B00360B0FDA2164C37C4A67A60
:103D2000D002C67BC67AA20024488A48A90120FB9B
:103D3000C32083CEA900854D20790038E9B19017C2
:103D4000C903B013C9012A4901454DC54D9061858C
:103D50004D2073004CBBCDA64DD02CB07B69079095
:103D600077650DD0034C3DD669FF85220A6522A8F0
:103D700068D980C0B067208DCD482020CE68A44B84
:103D80001017AAF056D05F460D8A2AA67AD002C62E
:103D90007BC67AA01B854DD0D7D980C0B04890D9BA
:103DA000B982C048B981C0482033CEA54D4CA9CDB9
:103DB0004C08CFA566BE80C0A8688522E62268852B
:103DC000239848201BDCA56548A56448A56348A541
:103DD0006248A561486C2200A0FF68F023C964F026
:103DE00003208DCD844B684A851268856968856A91
:103DF00068856B68856C68856D68856E4566856FBE
:103E0000A561606C0A03A900850D207300B0034C06
:103E1000F3DC2013D190034C28CFC9FFD00FA9A801
:103E2000A0CE20A2DB4C730082490FDAA1C92EF08C
:103E3000DEC9ABF058C9AAF0D1C922D00FA57AA427
:103E40007B69009001C82087D44CE2D7C9A8D01361
:103E5000A018D03B20BFD1A56549FFA8A56449FFA4
:103E60004C91D3C9A5D0034CF4D3C9B490034CA74B
:103E7000CF20FACE209ECDA9292CA9282CA92CA090
:103E800000D17AD0034C7300A20B4C37C4A0156844
:103E9000684CFACD38A564E900A565E9C09008A989
:103EA00087E564A9E3E56560208BD085648465A619
:103EB00045A446A50DF026A90085702014CF901CBE
:103EC000E054D018C0C9D0142084CF845E88847197
:103ED000A006845DA0242068DE4C6FD460240E1000
:103EE0000DA000B164AAC8B164A88A4C91D3201473
:103EF000CF902DE054D01BC049D0252084CF98A26C
:103F0000A04C4FDC20DEFF866484638565A00084BE
:103F10006260E053D00AC054D00620B7FF4C3CDCAE
:103F2000A564A4654CA2DB0A48AA207300E08F9028
:103F30002020FACE209ECD20FDCE208FCD68AAA5D0
:103F40006548A564488A48209ED768A88A484CD608
:103F5000CF20F1CE68A8B9EABF8555B9EBBF855629
:103F60002054004C8DCDA0FF2CA000840B20BFD18D
:103F7000A564450B8507A565450B850820FCDB205E
:103F8000BFD1A565450B2508450BA8A564450B25A4
:103F900007450B4C91D32090CDB013A56E097F251A
:103FA0006A856AA969A000205BDCAA4C61D0A900DF
:103FB000850DC64D20A6D6856186628463A56CA456
:103FC0006D20AAD6866C846DAA38E561F008A90137
:103FD0009004A661A9FF8566A0FFE8C8CAD007A61D
:103FE00066300F18900CB16CD162F0EFA2FFB002F6
:103FF000A201E88A2A2512F002A9FF4C3CDC20FD30
:10400000CEAA2090D0207900D0F460A200207900C0
:10401000860C85452079002013D1B0034C08CFA22F
:1040200000860D860E20730090052013D1900BAAF8
:1040300020730090FB2013D1B0F6C924D006A9FF4D
:10404000850DD010C925D013A510D0D0A980850E1C
:10405000054585458A0980AA2073008646380510E3
:10406000E928D0034CD1D1A0008410A52DA62E861E
:1040700060855FE430D004C52FF022A545D15FD024
:1040800008A546C8D15FF07D8818A55F690790E153
:10409000E8D0DCC9419005E95B38E9A5606848C90A
:1040A0002AD005A913A0DF60A545A446C954D00BAA
:1040B000C0C9F0EFC049D0034C08CFC953D004C0E9
:1040C00054F0F5A52FA430855F8460A531A4328516
:1040D0005A845B1869079001C88558845920B8C371
:1040E000A558A459C8852F8430A000A545915FC864
:1040F000A546915FA900C8915FC8915FC8915FC84C
:10410000915FC8915FA55F186902A4609001C8859E
:1041100047844860A50B0A6905655FA4609001C8E3
:104120008558845960908000000020BFD1A564A408
:104130006560207300209ECD208DCDA566300DA535
:1041400061C9909009A9A5A0D1205BDCD07A4C9BD5
:10415000DCA50C050E48A50D48A0009848A54648CA
:10416000A5454820B2D168854568854668A8BABD8E
:10417000020148BD010148A5649D0201A5659D019C
:1041800001C8207900C92CF0D2840B20F7CE6885B5
:104190000D68850E297F850CA62FA530865F85606A
:1041A000C532D004E431F039A000B15FC8C545D0B4
:1041B00006A546D15FF016C8B15F18655FAAC8B101
:1041C0005F656090D7A2122CA20E4C37C4A213A533
:1041D0000CD0F72094D1A50BA004D15FD0E74CEA16
:1041E000D22094D12008C4A0008472A205A54591D4
:1041F0005F1001CAC8A546915F1002CACA8671A5A0
:104200000BC8C8C8915FA20BA900240C50086818FD
:104210006901AA686900C8915FC88A915F204CD380
:1042200086718572A422C60BD0DC6559B05D8559B4
:10423000A88A65589003C8F0522008C4853184329A
:10424000A900E672A471F005889158D0FBC659C642
:1042500072D0F5E65938A531E55FA002915FA5322D
:10426000C8E560915FA50CD062C8B15F850BA9005D
:1042700085718572C868AA8564688565D15F900E6E
:10428000D006C88AD15F90074C45D24C35C4C8A52A
:1042900072057118F00A204CD38A6564AA98A4228A
:1042A00065658671C60BD0CA8572A205A545100149
:1042B000CAA5461002CACA8628A9002055D38A6515
:1042C0005885479865598548A8A547608422B15FFD
:1042D000852888B15F8529A910855DA200A0008A84
:1042E0000AAA982AA8B0A406712672900B188A65AB
:1042F00028AA986529A8B093C65DD0E360A50DF003
:104300000320A6D62026D538A533E531A8A534E567
:1043100032A200860D85628463A2904C44DC382072
:10432000F0FFA900F0EBA63AE8D0A0A2152CA21B42
:104330004C37C420E1D320A6D320FACEA980851023
:10434000208BD0208DCD20F7CEA9B220FFCE48A55E
:104350004848A54748A57B48A57A4820F8C84C4F4F
:10436000D4A9A520FFCE098085102092D0854E8447
:104370004F4C8DCD20E1D3A54F48A54E4820F1CE1E
:10438000208DCD68854E68854FA002B14E8547AA25
:10439000C8B14EF0998548C8B147488810FAA4487A
:1043A00020D4DBA57B48A57A48B14E857AC8B14EAA
:1043B000857BA54848A54748208ACD68854E6885F5
:1043C0004F207900F0034C08CF68857A68857BA080
:1043D0000068914E68C8914E68C8914E68C8914E69
:1043E00068C8914E60208DCDA00020DFDD6868A9EF
:1043F000FFA000F012A664A4658650845120F4D476
:1044000086628463856160A22286078608856F8440
:104410007085628463A0FFC8B16FF00CC507F0041B
:10442000C508D0F3C922F00118846198656F8571C1
:10443000A6709001E88672A570F004C902D00B98AE
:104440002075D4A66FA4702088D6A616E022D005C9
:10445000A2194C37C4A5619500A5629501A5639585
:1044600002A00086648465847088840D8617E8E85D
:10447000E8861660460F4849FF386533A434B0011A
:1044800088C4329011D004C531900B8533843485B3
:10449000358436AA6860A210A50F30B62026D5A9AB
:1044A00080850F68D0D0A637A53886338534A00024
:1044B000844F844EA531A632855F8660A919A2007B
:1044C00085228623C516F00520C7D5F0F7A90785F4
:1044D00053A52DA62E85228623E430D004C52FF0C7
:1044E0000520BDD5F0F385588659A9038553A558F5
:1044F000A659E432D007C531D0034C06D6852286B2
:1045000023A000B122AAC8B12208C8B122655885EB
:1045100058C8B122655985592810D38A30D0C8B1FE
:1045200022A0000A6905652285229002E623A623BF
:10453000E459D004C558F0BA20C7D5F0F3B1223001
:1045400035C8B1221030C8B122F02BC8B122AAC898
:10455000B122C5349006D01EE433B01AC56090165F
:10456000D004E45F9010865F8560A522A623854E67
:10457000864FA5538555A55318652285229002E6DE
:1045800023A623A00060A54F054EF0F5A5552904EC
:104590004AA88555B14E655F855AA5606900855B5F
:1045A000A533A6348558865920BFC3A455C8A5583D
:1045B000914EAAE659A559C8914E4C2AD5A56548F1
:1045C000A564482083CE208FCD68856F688570A054
:1045D00000B16F1871649005A2174C37C42075D4D0
:1045E000207AD6A550A45120AAD6208CD6A56FA497
:1045F0007020AAD620CAD44CB8CDA000B16F48C84C
:10460000B16FAAC8B16FA86886228423A8F00A48AF
:1046100088B122913598D0F86818653585359002B3
:10462000E63660208FCDA564A4658522842320DB37
:10463000D608A000B12248C8B122AAC8B122A868F1
:1046400028D013C434D00FE433D00B481865338519
:10465000339002E634688622842360C418D00CC5E7
:1046600017D0088516E9038517A0006020A1D78A16
:1046700048A901207DD468A000916268684CCAD422
:104680002061D7D150989004B150AA98488A482008
:104690007DD4A550A45120AAD668A86818652285A3
:1046A000229002E62398208CD64CCAD42061D718D9
:1046B000F15049FF4C06D7A9FF8565207900C9292B
:1046C000F00620FDCE209ED72061D7F04BCA8A4845
:1046D00018A200F150B0B649FFC56590B1A565B00C
:1046E000AD20F7CE68A8688555686868AA688550C7
:1046F000688551A555489848A0008A602082D74C0B
:10470000A2D320A3D6A200860DA8602082D7F008ED
:10471000A000B122A84CA2D34C48D2207300208A1A
:10472000CD20B8D1A664D0F0A6654C79002082D700
:10473000D0034CF7D8A67AA47B86718472A6228611
:104740007A1865228524A623867B9001E88625A019
:1047500000B1244898912420790020F3DC68A0005F
:104760009124A671A472867A847B60208ACD20F77A
:10477000D720FDCE4C9ED7A566309DA561C991B0CE
:1047800097209BDCA564A4658414851560A5154855
:10479000A5144820F7D7A000B114A868851468852F
:1047A000154CA2D320EBD78AA00091146020EBD740
:1047B0008649A200207900F00320F1D7864AA000A4
:1047C000B114454A2549F0F860A911A0DF4C67D81B
:1047D000208CDAA56649FF8566456E856FA5614C1C
:1047E0006AD82099D9903C208CDAD0034CFCDBA607
:1047F000708656A269A569A8F0CE38E561F02490CC
:10480000128461A46E846649FF6900A0008456A2E8
:1048100061D004A0008470C9F930C7A8A570560102
:1048200020B0D9246F1057A061E069F002A0693868
:1048300049FF65568570B90400F5048565B9030024
:10484000F5038564B90200F5028563B90100F5013D
:104850008562B0032047D9A0009818A662D04AA666
:10486000638662A6648663A6658664A67086658490
:10487000706908C920D0E4A9008561856660655625
:104880008570A565656D8565A564656C8564A563A2
:10489000656B8563A562656A85624C36D9690106D8
:1048A00070266526642663266210F238E561B0C77B
:1048B00049FF69018561900EE661F04266626663B8
:1048C00066646665667060A56649FF8566A562498F
:1048D000FF8562A56349FF8563A56449FF8564A5DB
:1048E0006549FF8565A57049FF8570E670D00EE6C5
:1048F00065D00AE664D006E663D002E66260A20FE5
:104900004C37C4A225B4048470B4039404B4029454
:1049100003B4019402A4689401690830E8F0E6E960
:1049200008A8A570B01416019002F6017601760170
:104930007602760376046AC8D0EC18608100000025
:1049400000037F5E56CB7980139B0B64807638938F
:10495000168238AA3B20803504F334813504F334C1
:10496000808000000080317217F8202BDCF00210EC
:10497000034C48D2A561E97F48A9808561A9D6A0EA
:10498000D92067D8A9DBA0D9200FDBA9BCA0D920EA
:1049900050D8A9C1A0D92040E0A9E0A0D92067D86B
:1049A00068207EDDA9E5A0D9208CDAD0034C8BDA13
:1049B00020B7DAA9008526852785288529A57020B6
:1049C00059DAA5652059DAA5642059DAA56320597A
:1049D000DAA562205EDA4C8FDBD0034C83D94A091A
:1049E00080A8901918A529656D8529A528656C856D
:1049F00028A527656B8527A526656A852666266610
:104A000027662866296670984AD0D6608522842356
:104A1000A004B122856D88B122856C88B122856B96
:104A200088B122856E4566856FA56E0980856A8886
:104A3000B1228569A56160A569F01F1865619004C0
:104A4000301D182C101469808561D0034CFBD8A54B
:104A50006F856660A56649FF300568684CF7D84CDD
:104A60007ED9200CDCAAF010186902B0F2A20086F0
:104A70006F2077D8E661F0E7608420000000200C0A
:104A8000DCA9F9A0DAA200866F20A2DB4C12DB20A1
:104A90008CDAF076201BDCA90038E561856120B74F
:104AA000DAE661F0BAA2FCA901A46AC462D010A43B
:104AB0006BC463D00AA46CC464D004A46DC465083C
:104AC0002A9009E89529F0321034A90128B00E0681
:104AD0006D266C266B266AB0E630CE10E2A8A56D76
:104AE000E565856DA56CE564856CA56BE563856BF7
:104AF000A56AE562856A984C4FDBA940D0CE0A0AC8
:104B00000A0A0A0A8570284C8FDBA2144C37C4A508
:104B1000268562A5278563A5288564A52985654C1A
:104B2000D7D885228423A004B122856588B1228547
:104B30006488B122856388B1228566098085628890
:104B4000B1228561847060A25C2CA257A000F004A1
:104B5000A649A44A201BDC86228423A004A56591D3
:104B60002288A564912288A563912288A566097F81
:104B70002562912288A5619122847060A56E856668
:104B8000A205B5689560CAD0F9867060201BDCA2CA
:104B900006B5609568CAD0F9867060A561F0FB061D
:104BA0007090F7206FD9D0F24C38D9A561F009A5E3
:104BB000662AA9FFB002A90160202BDC8562A9004A
:104BC0008563A288A56249FF2AA900856585648658
:104BD00061857085664CD2D846666085248425A0A0
:104BE00000B124C8AAF0C4B124456630C2E461D043
:104BF00021B1240980C562D019C8B124C563D0127F
:104C0000C8B124C564D00BC8A97FC570B124E565BF
:104C1000F028A566900249FF4C31DCA561F04A38C6
:104C2000E9A024661009AAA9FF8568204DD98AA2A7
:104C300061C9F910062099D9846860A8A566298001
:104C400046620562856220B0D9846860A561C9A00A
:104C5000B020209BDC8470A566846649802AA9A0C8
:104C60008561A56585074CD2D88562856385648595
:104C700065A860A000A20A945DCA10FB900FC92D20
:104C8000D0048667F004C92BD005207300905BC95F
:104C90002EF02EC945D0302073009017C9ABF00E0E
:104CA000C92DF00AC9AAF008C92BF004D007666024
:104CB000207300905C2460100EA90038E55E4C491A
:104CC000DD665F245F50C3A55E38E55D855EF0124A
:104CD000100920FEDAE65ED0F9F00720E2DAC65EBF
:104CE000D0F9A5673001604CB4DF48245F1002E6BC
:104CF0005D20E2DA6838E930207EDD4C0ADD4820AC
:104D00000CDC68203CDCA56E4566856FA6614C6AAC
:104D1000D8A55EC90A9009A964246030114C7ED9D7
:104D20000A0A18655E0A18A000717A38E930855EB3
:104D30004C30DD9B3EBC1FFD9E6E6B27FD9E6E6B57
:104D40002800A971A0C320DADDA53AA639856286BC
:104D500063A290382049DC20DFDD4C1ECBA001A9E6
:104D60002024661002A92D99FF0085668471C8A9C8
:104D700030A661D0034C04DFA900E080F002B00946
:104D8000A9BDA0DD2028DAA9F7855DA9B8A0DD209E
:104D90005BDCF01E1012A9B3A0DD205BDCF002107A
:104DA0000E20E2DAC65DD0EE20FEDAE65DD0DC2031
:104DB00049D8209BDCA201A55D18690A3009C90BFE
:104DC000B00669FFAAA90238E902855E865D8AF00D
:104DD000021013A471A92EC899FF008AF006A93009
:104DE000C899FF008471A000A280A565187919DF19
:104DF0008565A5647918DF8564A5637917DF856308
:104E0000A5627916DF8562E8B00410DE300230DA80
:104E10008A900449FF690A692FC8C8C8C88447A492
:104E200071C8AA297F99FF00C65DD006A92EC8992E
:104E3000FF008471A4478A49FF2980AAC024F00496
:104E4000C03CD0A6A471B9FF0088C930F0F8C92EC3
:104E5000F001C8A92BA65EF02E1008A90038E55E67
:104E6000AAA92D990101A9459900018AA22F38E824
:104E7000E90AB0FB693A9903018A990201A90099EC
:104E80000401F00899FF00A900990001A900A00100
:104E9000608000000000FA0A1F0000989680FFF072
:104EA000BDC0000186A0FFFFD8F0000003E8FFFFAF
:104EB000FF9C0000000AFFFFFFFFFFDF0A800003E6
:104EC0004BC0FFFF736000000E10FFFFFDA8000045
:104ED000003CBFAAAAAAAAAAAAAAAAAAAAAAAAAA35
:104EE000AAAAAAAAAAAAAAAAAAAAAAAAAAAAAAAA22
:104EF000AA200CDCA911A0DF20A2DBF070A569D0EC
:104F0000034CF9D8A24EA00020D4DBA56E100F20D0
:104F1000CCDCA94EA000205BDCD00398A40720FEC7
:104F2000DB984820EAD9A94EA0002028DA20EDDF3E
:104F3000684A900AA561F006A56649FF856660810A
:104F400038AA3B29077134583E5674167EB31B7736
:104F50002FEEE3857A1D841C2A7C6359580A7E75DE
:104F6000FDE7C680317218108100000000A9BFA0C3
:104F7000DF2028DAA570695090032023DC855620B5
:104F80000000000000000000000000000000000021
:104F90000000000000000000000000000000000011
:104FA0000000000000000000000000000000000001
:104FB00000000000000000000000000000000000F1
:104FC00000000000000000000000000000000000E1
:104FD00000000000000000000000000000000000D1
:104FE00000000000000000000000000000000000C1
:104FF00000000000000000000000000000000000B1
:1050000000000000000000000000000000000000A0
:105010000000000000000000000000000000000090
:105020000000000000000000000000000000000080
:105030000000000000000000000000000000000070
:105040000000000000000000000000000000000060
:105050000000000000000000000000000000000050
:105060000000000000000000000000000000000040
:105070000000000000000000000000000000000030
:105080000000000000000000183C3C181800180048
:10509000363600000000000036367F367F36360098
:1050A0000C3E031E301F0C00006333180C666300B7
:1050B0001C361C6E3B336E00060603000000000029
:1050C000180C0606060C1800060C1818180C06001A
:1050D00000663CFF3C660000000C0C3F0C0C00001E
:1050E00000000000000C0C060000003F0000000063
:1050F00000000000000C0C006030180C06030100DA
:105100003E63737B6F673E000C0E0C0C0C0C3F0073
:105110001E33301C06333F001E33301C30331E005C
:10512000383C36337F3078003F031F3030331E0069
:105130001C06031F33331E003F3330180C0C0C00C9
:105140001E33331E33331E001E33333E30180E0021
:10515000000C0C00000C0C00000C0C00000C0C06E9
:10516000180C0603060C180000003F00003F00006A
:10517000060C1830180C06001E3330180C000C00FA
:105180003E637B7B7B031E000C1E33333F333300B7
:105190003F66663E66663F003C66030303663C006E
:1051A0001F36666666361F007F46161E16467F004F
:1051B0007F46161E16060F003C66030373667C00CE
:1051C0003333333F333333001E0C0C0C0C0C1E00F6
:1051D0007830303033331E006766361E366667001F
:1051E0000F06060646667F0063777F7F6B6363006A
:1051F00063676F7B736363001C36636363361C00F5
:105200003F66663E06060F001E3333333B1E3800F2
:105210003F66663E366667001E33070E38331E0053
:105220003F2D0C0C0C0C1E003333333333333F0053
:1052300033333333331E0C006363636B7F77630058
:105240006363361C1C3663003333331E0C0C1E00A4
:105250007F6331184C667F001E06060606061E0098
:1052600003060C18306040001E18181818181E008D
:10527000081C36630000000000000000000000FF72
:105280000C0C18000000000000001E303E336E00C1
:105290000706063E66663B0000001E3303331E0011
:1052A0003830303E33336E0000001E333F031E00A3
:1052B0001C36060F06060F0000006E33333E301F0B
:1052C0000706366E666667000C000E0C0C0C1E009E
:1052D000300030303033331E070666361E36670026
:1052E0000E0C0C0C0C0C1E000000337F7F6B630057
:1052F00000001F333333330000001E3333331E00EE
:1053000000003B66663E060F00006E33333E307889
:1053100000003B6E66060F0000003E031E301F00BB
:10532000080C3E0C0C2C18000000333333336E0095
:1053300000003333331E0C000000636B7F7F3600A8
:10534000000063361C36630000003333333E301FE9
:1053500000003F190C263F00380C0C070C0C3800DD
:105360001818180018181800070C0C380C0C070037
:105370006E3B000000000000000000000000000084
:10538000A2A0D0EBE5B9334487C068B6B72699C769
:1053900016035500530042002000530065007200C0
:1053A000690061006C0018035400650065006E0020
:1053B000730079006400750069006E006F000403DB
:1053C000090409024B00020100C032080B0002026E
:1053D000020100090400000102020100052400107E
:1053E0000105240101010424020605240600010729
:1053F00005820310001009040100020A00000007E2
:105400000503024000000705840240000009024B2A
:1054100000020100C032080B000202020100090470
:105420000000010202010005240010010524010111
:10543000010424020605240600010705820310006A
:105440000509040100020A0000000705030200022A
:1054500000070584020002000A060002EF02014074
:045460000100010046
:105464000000000000000000000000000000000038
:105474000000000000000000000000000000000028
:10548400024B1B780BB103F015BF7047498600200F
:105494000E480F4B02881B6833F8121001320D4B73
:1054A40019800D4B19884B00013B13409BB20380BC
:1054B40013B90A4A137004E0994205D10122074B3B
:1054C4001A704022064B1A60704700BF187B0020F8
:1054D4004065002022403840167B0020843A00209A
:1054E40008E200E0324A70B5B2F86E30C3F30E033E
:1054F400A2F86E30B2F8743023F030031B041B0C96
:10550400A2F8743072B62B4C2B4B21682B4D29B169
:10551400187801210EF0D2F8002303E018780EF079
:10552400CDF801232B6023680133236040F20D235F
:105534002168B1FBF3F203FB1213214A23602368B1
:105544001268283BD3401F4A126893422CD21E4A49
:105554001E4916681E4A1F4D14680A686343F018F2
:1055640010601D4A126812F0800F15BF02F00F027E
:1055740002F00C02D2189B1814BFB3189B192A68A6
:105584001360164A0B79D3762B79D37620F01F0259
:105594002318BFF34F8F12490A6020329342FBD87D
:1055A400BFF34F8FBFF36F8F62B6BFF34F8F70BDE2
:1055B40000401E40E06400208A3A0020C4790020A4
:1055C400F0640020147A002020420020787A002021
:1055D400187A0020707A0020287A002000800E407B
:1055E40070EF00E0194B1A78194B70B5194E1A4D2B
:1055F4001A4C8AB131881B682868984731882A6810
:10560400490822F01F0302EB8102BFF34F8F23608E
:1056140020339A42FBD814E031882A6848081B6872
:1056240002EB8000984733882A685B089900531876
:1056340023F01F020B44BFF34F8F226020329342AA
:10564400FBD8BFF34F8FBFF36F8F70BD843A002038
:10565400E4640020167B00200041002070EF00E08D
:1056640010B5054C237833B9044B13B10448AFF398
:1056740000800123237010BDF05F002000000000B3
:10568400940E0100084B10B51BB108490848AFF34C
:1056940000800848036803B910BD074B002BFBD0FA
:1056A400BDE81040184700BF00000000F45F002070
:1056B400940E0100C03E0020000000000122014BB6
:1056C4001A707047498600200022026070477047B4
:1056D4004160704710B50446FFF7F6FF0023044904
:1056E4002046638223756375FFF7F2FF204610BDE1
:1056F40080841E0010B50446FFF7E9FF204610BD64
:1057040081607047418270470175704701440A7394
:1057140070470000FF2149F21113014AD154704728
:10572400678600200F4A49F21113017BD35C11B93B
:1057340043F03C0303E003F0DF0343F01C03417B2D
:1057440009B103F0FB03817B09B103F0F703C17BCB
:1057540009B103F0EF0349F21111535449F21F1137
:105764005354704767860020094B49F2221149F2CD
:10577400201259569A5C0029017CA8BF42F080028D
:1057840009B102F07F0249F220115A54704700BF58
:1057940067860020194A49F2201370B5448AD55C03
:1057A400E1B225B9002C14BF0B46FF231FE0260AE3
:1057B400B54204D1002914BF0B46FF2300E0FF23A8
:1057C400F72D07D1007D90B174B1F72E0CD101F003
:1057D400FD030CE0DF2D0AD1407D40B134B1DF2E52
:1057E40004D101F0FE0302E0FD2300E0FE2349F2B0
:1057F4002111535449F22F11535470BD6786002070
:10580400F8B5404C49F2271649F2261E49F22D12EA
:1058140014F806C049F22E1314F80E1049F21917A1
:10582400A55C49F2181251EA0C21E35CA25CE75D25
:1058340005D145F0400549F22D1165540BE001F105
:10584400FF3C023989B204F80EC04FEA112E04F865
:1058540006E00029EDD049F229162A49A65D46B38F
:1058640052EA072215D149F2281245F02005A15C1D
:1058740049F21812A15449F2191249F22911A654F5
:105884000022625449F22A11625449F22D12A5549D
:105894000FE002F1FF3E023A49F2181792B201F802
:1058A40007E049F219174FEA122E01F807E0002A1F
:1058B400D9D003F07F031D4223D0806803F09AFB04
:1058C400F8B1690616D549F22B120E4BA25C5206AA
:1058D4000BD549F224110C4A585C49F2261112885E
:1058E400585449F2271112125A5405F0BF0549F2CF
:1058F4002D13E554AB0642BF25F0200349F22D12C7
:10590400A354F8BD678600208B17012010B5044608
:10591400FFF776FF2046FFF705FF2046FFF724FF39
:105924002046FFF737FF23680133236010BD0000D2
:1059340010B50446FFF7C8FE00230449204623722D
:105944000123A373FFF7C4FE204610BD20E8100016
:1059540010B50446FFF7BBFE204610BD104B0022D5
:105964001A70FF225A70A0229A705F22DA70A7225E
:105974001A715C225A710B229A71D822DA71C822E8
:105984001A72F5225A72F2229A729F22DA72F32262
:105994001A739E225A7393229A73FA22DA73704707
:1059A400487B0020EF2910B510D8094A49F20F03AB
:1059B4000846D35C074A03F00703D45C03F0D4FB26
:1059C40000F5A07300F8014B9842FBD110BD00BF55
:1059D40067860020487B00202DE9F04F98468BB065
:1059E400654849F20303B8F1100F0191C35C04D177
:1059F400C3F34503162BC8BF521008FB02FB019BDF
:105A04005B44EF2B00F3B48049F2020349F2050131
:105A14000024C35C415C03F07F079B00890103F40D
:105A240000737A4301F4E051C7F128059BB2AD003D
:105A34001944A3F5D8439BB211441A44411883185E
:105A440002914E4A039349F20F03C35C03F007012A
:105A54001B09D35C515C8DF82430FB008DF82510B4
:105A6400059325EAE5730793444580F28180019B01
:105A740003EB0B00204403F077FB9DF8252003463D
:105A8400191A8D4202DD03F8012BF9E7079B002662
:105A9400DFF8F0E0C3183A4ADFF8E0C000931EF8DC
:105AA400093B009903F00F0332F813309DF82420CA
:105AB400234404920693BE424BDA029B40F6FE70E6
:105AC400069A9B5D03FB08239BB203F55F42FF32FA
:105AD40092B28242284A9CBF03F5C0439BB212F89B
:105AE4000390039B9B5D03F0070203F008031CF87B
:105AF40002A003F0FF028DF826A08BB94B1C09FA13
:105B040002F001320133000656BF9DF8100003F87D
:105B140002AC03F8020C082AF1D108310136CAE7B5
:105B24009EF800301B091CF803308DF82730002341
:105B340009FA03F20AA801EB030AC2F38112024430
:105B440012F8042CCA5402338AF80120082BEFD12E
:105B5400E3E7059B009A1A4410469DF82520034666
:105B6400191A8D4202DD03F8012BF9E701347BE7B2
:105B74000BB0BDE8F08F00BF67860020487B002093
:105B8400180F00206C160120002383737047807B5C
:105B940070470000F8B547230D4601680446B1FB81
:105BA400F3F203FB1213F3B9344849F2030649F242
:105BB4000403825DC15CD31143EA4101D3074BD492
:105BC400B1F59C7F3ADC0823013149F2030649F21E
:105BD4000407825D02F07F0242EAC11282554A1034
:105BE400C255A2891AB923681D442560F8BD678986
:105BF400B9421FD33A4491421CDAC81B591E90FB88
:105C0400F3F203FB1202D2B28A42ECD1227A394671
:105C14002046FFF7E1FE237A184A0133DBB22372F0
:105C2400925DC2F345029342DDDB0023237201231C
:105C3400A373D8E72046FFF7B5FED4E7C2F34502C5
:105C44000823D200A281A2890221C2F1F00292FBB0
:105C5400F1F200216281B8E7B1F59C7F01DC1023E9
:105C6400B2E7C2F345021201A281835DC3F3450387
:105C7400162B01DDDB00A3811023E4E767860020F7
:105C84000020704770477047704701207047704785
:105C9400006910B10368DB6818477047006910B1E8
:105CA40003681B6918477047006910B103685B6992
:105CB40018474FF0FF307047006910B103689B69C3
:105CC4001847704707B5006910B94FF0FF3009E075
:105CD400036801220DF107019B6898470028F4D05E
:105CE4009DF8070003B05DF804FB07B500698DF863
:105CF400071028B1036801220DF10701DB689847FA
:105D040003B05DF804FB0000314B012201461A7018
:105D1400304B93F86E00402820D13D291BD007DC7E
:105D2400242916D0262918D0222908BF232115E0BA
:105D3400E0290CD003DCA72908BF5E210EE0E72987
:105D440003D0E92908BF402108E07B2106E07D213A
:105D540004E05D2102E07E2100E07C211E4B1B78E3
:105D6400002B32D0D72920D00ADC0A2922D02029BE
:105D740025D009292BD1194A137823F0400322E0B6
:105D8400D92903D00CDBDA2905D07047134A1378DC
:105D940023F0080317E0114A137823F0040312E0F8
:105DA4000E4A137823F002030DE00C4A137823F013
:105DB400010308E0094A137823F0100303E0074ABB
:105DC400137823F020031370704703F037BB704738
:105DD4005B7B0020C04C0020853A002036860020E2
:105DE400314B012201461A70304B93F86E00402863
:105DF40020D13D291BD007DC242916D0262918D010
:105E0400222908BF232115E0E0290CD003DCA729AF
:105E140008BF5E210EE0E72903D0E92908BF40212D
:105E240008E07B2106E07D2104E05D2102E07E2183
:105E340000E07C211E4B1B78002B32D0D72920D0C8
:105E44000ADC0A2922D0202925D009292BD1194A74
:105E5400137843F0400322E0D92903D00CDBDA297C
:105E640005D07047134A137843F0080317E0114A2A
:105E7400137843F0040312E00E4A137843F002034C
:105E84000DE00C4A137843F0010308E0094A137843
:105E940043F0100303E0074A137843F02003137020
:105EA400704703F0BDBA70475B7B0020C04C0020F4
:105EB400853A00203686002013B50346006D0C4653
:105EC40028B10DF1060201A909F04BFD08E0586D57
:105ED40008B9002021E00DF1060201A907F0D2FB68
:105EE4000028F6D0BDF80430BDF806200BB9002A0E
:105EF400EFD002F01F0149002170C2F34511D21204
:105F04006170A27003F01F022271C3F343125B128B
:105F1400013A03F5EA636271A37102B010BD13B5CF
:105F24000346006D0C4628B10DF1060201A909F0E3
:105F340028FD08E0586D08B9002021E00DF10602A3
:105F440001A907F0AFFB0028F6D0BDF80430BDF876
:105F540006200BB9002AEFD002F01F01490021707E
:105F6400C2F34511D2126170A27003F01F022271B4
:105F7400C3F343125B12013A03F5EA636271A3713E
:105F840002B010BD38B5856D0446BDB94FF48070BC
:105F94000FF07CFA0146A06570B10570206D20B148
:105FA4004FF480720AF0C6FE08E0606D30B14FF421
:105FB400807208F0C1FE01E0014BA365A06D38BDFD
:105FC4003C860020D0B5046D6CB1012B08BF002ABB
:105FD40014D21146204609F0DCFA78B1204609F0C3
:105FE400DDFE58B1D0BD446D44B1204607F093FCAA
:105FF40020B12046BDE8D04008F058BA0020D0BDFA
:1060040010B5044600684368013B43603BB903682C
:10601400DB6A9847206810B103685B6898470023DF
:10602400236010BD054B10B503600446036913B12A
:106034001030FFF7E5FF204610BD00BFF406002036
:1060440010B50446FFF7EEFF142120460EF020FFA2
:10605400204610BD10B5084C04F13C00FFF7E2FFE8
:1060640004F12800FFF7DEFF04F11400FFF7DAFF64
:106074002046FFF7D7FF10BD8039002010B1036818
:106084009B681847704710B103681B6B184770472B
:1060940038B50B6804460D4613B15A6801325A608C
:1060A40023691BB104F11000FFF7AAFF2B682046F7
:1060B400236138BD036D13B1586900217047436DE6
:1060C40013B193E8030070471846F6E7036D13B164
:1060D400D86900217047436D13B118695969704735
:1060E4001846F6E770B5044608460D460FF037FB30
:1060F40023680246294620465B68BDE8704018477D
:1061040038B50546FFF7EEFF044628460EF024FD99
:10611400204438BD38B505460EF07DFD04462846BA
:106124000EF01AFD204438BD826B30B562B113788D
:1061340003F0080303F0FF00FBB1D3695069181A98
:106144001BD56FF0004018E0C06BB0B190F831304F
:106154001B0707D5D0E90445D0E90023A01A65EB55
:10616400030101E00020002100236FF000428B4274
:1061740008BF824201D2104630BD30BD08B5103090
:10618400FFF7D2FF08BD08B51830FFF7CDFF08BDF3
:10619400836B1BB11B7813F0700F05E0C06B30B13B
:1061A40090F8313013F0500F14BF012000207047D5
:1061B40008B51830FFF7ECFF08BD10B504461830D9
:1061C400FFF7E6FF60B1206D10B1002109F0E1F99D
:1061D400606D28B100220023BDE8104007F09BBB8E
:1061E40010BD836B23B9C06B003018BF012070470A
:1061F4000120704708B51830FFF7F3FF08BD10B54C
:106204000446806D18B10FF049F90023A3651834D2
:106214002046FFF7E6FF20B12046BDE810400AF013
:1062240072BF10BD064B10B503600446FFF7E7FFCD
:10623400044B04F11800A3600AF065FF204610BD6A
:10624400440700209405002010B50446FFF7EAFF38
:106254005C2120460EF01CFE204610BD0346806BD8
:1062640008B109F066B9D86B08B107F03FBB4FF02D
:10627400FF30704708B51030FFF7F0FF08BD08B5D0
:106284001830FFF7EBFF08BD0346806B08B109F037
:1062940095B8D86B08B107F067BA4FF0FF30704774
:1062A40007B501220DF107011030FFF7EDFF0128BA
:1062B4000CBF9DF807004FF0FF3003B05DF804FBFE
:1062C40008B51830FFF7E0FF08BDD0B4846B44B1C3
:1062D400012B08BF002A09D220461146D0BC09F080
:1062E40058B9C06B10B1D0BC07F015BB0020D0BCAE
:1062F400704738B50146049814461D4610B901F19B
:1063040018001DE001280AD10B6D01F118000BB132
:106314005A6912E04B6D7BB1D3E900230EE00228E9
:1063240011D10B6D01F118000BB1DA6905E04B6D69
:1063340013B1D3E9042301E00022002312196B41B5
:10634400FFF7C3FF38BD002038BD0346806B08B19A
:1063540009F04ABAD86B08B107F0B8BE704708B55F
:106364001030FFF7F2FF08BD08B51830FFF7EDFF56
:1063740008BDF0B5D0F838E09DF814409DF81850E9
:106384009DF81C609DF82070BEF1000F08D008979E
:106394007046079606950594BDE8F04009F0A7BC41
:1063A400C06B38B10897079606950594BDE8F04090
:1063B40007F0F2BFF0BD1FB58A79A2F150031B06A6
:1063C40011D40C7802F26C724B79183003944C7827
:1063D40001330294DBB28C78019409790091042191
:1063E400FFF7C7FF00E0002004B010BD1FB58A7995
:1063F400A2F150031B0611D40C7802F26C724B7993
:10640400183003944C7801330294DBB28C780194F5
:10641400097900910221FFF7ACFF00E0002004B0ED
:1064240010BD0346806B08B109F0ECBCD86B08B111
:1064340008F09CB8704708B51830FFF7F2FF08BDA4
:1064440008B51030FFF7EDFF08BD07B502AB012218
:10645400103003F8011D1946FFF7E3FF03B05DF8A0
:1064640004FB000000234FF47A7203710373054B9D
:10647400826003600B69036113B15A6801325A6088
:10648400704700BFF406002010B50446006940B10F
:106494000368DB6A984704F11000BDE81040FFF779
:1064A400AFBD10BD38B500250E4B04461031456014
:1064B400183040F8183C11F80C3C00F80C3C0A4B1E
:1064C40040F8103C51F8083C40F8083C11F8043CF2
:1064D40000F8043C0AF0E6FD044BA5652046A360E1
:1064E40038BD00BF44070020A0070020200700207B
:1064F4002DE9F04395B000251C4B4FF47A760DF14D
:1065040050082A461831044604A848F8503D8DF82E
:10651400045002968DF80C50129513950AF046FE1D
:1065240004A8DFF85090FFF75CFE80B15C200EF009
:10653400ADFC07464146FFF7B5FF7B682571013383
:10654400A6602573C4F8009027617B6005E0207184
:10655400A6602073C4F800902061054B04A8009342
:106564000AF0D1FD204615B0BDE8F08320070020D5
:1065740094050020F4060020012B70B5044694B065
:1065840005D0022B40F2022318BF002301E044F29D
:106594000223043168460AF099FE04A8FFF721FE9D
:1065A400114E90B15C200EF071FC69460546FFF770
:1065B40079FF00234FF47A722660237123736B688A
:1065C400A260013325616B6006E04FF47A73207199
:1065D4002073A36026602061044B04A800930AF092
:1065E40092FD204614B070BDF406002094050020EE
:1065F40070B5324B8AB00024314A00934FF47A7359
:10660400304905A8029323468DF804408DF80C40C8
:106614000494FFF7B1FF2C4E09A92B48FFF738FD6E
:1066240005A8FFF7FFFC316929B10B68002205A812
:10663400DB6B984703E0244905A8FFF713FF09A97A
:106644006846FFF725FD05A8FFF7ECFC0498FFF763
:106654001AFD48B3049820B103685B6B984705465C
:1066640000E01A4D29461A48FFF74AFD049868B11C
:1066740003689B6B984748B1164928460FF05DF8AC
:1066840068B1154928460FF058F840B1134B18204B
:106694001722294600FB043001340FF07DF86846C8
:1066A400FFF7F2FE3F2CBEDD0748FFF7EDFE68461C
:1066B400FFF7B8FC20460AB070BD00BFF406002006
:1066C400F68500200C600020D4390020BB3800205F
:1066D400703900206335002062350020CD7C002015
:1066E4000146024808B5FFF70BFD08BD70390020CC
:1066F4000146024808B5FFF70DFD08BD70390020BA
:1067040010B5064C01460023102220460EF048FA2C
:106714002046BDE810400EF01FBA00BF70390020BB
:10672400044B28B91A780AB1187001E001221A70D2
:1067340018787047447B0020014B1888704700BFCD
:10674400147B00202DE9F04F232085B00CF0D6FFF8
:1067540000284FF0240014BF002404240CF0CEFFC2
:1067640010B944F00804A4B226200CF0C7FF10B9F5
:1067740044F00104A4B225200CF0C0FF10B944F089
:106784000204A4B222200CF0B9FF10B944F01004A2
:10679400A4B2A04B1B780BB92402A4B29E4B1B7865
:1067A4005E0744BF44F00404A4B21D0744BF44F090
:1067B4000804A4B298074FF0290044BF44F002042F
:1067C400A4B2D90744BF44F00104A4B2DA0644BF1A
:1067D40044F01004A4B29F0644BF44F02004A4B2C1
:1067E4005E0644BF44F04004A4B20CF087FF10B925
:1067F40044F02004A4B228200CF080FF10B944F027
:106804004004A4B2854A4FF0FF33854D0027106839
:106814000DF1040B2B6001AB5168DFF808A203C330
:10682400906818601BF81760012130460CF078FF5F
:10683400002130460CF042FF13200CF05FFFB0FA49
:1068440080F812200CF05AFF00284FEA58184FF035
:10685400110014BF0023022348EA03080CF04EFF82
:1068640000284FF0050014BF0023042348EA03085E
:106874000CF044FF00284FF01D0014BF0023082330
:1068840048EA03080CF03AFF00284FF01E0014BF3A
:106894000023102348EA03080CF030FF00284FF0CF
:1068A400200014BF0023202348EA03090CF026FF2C
:1068B40000284FF00101304614BF4FF000084FF09C
:1068C40040080CF0FBFE304649EA080805210CF0AC
:1068D40027FF544E0AF807800137062FA2D1737997
:1068E40003F0080202F0FF011AB123F008030121AA
:1068F4007371727902F0100000F0FF0320B1494B6C
:1069040022F010025A7101230027D5F800E038461E
:10691400325C002A18BF864600F1010018BF012727
:106924000628F5D10FB1C5F800E0550644BF44F080
:106934000204A4B2900644BF44F00104A4B2D707F1
:10694400394F48BF44F00804BE4648BFA4B25507B7
:10695400364D44BF44F00404A4B2900738682A6852
:1069640048BF44F01004A0EB020248BFA4B2642A5A
:1069740007D92F4A286015780DB9012500E00025B4
:1069840015702C4D2C4F2D4A13B101232B703CE074
:106994002B70002938D097F800C02949BCF1000FAA
:1069A4001BD1D1F800E0BEF1000F03D1254B1860D4
:1069B400012325E00EF1010EBEF1010FC1F800E044
:1069C4001FD90B601F490968401AB0F5FA7F18D225
:1069D400117801B90123137013E00868012810D15C
:1069E400DEF80000DFF85CE0DEF800E0CEEB00004B
:1069F400B0F57A7F05D91078B0FA80F040091070AC
:106A04000B6001233B7000E039701378E3B1084B4D
:106A140019781EE0447B0020368600201C0D0020DF
:106A2400D0390020EF850020087B00201C7A00204C
:106A34005A7B0020EE820020ED820020587B00204B
:106A440034650020006500203B780BB9297801B13A
:106A540001210E200CF032FE3B78002B3AD0327923
:106A640044F04003102A9BB202D144F06004A3B264
:106A74002A78002A2DD0194B9C6BDA6C42F0010263
:106A8400DA649A6B22F002029A639A6B9207FCD43E
:106A940072B61248036D426D466D1049B242056DDF
:106AA400F8D1AB42F6D1D20B42EA434302338B65B1
:106AB4008A6D0A489342FBD144F002038363836BDB
:106AC400064A9B07FBD5936B43F04003936330BFA7
:106AD400FDE71C46204605B0BDE8F08F00400D40A0
:106AE40008B5FFF72FFE034A1388108020EA03033A
:106AF40098B208BD147B00201B4B1C4A19781278ED
:106B04001B4B30B549B10AB11A4A0FE01A4A127840
:106B14000AB11A4A0AE01A4A08E00AB1194A05E019
:106B2400154A12780AB1184A00E0184A1A60184A3D
:106B34001268002A15DB1102164801F47F41825CB9
:106B440015481143002230F8125054008D4205D1EB
:106B54000021124A1B681160185B30BD01322A2AD9
:106B6400F1D1002030BD00BF587B0020ED82002011
:106B74008079002030110020EE820020DC100020FB
:106B84008810002034100020E00F00208C0F00201B
:106B9400D0390020EF850020380F00203465002014
:106BA40008B5022123200CF0BBFD022124200CF0A7
:106BB400B7FD022126200CF0B3FD022125200CF0A4
:106BC400AFFD022122200CF0ABFD022129200CF0A4
:106BD400A7FD022128200CF0A3FD01210E200CF0BA
:106BE4009FFD01210E200CF069FD012110200CF005
:106BF40097FD012106200CF093FD012118200CF0D3
:106C04008FFD012119200CF08BFD01211C200CF0BB
:106C140087FD01211F200CF083FD012110200CF0C1
:106C24004DFD012106200CF049FD012118200CF036
:106C340045FD012119200CF041FD01211C200CF01F
