:0200000460009A
:100000004643464200000156000000000103030081
:1000100000000000000000000000000000000000E0
:1000200000000000000000000000000000000000D0
:1000300000000000000000000000000000000000C0
:1000400000000000010408000000000000000000A3
:100050000000800000000000000000000000000020
:100060000000000000000000000000000000000090
:100070000000000000000000000000000000000080
:10008000EB04180A063204260000000000000000FD
:10009000050404240000000000000000000000002F
:1000A0000000000000000000000000000000000050
:1000B0000604000000000000000000000000000036
:1000C0000000000000000000000000000000000030
:1000D00020041808000000000000000000000000DC
:1000E0000000000000000000000000000000000010
:1000F0000000000000000000000000000000000000
:10010000D8041808000000000000000000000000F3
:100110000204180804200000000000000000000095
:1001200000000000000000000000000000000000CF
:10013000600400000000000000000000000000005B
:1001400000000000000000000000000000000000AF
:10015000000000000000000000000000000000009F
:10016000000000000000000000000000000000008F
:10017000000000000000000000000000000000007F
:10018000000000000000000000000000000000006F
:10019000000000000000000000000000000000005F
:1001A000000000000000000000000000000000004F
:1001B000000000000000000000000000000000003F
:1001C000000100000010000001000000000000001D
:1001D000000001000000000000000000000000001E
:1001E000000000000000000000000000000000000F
:1001F00000000000000000000000000000000000FF
:10020000FFFFFFFFFFFFFFFFFFFFFFFFFFFFFFFFFE
:10021000FFFFFFFFFFFFFFFFFFFFFFFFFFFFFFFFEE
:10100000D100204327140060000000000000000011
:10101000201000600010006000E00160000000008F
:101020000000006000EC010000000000FFFFFFFF77
:10103000FFFFFFFFFFFFFFFFFFFFFFFFFFFFFFFFC0
:10104000FFFFFFFFFFFFFFFFFFFFFFFFFFFFFFFFB0
:10105000FFFFFFFFFFFFFFFFFFFFFFFFFFFFFFFFA0
:10106000FFFFFFFFFFFFFFFFFFFFFFFFFFFFFFFF90
:10140000884207D0904205D251F8043B40F8043B93
:101410008242F9D87047884204D2002340F8043B46
:101420008142FBD870472DE9F843644A644B5A6403
:10143000644A1A644FF42A029A63634B9D46BFF3D1
:101440004F8FBFF36F8F00F019FA604B082260498D
:101450006048C3F85421604AFFF7D2FF5F4A6049F1
:101460006048FFF7CDFF60496048FFF7D4FF4FF4B5
:1014700070025F4B5F491A6000235F4A42F82310F5
:1014800001335D4DB02BF9D15C4B80215C4A03F8F0
:10149000011B9342FBD14D4C4FF08037594A5A4BB8
:1014A000DFF89C91DFF89C811D60C4F80471C4F8DA
:1014B0000091C4F8F470C4F8F0801368534E43F4FC
:1014C000E02313604FF0FF32F36923F07F0343F012
:1014D0004003F361736A23F07F0343F040037362B8
:1014E000374B9A66DA661A675A6700F0CAF9484BB2
:1014F0006322AB63474BEB630025474B1A60032223
:101500005D6043F8042C454AC3F80C2D444A136827
:1015100043F080731360434A136843F00103136080
:10152000414B1A68414B1A6000F064FBC4F8047127
:101530003F48C4F80091C4F8F470C4F8F08000F09B
:10154000FBFCF36E43F44053F3663A4B1D60C3F863
:101550000851C3F81851C3F82851C3F8385103F59E
:10156000A0239A6BD20708D4334A5A6542F6156213
:101570001A659A6B42F001029A639A6842F001126E
:101580009A6000F0EDF900F08DFC00F0D9FC00F05D
:101590005FFB00F074F9294A1368284C132BFBD920
:1015A00000F0E4FB2368B3F5967FFBD300F068F905
:1015B00000F0BAFC00F0A4FC30BFFDE7BFAAAAAA65
:1015C00000C00A40070020000080062000800D4077
:1015D000E026006000000000807E0100C036002090
:1015E00064A501600000002040730020C036002088
:1015F00088ED00E0355301000034002000E400E0F5
:10160000A0E400E024ED00E008ED00E000C00F40A1
:101610001D6501002165010014E000E000002020AC
:10162000FCED00E0001000E0041000E0EC6600209B
:10163000002CA330004008400000C056F066002097
:101640001B1018200C0D1113F8B58F005A4B0C46C7
:1016500038461A6000F084FC584B054618601E4658
:1016600020B95749574800F077FCF8BD3A460021A9
:1016700000F056FC25F01F033D44BFF34F8F524A44
:10168000136020339D42FBD8BFF34F8FBFF36F8FA2
:101690004E4B32681A604E4A4E4B1C80D36F43F457
:1016A0004023D3674C4B4D4A1A674FF43162C3F85D
:1016B000802042F21072C3F890201A6F22F48052F8
:1016C0001A67196F444A0029FBDAD2F870310126F3
:1016D00043494FF4803523F40003424823F4004388
:1016E000C2F87031136F23F48033136702F51032A0
:1016F000D36923F4406343F40063D361936A23F412
:10170000FF7323F0010343F079039362A2F5A02253
:10171000536823F4002323F0070343F400235360AA
:101720000022314B1A66DE60196130495D619861B3
:10173000D961C3F8E020C3F88C6006F1E066C3F815
:101740009060C3F89450C3F898000320C3F89C102D
:101750002749C1F82801C1F82401C1F88001D3F854
:101760008810244841F01041C3F88810224999603C
:101770002249C1F8200122484FF08075056080F8A9
:1017800083237F201F4A10701F4AC1F85821D0219F
:101790001E4A0C4811704021A2F23E3211609A6834
:1017A0001B4942F480729A6000F0CEFB2146054846
:1017B00000F0CEFBF8BD00BFF06400200041002027
:1017C000AD2B0020342F002070EF00E04C6500208E
:1017D00000C00F400067002000800D401B2011005A
:1017E000010000471B1F010000403840001F1F1F61
:1017F00000801F40B501000001000090003400206F
:1018000004E100E038E400E00903000046E400E001
:10181000CE2B0020024B186808B100F075BB704752
:10182000004100200004084B012200F47020C3F89E
:10183000A010C3F8A400C3F8B0205A69D207FCD5A1
:101840000122014B5A61704700402A40094B0A4A65
:10185000C3F8A000C3F8A4200122C3F8B02059693E
:10186000044AC907FBD5D2F80001212380B2536195
:10187000704700BF00402A400400030070477047D3
:10188000704710B5214A0020214C102321492060C7
:101890001360214B19601121116020491960122138
:1018A00011601F4919601F4911601F4919601F49C4
:1018B00011601F4919601F4941F0150111601E494F
:1018C000196001F181510D3111601C4919601C49E9
:1018D00011601C4919601C4911601C4919601C49A0
:1018E00011601C4A1A6001232360BFF34F8FBFF3BE
:1018F0006F8F194B1860BFF34F8FBFF36F8F174A6D
:10190000136843F44033136010BD00BF9CED00E04A
:1019100094ED00E03F000010A0ED00E0250008037A
:10192000090010001300200021000207140000200D
:1019300025000813407300200900001027000B1336
:101940001700004033001013180000602F000B0731
:10195000190000702F000B1350EF00E014ED00E0B1
:1019600073B58F4B4FF400548E4A8F49C3F85C22F5
:10197000C3F8601248F20C71C3F86422A2F5304239
:10198000C3F8682202F5E042C3F86C22C3F8702263
:10199000C3F87422C3F878221822DA661A675A67E5
:1019A0009A67DA67C3F88020C3F88420C3F88820D8
:1019B0000122C3F82C27C3F83027C3F83427C3F813
:1019C0003827C3F83C27C3F85027784A936923F097
:1019D000604323F4407343F0204343F44073936126
:1019E000D2F8843043F00C03C2F88430704B1A688C
:1019F00042F002021A601A6811406E4A0A436E49A8
:101A00001A604FF0FF325A6002F57702886802F5DB
:101A10006052024042F000529A60DA6822F0780286
:101A2000DA60664A186A024042F0004242F0400220
:101A30001A62624A186A0240614842F0004242F06B
:101A400040025A625F4A9A62DA62D1F8B82022F004
:101A50003F0242F00102C3F8B820D1F8BC2040F2A6
:101A6000056122F03F0242F00102C3F8BC200022CF
:101A70001A611C661867C3F880105C665867C3F863
:101A800084101968504821F0020119604F4999618A
:101A90000221D9614E4941F8042B8142FBD11A68D9
:101AA00042F001021A60424A1468414B14F00104EA
:101AB000FAD1464A0226214620469A6140F2F56252
:101AC000DE61C3F8002240F26642C3F8102240F201
:101AD0009942C3F820223F4AC3F8302242F2014221
:101AE000C3F8342240F23542C3F840223A4AC3F8E0
:101AF00050223A4AC3F85422394AC3F8602242F2CB
:101B00000122C3F86422FFF78DFE21460120FFF772
:101B100089FE21463046FFF785FE2046FFF796FEF8
:101B200045F60D530546984231D121460420FFF772
:101B300079FE20464FF400012A4CFFF773FE4FF464
:101B400000010120FFF76EFE4FF400013046FFF761
:101B500069FE4FF40000FFF779FEA84207D14FF469
:101B600000010420FFF75EFE1023237001E008232C
:101B700023701D4900231D4A2078521A0093012327
:101B800002EB00521A4800F0C3F902B070BD1022F7
:101B90002146174802B0BDE8704000F0C1B900BF4F
:101BA00000801F40F9B00100F910010000C00F4093
:101BB00000402A401200FFFF00802A4000FFF07C16
:101BC00063000200FF000F8300432A40F05AF05ADE
:101BD00000422A409F041830EB06180A06320126FC
:101BE0003806180AEB710020000000700000007039
:101BF00000730020F0B5154B40204FF480314FF4B6
:101C000080544FF400554FF4404643F242071A699E
:101C100012F0020F03D09E6159619F61F7E712F441
:101C2000005F01D15D61F2E712F4805F01D15C6178
:101C3000EDE7002AEBDA12F4803F01D09961E6E784
:101C4000520601D45861E2E7F0BD00BF00800D40AC
:101C5000394AB3EE096A394813689FED395A23F0BF
:101C6000010310B513600323364C1361364BD3F8D0
:101C7000E030D9B2016007EE901AC3F30B201B0DC0
:101C8000B8EEE77A314907EE900A2060F8EEE76A8D
:101C900007EE903A37EE455A2D4BF8EEE77A37EEDD
:101CA000466A77EEE67A81ED006A25EE275AC3EDA3
:101CB000007A1368C5EE065A75EEA65AFCEEE55A90
:101CC00015EE901ADFED235A37EE657A43EA015399
:101CD000136027EE277A204B66EE277AD2F8101190
:101CE000C7EE065A35EEA67ABCEEC77A17EE100A92
:101CF00087EE867A03EA00430B43C2F81031D2F82C
:101D0000101177EE267AFCEEE77A17EE903AC3F3DD
:101D10000B030B43C2F81031136843F00203136046
:101D200000220E4B1A700E4A0E4BC3F840210122BE
:101D30000D4B1A6010BD00BF80810D40DC66002095
:101D40000000AA42D866002000441F40E066002040
:101D5000E46600200000B4420000FF0F40E400E011
:101D6000D95401000034002008E100E038B540F605
:101D700061722D4BC3F8202100F0DAF82B4A2C4970
:101D8000D2F8803043F00303C2F8803040F20442BE
:101D9000284BC3F86021284A1068014019B9D3F8CC
:101DA000A811890718D04FF000415163D3F84021A2
:101DB00042F00202C3F840211E4AD2F840319B078C
:101DC000FBD44FF400321D4B19201A604FF0004233
:101DD000194B9A6300F0A0F8174B00214FF0804296
:101DE000174D144C9A63284619600A234FF4207249
:101DF000C4F8A83100F094F84FF48103114A2B6025
:101E00004FF480032B6440F24313C4F85851C4F8D4
:101E100048310D4BC3F804220C4B4FF400321A60CA
:101E20000123C4F8403138BD00800D4000C00F4090
:101E3000001C1E0000002E4000900D408CE200E0CF
:101E40000000002095570100003400200CE100E064
:101E500008B50E4B1B6E9B0701D4FBBE16E072B695
:101E600000220B4BC3F84021A3F50D13094A1A6455
:101E7000A3F1FF53A3F52B239D46BFF34F8F064BD2
:101E800006480360064B1B689B68984700441F4048
:101E900000002E4003002000000012EB00802020F4
:101EA0001C0020000F4BDA6E42F44032DA66DA6E24
:101EB00042F44072DA66A3F5603340F237625A6446
:101EC000A0229A649A6C1206FCD4074B40F2376247
:101ED0005A64A0229A649A6C12F08002FBD1034BE0
:101EE0001A70704700C00F4000800C40E271002063
:101EF000F8B500BFF8BC08BC9E4670470000000063
:101F00005FF800F0056A01005FF800F0257001003D
:101F10005FF800F0176F01005FF800F01552010044
:101F20005FF800F0755101005FF800F0C96F010023
:101F30005FF800F0F15C01005FF800F01D6B01003C
:101F40005FF800F0596E01005FF800F04B9E000052
:101F50005FF800F07B9E00005FF800F0679E0000D5
:101F60005FF800F015700100A903000019B000002F
:0C1F700001B3000029BC000049F1000092
:101F7C00FF7FFF7FFF7FFF7FFF7FFF7FFF7FFF7F65
:101F8C00FF7FFF7FFF7FFF7FFF7FFF7FFF7FFF7F55
:101F9C00FF7FFF7FFF7FFF7FFF7FFF7FFF7FFF7F45
:101FAC00FF7FFF7FFF7FFF7FFF7FFF7FFF7FFF7F35
:101FBC00018001800180018001800180018001800D
:101FCC0001800180018001800180018001800180FD
:101FDC0001800180018001800180018001800180ED
:101FEC0001800180018001800180018001800180DD
:101FFC0001800180018001800180018001800180CD
:10200C0001800180018001800180018001800180BC
:10201C0001800180018001800180018001800180AC
:10202C00018001800180018001800180FF7F01809F
:10203C0001800180FF7F018001800180FF7F018092
:10204C0001800180FF7F018001800180FF7F018082
:10205C0001800180FF7F018001800180FF7F018072
:10206C0001800180FF7F01800180FF7FFF7F018065
:10207C0001800180FF7F01800180FF7FFF7F018055
:10208C0001800180FF7F01800180FF7FFF7F018045
:10209C0001800180FF7F01800180FF7FFF7F018035
:1020AC0001800180FF7F0180FF7FFF7FFF7F018028
:1020BC00FF7F0180FF7F01800180FF7FFF7F018018
:1020CC0001800180FF7F0180FF7FFF7FFF7F018008
:1020DC00FF7F0180FF7F01800180FF7FFF7F0180F8
:1020EC0001800180FF7FFF7FFF7FFF7FFF7F0180EB
:1020FC00FF7F0180FF7F01800180FF7FFF7F0180D8
:10210C0001800180FF7FFF7FFF7FFF7FFF7F0180CA
:10211C00FF7F0180FF7F01800180FF7FFF7F0180B7
:10212C00018001800180FF7FFF7FFF7F01800180A4
:10213C00FF7F0180018001800180FF7F0180018091
:10214C0001800180FF7FFF7FFF7FFF7FFF7F01808A
:10215C00FF7F0180FF7F01800180FF7FFF7F018077
:10216C000180FF7F0180FF7FFF7FFF7F0180018067
:10217C00FF7FFF7F018001800180FF7F0180018054
:10218C0001800180FF7FFF7FFF7FFF7FFF7F01804A
:10219C00FF7F0180FF7F01800180FF7FFF7F018037
:1021AC00FF7FFF7F0180FF7F0180FF7F0180018027
:1021BC00FF7FFF7F018001800180FF7F0180018014
:1021CC0001800180FF7FFF7FFF7FFF7FFF7F01800A
:1021DC00FF7F0180FF7F01800180FF7FFF7FFF7FFA
:1021EC00FF7FFF7F0180FF7F0180FF7F01800180E7
:1021FC0000000000000000000000000000000000D3
:10220C0000000000000000000000000000000000C2
:10221C0000000000000000000000000000000000B2
:10222C0000000000000000000000000000000000A2
:10223C000000000000000000000000000000000092
:10224C000000000000000000000000000000000082
:10225C000000000000000000000000000000000072
:10226C000000000000000000000000000000000062
:10227C000000000000000000000000000000000052
:10228C000000000000000000000000000000000042
:10229C000000000000000000000000000000000032
:1022AC000000000000000000000000000000000022
:1022BC000000000000000000000000000000000012
:1022CC000000000000000000000000000000000002
:1022DC0000000000000000000000000000000000F2
:1022EC0000000000000000000000000000000000E2
:1022FC000000000000000000183C3C1818001800FA
:10230C00363600000000000036367F367F36360049
:10231C000C3E031E301F0C00006333180C66630068
:10232C001C361C6E3B336E000606030000000000DA
:10233C00180C0606060C1800060C1818180C0600CB
:10234C0000663CFF3C660000000C0C3F0C0C0000CF
:10235C0000000000000C0C060000003F0000000014
:10236C0000000000000C0C006030180C060301008B
:10237C003E63737B6F673E000C0E0C0C0C0C3F0025
:10238C001E33301C06333F001E33301C30331E000E
:10239C00383C36337F3078003F031F3030331E001B
:1023AC001C06031F33331E003F3330180C0C0C007B
:1023BC001E33331E33331E001E33333E30180E00D3
:1023CC00000C0C00000C0C00000C0C00000C0C069B
:1023DC00180C0603060C180000003F00003F00001C
:1023EC00060C1830180C06001E3330180C000C00AC
:1023FC003E637B7B7B031E000C1E33333F33330069
:10240C003F66663E66663F003C66030303663C001F
:10241C001F36666666361F007F46161E16467F0000
:10242C007F46161E16060F003C66030373667C007F
:10243C003333333F333333001E0C0C0C0C0C1E00A7
:10244C007830303033331E006766361E36666700D0
:10245C000F06060646667F0063777F7F6B6363001B
:10246C0063676F7B736363001C36636363361C00A6
:10247C003F66663E06060F001E3333333B1E3800A4
:10248C003F66663E366667001E33070E38331E0005
:10249C003F2D0C0C0C0C1E003333333333333F0005
:1024AC0033333333331E0C006363636B7F7763000A
:1024BC006363361C1C3663003333331E0C0C1E0056
:1024CC007F6331184C667F001E06060606061E004A
:1024DC0003060C18306040001E18181818181E003F
:1024EC00081C36630000000000000000000000FF24
:1024FC000C0C18000000000000001E303E336E0073
:10250C000706063E66663B0000001E3303331E00C2
:10251C003830303E33336E0000001E333F031E0054
:10252C001C36060F06060F0000006E33333E301FBC
:10253C000706366E666667000C000E0C0C0C1E004F
:10254C00300030303033331E070666361E366700D7
:10255C000E0C0C0C0C0C1E000000337F7F6B630008
:10256C0000001F333333330000001E3333331E009F
:10257C0000003B66663E060F00006E33333E30783B
:10258C0000003B6E66060F0000003E031E301F006D
:10259C00080C3E0C0C2C18000000333333336E0047
:1025AC0000003333331E0C000000636B7F7F36005A
:1025BC00000063361C36630000003333333E301F9B
:1025CC0000003F190C263F00380C0C070C0C38008F
:1025DC001818180018181800070C0C380C0C0700E9
:1025EC006E3B000000000000000000000000000036
:1025FC00A2A0D0EBE5B9334487C068B6B72699C71B
:10260C001603550053004200200053006500720071
:10261C00690061006C0018035400650065006E00D1
:10262C00730079006400750069006E006F0004038C
:10263C00090409024B00020100C032080B0002021F
:10264C00020100090400000102020100052400102F
:10265C0001052401010104240206052406000107DA
:10266C0005820310001009040100020A0000000793
:10267C000503024000000705840240000009024BDC
:10268C0000020100C032080B000202020100090422
:10269C0000000102020100052400100105240101C3
:1026AC00010424020605240600010705820310001C
:1026BC000509040100020A000000070503020002DC
:1026CC0000070584020002000A060002EF02014026
:0426DC0001000100F8
:1026E00000000000000000000000000000000000EA
:1026F00000000000000000000000000000000000DA
:10270000614B1B782DE9F04F03F0FF0299B00B925B
:10271000002B00F0B6805D4B05AD4FF0000E4FEA88
:102720006109B3F90820D3F804A0F4460C92B3F978
:102730001420D3F810B00D92B3F92020544C0E920F
:10274000B3F92C200F92B3F938201092B3F944203A
:1027500011921A680592DA6806929A6907925A6A83
:1027600008921A6B0992DA6B0A92DA6902929A6AF3
:1027700003925A6B0492D3F840800A99099A089BF5
:102780000190E0CD0198CC4500F1040001900AEBE6
:10279000050016900BEB0600159002983844149033
:1027A00003981844139004981044129008EB010009
:1027B000179021DB29EAE971069A079C01FB0B209F
:1027C000029A059B01FB0245039A089C01FB0A3310
:1027D00001FB0246049A099C01FB02440A9A01FB90
:1027E0000821BEF1000F4CD0284A1360D0609561DB
:1027F00056621463D16344E0C5F305250C98C6F313
:102800000526C7F3052734F91550C3F3072334F918
:102810001660C2F3072245430D9834F9177004EB94
:10282000430346430E98B3F9803004EB4202F6129C
:1028300047430F98C1F3072106EBE525B2F9802045
:10284000434304EB410105EBE7250CF1010CB1F921
:10285000801005EBE325109B159E5A43119BDDF874
:102860002CE0594305EBE225019B12AA05EBE1257B
:1028700017992DB223F8045C23F8025C169D8CCACC
:1028800080E719B0BDE8F08FED710020746500207D
:102890007C1F00600E480F4B02881B6833F8121033
:1028A00001320D4B19800D4B19884B00013B134031
:1028B0009BB2038013B90A4A137004E0994205D110
:1028C0000122074B1A704022064B1A60704700BF66
:1028D000026700204C65002022403840006700203D
:1028E0007E30002008E200E0324A70B5B2F86E3067
:1028F000C3F30E03A2F86E30B2F8743023F0300345
:102900001B041B0CA2F8743072B62B4C2B4B2168A5
:102910002B4D29B11878012115F002F8002303E0AE
:10292000187814F0FDFF01232B6023680133236026
:1029300040F20D232168B1FBF3F203FB1213214A8D
:10294000236023681268283BD3401F4A12689342D1
:102950002CD21E4A1E4916681E4A1F4D14680A686A
:102960006343F01810601D4A126812F0800F15BF03
:1029700002F00F0202F00C02D2189B1814BFB31819
:102980009B192A681360164A0B79D3762B79D37674
:1029900020F01F022318BFF34F8F12490A60203224
:1029A0009342FBD8BFF34F8FBFF36F8F62B6BFF375
:1029B0004F8F70BD00401E40EC640020843000202A
:1029C000C8650020FC640020F06500202042002043
:1029D00054660020F46500204C6600200466002048
:1029E00000800E4070EF00E0194B1A78194B70B55B
:1029F000194E1A4D1A4C8AB131881B6828689847BD
:102A000031882A68490822F01F0302EB8102BFF3D4
:102A10004F8F236020339A42FBD814E031882A6814
:102A200048081B6802EB8000984733882A685B08D7
:102A30009900531823F01F020B44BFF34F8F2260FD
:102A400020329342FBD8BFF34F8FBFF36F8F70BD1F
:102A50007E300020F064002000670020004100204C
:102A600070EF00E010B5054C237833B9044B13B177
:102A70000448AFF300800123237010BDF05F0020F5
:102A800000000000847E0100084B10B51BB108490E
:102A90000848AFF300800848036803B910BD074B2E
:102AA000002BFBD0BDE81040184700BF000000001D
:102AB000F45F0020847E0100C0360020000000008A
:102AC000624B2DE9F74F5B78002613F0020F604B45
:102AD00032461B6814BF102708271C1F03F17C0116
:102AE000C7F5807514F8043F7600D02B10D0AB42A8
:102AF000C8BFA3F58073834208DA3B44984205DCE3
:102B0000013246F00106D2B2042A01D0A142E9D135
:102B1000504B4FF40072043CC7F100091B68C7F525
:102B2000807E4FF4803A0093A7F1080342FA03F83D
:102B3000431E0193002E00F08580F5077FD5E179D3
:102B4000637911F0800F18BF203B4B4577DD11F002
:102B50000F02104673D025793F49754594F806B0A9
:102B6000D1F800C04FEACB0BC8BFA5F5807501991D
:102B7000082F009A18BF0BF4FC6B4D1B002B374934
:102B80005D441A44095C0CEB050B04DA5B424AFA1B
:102B900003F3013B10E07345C9BF6FF480704FF63B
:102BA000FF731B18DB19C1BF08FA03F303F1FF33EE
:102BB00083F47F4383F0FF031CF80550082F4FEA8E
:102BC000052514BF9BF810C04FF0000C4CEA05051A
:102BD0001D4015F47F4F17D0280448BF11706B04B7
:102BE00048BF5170A80448BF9170EB0448BFD17032
:102BF000280548BF11716B0548BF5171A80548BF32
:102C00009171EB0548BFD17115F0FF0F17D0280661
:102C100048BF11726B0648BF5172A80648BF917237
:102C2000EB0648BFD172280748BF11736B0748BF36
:102C30005173A80748BF9173EB0748BFD17376085B
:102C4000043C77E703B0BDE8F08F00BFE4720020DA
:102C500098720020E4640020EC72002033670020AA
:102C6000244BF0B51C68244B244E1B780BB1F25C4E
:102C700000E01A463270224A5278520608D41F49A0
:102C800020464FF48072C95CBDE8F04014F0E2BD0C
:102C90001C4BC208C0F3820704F58475196804F15F
:102CA0000803DFF864E001EB4212013ADEF800109D
:102CB000083312F8014F394411F834100C0901F0AF
:102CC0000F01345D715C03F80D4C03F80E4C03F8F2
:102CD0000F4C03F8104C03F8091C03F80A1C03F806
:102CE0000B1C03F80C1C9D42E0D1BDE8F040FFF73F
:102CF000E7BE00BFE4640020B1720020336700200B
:102D0000E4720020AC720020F87200203D4B2DE9E7
:102D1000F0471E683C4B3D4F1B780BB1FA5C00E05E
:102D20001A463A703A4A5278520608D43749304621
:102D30004FF48072C95CBDE8F04714F08BBD354B91
:102D4000C5084FEA401E00F00709D3F80080324B57
:102D50000EF4C05ED3F800C0304B1A6806F10803C9
:102D600006F5847602EB4515013D15F8012F083371
:102D700009EBC20272441CF8021018F802400A095A
:102D800001F00F0114F0800FBA5C795C14BF924619
:102D90008A4614F0400F03F810AC14BF92468A46DE
:102DA00014F0200F03F80FAC14BF92468A4614F0BB
:102DB000100F03F80EAC14BF92468A4614F0080FA9
:102DC00003F80DAC14BF92468A4614F0040F03F8C2
:102DD0000CAC14BF92468A4614F0020F03F80BACF9
:102DE00014BF92468A4614F0010F08BF0A4603F842
:102DF0000AAC03F8092C9E42B7D1BDE8F047FFF7B3
:102E00005FBE00BFE4640020B17200203367002081
:102E1000E4720020F87200209C720020AC72002046
:102E20003B4B2DE9F0431E683A4B3B4F1B780BB1EF
:102E3000FA5C00E01A463A70384A5278520608D4D2
:102E4000354930464FF48072C95CBDE8F04314F058
:102E500001BD334BC50800F0070CDFF8C8801A68C5
:102E600006F10803DFF8C0E006F5847602EB4515AD
:102E7000013D15F8014F0833D8F80020E1080CEBAC
:102E8000C404515CDEF80020145D0A0901F00F0152
:102E9000BA5C14F0800F795C14BF9146894614F037
:102EA000400F03F8109C14BF9146894614F0200F80
:102EB00003F80F9C14BF9146894614F0100F03F8D5
:102EC0000E9C14BF9146894614F0080F03F80D9C20
:102ED00014BF9146894614F0040F03F80C9C14BFEC
:102EE0009146894614F0020F03F80B9C14BF9146DB
:102EF000894614F0010F08BF0A4603F80A9C03F83C
:102F0000092C9E42B5D1BDE8F043FFF7D9BD00BF03
:102F1000E4640020B172002033670020E4720020D6
:102F2000AC7200209C720020F87200202F4B304AB7
:102F3000F0B51C682F4B1B780BB1D15C00E0194633
:102F400011702D49497811F0400FD15C06D120460F
:102F50004FF48072BDE8F04014F07CBC274BC608EB
:102F6000234A28271B7800F00700DFF898E0D25C9E
:102F7000234B1D68A31D07FB065504F1F606013D12
:102F8000DEF80040063315F8017F044414F837409A
:102F900014F0800F14BF17460F4614F0400F03F8CB
:102FA0000C7C14BF17460F4614F0200F03F80B7C5F
:102FB00014BF17460F4614F0100F03F80A7C14BF15
:102FC00017460F4614F0080F03F8097C14BF174684
:102FD0000F4614F0040F03F8087C14BF14460C4687
:102FE00003F8074C9E42CBD1F0BD00BFE464002043
:102FF00033670020B1720020E4720020607200206C
:10300000AC720020F872002013460A4619460AF0F6
:10301000DDBC0000A1F1C0031F2B044B96BF01F0E3
:103020001F0101F07F017F31196070477C6600202D
:103030000022014B1A6070477C66002008B509F039
:10304000BFFD034B186009F09BFF024B186008BDE1
:10305000786600207466002070B5144D0024144E6C
:10306000A4552346013415F8010C2978033515F8C9
:10307000022C0AF009FC102CF2D10E4C236823B963
:103080004FF4804009F060FD20600B4C236823B9A9
:103090004FF4404009F058FD2060084C236823B9E4
:1030A0004FF4807009F050FD206070BD4B3000205F
:1030B00033670020E06400200C600020E4640020FE
:1030C000F8B5454B07461A780AB901221A704349E8
:1030D000434B444C1A680B68434D444E286893FB9D
:1030E000F2F3FF2BDCBF13020B60FF21404BDA61D0
:1030F000227802F0040283F82B20002283F82A2091
:103100004FF4404214F0A6FB4FF48042FF21306898
:1031100014F0A0FB237813B1364809F005FD4FF4F5
:103120000052296834480AF0A9F9237813B13348CA
:1031300009F0FAFC237813B1384609F0F5FC296848
:103140004FF40042384601F580410AF097F92378A0
:1031500013B12B4809F0E8FC237813B1294809F092
:10316000E3FC0AF015FC2849284A01250B68284889
:1031700013604B68274953609F22274B1D70274BD4
:103180001A700023264A1370264A1370264A1370B9
:10319000264A137032680A6025490A6025490A6088
:1031A00025490A6025490A60254A264913704FF6C9
:1031B000FF72254B5A801A8000F0BCFB2946144848
:1031C00000F0CAFB0A4806F037FE237813B11F4807
:1031D00009F0AAFC0120F8BD7A300020442F00201D
:1031E000C02E00207B3000200C600020E064002016
:1031F00064720020A8280020CF280020E1280020A9
:10320000F0280020FE28002094270020E4720020EF
:10321000B4720020F8720020F4720020A072002026
:10322000B172002060720020B0720020A6720020EF
:103230009C720020AC720020EC720020987200207A
:10324000F072002029090000A27200202529002028
:1032500010B5044C204606F051FE2046BDE8104053
:1032600006F04CBE64720020234B24491A6824489F
:103270000968C2F30E030068002818BF014623B195
:10328000013B63F00F039BB201E04FF6FF7330394F
:10329000492906D81B48415619B14B1E63F00F034C
:1032A0009BB2D00644BF23F480439BB2910644BF37
:1032B00023F040039BB2500642BF4FF6F071194015
:1032C00041F00203110744BF23F480639BB250070F
:1032D00044BF23F480739BB2D10744BF23F400633F
:1032E0009BB29207084A44BF23F400739BB2138039
:1032F0004FF6FF7353807047786600207466002095
:103300007C6600203A210020A2720020A0F5C04374
:10331000B3F5005F1CD20F4BC0F309001B681844C3
:1033200000F57053197000F56053197000F5505393
:10333000197000F54053197000F53053197000F5FD
:103340002053197000F5105300F5005019700170EA
:10335000704700BF0C600020054BB0F5C04F1B68E4
:1033600023BFC018A0F580400078185C704700BFEC
:103370000C6000207047000000F0E003A02B19D083
:10338000E02B2ED1184BC0F340001A78174B1AB11E
:1033900033F81000000A08E033F81030144903F045
:1033A0000F0203F0F003885C184300F04F0040F078
:1033B00030007047C30709D50E4A137898B203F05E
:1033C0005F03137001220C4B1A7008E00B4A0C4982
:1033D00013880968C85C0133C3F30D031380C0B2BE
:1033E0007047FF20704700BFF0720020A2720020DB
:1033F00084260020A0720020F4720020F2720020C7
:10340000E064002000F0E0020B46A02AF0B412D0E5
:1034100004D8802A40F0E280002209E0C02A06D0C9
:10342000E02A40F0DB806E48F0BC00F0BDBA01221B
:103430006C4B1A70D2E010F0010F6B4A00F0C280A2
:10344000117821B16948013903701170C6E001217A
:10345000117003F0C002402A00F0AC80802A07D02F
:10346000002A40F0BB806149614A09781170A7E0E9
:1034700003F007015D4B481E1A785E4B062805D8FD
:10348000DFE800F00A4E5C6A78868F005C78C2F351
:10349000420004F0180404E01878C0F3420402F07B
:1034A00018002043544C012808D002DC50B90120F8
:1034B0000BE0082804D0102806D003E0022004E026
:1034C000032002E0207800E00020247884426FD0BE
:1034D0004A4D9F7805EBC005494C2E7924683E4043
:1034E000484F04EB86263E601F79AE793E40464F3A
:1034F00004EBC6263E60DF786E793E40434F04EB16
:1035000086163E605E79ED793540414E04EBC51577
:1035100035609D7904EBC5243E4D2C60364C46E069
:1035200035480478354800EBC400007902EA00040D
:103530003348006800EB8420324C30E02E48047899
:103540002E4800EBC400407902EA00042C480068D1
:1035500000EB84102D4C22E027480478274800EB2C
:10356000C400807902EA00042548006800EBC4200A
:10357000254C14E020480478204800EBC400C079B2
:1035800002EA00041E48006800EBC410204C06E06C
:103590001B4802F03F021F4C006800EBC220206075
:1035A00006E010091C4C207002F00F001B4C20702C
:1035B0005A5413E00D4903F03F03194A097811707A
:1035C00053700BE012784AB1154A0D481188006813
:1035D000435413880133C3F30D031380F0BC7047C9
:1035E000B4720020F0720020F472002032670020D4
:1035F000F2720020E4720020B0720020C42E00207D
:10360000E0640020AC720020F87200209C72002060
:1036100098720020EC72002060720020B1720020CD
:10362000A87200202DE9F84FB04F0C46C121064684
:103630003B78AF4D0133DFF8F88293FBF1F201FBE9
:103640001233D8B2C02B387013D02B786BB9A94B7A
:103650001A78A94B53F832309847A8483B78C022D3
:103660004FF4807100680AF037F9D8F80030F36140
:1036700038E1A34B6FF0BF01D8F800201B6801FBB5
:103680000233F361FFF7F0FD9E4A1378013303F034
:103690000703032B137017D99B4B1B7843B19B4B2C
:1036A0001A8842F040021A805A8842F040025A803A
:1036B000974B1B7843B1954B1A8842F480421A808D
:1036C0005A8842F480425A800221924800F044F91C
:1036D0002B78874A13B1013B137005E08E4B1B78A2
:1036E000013B13700AF0DEF88C4A137803F05F0395
:1036F00063F07F0313707F4B1B78002B00F0E38097
:103700009F2313700022864B1B6813F822105FFA68
:1037100082FED02903D00132202AF6D19646814A72
:1037200008338149527802F0020202F0FF0C12B90C
:10373000D1F800907AE0D1F800804FF0000C5FFAE9
:103740008CF6B64540F2BF8013F8052C15075DD006
:1037500001361F46F6B2B64558D017F8012C1007AF
:1037600050D017F8041C13F8082C521AD2B2A2F148
:103770001001C9B2E02945D913F8071C17F8035CFA
:103780004D1BEDB2A5F11001C9B2E0293AD913F8E9
:10379000061C0F2A17F8020C4FEAC10188BF5242DB
:1037A0004FEAC00001F4FC6188BFD2B200F4FC60B3
:1037B000414440448CBF89188018F02D04D98946B3
:1037C0006D420146EDB24846C2F10F02D2B201325B
:1037D0000A4491F800A091F8109090F800B009EB1D
:1037E0000A2990F810A01FFA89F90AEB0B2A49FA66
:1037F00005F91FFA8AFA19EA0A0F61D1013101307D
:103800009142E6D101360437F6B2A4E70CF1010C7F
:10381000043394E713F8052C110704D001301F4638
:10382000C0B2864507D10CF1010C04335FFA8CF06D
:103830008645EFD847E017F8012C12073CD017F85F
:10384000041C13F8082C521AD2B2A2F10801C9B212
:10385000F02931D917F8035C13F8071C491BC9B2CA
:10386000A1F10805EDB2F02D26D9072A13F8066C50
:1038700017F8025C88BF524209EBC60609EBC50582
:103880008ABFD2B2AD18B618F82904D9B046494259
:103890002E46C9B24546C2F1070205F1FF38013E86
:1038A00055FA82F216F8015F18F801AF0D4115EADA
:1038B0000A0F05D14245F5D101300437C0B2B0E757
:1038C000BF22164B1A7001232360184B1B784BB193
:1038D000144B4FF6FF705B7813F0200F18BF662073
:1038E000BDE8F88F4FF6FF70BDE8F88FA672002094
:1038F00031670020B0720020C42E0020E464002054
:10390000442F00202E6700202F670020A272002085
:1039100030670020B47200207A300020A0720020AE
:1039200098720020E4720020EC720020F4720020F3
:10393000C02E00200023C162436043618360836125
:10394000C360C3610361036280F82A3080F82930C4
:1039500080F8283043627047436A2DE9F0410446FD
:1039600088463BB90023B8F1020F84F82A3017D1FA
:10397000BDE8F08190F82A30002BF3D0061D012716
:10398000002594F82A303B4204D0E36A2846326985
:103990003168984701357F000436042DF1D1E1E705
:1039A000C4F82480BDE8F08101F0F003B02B2DE9CC
:1039B000F04104462DD005D8902B2AD0A02B24D03E
:1039C000802B03E0D02B24D002D8C02B30D11CE0B8
:1039D000E02B02D0F02B1CD02AE001F0030190F87C
:1039E00028308B426FD0032956D8DFE801F002055A
:1039F000080B44F6206306E042F2107303E041F244
:103A0000883300E0C368236146E084F82910BDE8EC
:103A1000F081A1F19003C9435B1101F00F01DDB208
:103A200004EB830309015A6991424CD0596134E097
:103A300094F8296016F0C00F45D0A6F1800501F07A
:103A40003F0106F00F0643F69823C5F3471506EB32
:103A500001114FF4003604EB8507013196FBF1F6B6
:103A60009E42C8BF00267B689E422CD0022D11D1F9
:103A700094F8280003280DD1636A266133B194F8C5
:103A80002A3043F0080384F82A3003E0E36A314621
:103A9000226A98477E6000E00325636A4BB10123E8
:103AA00003FA05F594F82A301D4384F82A50BDE83E
:103AB000F08104EB8503E46A28465A695968234675
:103AC000BDE8F0411847BDE8F081000010B504469C
:103AD0008089431CA381FFF73FFC034B1A5C236AD8
:103AE0009B1A236202E000BF84220020FF2801F21B
:103AF0000083DFE810F000010B01160121012C0109
:103B00003701420153015E016A01760182018E0193
:103B10009A01A601B801C401DC01F4010C022402DF
:103B20003C0254026F0287029802A902BA02CB0239
:103B3000DC02ED02030314031E03280332033C03DB
:103B4000460350035F0369037603830390039D03D9
:103B5000AA03B703CA03D703E503F103FD0309046E
:103B60001504210432043E04480452045C04660433
:103B700070047A048A049404A204B004BE04CC0441
:103B8000DA04E804F80406051405220530053E05AC
:103B90004F055D056D057B0589059705A505B305F1
:103BA000C105CF05DF05ED05FB050906170625064E
:103BB0003306410651065F066D067B0689069706A9
:103BC000A506B306C306D106DF06ED06FB06090708
:103BD000170725073507430751075F076D077B0761
:103BE00089079707A707B507C307D107DF07ED07C1
:103BF000FB070908190827082C08310836083B0874
:103C0000400845084F08540859085E0863086808CA
:103C10006D0872087C08810886088B089008950852
:103C20009A089F08A908AE08B308B808BD08C208DA
:103C3000C708CC08D608DB08E008E508EA08EF0862
:103C4000F408F908030908090D09120917091C09E4
:103C500021092609300935093A093F09440949096A
:103C60004E0953095D09620967096C0971097609F2
:103C70007B0980098A098F09940999099E09A3097A
:103C8000A809AD09B809BD09C209C709CC09D109FC
:103C9000D609DB09E609EB09F009F509FA09FF097C
:103CA000040A090A140A190A1E0A230A280A2D0AF4
:103CB000320A370A420A470A4C0A510A560A5B0A74
:103CC000600A650A700A750A7A0A7F0A840A890AF4
:103CD0008E0A930A9E0AA30AA80AAD0AB20AB70A74
:103CE000BC0AC10ACC0AD10AD60ADB0AE00AE50AF4
:103CF000EA0AEF0AFA0AE378B549DA0942EA430325
:103D0000DBB2E370CB5C1343237010BDA378B049E2
:103D1000DA0942EA4303DBB2A370CB5C134323709E
:103D200010BD6379AA49DA0942EA4303DBB2637141
:103D3000CB5C1343237010BD2379A549DA0942EA0D
:103D40004303DBB22371CB5C1343237010BDE379D3
:103D50009F49DA0942EA4303DBB2E371CB5C1343C8
:103D6000237010BDA3799A49DA0942EA4303DBB212
:103D7000A371CB5C1343237010BDE088FFF7ECFA0E
:103D8000C0F3C712924B42EA4001E088C9B25B5CC3
:103D900013432370BDE81040FFF7B8BA63788C492D
:103DA000DA0942EA4303DBB26370CB5C134323704E
:103DB00010BDE17801F00102D30143EA51038449C7
:103DC000E370CB5C1343237010BDA17801F00102B6
:103DD000D30143EA51037E49A370CB5C13432370A4
:103DE00010BD617901F00102D30143EA5103784922
:103DF0006371CB5C1343237010BD217901F0010284
:103E0000D30143EA510372492371CB5C13432370FE
:103E100010BDE17901F00102D30143EA51036C497D
:103E2000E371CB5C1343237010BDA17901F0010253
:103E3000D30143EA51036649A371CB5C134323705A
:103E400010BDE088FFF788FA00F00102C0F34701D7
:103E50005F4BE08841EAC2115B5C13432370BDE80D
:103E60001040FFF753BA617801F00102D30143EA31
:103E7000510357496370CB5C1343237010BDE27844
:103E8000237812F0800F52494FEA420203F00103F7
:103E900007D01A43D2B28B5CE27043F00103237067
:103EA00010BD1343DBB2E370CB5C237010BDA2786E
:103EB000237812F0800F46494FEA420203F00103D3
:103EC00007D01A43D2B28B5CA27043F00103237077
:103ED00010BD1343DBB2A370CB5C237010BD6279BD
:103EE000237812F0800F3A494FEA420203F00103AF
:103EF00007D01A43D2B28B5C627143F00103237086
:103F000010BD1343DBB26371CB5C237010BD22790B
:103F1000237812F0800F2E494FEA420203F001038A
:103F200007D01A43D2B28B5C227143F00103237095
:103F300010BD1343DBB22371CB5C237010BDE2795B
:103F4000237812F0800F22494FEA420203F0010366
:103F500007D01A43D2B28B5CE27143F001032370A5
:103F600010BD1343DBB2E371CB5C237010BDA279AB
:103F7000237812F0800F16494FEA420203F0010342
:103F800007D01A43D2B28B5CA27143F001032370B5
:103F900010BD1343DBB2A371CB5C237010BDE0886E
:103FA000FFF7DAF9217810F0800F4FEA400001F0B6
:103FB0000101074B41EA0001E088C9B25B5C18BF10
:103FC00043F001032370BDE81040FFF79FB900BF25
:103FD000942600206278237812F0800FB7494FEAC8
:103FE000420203F0010307D01A43D2B28B5C627025
:103FF00043F00103237010BD1343DBB26370CB5C4D
:10400000237010BDE378217813F0010F4FEA5303BA
:10401000AA4A43EAC113DBB2E370D35C18BF43F092
:104020000103237010BDA378217813F0010F4FEA2C
:104030005303A24A43EAC113DBB2A370D35C18BF97
:1040400043F00103237010BD6379217813F0010F51
:104050004FEA5303994A43EAC113DBB26371D35C5D
:1040600018BF43F00103237010BD2379217813F0AA
:10407000010F4FEA5303914A43EAC113DBB22371A4
:10408000D35C18BF43F00103237010BDE37921789E
:1040900013F0010F4FEA5303884A43EAC113DBB21E
:1040A000E371D35C18BF43F00103237010BDA37903
:1040B000217813F0010F4FEA5303804A43EAC113FA
:1040C000DBB2A371D35C18BF43F00103237010BDB2
:1040D000E088FFF741F9217810F0010F4FEA500016
:1040E000764B40EAC111E088C9B25B5C18BF43F06F
:1040F00001032370BDE81040FFF708B96378217809
:1041000013F0010F4FEA53036C4A43EAC113DBB2C9
:104110006370D35C18BF43F00103237010BDE278D5
:1041200066495300DBB2E370CB5C43EAD2132370E1
:1041300010BDA27861495300DBB2A370CB5C43EAA7
:10414000D213237010BD62795C495300DBB26371F6
:10415000CB5C43EAD213237010BD22795749530038
:10416000DBB22371CB5C43EAD213237010BDE2793A
:1041700052495300DBB2E371CB5C43EAD2132370A4
:1041800010BDA2794D495300DBB2A371CB5C43EA69
:10419000D213237010BDE088FFF7DEF8474B4100D3
:1041A000C9B25B5C43EAD0102070E088BDE81040E3
:1041B000FFF7ACB8627841495300DBB26370CB5C67
:1041C00043EAD213237010BDE3783C4923F07F0209
:1041D00042EA530203F00103E2708A5C1343237046
:1041E00010BDA378354923F07F0242EA530203F061
:1041F0000103A2708A5C1343237010BD63792F49B9
:1042000023F07F0242EA530203F0010362718A5CE9
:104210001343237010BD2379284923F07F0242EA1B
:10422000530203F0010322718A5C1343237010BD13
:10423000E379224923F07F0242EA530203F00103AB
:10424000E2718A5C1343237010BDA3791B4923F0EC
:104250007F0242EA530203F00103A2718A5C134316
:10426000237010BDE088FFF777F820F07F01134B33
:1042700041EA500100F00100C9B25B5C18432070B4
:10428000E088BDE81040FFF741B863780B4923F0A0
:104290007F0242EA530203F0010362708A5C134317
:1042A000237010BDE2780549530043F00103DBB2EF
:1042B000E370CB5C43EAD213237010BD9426002038
:1042C000A278B349530043F00103DBB2A370CB5C87
:1042D00043EAD213237010BD6279AD49530043F015
:1042E0000103DBB26371CB5C43EAD213237010BDD0
:1042F0002279A749530043F00103DBB22371CB5C61
:1043000043EAD213237010BDE279A149530043F070
:104310000103DBB2E371CB5C43EAD213237010BD1F
:10432000A2799B49530043F00103DBB2A371CB5C3C
:1043300043EAD213237010BDE088FFF70DF8944BC9
:10434000410041F00101C9B25B5C43EAD01020702A
:10435000E088BDE81040FEF7D9BF62788C49530071
:1043600043F00103DBB26370CB5C43EAD2132370EA
:1043700010BDE37886495A0803F00103E2708A5CB5
:104380001343237010BDA37881495A0803F0010339
:10439000A2708A5C1343237010BD63797C495A086C
:1043A00003F0010362718A5C1343237010BD23790B
:1043B00077495A0803F0010322718A5C1343237082
:1043C00010BDE37972495A0803F00103E2718A5C77
:1043D0001343237010BDA3796D495A0803F00103FC
:1043E000A2718A5C1343237010BDE088FEF7B4FF0E
:1043F000674BC0F3470100F001005B5C184320707D
:10440000E088BDE81040FEF781BF637860495A0834
:1044100003F0010362708A5C1343237010BDE278DD
:10442000237812F0010F23F0520314BF0022402220
:1044300043F010031343237010BDA278237812F0C9
:10444000010F23F0520314BF0022402243F0100357
:104450001343237010BD6279237812F0010F23F00B
:10446000520314BF0022402243F010031343237071
:1044700010BD2279237812F0010F23F0520314BFEC
:104480000022402243F010031343237010BDE27951
:10449000237812F0010F23F0520314BF00224022B0
:1044A00043F010031343237010BDA279237812F058
:1044B000010F23F0520314BF0022402243F01003E7
:1044C0001343237010BDE088FEF746FF237810F0F9
:1044D000010F23F0520314BF0022402243F01003C7
:1044E0001343237010BD6278237812F0010F23F07C
:1044F000520314BF0022402243F0100313432370E1
:1045000010BDE278237812F0020F23F0520314BF9B
:104510000022402243F010031343237010BDA27801
:10452000237812F0020F23F0520314BF002240221E
:1045300043F010031343237010BD6279237812F007
:10454000020F23F0520314BF0022402243F0100355
:104550001343237010BD2279237812F0020F23F049
:10456000520314BF0022402243F010031343237070
:1045700010BDE279237812F0020F23F0520314BF2A
:104580000022402243F010031343237010BD00BFEC
:1045900094260020A279237812F0020F23F0520310
:1045A00014BF0022402243F010031343237010BDB8
:1045B000E088FEF7D1FE237810F0020F23F05203BB
:1045C00014BF0022402243F010031343237010BD98
:1045D0006278237812F0020F23F0520314BF0022F6
:1045E000402243F010031343237010BDE278237878
:1045F00012F0040F23F0520314BF0022402243F0B4
:1046000010031343237010BDA278237812F0040F17
:1046100023F0520314BF0022402243F0100313433F
:10462000237010BD6279237812F0040F23F0520337
:1046300014BF0022402243F010031343237010BD27
:104640002279237812F0040F23F0520314BF0022C2
:10465000402243F010031343237010BDE279237806
:1046600012F0040F23F0520314BF0022402243F043
:1046700010031343237010BDA279237812F0040FA6
:1046800023F0520314BF0022402243F010031343CF
:10469000237010BDE088FEF75FFE237810F0040F52
:1046A00023F0520314BF0022402243F010031343AF
:1046B000237010BD6278237812F0040F23F05203A8
:1046C00014BF0022402243F010031343237010BD97
:1046D000E278237812F0080F23F0520314BF00226F
:1046E000402243F010031343237010BDA2782378B7
:1046F00012F0080F23F0520314BF0022402243F0AF
:1047000010031343237010BD6279237812F0080F51
:1047100023F0520314BF0022402243F0100313433E
:10472000237010BD2279237812F0080F23F0520372
:1047300014BF0022402243F010031343237010BD26
:10474000E279237812F0080F23F0520314BF0022FD
:10475000402243F010031343237010BDA279237845
:1047600012F0080F23F0520314BF0022402243F03E
:1047700010031343237010BDE088FEF7EDFD23788E
:1047800010F0080F23F0520314BF0022402243F020
:1047900010031343237010BD6278237812F0080FC2
:1047A00023F0520314BF0022402243F010031343AE
:1047B000237010BDE278237812F0100F23F052031B
:1047C00014BF0022402243F010031343237010BD96
:1047D000A278237812F0100F23F0520314BF0022A6
:1047E000402243F010031343237010BD62792378F5
:1047F00012F0100F23F0520314BF0022402243F0A6
:1048000010031343237010BD2279237812F0100F88
:1048100023F0520314BF0022402243F0100313433D
:10482000237010BDE279237812F0100F23F05203A9
:1048300014BF0022402243F010031343237010BD25
:10484000A279237812F0100F23F0520314BF002234
:10485000402243F010031343237010BDE088FEF79D
:104860007BFD237810F0100F23F0520314BF0022B9
:10487000402243F010031343237010BD6278237865
:1048800012F0100F23F0520314BF0022402243F015
:1048900010031343237010BDE278237812F0200F29
:1048A00023F0520314BF0022402243F010031343AD
:1048B000237010BDA278237812F0200F23F052034A
:1048C00014BF0022402243F010031343237010BD95
:1048D0006279237812F0200F23F0520314BF0022D4
:1048E000402243F010031343237010BD2279237834
:1048F00012F0200F23F0520314BF0022402243F095
:1049000010031343237010BDE279237812F0200FB7
:1049100023F0520314BF0022402243F0100313433C
:10492000237010BDA279237812F0200F23F05203D8
:1049300014BF0022402243F010031343237010BD24
:10494000E088FEF709FD237810F0200F23F05203D2
:1049500014BF0022402243F010031343237010BD04
:104960006278237812F0200F23F0520314BF002244
:10497000402243F010031343237010BDE2782378E4
:1049800012F0400F23F0520314BF0022402243F0E4
:1049900010031343237010BDA278237812F0400F48
:1049A00023F0520314BF0022402243F010031343AC
:1049B000237010BD6279237812F0400F23F0520368
:1049C00014BF0022402243F010031343237010BD94
:1049D0002279237812F0400F23F0520314BF0022F3
:1049E000402243F010031343237010BDE279237873
:1049F00012F0400F23F0520314BF0022402243F074
:104A000010031343237010BDA279237812F0400FD6
:104A100023F0520314BF0022402243F0100313433B
:104A2000237010BDE088FEF797FC237810F0400F4C
:104A300023F0520314BF0022402243F0100313431B
:104A4000237010BD6278237812F0400F23F05203D8
:104A500014BF0022402243F010031343237010BD03
:104A600094F903202378002A23F05203B4BF0022D4
:104A7000402243F010031343237010BD94F9022029
:104A80002378002A23F05203B4BF0022402243F0CF
:104A900010031343237010BD94F905202378002AD6
:104AA00023F05203B4BF0022402243F0100313430B
:104AB000237010BD94F904202378002A23F05203B8
:104AC000B4BF0022402243F010031343237010BDF3
:104AD00094F907202378002A23F05203B4BF002260
:104AE000402243F010031343237010BD94F90620B5
:104AF0002378002A23F05203B4BF0022402243F05F
:104B000010031343237010BDE088FEF725FC2378C3
:104B100010F0800F23F0520314BF0022402243F014
:104B200010031343237010BD94F901202378002A49
:104B300023F05203B4BF0022402243F0100313437A
:104B4000237010BDE37823F00103E37010BDA37858
:104B500023F00103A37010BD637923F00103637197
:104B600010BD237923F00103237110BDE37923F0F5
:104B70000103E37110BDA37923F00103A37110BDFC
:104B8000E088FEF7E9FB00F0FE01E088BDE8104098
:104B9000FEF7BCBB637823F00103637010BDE378BC
:104BA00023F00203E37010BDA37823F00203A37087
:104BB00010BD637923F00203637110BD237923F0E4
:104BC0000203237110BDE37923F00203E37110BDEA
:104BD000A37923F00203A37110BDE088FEF7BCFBAC
:104BE00000F0FD01E088BDE81040FEF78FBB637860
:104BF00023F00203637010BDE37823F00403E37035
:104C000010BDA37823F00403A37010BD637923F0D3
:104C10000403637110BD237923F00403237110BDD5
:104C2000E37923F00403E37110BDA37923F00403B7
:104C3000A37110BDE088FEF78FFB00F0FB01E08858
:104C4000BDE81040FEF762BB637823F00403637095
:104C500010BDE37823F00803E37010BDA37823F0C0
:104C60000803A37010BD637923F00803637110BDBE
:104C7000237923F00803237110BDE37923F008039F
:104C8000E37110BDA37923F00803A37110BDE08880
:104C9000FEF762FB00F0F701E088BDE81040FEF788
:104CA00035BB637823F00803637010BDE37823F00D
:104CB0001003E37010BDA37823F01003A37010BDA0
:104CC000637923F01003637110BD237923F010037F
:104CD000237110BDE37923F01003E37110BDA379B4
:104CE00023F01003A37110BDE088FEF735FB00F040
:104CF000EF01E088BDE81040FEF708BB637823F0C1
:104D00001003637010BDE37823F02003E37010BD3F
:104D1000A37823F02003A37010BD637923F0200350
:104D2000637110BD237923F02003237110BDE37953
:104D300023F02003E37110BDA37923F02003A371B6
:104D400010BDE088FEF708FB00F0DF01E088BDE859
:104D50001040FEF7DBBA637823F02003637010BDC8
:104D6000E37823F04003E37010BDA37823F0400301
:104D7000A37010BD637923F04003637110BD2379E4
:104D800023F04003237110BDE37923F04003E37166
:104D900010BDA37923F04003A37110BDE088FEF796
:104DA000DBFA00F0BF01E088BDE81040FEF7AEBAC4
:104DB000637823F04003637010BDE37803F07F0352
:104DC000E37010BDA37803F07F03A37010BD637977
:104DD00003F07F03637110BD237903F07F03237118
:104DE00010BDE37903F07F03E37110BDA37903F0F5
:104DF0007F03A37110BDE088FEF7AEFA00F07F01DB
:104E0000E088BDE81040FEF781BA637803F07F03C5
:104E1000637010BDE37843F00103E37010BDA37825
:104E200043F00103A37010BD637943F00103637184
:104E300010BD237943F00103237110BDE37943F0E2
:104E40000103E37110BDA37943F00103A37110BD09
:104E5000E088FEF781FA40F00101E088C9B2BDE8C0
:104E60001040FEF753BA637843F00103637010BD3E
:104E7000E37843F00203E37010BDA37843F002032C
:104E8000A37010BD637943F00203637110BD2379F1
:104E900043F00203237110BDE37943F00203E37191
:104EA00010BDA37943F00203A37110BDE088FEF7A3
:104EB00053FA40F00201E088C9B2BDE81040FEF7A5
:104EC00025BA637843F00203637010BDE37843F0C2
:104ED0000403E37010BDA37843F00403A37010BD76
:104EE000637943F00403637110BD237943F0040335
:104EF000237110BDE37943F00403E37110BDA3797E
:104F000043F00403A37110BDE088FEF725FA40F0DA
:104F10000401E088C9B2BDE81040FEF7F7B9637834
:104F200043F00403637010BDE37843F00803E370BB
:104F300010BDA37843F00803A37010BD637943F05C
:104F40000803637110BD237943F00803237110BD7A
:104F5000E37943F00803E37110BDA37943F008033C
:104F6000A37110BDE088FEF7F7F940F00801E08872
:104F7000C9B2BDE81040FEF7C9B9637843F0080331
:104F8000637010BDE37843F01003E37010BDA378A5
:104F900043F01003A37010BD637943F010036371F5
:104FA00010BD237943F01003237110BDE37943F062
:104FB0001003E37110BDA37943F01003A37110BD7A
:104FC000E088FEF7C9F940F01001E088C9B2BDE8F9
:104FD0001040FEF79BB9637843F01003637010BD77
:104FE000E37843F02003E37010BDA37843F020037F
:104FF000A37010BD637943F02003637110BD237962
:1050000043F02003237110BDE37943F02003E371E3
:1050100010BDA37943F02003A37110BDE088FEF713
:105020009BF940F02001E088C9B2BDE81040FEF7CE
:105030006DB9637843F02003637010BDE37843F0EB
:105040004003E37010BDA37843F04003A37010BD8C
:10505000637943F04003637110BD237943F040034B
:10506000237110BDE37943F04003E37110BDA379D0
:1050700043F04003A37110BDE088FEF76DF940F0E6
:105080004001E088C9B2BDE81040FEF73FB963783F
:1050900043F04003637010BDE37863F07F03E37077
:1050A00010BDA37863F07F03A37010BD637963F034
:1050B0007F03637110BD237963F07F03237110BDFB
:1050C000E37963F07F03E37110BDA37963F07F039D
:1050D000A37110BDE088FEF73FF960F07F01E08822
:1050E000C9B2BDE81040FEF711B9637863F07F03E1
:1050F000637010BD70B504468089431CA381FEF720
:105100002BF9034B1A5C0138236A9B1A236201E0D6
:1051100084240020FE2802F2FA80DFE810F006085E
:10512000670DB108B109C108CE0D970A820C4A0873
:105130004008A108CB09DC08D50DB00AD10B130833
:105140006D0DB508E509F708DC0DA20AF30B61083F
:105150004508A508FF091509E30DC00AFF0020084E
:10516000130EB908190A3009EA0D8F0E07017808E5
:105170002F0EA908330A4B09F10D300C14012D082C
:105180005F0EBD08690A8109FF0D290C18018A0804
:105190004A0EAD084D0A6609F80D630CF810A70C0D
:1051A000C70CE70C070D270D730D470D870CF81082
:1051B000CA0CEA0C0A0D2A0D800D4A0D8A0CAA0CA5
:1051C000F810ED0C0D0D2D0D8D0D4D0D8D0CAD0C44
:1051D000CD0CF810100D300D9A0D500D900CB00C38
:1051E000D00CF00CF810330DA70D530D930CB30C2D
:1051F000D30CF30C130DF810B40D560D990CB90C1B
:10520000D90CF90C190D390DEF10590D960CB60C7F
:10521000D60CF60C160D360DC10DF810CA01E501BD
:1052200000021B023602510280026C027A049D04C5
:10523000BC04DB04FA04190552053805C802E4026F
:1052400000031C033B03570378037303A205C20545
:10525000E20502062506450677066506C003CA0371
:10526000D403DE03E803F2030304FC03C706CF06FE
:10527000D706DF06E706EF06FC06F70625042D0431
:1052800035043D0445044D045A0455041C073607F3
:1052900050076A078407A307C007BD0752019A0B8E
:1052A0001C01E30B85015A0BA702D20A71011C0CE9
:1052B0004001A80EB601FC0B7D05E30A6401A70BB3
:1052C0003801380C89016A0B9F03F40A7501700CD0
:1052D0004401430CBA01A40EA206050B6801B40BED
:1052E0003C01750EAD017A0B1704160B79013A08D3
:1052F00048017D0CBE01F8100F07270B6C01C10B94
:1053000024014D0CB1018A0B6D04380B7F013D085F
:105310004D01520CC401A40EE607490B237813F08B
:10532000400F07D0A3890133A38170BD237813F008
:10533000400FF7D0A089FEF70FF8A38940B20130E3
:105340001844A08170BD237813F0010FE9E723789A
:1053500013F0010FEDE7237813F0400F07D0A38976
:105360000233A38170BD94F90030002BF7DBA089D4
:105370004FF00005431CA381FDF7EEFF60F3070526
:10538000A089FDF7E9FF60F30F25A58170BD2378A3
:1053900013F0010FE2E7237813F0040FDEE7237820
:1053A00013F0400F06E0237813F0010F02E023789A
:1053B00013F0040FD3D0DAE794F90030002BCEDAE3
:1053C000D5E7237813F0400F41F0A187E089431C13
:1053D000E381FDF7C1FF2073E089431CE381FDF702
:1053E000BBFF607370BD237813F0010FECE72378E7
:1053F00013F0040FE8E794F90030002BE6DA70BDF3
:10540000237813F0400F06E0237813F0010F02E039
:10541000237813F0040F01F07A87D7E794F900306E
:10542000002B81F27487D1E7237813F0400F02E05C
:10543000237813F0010F92D1A0894FF00005431C8F
:10544000A381FDF789FF60F30705A089431CA381B1
:10545000FDF782FF60F30F25E089617B013880B2A0
:10546000E081FDF753FFE089217B013880B2E081C4
:10547000FDF74CFFA58170BD237813F0040FDAE728
:1054800094F90030002BD7DA69E7237813F0400F46
:1054900006E0237813F0010F02E0237813F0040FE5
:1054A0003FF45DAFC8E794F90030002BBFF657AF6B
:1054B000C2E76378E27899185340C8B2C1F3072174
:1054C0004240607022F07F029A43B14A125C14BFDE
:1054D00004250025114383EA000202F0100241EA8C
:1054E00002032B43237070BD6378A2789918534050
:1054F000C8B2C1F307214240607022F07F029A4394
:10550000A34A125C14BF04250025114383EA00025C
:1055100002F0100241EA02032B43237070BD63784E
:10552000627999185340C8B2C1F3072142406070B4
:1055300022F07F029A43964A125C14BF042500258C
:10554000114383EA000202F0100241EA02032B43F6
:10555000237070BD6378227999185340C8B2C1F3A3
:1055600007214240607022F07F029A43884A125C11
:1055700014BF04250025114383EA000202F0100243
:1055800041EA02032B43237070BD6378E27A9918D5
:105590005340C8B2C1F307214240607022F07F023D
:1055A0009A437B4A125C14BF04250025114383EA09
:1055B000000202F0100241EA02032B43237070BD87
:1055C0006378A27A99185340C8B2C1F307214240C8
:1055D000607022F07F029A436D4A125C14BF04256A
:1055E0000025114383EA000202F0100241EA02039F
:1055F0002B43237070BD62785300D9B24A4061706A
:1056000012F0800F01F0100242EA1323604A14BF27
:1056100004200020525C13430343237070BDA08913
:105620006589431CA381FDF797FE45FA80F080B29F
:10563000FDF792FE637856491A184340D5B2C2F37B
:105640000722DBB26840495D657020EA0300114320
:1056500083EA050210F0800F02F0100214BF04204C
:10566000002041EA02030343237070BDA089431C5C
:10567000A381FDF771FE637845491A184340D5B2FE
:10568000C2F30722DBB26840495D657020EA03007F
:10569000114383EA050210F0800F02F0100214BFDC
:1056A0000420002041EA02030343237070BD6278A6
:1056B000E378D11A5340C8B2C1F3072142404942AE
:1056C00060701A4012F0800F314A125C14BF062538
:1056D0000225114383EA000202F0100241EA0203AC
:1056E0002B43237070BD6278A378D11A5340C8B29F
:1056F000C1F307214240494260701A4012F0800F06
:10570000234A125C14BF06250225114383EA0002D6
:1057100002F0100241EA02032B43237070BD62784D
:105720006379D11A5340C8B2C1F3072142404942BC
:1057300060701A4012F0800F154A125C14BF0625E3
:105740000225114383EA000202F0100241EA02033B
:105750002B43237070BD62782379D11A5340C8B2AD
:10576000C1F307214240494260701A4012F0800F95
:10577000074A125C14BF06250225114383EA000282
:1057800002F0100241EA02032B43237070BD00BFF8
:105790009C2700206278E37AD11A5340C8B2C1F343
:1057A00007214240494260701A4012F0800FA84A17
:1057B000125C14BF06250225114383EA000202F0A1
:1057C000100241EA02032B43237070BD6278A37A72
:1057D000D11A5340C8B2C1F3072142404942607018
:1057E0001A4012F0800F9A4A125C14BF0625022557
:1057F000114383EA000202F0100241EA02032B4344
:10580000237070BD002363704223237070BDA08994
:105810006589431CA381FDF79FFD45FA80F080B2A6
:10582000FDF79AFD63781A1A5840D1B2C2F30722E5
:10583000C0B24B4052426170034013F0800F844B62
:105840005B5C14BF062502251A4380EA010303F0BE
:10585000100342EA03002843207070BDA089431C56
:10586000A381FDF779FD63781A1A5840D1B2C2F3CB
:105870000722C0B24B4052426170034013F0800FC8
:10588000734B5B5C14BF062502251A4380EA0103B3
:1058900003F0100342EA03002843207070BD6278D1
:1058A000E37813406B4A6370D35C43F010032370BA
:1058B00070BD6278A3781340664A6370D35C43F08E
:1058C0001003237070BD627863791340614A63707E
:1058D000D35C43F01003237070BD627823791340CA
:1058E0005C4A6370D35C43F01003237070BD627830
:1058F000E37A1340574A6370D35C43F0100323707C
:1059000070BD6278A37A1340524A6370D35C43F04F
:105910001003237070BD63784E4AD35C43F01003CC
:10592000237070BDA0896589431CA381FDF714FD18
:1059300045FA80F080B2FDF70FFD63781840454BC3
:105940001B5C607043F01003237070BDA089431C82
:10595000A381FDF701FD637818403E4B1B5C60702E
:1059600043F01003237070BD6278E3781343394A23
:105970006370D35C237070BD6278A3781343354A9B
:105980006370D35C237070BD627863791343314ACE
:105990006370D35C237070BD6278237913432D4A02
:1059A0006370D35C237070BD6278E37A1343294A35
:1059B0006370D35C237070BD6278A37A1343254A69
:1059C0006370D35C237070BD6378224AD35C23700C
:1059D00070BDA0896589431CA381FDF7BDFC45FA14
:1059E00080F080B2FDF7B8FC63781843194BC0B261
:1059F0001B5C6070237070BDA089431CA381FDF700
:105A0000ABFC63781843134BC0B21B5C607023700F
:105A100070BD6378E178227802F001005A184B409B
:105A20000244D0B2C2F307224140607021F07F01EE
:105A300099430749095C14BF04250025114383EAF3
:105A4000000202F0100241EA02032B43237070BDF2
:105A50009C270020942600206378A178227802F009
:105A600001005A184B400244D0B2C2F30722414011
:105A7000607021F07F019943BA49095C14BF042585
:105A80000025114383EA000202F0100241EA0203FA
:105A90002B43237070BD63786179227802F0010096
:105AA0005A184B400244D0B2C2F307224140607002
:105AB00021F07F019943AB49095C14BF04250025FF
:105AC000114383EA000202F0100241EA02032B4371
:105AD000237070BD63782179227802F001005A1892
:105AE0004B400244D0B2C2F307224140607021F023
:105AF0007F0199439B49095C14BF0425002511438C
:105B000083EA000202F0100241EA02032B432370F1
:105B100070BD6378E17A227802F001005A184B4098
:105B20000244D0B2C2F307224140607021F07F01ED
:105B300099438C49095C14BF04250025114383EA6D
:105B4000000202F0100241EA02032B43237070BDF1
:105B50006378A17A227802F001005A184B4002447F
:105B6000D0B2C2F307224140607021F07F01994317
:105B70007C49095C14BF04250025114383EA000217
:105B800002F0100241EA02032B43237070BD237818
:105B9000627803F0010303EB4203D9B2C3F3072396
:105BA0004A40617012F0800F01F0100243EA0203D4
:105BB0006C4A14BF04200020525C1343034323703B
:105BC00070BDA0896589431CA381FDF7C5FB45FA1B
:105BD00080F080B2FDF7C0FB2278637802F001020A
:105BE00060491A4443400244DBB2D5B2C2F30722F3
:105BF0006840495D657020EA0300114383EA0502AD
:105C000010F0800F02F0100214BF0420002041EABF
:105C100002030343237070BDA089431CA381FDF7D9
:105C20009BFB2278637802F001024E491A444340FC
:105C30000244DBB2D5B2C2F307226840495D657009
:105C400020EA0300114383EA050210F0800F02F0FE
:105C5000100214BF0420002041EA02030343237012
:105C600070BD6078E3782278C11A434002F00102E7
:105C70008A1AD1B2C2F307224840524261701840DA
:105C800010F0800F3748405C14BF062502251043F2
:105C900083EA010202F0100240EA02032B43237060
:105CA00070BD6078A3782278C11A434002F00102E7
:105CB0008A1AD1B2C2F3072248405242617018409A
:105CC00010F0800F2748405C14BF062502251043C2
:105CD00083EA010202F0100240EA02032B43237020
:105CE00070BD607863792278C11A434002F00102E6
:105CF0008A1AD1B2C2F3072248405242617018405A
:105D000010F0800F1748405C14BF06250225104391
:105D100083EA010202F0100240EA02032B432370DF
:105D200070BD607823792278C11A434002F00102E5
:105D30008A1AD1B2C2F30722484052426170184019
:105D400010F0800F0748405C14BF06250225104361
:105D500083EA010202F0100240EA02032B4323709F
:105D600070BD00BF9C2700206078E37A2278C11ABA
:105D7000434002F001028A1AD1B2C2F3072248401E
:105D800052426170184010F0800FB448405C14BF5C
:105D900006250225104383EA010202F0100240EAC0
:105DA00002032B43237070BD6078A37A2278C11A56
:105DB000434002F001028A1AD1B2C2F307224840DE
:105DC00052426170184010F0800FA448405C14BF2C
:105DD00006250225104383EA010202F0100240EA80
:105DE00002032B43237070BD237843F30003D9B221
:105DF000C3F3072301F010025B4261701343974A1B
:105E000043F00203525C1343237070BDA08965897F
:105E1000431CA381FDF7A0FA45FA80F080B2FDF79C
:105E20009BFA617823780A1A484003F00103C0B254
:105E3000D31ADAB2C3F3072351405B4262700140C8
:105E400011F0800F8549895C14BF0625022519438E
:105E500080EA020303F0100341EA030028432070A4
:105E600070BDA089431CA381FDF776FA6178237881
:105E70000A1A484003F00103C0B2D31ADAB2C3F3DE
:105E8000072351405B426270014011F0800F73495B
:105E9000895C14BF06250225194380EA020303F03A
:105EA000100341EA03002843207070BD6278E37854
:105EB00053406B4A6370D35C237070BD6278A378E3
:105EC0005340674A6370D35C237070BD6278637916
:105ED0005340634A6370D35C237070BD627823794A
:105EE00053405F4A6370D35C237070BD6278E37A7D
:105EF00053405B4A6370D35C237070BD6278A37AB1
:105F00005340574A6370D35C237070BD00236370A5
:105F10004423237070BDA0896589431CA381FDF7CC
:105F20001BFA45FA80F080B2FDF716FA6378584004
:105F30004B4BC0B21B5C6070237070BDA089431CCA
:105F4000A381FDF709FA63785840454BC0B21B5C4A
:105F50006070237070BD6178E278881A4A40C3B2DD
:105F6000C0F307205940404211405A4011F0800FC1
:105F70003A4902F01002C95C14BF06250225084305
:105F800040EA02032B43237070BD6178A278881A1F
:105F90004A40C3B2C0F307205940404211405A4022
:105FA00011F0800F2D4902F01002C95C14BF0625C4
:105FB0000225084340EA02032B43237070BD617839
:105FC0006279881A4A40C3B2C0F307205940404260
:105FD00011405A4011F0800F204902F01002C95CB4
:105FE00014BF06250225084340EA02032B43237011
:105FF00070BD61782279881A4A40C3B2C0F3072085
:106000005940404211405A4011F0800F134902F0AC
:106010001002C95C14BF06250225084340EA0203AA
:106020002B43237070BD6178E27A881A4A40C3B26C
:10603000C0F307205940404211405A4011F0800FF0
:10604000064902F01002C95C14BF06250225084368
:1060500040EA02032B43237070BD00BF9C27002041
:10606000942600206178A27A881A4A40C3B2C0F30D
:1060700007205940404211405A4011F0800FB14969
:1060800002F01002C95C14BF06250225084340EA4D
:1060900002032B43237070BD4223237070BDA0897F
:1060A0006589431CA381FDF757F945FA80F080B25A
:1060B000FDF752F961780D1A80EA0102EBB2C5F3DF
:1060C0000725D2B259406D4211405A4011F0800F5D
:1060D0009C4902F01002C95C14BF062002200D4347
:1060E00045EA02030343237070BDA089431CA381CA
:1060F000FDF732F961780D1A80EA0102EBB2C5F3BF
:106100000725D2B259406D4211405A4011F0800F1C
:106110008C4902F01002C95C14BF062002200D4316
:1061200045EA02030343237070BDA089431CA38189
:10613000FDF712F9A070A089431CA381FDF70CF9AB
:10614000E07070BDA089431CA381FDF705F92071A3
:10615000A089431CA381FDF7FFF8607170BDA08981
:10616000431CA381FDF7F8F8A072A089431CA3810A
:10617000FDF7F2F8E07270BDA089431CA381FDF722
:10618000EBF8A073A089431CA381FDF7E5F8E07349
:1061900070BD6389A38170BD6389E38170BD608830
:1061A000FDF7DAF8607070BDA088FDF7D5F8607073
:1061B00070BD6589628894F90010AB186A4021F0BF
:1061C000130198B24240608112F4805FC3F3004231
:1061D00014BF1025002541EA02032B43237070BD34
:1061E0006589A28894F90010AB186A4021F0130168
:1061F00098B24240608112F4805FC3F3004214BF42
:106200001025002541EA02032B43237070BD6389EA
:1062100094F900205B0022F0130299B242EA134382
:1062200011F4805F618114BF1020002003432370AC
:1062300070BD6589E28994F90010AB186A4021F0BD
:10624000130198B24240608112F4805FC3F30042B0
:1062500014BF1025002541EA02032B43237070BDB3
:106260006388013B638070BDA388013BA38070BD40
:106270006389013B638170BDE389013BE38170BDAC
:1062800063880133638070BDA3880133A38070BD30
:1062900063890133638170BDE3890133E38170BD9C
:1062A000E17822780139274B02F00102C9B242F0AD
:1062B0000202585C7F29E17001F00F010CBF04233A
:1062C000002302430F2943EA02030CBF10210021DF
:1062D0000B43237070BDA17822780139194B02F06D
:1062E0000102C9B242F00202585C7F29A17001F09C
:1062F0000F010CBF0423002302430F2943EA0203CA
:106300000CBF102100210B43237070BD61792278EE
:1063100001390C4B02F00102C9B242F00202585C92
:106320007F29617101F00F010CBF04230023024398
:106330000F2943EA02030CBF102100210B432370F5
:1063400070BD00BF9C270020217922780139A74B1E
:1063500002F00102C9B242F00202585C7F292171A9
:1063600001F00F010CBF0423002302430F2943EA6D
:1063700002030CBF102100210B43237070BDE17A92
:1063800022780139994B02F00102C9B242F00202AF
:10639000585C7F29E17201F00F010CBF0423002338
:1063A00002430F2943EA02030CBF102100210B43D3
:1063B000237070BDA17A227801398C4B02F0010262
:1063C000C9B242F00202585C7F29A17201F00F01AC
:1063D0000CBF0423002302430F2943EA02030CBF2E
:1063E000102100210B43237070BD617822780139A0
:1063F0007E4B02F00102C9B242F00202585C7F29D2
:10640000617001F00F010CBF0423002302430F2928
:1064100043EA02030CBF102100210B43237070BD1F
:106420006589A089FCF798FF45FA80F080B2FCF7F7
:1064300093FF227801386D4B02F001026689C5B2E4
:10644000A08942F00202595D7F2D42EA010205F067
:106450000F010CBF042300230F2943EA02030CBFE2
:10646000102100210B432370431CA381FCF774FF10
:1064700046FA80F0294680B2BDE87040FCF746BF7E
:10648000E17823780131594A03F00103C9B2525C23
:106490008029E17043EA02030CBF0422002211F0BC
:1064A0000F0F5BB243EA020314BF00221022134312
:1064B000237070BDA178237801314C4A03F00103A9
:1064C000C9B2525C8029A17043EA02030CBF0422C6
:1064D000002211F00F0F5BB243EA020314BF002247
:1064E00010221343237070BD6179237801313F4A34
:1064F00003F00103C9B2525C8029617143EA0203CF
:106500000CBF0422002211F00F0F5BB243EA02031A
:1065100014BF002210221343237070BD2179237809
:106520000131324A03F00103C9B2525C8029217162
:1065300043EA02030CBF0422002211F00F0F5BB2EA
:1065400043EA020314BF002210221343237070BDDC
:10655000E17A23780131254A03F00103C9B2525C84
:106560008029E17243EA02030CBF0422002211F0E9
:106570000F0F5BB243EA020314BF00221022134341
:10658000237070BDA17A23780131184A03F001030A
:10659000C9B2525C8029A17243EA02030CBF0422F3
:1065A000002211F00F0F5BB243EA020314BF002276
:1065B00010221343237070BD6178237801310B4A98
:1065C00003F00103C9B2525C8029617043EA0203FF
:1065D0000CBF0422002211F00F0F5BB243EA02034A
:1065E00014BF002210221343237070BD9C2700208B
:1065F0006589A089FCF7B0FE45FA80F080B2FCF70F
:10660000ABFE01302378C5B2AC4A03F00103A08988
:10661000525D802D668943EA02030CBF04220022EA
:1066200015F00F0F5BB243EA020314BF00221022E1
:1066300013432370431CA381FCF78EFE46FA80F0BF
:10664000294680B2BDE87040FCF760BE62782378CE
:10665000D10923F0130341EA42020B436270237015
:1066600070BD94F90030617803F0010223F0130348
:1066700042EA410243EAD1136270237070BD61782F
:1066800011F0010214BF6FF07F03002343EA5103AE
:106690006370237823F013031343237070BD2378B2
:1066A000607813F0010F23F0130300F0010214BF10
:1066B0006FF07F010021134341EA500123706170A4
:1066C00070BDE089617B013880B2E081FCF71EFE7D
:1066D000E089217B013880B2E081FCF717FE0023BE
:1066E000A38170BDE089617B013880B2E081FCF755
:1066F0000DFEE089217B013880B2E081FCF706FEC7
:106700000823A38170BDE089617B013880B2E081FC
:10671000FCF7FCFDE089217B013880B2E081FCF7C9
:10672000F5FD1023A38170BDE089617B013880B243
:10673000E081FCF7EBFDE089217B013880B2E0814C
:10674000FCF7E4FD1823A38170BDE089617B01386B
:1067500080B2E081FCF7DAFDE089217B013880B26C
:10676000E081FCF7D3FD2023A38170BDE089617B2C
:10677000013880B2E081FCF7C9FDE089217B013856
:1067800080B2E081FCF7C2FD2823A38170BDE089BF
:10679000617B013880B2E081FCF7B8FDE089217BA4
:1067A000013880B2E081FCF7B1FD3023A38170BDD8
:1067B000E089617B013880B2E081FCF7A7FDE089C8
:1067C000217B013880B2E081FCF7A0FD3823A38152
:1067D00070BDE089E178013880B2E081FCF796FD78
:1067E000E089A178013880B2E081BDE87040FCF713
:1067F0008DBDE0896179013880B2E081FCF786FDCA
:10680000E0892179013880B2E081BDE87040FCF771
:106810007DBDE089E17A013880B2E081FCF776FD48
:10682000E089A17A013880B2E081BDE87040FCF7D0
:106830006DBDE0896178013880B2E081FCF766FDCA
:10684000E0892178013880B2E081BDE87040FCF732
:106850005DBDE089431CE381FCF77EFDA070E0890B
:10686000431CE381FCF778FDE07070BDE089431CB8
:10687000E381FCF771FD2071E089431CE381FCF7A3
:106880006BFD607170BDE089431CE381FCF764FD22
:10689000A072E089431CE381FCF75EFDE07270BDED
:1068A000E089431CE381FCF757FD2070E089431C1D
:1068B000E381FCF751FD607070BD00BF9C27002094
:1068C000E378013BDBB2E37043B1A089FCF744FD00
:1068D000A38940B201301844A08170BDA38901335F
:1068E000A38170BDA0894FF00005431CA381FCF774
:1068F00033FD60F30705A089FCF72EFD60F30F253B
:10690000A58170BDA089FCF727FDA38940B20130A5
:106910001844A08170BDA0894FF00005431CA381DD
:10692000FCF71AFD60F30705A089431CA381FCF75F
:1069300013FD60F30F25E089617B013880B2E081AF
:10694000FCF7E4FCE089217B013880B2E081FCF7B0
:10695000DDFCA58170BDE089431CE381FCF7FCFCF4
:106960002073E089431CE381FCF7F6FC607370BD83
:10697000237823F0120343F00103237070BD637882
:10698000DB436370237843F01203237070BDA0894A
:10699000431CA381FCF7E0FC617880B2BDE8704045
:1069A000FCF730BDA089431CA381FCF7D5FC80B265
:1069B000FCF7E2FC607070BD237E23F001032376B8
:1069C00070BD227E208D42F0010121764FF6FF71CD
:1069D000884200F09C8442F0210263620123227607
:1069E000236270BD237883F0010313F0010F23F0BD
:1069F000120214BF002310231343237070BD638859
:106A0000628A63826280A388A28AA382A280E388CA
:106A1000E28AE382E28070BDA388E288E380A280FC
:106A200070BD2388228A2382228070BDE378A37000
:106A300070BDE378637170BDE378237170BDE37856
:106A4000E37270BDE378A37270BDE378637070BDCC
:106A5000A0896589431CA381FCF77EFC45FA80F080
:106A6000E17880B2BDE87040FCF750BCA378E370D9
:106A700070BDA378637170BDA378237170BDA378D6
:106A8000E37270BDA378A37270BDA378637070BD0C
:106A9000A0896589431CA381FCF75EFC45FA80F060
:106AA000A17880B2BDE87040FCF730BC6379E37038
:106AB00070BD6379A37070BD6379237170BD637914
:106AC000E37270BD6379A37270BD6379637070BD4A
:106AD000A0896589431CA381FCF73EFC45FA80F040
:106AE000617980B2BDE87040FCF710BC2379E37097
:106AF00070BD2379A37070BD2379637170BD237954
:106B0000E37270BD2379A37270BD2379637070BD89
:106B1000A0896589431CA381FCF71EFC45FA80F01F
:106B2000217980B2BDE87040FCF7F0BBE37AE370F6
:106B300070BDE37AA37070BDE37A637170BDE37AD0
:106B4000237170BDE37AA37270BDE37A637070BD88
:106B5000A0896589431CA381FCF7FEFB45FA80F000
:106B6000E17980B2BDE87040FCF7D0BBA37AE37056
:106B700070BDA37AA37070BDA37A637170BDA37A50
:106B8000237170BDA37AE37270BDA37A637070BD88
:106B9000A0896589431CA381FCF7DEFB45FA80F0E0
:106BA000A17980B2BDE87040FCF7B0BB6378E370B8
:106BB00070BD6378A37070BD6378637170BD6378D6
:106BC000237170BD6378E37270BD6378A37270BD8A
:106BD000A0896589431CA381FCF7BEFB45FA80F0C0
:106BE000617880B2BDE87040FCF790BB6178608846
:106BF000BDE87040FCF78ABB6178A088BDE87040B2
:106C0000FCF784BBA0896589431CA381FCF7A4FB26
:106C100045FA80F080B2FCF79FFBE07070BDA08960
:106C20006589431CA381FCF797FB45FA80F080B28D
:106C3000FCF792FBA07070BDA0896589431CA381FD
